{
	"contracts/KipuBank.sol": {
		"KipuBank": {
			"abi": [
				{
					"inputs": [
						{
							"internalType": "uint256",
							"name": "_bankCap",
							"type": "uint256"
						},
						{
							"internalType": "uint256",
							"name": "_withdrawalLimit",
							"type": "uint256"
						},
						{
							"internalType": "address",
							"name": "_ethUsdFeed",
							"type": "address"
						}
					],
					"stateMutability": "nonpayable",
					"type": "constructor"
				},
				{
					"inputs": [],
					"name": "AccessControlBadConfirmation",
					"type": "error"
				},
				{
					"inputs": [
						{
							"internalType": "address",
							"name": "account",
							"type": "address"
						},
						{
							"internalType": "bytes32",
							"name": "neededRole",
							"type": "bytes32"
						}
					],
					"name": "AccessControlUnauthorizedAccount",
					"type": "error"
				},
				{
					"inputs": [],
					"name": "AmountMustBeGreaterThanZero",
					"type": "error"
				},
				{
					"inputs": [
						{
							"internalType": "uint256",
							"name": "availableSpace",
							"type": "uint256"
						},
						{
							"internalType": "uint256",
							"name": "amount",
							"type": "uint256"
						}
					],
					"name": "BankCapExceeded",
					"type": "error"
				},
				{
					"inputs": [
						{
							"internalType": "uint256",
							"name": "available",
							"type": "uint256"
						},
						{
							"internalType": "uint256",
							"name": "requested",
							"type": "uint256"
						}
					],
					"name": "InsufficientBalance",
					"type": "error"
				},
				{
					"inputs": [],
					"name": "InvalidAddress",
					"type": "error"
				},
				{
					"inputs": [],
					"name": "NotOwner",
					"type": "error"
				},
				{
					"inputs": [
						{
							"internalType": "address",
							"name": "token",
							"type": "address"
						}
					],
					"name": "SafeERC20FailedOperation",
					"type": "error"
				},
				{
					"inputs": [],
					"name": "TransferFailed",
					"type": "error"
				},
				{
					"inputs": [
						{
							"internalType": "uint256",
							"name": "requested",
							"type": "uint256"
						},
						{
							"internalType": "uint256",
							"name": "limit",
							"type": "uint256"
						}
					],
					"name": "WithdrawalLimitExceeded",
					"type": "error"
				},
				{
					"anonymous": false,
					"inputs": [
						{
							"indexed": true,
							"internalType": "address",
							"name": "user",
							"type": "address"
						},
						{
							"indexed": false,
							"internalType": "uint256",
							"name": "amount",
							"type": "uint256"
						},
						{
							"indexed": true,
							"internalType": "address",
							"name": "operator",
							"type": "address"
						}
					],
					"name": "AdminTopUp",
					"type": "event"
				},
				{
					"anonymous": false,
					"inputs": [
						{
							"indexed": true,
							"internalType": "address",
							"name": "fromUser",
							"type": "address"
						},
						{
							"indexed": true,
							"internalType": "address",
							"name": "to",
							"type": "address"
						},
						{
							"indexed": false,
							"internalType": "uint256",
							"name": "amount",
							"type": "uint256"
						},
						{
							"indexed": true,
							"internalType": "address",
							"name": "operator",
							"type": "address"
						}
					],
					"name": "AdminWithdrawFromUser",
					"type": "event"
				},
				{
					"anonymous": false,
					"inputs": [
						{
							"indexed": false,
							"internalType": "uint256",
							"name": "newCap",
							"type": "uint256"
						}
					],
					"name": "BankCapUpdated",
					"type": "event"
				},
				{
					"anonymous": false,
					"inputs": [
						{
							"indexed": true,
							"internalType": "address",
							"name": "user",
							"type": "address"
						},
						{
							"indexed": false,
							"internalType": "uint256",
							"name": "amount",
							"type": "uint256"
						}
					],
					"name": "Deposit",
					"type": "event"
				},
				{
					"anonymous": false,
					"inputs": [
						{
							"indexed": true,
							"internalType": "address",
							"name": "token",
							"type": "address"
						},
						{
							"indexed": true,
							"internalType": "address",
							"name": "user",
							"type": "address"
						},
						{
							"indexed": false,
							"internalType": "uint256",
							"name": "amount",
							"type": "uint256"
						}
					],
					"name": "ERC20Deposit",
					"type": "event"
				},
				{
					"anonymous": false,
					"inputs": [
						{
							"indexed": true,
							"internalType": "address",
							"name": "token",
							"type": "address"
						},
						{
							"indexed": true,
							"internalType": "address",
							"name": "user",
							"type": "address"
						},
						{
							"indexed": false,
							"internalType": "uint256",
							"name": "amount",
							"type": "uint256"
						}
					],
					"name": "ERC20Withdrawal",
					"type": "event"
				},
				{
					"anonymous": false,
					"inputs": [
						{
							"indexed": true,
							"internalType": "address",
							"name": "user",
							"type": "address"
						},
						{
							"indexed": false,
							"internalType": "uint256",
							"name": "amount",
							"type": "uint256"
						},
						{
							"indexed": true,
							"internalType": "address",
							"name": "operator",
							"type": "address"
						}
					],
					"name": "ExcessAssigned",
					"type": "event"
				},
				{
					"anonymous": false,
					"inputs": [
						{
							"indexed": true,
							"internalType": "address",
							"name": "newFeed",
							"type": "address"
						},
						{
							"indexed": true,
							"internalType": "address",
							"name": "operator",
							"type": "address"
						}
					],
					"name": "PriceFeedUpdated",
					"type": "event"
				},
				{
					"anonymous": false,
					"inputs": [
						{
							"indexed": true,
							"internalType": "bytes32",
							"name": "role",
							"type": "bytes32"
						},
						{
							"indexed": true,
							"internalType": "bytes32",
							"name": "previousAdminRole",
							"type": "bytes32"
						},
						{
							"indexed": true,
							"internalType": "bytes32",
							"name": "newAdminRole",
							"type": "bytes32"
						}
					],
					"name": "RoleAdminChanged",
					"type": "event"
				},
				{
					"anonymous": false,
					"inputs": [
						{
							"indexed": true,
							"internalType": "bytes32",
							"name": "role",
							"type": "bytes32"
						},
						{
							"indexed": true,
							"internalType": "address",
							"name": "account",
							"type": "address"
						},
						{
							"indexed": true,
							"internalType": "address",
							"name": "sender",
							"type": "address"
						}
					],
					"name": "RoleGranted",
					"type": "event"
				},
				{
					"anonymous": false,
					"inputs": [
						{
							"indexed": true,
							"internalType": "bytes32",
							"name": "role",
							"type": "bytes32"
						},
						{
							"indexed": true,
							"internalType": "address",
							"name": "account",
							"type": "address"
						},
						{
							"indexed": true,
							"internalType": "address",
							"name": "sender",
							"type": "address"
						}
					],
					"name": "RoleRevoked",
					"type": "event"
				},
				{
					"anonymous": false,
					"inputs": [
						{
							"indexed": true,
							"internalType": "address",
							"name": "token",
							"type": "address"
						},
						{
							"indexed": false,
							"internalType": "uint256",
							"name": "newCap",
							"type": "uint256"
						}
					],
					"name": "TokenCapUpdated",
					"type": "event"
				},
				{
					"anonymous": false,
					"inputs": [
						{
							"indexed": true,
							"internalType": "address",
							"name": "fromUser",
							"type": "address"
						},
						{
							"indexed": true,
							"internalType": "address",
							"name": "toUser",
							"type": "address"
						},
						{
							"indexed": false,
							"internalType": "uint256",
							"name": "amount",
							"type": "uint256"
						},
						{
							"indexed": true,
							"internalType": "address",
							"name": "operator",
							"type": "address"
						}
					],
					"name": "VaultReassigned",
					"type": "event"
				},
				{
					"anonymous": false,
					"inputs": [
						{
							"indexed": true,
							"internalType": "address",
							"name": "user",
							"type": "address"
						},
						{
							"indexed": false,
							"internalType": "uint256",
							"name": "amount",
							"type": "uint256"
						}
					],
					"name": "Withdrawal",
					"type": "event"
				},
				{
					"inputs": [],
					"name": "DEFAULT_ADMIN_ROLE",
					"outputs": [
						{
							"internalType": "bytes32",
							"name": "",
							"type": "bytes32"
						}
					],
					"stateMutability": "view",
					"type": "function"
				},
				{
					"inputs": [],
					"name": "MAX_PRICE_AGE",
					"outputs": [
						{
							"internalType": "uint256",
							"name": "",
							"type": "uint256"
						}
					],
					"stateMutability": "view",
					"type": "function"
				},
				{
					"inputs": [],
					"name": "MAX_WITHDRAW_USD_8",
					"outputs": [
						{
							"internalType": "uint256",
							"name": "",
							"type": "uint256"
						}
					],
					"stateMutability": "view",
					"type": "function"
				},
				{
					"inputs": [],
					"name": "RECOVERY_ROLE",
					"outputs": [
						{
							"internalType": "bytes32",
							"name": "",
							"type": "bytes32"
						}
					],
					"stateMutability": "view",
					"type": "function"
				},
				{
					"inputs": [
						{
							"internalType": "address",
							"name": "user",
							"type": "address"
						},
						{
							"internalType": "uint256",
							"name": "amount",
							"type": "uint256"
						}
					],
					"name": "adminAssignExcessToUser",
					"outputs": [],
					"stateMutability": "nonpayable",
					"type": "function"
				},
				{
					"inputs": [
						{
							"internalType": "address",
							"name": "fromUser",
							"type": "address"
						},
						{
							"internalType": "address",
							"name": "toUser",
							"type": "address"
						},
						{
							"internalType": "uint256",
							"name": "amount",
							"type": "uint256"
						}
					],
					"name": "adminReassignVault",
					"outputs": [],
					"stateMutability": "nonpayable",
					"type": "function"
				},
				{
					"inputs": [
						{
							"internalType": "address",
							"name": "user",
							"type": "address"
						}
					],
					"name": "adminTopUpUser",
					"outputs": [],
					"stateMutability": "payable",
					"type": "function"
				},
				{
					"inputs": [
						{
							"internalType": "address",
							"name": "fromUser",
							"type": "address"
						},
						{
							"internalType": "address payable",
							"name": "to",
							"type": "address"
						},
						{
							"internalType": "uint256",
							"name": "amount",
							"type": "uint256"
						}
					],
					"name": "adminWithdrawFromUser",
					"outputs": [],
					"stateMutability": "nonpayable",
					"type": "function"
				},
				{
					"inputs": [],
					"name": "bankCap",
					"outputs": [
						{
							"internalType": "uint256",
							"name": "",
							"type": "uint256"
						}
					],
					"stateMutability": "view",
					"type": "function"
				},
				{
					"inputs": [],
					"name": "deposit",
					"outputs": [],
					"stateMutability": "payable",
					"type": "function"
				},
				{
					"inputs": [],
					"name": "depositCount",
					"outputs": [
						{
							"internalType": "uint256",
							"name": "",
							"type": "uint256"
						}
					],
					"stateMutability": "view",
					"type": "function"
				},
				{
					"inputs": [
						{
							"internalType": "address",
							"name": "token",
							"type": "address"
						},
						{
							"internalType": "uint256",
							"name": "amount",
							"type": "uint256"
						}
					],
					"name": "depositERC20",
					"outputs": [],
					"stateMutability": "nonpayable",
					"type": "function"
				},
				{
					"inputs": [],
					"name": "ethUsdFeed",
					"outputs": [
						{
							"internalType": "contract AggregatorV3Interface",
							"name": "",
							"type": "address"
						}
					],
					"stateMutability": "view",
					"type": "function"
				},
				{
					"inputs": [],
					"name": "getEthUsdPrice8",
					"outputs": [
						{
							"internalType": "uint256",
							"name": "price8",
							"type": "uint256"
						}
					],
					"stateMutability": "view",
					"type": "function"
				},
				{
					"inputs": [
						{
							"internalType": "bytes32",
							"name": "role",
							"type": "bytes32"
						}
					],
					"name": "getRoleAdmin",
					"outputs": [
						{
							"internalType": "bytes32",
							"name": "",
							"type": "bytes32"
						}
					],
					"stateMutability": "view",
					"type": "function"
				},
				{
					"inputs": [],
					"name": "getVaultBalance",
					"outputs": [
						{
							"internalType": "uint256",
							"name": "",
							"type": "uint256"
						}
					],
					"stateMutability": "view",
					"type": "function"
				},
				{
					"inputs": [
						{
							"internalType": "address",
							"name": "token",
							"type": "address"
						}
					],
					"name": "getVaultBalanceERC20",
					"outputs": [
						{
							"internalType": "uint256",
							"name": "",
							"type": "uint256"
						}
					],
					"stateMutability": "view",
					"type": "function"
				},
				{
					"inputs": [
						{
							"internalType": "bytes32",
							"name": "role",
							"type": "bytes32"
						},
						{
							"internalType": "address",
							"name": "account",
							"type": "address"
						}
					],
					"name": "grantRole",
					"outputs": [],
					"stateMutability": "nonpayable",
					"type": "function"
				},
				{
					"inputs": [
						{
							"internalType": "bytes32",
							"name": "role",
							"type": "bytes32"
						},
						{
							"internalType": "address",
							"name": "account",
							"type": "address"
						}
					],
					"name": "hasRole",
					"outputs": [
						{
							"internalType": "bool",
							"name": "",
							"type": "bool"
						}
					],
					"stateMutability": "view",
					"type": "function"
				},
				{
					"inputs": [],
					"name": "owner",
					"outputs": [
						{
							"internalType": "address",
							"name": "",
							"type": "address"
						}
					],
					"stateMutability": "view",
					"type": "function"
				},
				{
					"inputs": [
						{
							"internalType": "uint256",
							"name": "amountWei",
							"type": "uint256"
						}
					],
					"name": "quoteWeiInUsd8",
					"outputs": [
						{
							"internalType": "uint256",
							"name": "usdAmount8",
							"type": "uint256"
						}
					],
					"stateMutability": "view",
					"type": "function"
				},
				{
					"inputs": [
						{
							"internalType": "bytes32",
							"name": "role",
							"type": "bytes32"
						},
						{
							"internalType": "address",
							"name": "callerConfirmation",
							"type": "address"
						}
					],
					"name": "renounceRole",
					"outputs": [],
					"stateMutability": "nonpayable",
					"type": "function"
				},
				{
					"inputs": [
						{
							"internalType": "bytes32",
							"name": "role",
							"type": "bytes32"
						},
						{
							"internalType": "address",
							"name": "account",
							"type": "address"
						}
					],
					"name": "revokeRole",
					"outputs": [],
					"stateMutability": "nonpayable",
					"type": "function"
				},
				{
					"inputs": [
						{
							"internalType": "uint256",
							"name": "_newCap",
							"type": "uint256"
						}
					],
					"name": "setBankCap",
					"outputs": [],
					"stateMutability": "nonpayable",
					"type": "function"
				},
				{
					"inputs": [
						{
							"internalType": "address",
							"name": "token",
							"type": "address"
						},
						{
							"internalType": "uint256",
							"name": "newCap",
							"type": "uint256"
						}
					],
					"name": "setTokenCap",
					"outputs": [],
					"stateMutability": "nonpayable",
					"type": "function"
				},
				{
					"inputs": [
						{
							"internalType": "bytes4",
							"name": "interfaceId",
							"type": "bytes4"
						}
					],
					"name": "supportsInterface",
					"outputs": [
						{
							"internalType": "bool",
							"name": "",
							"type": "bool"
						}
					],
					"stateMutability": "view",
					"type": "function"
				},
				{
					"inputs": [
						{
							"internalType": "address",
							"name": "",
							"type": "address"
						}
					],
					"name": "tokenCap",
					"outputs": [
						{
							"internalType": "uint256",
							"name": "",
							"type": "uint256"
						}
					],
					"stateMutability": "view",
					"type": "function"
				},
				{
					"inputs": [],
					"name": "totalBankBalance",
					"outputs": [
						{
							"internalType": "uint256",
							"name": "",
							"type": "uint256"
						}
					],
					"stateMutability": "view",
					"type": "function"
				},
				{
					"inputs": [
						{
							"internalType": "address",
							"name": "",
							"type": "address"
						}
					],
					"name": "totalTokenBalance",
					"outputs": [
						{
							"internalType": "uint256",
							"name": "",
							"type": "uint256"
						}
					],
					"stateMutability": "view",
					"type": "function"
				},
				{
					"inputs": [
						{
							"internalType": "uint256",
							"name": "_amount",
							"type": "uint256"
						}
					],
					"name": "withdraw",
					"outputs": [],
					"stateMutability": "nonpayable",
					"type": "function"
				},
				{
					"inputs": [
						{
							"internalType": "address",
							"name": "token",
							"type": "address"
						},
						{
							"internalType": "uint256",
							"name": "amount",
							"type": "uint256"
						}
					],
					"name": "withdrawERC20",
					"outputs": [],
					"stateMutability": "nonpayable",
					"type": "function"
				},
				{
					"inputs": [],
					"name": "withdrawalCount",
					"outputs": [
						{
							"internalType": "uint256",
							"name": "",
							"type": "uint256"
						}
					],
					"stateMutability": "view",
					"type": "function"
				},
				{
					"inputs": [],
					"name": "withdrawalLimit",
					"outputs": [
						{
							"internalType": "uint256",
							"name": "",
							"type": "uint256"
						}
					],
					"stateMutability": "view",
					"type": "function"
				}
			],
			"devdoc": {
				"errors": {
					"AccessControlBadConfirmation()": [
						{
							"details": "The caller of a function is not the expected one. NOTE: Don't confuse with {AccessControlUnauthorizedAccount}."
						}
					],
					"AccessControlUnauthorizedAccount(address,bytes32)": [
						{
							"details": "The `account` is missing a role."
						}
					],
					"SafeERC20FailedOperation(address)": [
						{
							"details": "An operation with an ERC-20 token failed."
						}
					]
				},
				"events": {
					"RoleAdminChanged(bytes32,bytes32,bytes32)": {
						"details": "Emitted when `newAdminRole` is set as ``role``'s admin role, replacing `previousAdminRole` `DEFAULT_ADMIN_ROLE` is the starting admin for all roles, despite {RoleAdminChanged} not being emitted to signal this."
					},
					"RoleGranted(bytes32,address,address)": {
						"details": "Emitted when `account` is granted `role`. `sender` is the account that originated the contract call. This account bears the admin role (for the granted role). Expected in cases where the role was granted using the internal {AccessControl-_grantRole}."
					},
					"RoleRevoked(bytes32,address,address)": {
						"details": "Emitted when `account` is revoked `role`. `sender` is the account that originated the contract call:   - if using `revokeRole`, it is the admin role bearer   - if using `renounceRole`, it is the role bearer (i.e. `account`)"
					}
				},
				"kind": "dev",
				"methods": {
					"adminAssignExcessToUser(address,uint256)": {
						"details": "Requires available excess ETH: address(this).balance >= totalBankBalance + amount."
					},
					"adminReassignVault(address,address,uint256)": {
						"details": "Useful to correct wrongly credited balances. Keeps totalBankBalance unchanged."
					},
					"adminTopUpUser(address)": {
						"details": "Preserves accounting consistency: msg.value is added to the user's vault and to totalBankBalance."
					},
					"adminWithdrawFromUser(address,address,uint256)": {
						"details": "Use with extreme caution. Keeps consistency by reducing totalBankBalance and transferring ETH."
					},
					"constructor": {
						"params": {
							"_bankCap": "The maximum total ETH the bank can hold.",
							"_withdrawalLimit": "The maximum ETH per withdrawal transaction."
						}
					},
					"depositERC20(address,uint256)": {
						"details": "Supports fee-on-transfer tokens: credits the actual amount received."
					},
					"getEthUsdPrice8()": {
						"details": "Performs basic checks: price > 0, not stale."
					},
					"getRoleAdmin(bytes32)": {
						"details": "Returns the admin role that controls `role`. See {grantRole} and {revokeRole}. To change a role's admin, use {_setRoleAdmin}."
					},
					"getVaultBalance()": {
						"returns": {
							"_0": "The amount of ETH in wei."
						}
					},
					"grantRole(bytes32,address)": {
						"details": "Grants `role` to `account`. If `account` had not been already granted `role`, emits a {RoleGranted} event. Requirements: - the caller must have ``role``'s admin role. May emit a {RoleGranted} event."
					},
					"hasRole(bytes32,address)": {
						"details": "Returns `true` if `account` has been granted `role`."
					},
					"renounceRole(bytes32,address)": {
						"details": "Revokes `role` from the calling account. Roles are often managed via {grantRole} and {revokeRole}: this function's purpose is to provide a mechanism for accounts to lose their privileges if they are compromised (such as when a trusted device is misplaced). If the calling account had been revoked `role`, emits a {RoleRevoked} event. Requirements: - the caller must be `callerConfirmation`. May emit a {RoleRevoked} event."
					},
					"revokeRole(bytes32,address)": {
						"details": "Revokes `role` from `account`. If `account` had been granted `role`, emits a {RoleRevoked} event. Requirements: - the caller must have ``role``'s admin role. May emit a {RoleRevoked} event."
					},
					"setBankCap(uint256)": {
						"params": {
							"_newCap": "The new capacity for the bank."
						}
					},
					"supportsInterface(bytes4)": {
						"details": "Returns true if this contract implements the interface defined by `interfaceId`. See the corresponding https://eips.ethereum.org/EIPS/eip-165#how-interfaces-are-identified[ERC section] to learn more about how these ids are created. This function call must use less than 30 000 gas."
					},
					"withdraw(uint256)": {
						"params": {
							"_amount": "The amount of ETH to withdraw. The transaction will revert if the amount is zero, exceeds the user's balance, or is greater than the single transaction withdrawal limit."
						}
					},
					"withdrawERC20(address,uint256)": {
						"details": "For fee-on-transfer tokens, the user may receive less than 'amount' due to the token's fee."
					}
				},
				"version": 1
			},
			"evm": {
				"assembly": "    /* \"contracts/KipuBank.sol\":487:13554  contract KipuBank is AccessControl {... */\n  mstore(0x40, 0xa0)\n    /* \"contracts/KipuBank.sol\":3567:3908  constructor(uint256 _bankCap, uint256 _withdrawalLimit, address _ethUsdFeed) {... */\n  callvalue\n  dup1\n  iszero\n  tag_1\n  jumpi\n  revert(0x00, 0x00)\ntag_1:\n  pop\n  mload(0x40)\n  sub(codesize, bytecodeSize)\n  dup1\n  bytecodeSize\n  dup4\n  codecopy\n  dup2\n  dup2\n  add\n  0x40\n  mstore\n  dup2\n  add\n  swap1\n  tag_2\n  swap2\n  swap1\n  tag_3\n  jump\t// in\ntag_2:\n    /* \"contracts/KipuBank.sol\":3654:3696  _grantRole(DEFAULT_ADMIN_ROLE, msg.sender) */\n  tag_6\n    /* \"@openzeppelin/contracts/access/AccessControl.sol\":2241:2245  0x00 */\n  0x00\n    /* \"contracts/KipuBank.sol\":3665:3683  DEFAULT_ADMIN_ROLE */\n  0x00\n  shl\n    /* \"contracts/KipuBank.sol\":3685:3695  msg.sender */\n  caller\n    /* \"contracts/KipuBank.sol\":3654:3664  _grantRole */\n  shl(0x20, tag_7)\n    /* \"contracts/KipuBank.sol\":3654:3696  _grantRole(DEFAULT_ADMIN_ROLE, msg.sender) */\n  0x20\n  shr\n  jump\t// in\ntag_6:\n  pop\n    /* \"contracts/KipuBank.sol\":3706:3743  _grantRole(RECOVERY_ROLE, msg.sender) */\n  tag_8\n    /* \"contracts/KipuBank.sol\":602:628  keccak256(\"RECOVERY_ROLE\") */\n  0x0acf805600123ef007091da3b3ffb39474074c656c127aa68cb0ffec232a8ff8\n    /* \"contracts/KipuBank.sol\":3732:3742  msg.sender */\n  caller\n    /* \"contracts/KipuBank.sol\":3706:3716  _grantRole */\n  shl(0x20, tag_7)\n    /* \"contracts/KipuBank.sol\":3706:3743  _grantRole(RECOVERY_ROLE, msg.sender) */\n  0x20\n  shr\n  jump\t// in\ntag_8:\n  pop\n    /* \"contracts/KipuBank.sol\":3762:3772  msg.sender */\n  caller\n    /* \"contracts/KipuBank.sol\":3754:3759  owner */\n  0x02\n  0x00\n    /* \"contracts/KipuBank.sol\":3754:3772  owner = msg.sender */\n  0x0100\n  exp\n  dup2\n  sload\n  dup2\n  0xffffffffffffffffffffffffffffffffffffffff\n  mul\n  not\n  and\n  swap1\n  dup4\n  0xffffffffffffffffffffffffffffffffffffffff\n  and\n  mul\n  or\n  swap1\n  sstore\n  pop\n    /* \"contracts/KipuBank.sol\":3792:3800  _bankCap */\n  dup3\n    /* \"contracts/KipuBank.sol\":3782:3789  bankCap */\n  0x03\n    /* \"contracts/KipuBank.sol\":3782:3800  bankCap = _bankCap */\n  dup2\n  swap1\n  sstore\n  pop\n    /* \"contracts/KipuBank.sol\":3828:3844  _withdrawalLimit */\n  dup2\n    /* \"contracts/KipuBank.sol\":3810:3844  withdrawalLimit = _withdrawalLimit */\n  0x80\n  dup2\n  dup2\n  mstore\n  pop\n  pop\n    /* \"contracts/KipuBank.sol\":3889:3900  _ethUsdFeed */\n  dup1\n    /* \"contracts/KipuBank.sol\":3854:3864  ethUsdFeed */\n  0x01\n  0x00\n    /* \"contracts/KipuBank.sol\":3854:3901  ethUsdFeed = AggregatorV3Interface(_ethUsdFeed) */\n  0x0100\n  exp\n  dup2\n  sload\n  dup2\n  0xffffffffffffffffffffffffffffffffffffffff\n  mul\n  not\n  and\n  swap1\n  dup4\n  0xffffffffffffffffffffffffffffffffffffffff\n  and\n  mul\n  or\n  swap1\n  sstore\n  pop\n    /* \"contracts/KipuBank.sol\":3567:3908  constructor(uint256 _bankCap, uint256 _withdrawalLimit, address _ethUsdFeed) {... */\n  pop\n  pop\n  pop\n    /* \"contracts/KipuBank.sol\":487:13554  contract KipuBank is AccessControl {... */\n  jump(tag_9)\n    /* \"@openzeppelin/contracts/access/AccessControl.sol\":6155:6471  function _grantRole(bytes32 role, address account) internal virtual returns (bool) {... */\ntag_7:\n    /* \"@openzeppelin/contracts/access/AccessControl.sol\":6232:6236  bool */\n  0x00\n    /* \"@openzeppelin/contracts/access/AccessControl.sol\":6253:6275  hasRole(role, account) */\n  tag_11\n    /* \"@openzeppelin/contracts/access/AccessControl.sol\":6261:6265  role */\n  dup4\n    /* \"@openzeppelin/contracts/access/AccessControl.sol\":6267:6274  account */\n  dup4\n    /* \"@openzeppelin/contracts/access/AccessControl.sol\":6253:6260  hasRole */\n  shl(0x20, tag_12)\n    /* \"@openzeppelin/contracts/access/AccessControl.sol\":6253:6275  hasRole(role, account) */\n  0x20\n  shr\n  jump\t// in\ntag_11:\n    /* \"@openzeppelin/contracts/access/AccessControl.sol\":6248:6465  if (!hasRole(role, account)) {... */\n  tag_13\n  jumpi\n    /* \"@openzeppelin/contracts/access/AccessControl.sol\":6323:6327  true */\n  0x01\n    /* \"@openzeppelin/contracts/access/AccessControl.sol\":6291:6297  _roles */\n  0x00\n    /* \"@openzeppelin/contracts/access/AccessControl.sol\":6291:6303  _roles[role] */\n  0x00\n    /* \"@openzeppelin/contracts/access/AccessControl.sol\":6298:6302  role */\n  dup6\n    /* \"@openzeppelin/contracts/access/AccessControl.sol\":6291:6303  _roles[role] */\n  dup2\n  mstore\n  0x20\n  add\n  swap1\n  dup2\n  mstore\n  0x20\n  add\n  0x00\n  keccak256\n    /* \"@openzeppelin/contracts/access/AccessControl.sol\":6291:6311  _roles[role].hasRole */\n  0x00\n  add\n    /* \"@openzeppelin/contracts/access/AccessControl.sol\":6291:6320  _roles[role].hasRole[account] */\n  0x00\n    /* \"@openzeppelin/contracts/access/AccessControl.sol\":6312:6319  account */\n  dup5\n    /* \"@openzeppelin/contracts/access/AccessControl.sol\":6291:6320  _roles[role].hasRole[account] */\n  0xffffffffffffffffffffffffffffffffffffffff\n  and\n  0xffffffffffffffffffffffffffffffffffffffff\n  and\n  dup2\n  mstore\n  0x20\n  add\n  swap1\n  dup2\n  mstore\n  0x20\n  add\n  0x00\n  keccak256\n  0x00\n    /* \"@openzeppelin/contracts/access/AccessControl.sol\":6291:6327  _roles[role].hasRole[account] = true */\n  0x0100\n  exp\n  dup2\n  sload\n  dup2\n  0xff\n  mul\n  not\n  and\n  swap1\n  dup4\n  iszero\n  iszero\n  mul\n  or\n  swap1\n  sstore\n  pop\n    /* \"@openzeppelin/contracts/access/AccessControl.sol\":6373:6385  _msgSender() */\n  tag_14\n    /* \"@openzeppelin/contracts/access/AccessControl.sol\":6373:6383  _msgSender */\n  shl(0x20, tag_15)\n    /* \"@openzeppelin/contracts/access/AccessControl.sol\":6373:6385  _msgSender() */\n  0x20\n  shr\n  jump\t// in\ntag_14:\n    /* \"@openzeppelin/contracts/access/AccessControl.sol\":6346:6386  RoleGranted(role, account, _msgSender()) */\n  0xffffffffffffffffffffffffffffffffffffffff\n  and\n    /* \"@openzeppelin/contracts/access/AccessControl.sol\":6364:6371  account */\n  dup3\n    /* \"@openzeppelin/contracts/access/AccessControl.sol\":6346:6386  RoleGranted(role, account, _msgSender()) */\n  0xffffffffffffffffffffffffffffffffffffffff\n  and\n    /* \"@openzeppelin/contracts/access/AccessControl.sol\":6358:6362  role */\n  dup5\n    /* \"@openzeppelin/contracts/access/AccessControl.sol\":6346:6386  RoleGranted(role, account, _msgSender()) */\n  0x2f8788117e7eff1d82e926ec794901d17c78024a50270940304540a733656f0d\n  mload(0x40)\n  mload(0x40)\n  dup1\n  swap2\n  sub\n  swap1\n  log4\n    /* \"@openzeppelin/contracts/access/AccessControl.sol\":6407:6411  true */\n  0x01\n    /* \"@openzeppelin/contracts/access/AccessControl.sol\":6400:6411  return true */\n  swap1\n  pop\n  jump(tag_10)\n    /* \"@openzeppelin/contracts/access/AccessControl.sol\":6248:6465  if (!hasRole(role, account)) {... */\ntag_13:\n    /* \"@openzeppelin/contracts/access/AccessControl.sol\":6449:6454  false */\n  0x00\n    /* \"@openzeppelin/contracts/access/AccessControl.sol\":6442:6454  return false */\n  swap1\n  pop\n    /* \"@openzeppelin/contracts/access/AccessControl.sol\":6155:6471  function _grantRole(bytes32 role, address account) internal virtual returns (bool) {... */\ntag_10:\n  swap3\n  swap2\n  pop\n  pop\n  jump\t// out\n    /* \"@openzeppelin/contracts/access/AccessControl.sol\":2830:2966  function hasRole(bytes32 role, address account) public view virtual returns (bool) {... */\ntag_12:\n    /* \"@openzeppelin/contracts/access/AccessControl.sol\":2907:2911  bool */\n  0x00\n    /* \"@openzeppelin/contracts/access/AccessControl.sol\":2930:2936  _roles */\n  0x00\n    /* \"@openzeppelin/contracts/access/AccessControl.sol\":2930:2942  _roles[role] */\n  0x00\n    /* \"@openzeppelin/contracts/access/AccessControl.sol\":2937:2941  role */\n  dup5\n    /* \"@openzeppelin/contracts/access/AccessControl.sol\":2930:2942  _roles[role] */\n  dup2\n  mstore\n  0x20\n  add\n  swap1\n  dup2\n  mstore\n  0x20\n  add\n  0x00\n  keccak256\n    /* \"@openzeppelin/contracts/access/AccessControl.sol\":2930:2950  _roles[role].hasRole */\n  0x00\n  add\n    /* \"@openzeppelin/contracts/access/AccessControl.sol\":2930:2959  _roles[role].hasRole[account] */\n  0x00\n    /* \"@openzeppelin/contracts/access/AccessControl.sol\":2951:2958  account */\n  dup4\n    /* \"@openzeppelin/contracts/access/AccessControl.sol\":2930:2959  _roles[role].hasRole[account] */\n  0xffffffffffffffffffffffffffffffffffffffff\n  and\n  0xffffffffffffffffffffffffffffffffffffffff\n  and\n  dup2\n  mstore\n  0x20\n  add\n  swap1\n  dup2\n  mstore\n  0x20\n  add\n  0x00\n  keccak256\n  0x00\n  swap1\n  sload\n  swap1\n  0x0100\n  exp\n  swap1\n  div\n  0xff\n  and\n    /* \"@openzeppelin/contracts/access/AccessControl.sol\":2923:2959  return _roles[role].hasRole[account] */\n  swap1\n  pop\n    /* \"@openzeppelin/contracts/access/AccessControl.sol\":2830:2966  function hasRole(bytes32 role, address account) public view virtual returns (bool) {... */\n  swap3\n  swap2\n  pop\n  pop\n  jump\t// out\n    /* \"@openzeppelin/contracts/utils/Context.sol\":656:752  function _msgSender() internal view virtual returns (address) {... */\ntag_15:\n    /* \"@openzeppelin/contracts/utils/Context.sol\":709:716  address */\n  0x00\n    /* \"@openzeppelin/contracts/utils/Context.sol\":735:745  msg.sender */\n  caller\n    /* \"@openzeppelin/contracts/utils/Context.sol\":728:745  return msg.sender */\n  swap1\n  pop\n    /* \"@openzeppelin/contracts/utils/Context.sol\":656:752  function _msgSender() internal view virtual returns (address) {... */\n  swap1\n  jump\t// out\n    /* \"#utility.yul\":88:205   */\ntag_20:\n    /* \"#utility.yul\":197:198   */\n  0x00\n    /* \"#utility.yul\":194:195   */\n  0x00\n    /* \"#utility.yul\":187:199   */\n  revert\n    /* \"#utility.yul\":334:411   */\ntag_22:\n    /* \"#utility.yul\":371:378   */\n  0x00\n    /* \"#utility.yul\":400:405   */\n  dup2\n    /* \"#utility.yul\":389:405   */\n  swap1\n  pop\n    /* \"#utility.yul\":334:411   */\n  swap2\n  swap1\n  pop\n  jump\t// out\n    /* \"#utility.yul\":417:539   */\ntag_23:\n    /* \"#utility.yul\":490:514   */\n  tag_35\n    /* \"#utility.yul\":508:513   */\n  dup2\n    /* \"#utility.yul\":490:514   */\n  tag_22\n  jump\t// in\ntag_35:\n    /* \"#utility.yul\":483:488   */\n  dup2\n    /* \"#utility.yul\":480:515   */\n  eq\n    /* \"#utility.yul\":470:533   */\n  tag_36\n  jumpi\n    /* \"#utility.yul\":529:530   */\n  0x00\n    /* \"#utility.yul\":526:527   */\n  0x00\n    /* \"#utility.yul\":519:531   */\n  revert\n    /* \"#utility.yul\":470:533   */\ntag_36:\n    /* \"#utility.yul\":417:539   */\n  pop\n  jump\t// out\n    /* \"#utility.yul\":545:688   */\ntag_24:\n    /* \"#utility.yul\":602:607   */\n  0x00\n    /* \"#utility.yul\":633:639   */\n  dup2\n    /* \"#utility.yul\":627:640   */\n  mload\n    /* \"#utility.yul\":618:640   */\n  swap1\n  pop\n    /* \"#utility.yul\":649:682   */\n  tag_38\n    /* \"#utility.yul\":676:681   */\n  dup2\n    /* \"#utility.yul\":649:682   */\n  tag_23\n  jump\t// in\ntag_38:\n    /* \"#utility.yul\":545:688   */\n  swap3\n  swap2\n  pop\n  pop\n  jump\t// out\n    /* \"#utility.yul\":694:820   */\ntag_25:\n    /* \"#utility.yul\":731:738   */\n  0x00\n    /* \"#utility.yul\":771:813   */\n  0xffffffffffffffffffffffffffffffffffffffff\n    /* \"#utility.yul\":764:769   */\n  dup3\n    /* \"#utility.yul\":760:814   */\n  and\n    /* \"#utility.yul\":749:814   */\n  swap1\n  pop\n    /* \"#utility.yul\":694:820   */\n  swap2\n  swap1\n  pop\n  jump\t// out\n    /* \"#utility.yul\":826:922   */\ntag_26:\n    /* \"#utility.yul\":863:870   */\n  0x00\n    /* \"#utility.yul\":892:916   */\n  tag_41\n    /* \"#utility.yul\":910:915   */\n  dup3\n    /* \"#utility.yul\":892:916   */\n  tag_25\n  jump\t// in\ntag_41:\n    /* \"#utility.yul\":881:916   */\n  swap1\n  pop\n    /* \"#utility.yul\":826:922   */\n  swap2\n  swap1\n  pop\n  jump\t// out\n    /* \"#utility.yul\":928:1050   */\ntag_27:\n    /* \"#utility.yul\":1001:1025   */\n  tag_43\n    /* \"#utility.yul\":1019:1024   */\n  dup2\n    /* \"#utility.yul\":1001:1025   */\n  tag_26\n  jump\t// in\ntag_43:\n    /* \"#utility.yul\":994:999   */\n  dup2\n    /* \"#utility.yul\":991:1026   */\n  eq\n    /* \"#utility.yul\":981:1044   */\n  tag_44\n  jumpi\n    /* \"#utility.yul\":1040:1041   */\n  0x00\n    /* \"#utility.yul\":1037:1038   */\n  0x00\n    /* \"#utility.yul\":1030:1042   */\n  revert\n    /* \"#utility.yul\":981:1044   */\ntag_44:\n    /* \"#utility.yul\":928:1050   */\n  pop\n  jump\t// out\n    /* \"#utility.yul\":1056:1199   */\ntag_28:\n    /* \"#utility.yul\":1113:1118   */\n  0x00\n    /* \"#utility.yul\":1144:1150   */\n  dup2\n    /* \"#utility.yul\":1138:1151   */\n  mload\n    /* \"#utility.yul\":1129:1151   */\n  swap1\n  pop\n    /* \"#utility.yul\":1160:1193   */\n  tag_46\n    /* \"#utility.yul\":1187:1192   */\n  dup2\n    /* \"#utility.yul\":1160:1193   */\n  tag_27\n  jump\t// in\ntag_46:\n    /* \"#utility.yul\":1056:1199   */\n  swap3\n  swap2\n  pop\n  pop\n  jump\t// out\n    /* \"#utility.yul\":1205:1868   */\ntag_3:\n    /* \"#utility.yul\":1293:1299   */\n  0x00\n    /* \"#utility.yul\":1301:1307   */\n  0x00\n    /* \"#utility.yul\":1309:1315   */\n  0x00\n    /* \"#utility.yul\":1358:1360   */\n  0x60\n    /* \"#utility.yul\":1346:1355   */\n  dup5\n    /* \"#utility.yul\":1337:1344   */\n  dup7\n    /* \"#utility.yul\":1333:1356   */\n  sub\n    /* \"#utility.yul\":1329:1361   */\n  slt\n    /* \"#utility.yul\":1326:1445   */\n  iszero\n  tag_48\n  jumpi\n    /* \"#utility.yul\":1364:1443   */\n  tag_49\n  tag_20\n  jump\t// in\ntag_49:\n    /* \"#utility.yul\":1326:1445   */\ntag_48:\n    /* \"#utility.yul\":1484:1485   */\n  0x00\n    /* \"#utility.yul\":1509:1573   */\n  tag_50\n    /* \"#utility.yul\":1565:1572   */\n  dup7\n    /* \"#utility.yul\":1556:1562   */\n  dup3\n    /* \"#utility.yul\":1545:1554   */\n  dup8\n    /* \"#utility.yul\":1541:1563   */\n  add\n    /* \"#utility.yul\":1509:1573   */\n  tag_24\n  jump\t// in\ntag_50:\n    /* \"#utility.yul\":1499:1573   */\n  swap4\n  pop\n    /* \"#utility.yul\":1455:1583   */\n  pop\n    /* \"#utility.yul\":1622:1624   */\n  0x20\n    /* \"#utility.yul\":1648:1712   */\n  tag_51\n    /* \"#utility.yul\":1704:1711   */\n  dup7\n    /* \"#utility.yul\":1695:1701   */\n  dup3\n    /* \"#utility.yul\":1684:1693   */\n  dup8\n    /* \"#utility.yul\":1680:1702   */\n  add\n    /* \"#utility.yul\":1648:1712   */\n  tag_24\n  jump\t// in\ntag_51:\n    /* \"#utility.yul\":1638:1712   */\n  swap3\n  pop\n    /* \"#utility.yul\":1593:1722   */\n  pop\n    /* \"#utility.yul\":1761:1763   */\n  0x40\n    /* \"#utility.yul\":1787:1851   */\n  tag_52\n    /* \"#utility.yul\":1843:1850   */\n  dup7\n    /* \"#utility.yul\":1834:1840   */\n  dup3\n    /* \"#utility.yul\":1823:1832   */\n  dup8\n    /* \"#utility.yul\":1819:1841   */\n  add\n    /* \"#utility.yul\":1787:1851   */\n  tag_28\n  jump\t// in\ntag_52:\n    /* \"#utility.yul\":1777:1851   */\n  swap2\n  pop\n    /* \"#utility.yul\":1732:1861   */\n  pop\n    /* \"#utility.yul\":1205:1868   */\n  swap3\n  pop\n  swap3\n  pop\n  swap3\n  jump\t// out\n    /* \"contracts/KipuBank.sol\":487:13554  contract KipuBank is AccessControl {... */\ntag_9:\n  mload(0x80)\n  codecopy(0x00, dataOffset(sub_0), dataSize(sub_0))\n  0x00\n  assignImmutable(\"0x33cc19d79febe2413fb9e204aeb684d47982ef5754538b90a83e403603eda384\")\n  return(0x00, dataSize(sub_0))\nstop\n\nsub_0: assembly {\n        /* \"contracts/KipuBank.sol\":487:13554  contract KipuBank is AccessControl {... */\n      mstore(0x40, 0x80)\n      jumpi(tag_1, lt(calldatasize, 0x04))\n      shr(0xe0, calldataload(0x00))\n      dup1\n      0x8009b7bd\n      gt\n      tag_35\n      jumpi\n      dup1\n      0xa217fddf\n      gt\n      tag_36\n      jumpi\n      dup1\n      0xdc884360\n      gt\n      tag_37\n      jumpi\n      dup1\n      0xdc884360\n      eq\n      tag_30\n      jumpi\n      dup1\n      0xecbea24d\n      eq\n      tag_31\n      jumpi\n      dup1\n      0xed12e8ef\n      eq\n      tag_32\n      jumpi\n      dup1\n      0xf38048b7\n      eq\n      tag_33\n      jumpi\n      dup1\n      0xf5465992\n      eq\n      tag_34\n      jumpi\n      jump(tag_1)\n    tag_37:\n      dup1\n      0xa217fddf\n      eq\n      tag_26\n      jumpi\n      dup1\n      0xc265f47e\n      eq\n      tag_27\n      jumpi\n      dup1\n      0xd0e30db0\n      eq\n      tag_28\n      jumpi\n      dup1\n      0xd547741f\n      eq\n      tag_29\n      jumpi\n      jump(tag_1)\n    tag_36:\n      dup1\n      0x97feb926\n      gt\n      tag_38\n      jumpi\n      dup1\n      0x97feb926\n      eq\n      tag_22\n      jumpi\n      dup1\n      0x9d7f7e86\n      eq\n      tag_23\n      jumpi\n      dup1\n      0x9f188164\n      eq\n      tag_24\n      jumpi\n      dup1\n      0xa1db9782\n      eq\n      tag_25\n      jumpi\n      jump(tag_1)\n    tag_38:\n      dup1\n      0x8009b7bd\n      eq\n      tag_18\n      jumpi\n      dup1\n      0x8367df3f\n      eq\n      tag_19\n      jumpi\n      dup1\n      0x8da5cb5b\n      eq\n      tag_20\n      jumpi\n      dup1\n      0x91d14854\n      eq\n      tag_21\n      jumpi\n      jump(tag_1)\n    tag_35:\n      dup1\n      0x31993a1c\n      gt\n      tag_39\n      jumpi\n      dup1\n      0x5ba98164\n      gt\n      tag_40\n      jumpi\n      dup1\n      0x5ba98164\n      eq\n      tag_14\n      jumpi\n      dup1\n      0x71706cbe\n      eq\n      tag_15\n      jumpi\n      dup1\n      0x7bcd4ff0\n      eq\n      tag_16\n      jumpi\n      dup1\n      0x7ddfe78d\n      eq\n      tag_17\n      jumpi\n      jump(tag_1)\n    tag_40:\n      dup1\n      0x31993a1c\n      eq\n      tag_10\n      jumpi\n      dup1\n      0x31eab30f\n      eq\n      tag_11\n      jumpi\n      dup1\n      0x36568abe\n      eq\n      tag_12\n      jumpi\n      dup1\n      0x56bf180e\n      eq\n      tag_13\n      jumpi\n      jump(tag_1)\n    tag_39:\n      dup1\n      0x248a9ca3\n      gt\n      tag_41\n      jumpi\n      dup1\n      0x248a9ca3\n      eq\n      tag_6\n      jumpi\n      dup1\n      0x2dfdf0b5\n      eq\n      tag_7\n      jumpi\n      dup1\n      0x2e1a7d4d\n      eq\n      tag_8\n      jumpi\n      dup1\n      0x2f2ff15d\n      eq\n      tag_9\n      jumpi\n      jump(tag_1)\n    tag_41:\n      dup1\n      0x01ffc9a7\n      eq\n      tag_2\n      jumpi\n      dup1\n      0x06c0427e\n      eq\n      tag_3\n      jumpi\n      dup1\n      0x1977e938\n      eq\n      tag_4\n      jumpi\n      dup1\n      0x1d47e4a3\n      eq\n      tag_5\n      jumpi\n    tag_1:\n      revert(0x00, 0x00)\n        /* \"@openzeppelin/contracts/access/AccessControl.sol\":2541:2743  function supportsInterface(bytes4 interfaceId) public view virtual override returns (bool) {... */\n    tag_2:\n      callvalue\n      dup1\n      iszero\n      tag_42\n      jumpi\n      revert(0x00, 0x00)\n    tag_42:\n      pop\n      tag_43\n      0x04\n      dup1\n      calldatasize\n      sub\n      dup2\n      add\n      swap1\n      tag_44\n      swap2\n      swap1\n      tag_45\n      jump\t// in\n    tag_44:\n      tag_46\n      jump\t// in\n    tag_43:\n      mload(0x40)\n      tag_47\n      swap2\n      swap1\n      tag_48\n      jump\t// in\n    tag_47:\n      mload(0x40)\n      dup1\n      swap2\n      sub\n      swap1\n      return\n        /* \"contracts/KipuBank.sol\":8297:8538  function quoteWeiInUsd8(uint256 amountWei) public view returns (uint256 usdAmount8) {... */\n    tag_3:\n      callvalue\n      dup1\n      iszero\n      tag_49\n      jumpi\n      revert(0x00, 0x00)\n    tag_49:\n      pop\n      tag_50\n      0x04\n      dup1\n      calldatasize\n      sub\n      dup2\n      add\n      swap1\n      tag_51\n      swap2\n      swap1\n      tag_52\n      jump\t// in\n    tag_51:\n      tag_53\n      jump\t// in\n    tag_50:\n      mload(0x40)\n      tag_54\n      swap2\n      swap1\n      tag_55\n      jump\t// in\n    tag_54:\n      mload(0x40)\n      dup1\n      swap2\n      sub\n      swap1\n      return\n        /* \"contracts/KipuBank.sol\":1027:1058  uint256 public totalBankBalance */\n    tag_4:\n      callvalue\n      dup1\n      iszero\n      tag_56\n      jumpi\n      revert(0x00, 0x00)\n    tag_56:\n      pop\n      tag_57\n      tag_58\n      jump\t// in\n    tag_57:\n      mload(0x40)\n      tag_59\n      swap2\n      swap1\n      tag_55\n      jump\t// in\n    tag_59:\n      mload(0x40)\n      dup1\n      swap2\n      sub\n      swap1\n      return\n        /* \"contracts/KipuBank.sol\":8659:8816  function setTokenCap(address token, uint256 newCap) external onlyOwner {... */\n    tag_5:\n      callvalue\n      dup1\n      iszero\n      tag_60\n      jumpi\n      revert(0x00, 0x00)\n    tag_60:\n      pop\n      tag_61\n      0x04\n      dup1\n      calldatasize\n      sub\n      dup2\n      add\n      swap1\n      tag_62\n      swap2\n      swap1\n      tag_63\n      jump\t// in\n    tag_62:\n      tag_64\n      jump\t// in\n    tag_61:\n      stop\n        /* \"@openzeppelin/contracts/access/AccessControl.sol\":3786:3906  function getRoleAdmin(bytes32 role) public view virtual returns (bytes32) {... */\n    tag_6:\n      callvalue\n      dup1\n      iszero\n      tag_65\n      jumpi\n      revert(0x00, 0x00)\n    tag_65:\n      pop\n      tag_66\n      0x04\n      dup1\n      calldatasize\n      sub\n      dup2\n      add\n      swap1\n      tag_67\n      swap2\n      swap1\n      tag_68\n      jump\t// in\n    tag_67:\n      tag_69\n      jump\t// in\n    tag_66:\n      mload(0x40)\n      tag_70\n      swap2\n      swap1\n      tag_71\n      jump\t// in\n    tag_70:\n      mload(0x40)\n      dup1\n      swap2\n      sub\n      swap1\n      return\n        /* \"contracts/KipuBank.sol\":1069:1096  uint256 public depositCount */\n    tag_7:\n      callvalue\n      dup1\n      iszero\n      tag_72\n      jumpi\n      revert(0x00, 0x00)\n    tag_72:\n      pop\n      tag_73\n      tag_74\n      jump\t// in\n    tag_73:\n      mload(0x40)\n      tag_75\n      swap2\n      swap1\n      tag_55\n      jump\t// in\n    tag_75:\n      mload(0x40)\n      dup1\n      swap2\n      sub\n      swap1\n      return\n        /* \"contracts/KipuBank.sol\":12124:12864  function withdraw(uint256 _amount) external nonZeroAmount(_amount) {... */\n    tag_8:\n      callvalue\n      dup1\n      iszero\n      tag_76\n      jumpi\n      revert(0x00, 0x00)\n    tag_76:\n      pop\n      tag_77\n      0x04\n      dup1\n      calldatasize\n      sub\n      dup2\n      add\n      swap1\n      tag_78\n      swap2\n      swap1\n      tag_52\n      jump\t// in\n    tag_78:\n      tag_79\n      jump\t// in\n    tag_77:\n      stop\n        /* \"@openzeppelin/contracts/access/AccessControl.sol\":4202:4338  function grantRole(bytes32 role, address account) public virtual onlyRole(getRoleAdmin(role)) {... */\n    tag_9:\n      callvalue\n      dup1\n      iszero\n      tag_80\n      jumpi\n      revert(0x00, 0x00)\n    tag_80:\n      pop\n      tag_81\n      0x04\n      dup1\n      calldatasize\n      sub\n      dup2\n      add\n      swap1\n      tag_82\n      swap2\n      swap1\n      tag_83\n      jump\t// in\n    tag_82:\n      tag_84\n      jump\t// in\n    tag_81:\n      stop\n        /* \"contracts/KipuBank.sol\":562:628  bytes32 public constant RECOVERY_ROLE = keccak256(\"RECOVERY_ROLE\") */\n    tag_10:\n      callvalue\n      dup1\n      iszero\n      tag_85\n      jumpi\n      revert(0x00, 0x00)\n    tag_85:\n      pop\n      tag_86\n      tag_87\n      jump\t// in\n    tag_86:\n      mload(0x40)\n      tag_88\n      swap2\n      swap1\n      tag_71\n      jump\t// in\n    tag_88:\n      mload(0x40)\n      dup1\n      swap2\n      sub\n      swap1\n      return\n        /* \"contracts/KipuBank.sol\":10987:11115  function setBankCap(uint256 _newCap) external onlyOwner {... */\n    tag_11:\n      callvalue\n      dup1\n      iszero\n      tag_89\n      jumpi\n      revert(0x00, 0x00)\n    tag_89:\n      pop\n      tag_90\n      0x04\n      dup1\n      calldatasize\n      sub\n      dup2\n      add\n      swap1\n      tag_91\n      swap2\n      swap1\n      tag_52\n      jump\t// in\n    tag_91:\n      tag_92\n      jump\t// in\n    tag_90:\n      stop\n        /* \"@openzeppelin/contracts/access/AccessControl.sol\":5304:5549  function renounceRole(bytes32 role, address callerConfirmation) public virtual {... */\n    tag_12:\n      callvalue\n      dup1\n      iszero\n      tag_93\n      jumpi\n      revert(0x00, 0x00)\n    tag_93:\n      pop\n      tag_94\n      0x04\n      dup1\n      calldatasize\n      sub\n      dup2\n      add\n      swap1\n      tag_95\n      swap2\n      swap1\n      tag_83\n      jump\t// in\n    tag_95:\n      tag_96\n      jump\t// in\n    tag_94:\n      stop\n        /* \"contracts/KipuBank.sol\":6571:7135  function adminWithdrawFromUser(address fromUser, address payable to, uint256 amount)... */\n    tag_13:\n      callvalue\n      dup1\n      iszero\n      tag_97\n      jumpi\n      revert(0x00, 0x00)\n    tag_97:\n      pop\n      tag_98\n      0x04\n      dup1\n      calldatasize\n      sub\n      dup2\n      add\n      swap1\n      tag_99\n      swap2\n      swap1\n      tag_100\n      jump\t// in\n    tag_99:\n      tag_101\n      jump\t// in\n    tag_98:\n      stop\n        /* \"contracts/KipuBank.sol\":711:767  uint256 public constant MAX_WITHDRAW_USD_8 = 1_000 * 1e8 */\n    tag_14:\n      callvalue\n      dup1\n      iszero\n      tag_102\n      jumpi\n      revert(0x00, 0x00)\n    tag_102:\n      pop\n      tag_103\n      tag_104\n      jump\t// in\n    tag_103:\n      mload(0x40)\n      tag_105\n      swap2\n      swap1\n      tag_55\n      jump\t// in\n    tag_105:\n      mload(0x40)\n      dup1\n      swap2\n      sub\n      swap1\n      return\n        /* \"contracts/KipuBank.sol\":1103:1133  uint256 public withdrawalCount */\n    tag_15:\n      callvalue\n      dup1\n      iszero\n      tag_106\n      jumpi\n      revert(0x00, 0x00)\n    tag_106:\n      pop\n      tag_107\n      tag_108\n      jump\t// in\n    tag_107:\n      mload(0x40)\n      tag_109\n      swap2\n      swap1\n      tag_55\n      jump\t// in\n    tag_109:\n      mload(0x40)\n      dup1\n      swap2\n      sub\n      swap1\n      return\n        /* \"contracts/KipuBank.sol\":1303:1346  mapping(address => uint256) public tokenCap */\n    tag_16:\n      callvalue\n      dup1\n      iszero\n      tag_110\n      jumpi\n      revert(0x00, 0x00)\n    tag_110:\n      pop\n      tag_111\n      0x04\n      dup1\n      calldatasize\n      sub\n      dup2\n      add\n      swap1\n      tag_112\n      swap2\n      swap1\n      tag_113\n      jump\t// in\n    tag_112:\n      tag_114\n      jump\t// in\n    tag_111:\n      mload(0x40)\n      tag_115\n      swap2\n      swap1\n      tag_55\n      jump\t// in\n    tag_115:\n      mload(0x40)\n      dup1\n      swap2\n      sub\n      swap1\n      return\n        /* \"contracts/KipuBank.sol\":888:928  uint256 public immutable withdrawalLimit */\n    tag_17:\n      callvalue\n      dup1\n      iszero\n      tag_116\n      jumpi\n      revert(0x00, 0x00)\n    tag_116:\n      pop\n      tag_117\n      tag_118\n      jump\t// in\n    tag_117:\n      mload(0x40)\n      tag_119\n      swap2\n      swap1\n      tag_55\n      jump\t// in\n    tag_119:\n      mload(0x40)\n      dup1\n      swap2\n      sub\n      swap1\n      return\n        /* \"contracts/KipuBank.sol\":650:689  AggregatorV3Interface public ethUsdFeed */\n    tag_18:\n      callvalue\n      dup1\n      iszero\n      tag_120\n      jumpi\n      revert(0x00, 0x00)\n    tag_120:\n      pop\n      tag_121\n      tag_122\n      jump\t// in\n    tag_121:\n      mload(0x40)\n      tag_123\n      swap2\n      swap1\n      tag_124\n      jump\t// in\n    tag_123:\n      mload(0x40)\n      dup1\n      swap2\n      sub\n      swap1\n      return\n        /* \"contracts/KipuBank.sol\":7344:8157  function getEthUsdPrice8() public view returns (uint256 price8) {... */\n    tag_19:\n      callvalue\n      dup1\n      iszero\n      tag_125\n      jumpi\n      revert(0x00, 0x00)\n    tag_125:\n      pop\n      tag_126\n      tag_127\n      jump\t// in\n    tag_126:\n      mload(0x40)\n      tag_128\n      swap2\n      swap1\n      tag_55\n      jump\t// in\n    tag_128:\n      mload(0x40)\n      dup1\n      swap2\n      sub\n      swap1\n      return\n        /* \"contracts/KipuBank.sol\":858:878  address public owner */\n    tag_20:\n      callvalue\n      dup1\n      iszero\n      tag_129\n      jumpi\n      revert(0x00, 0x00)\n    tag_129:\n      pop\n      tag_130\n      tag_131\n      jump\t// in\n    tag_130:\n      mload(0x40)\n      tag_132\n      swap2\n      swap1\n      tag_133\n      jump\t// in\n    tag_132:\n      mload(0x40)\n      dup1\n      swap2\n      sub\n      swap1\n      return\n        /* \"@openzeppelin/contracts/access/AccessControl.sol\":2830:2966  function hasRole(bytes32 role, address account) public view virtual returns (bool) {... */\n    tag_21:\n      callvalue\n      dup1\n      iszero\n      tag_134\n      jumpi\n      revert(0x00, 0x00)\n    tag_134:\n      pop\n      tag_135\n      0x04\n      dup1\n      calldatasize\n      sub\n      dup2\n      add\n      swap1\n      tag_136\n      swap2\n      swap1\n      tag_83\n      jump\t// in\n    tag_136:\n      tag_137\n      jump\t// in\n    tag_135:\n      mload(0x40)\n      tag_138\n      swap2\n      swap1\n      tag_48\n      jump\t// in\n    tag_138:\n      mload(0x40)\n      dup1\n      swap2\n      sub\n      swap1\n      return\n        /* \"contracts/KipuBank.sol\":9011:9940  function depositERC20(address token, uint256 amount)... */\n    tag_22:\n      callvalue\n      dup1\n      iszero\n      tag_139\n      jumpi\n      revert(0x00, 0x00)\n    tag_139:\n      pop\n      tag_140\n      0x04\n      dup1\n      calldatasize\n      sub\n      dup2\n      add\n      swap1\n      tag_141\n      swap2\n      swap1\n      tag_63\n      jump\t// in\n    tag_141:\n      tag_142\n      jump\t// in\n    tag_140:\n      stop\n        /* \"contracts/KipuBank.sol\":789:836  uint256 public constant MAX_PRICE_AGE = 1 hours */\n    tag_23:\n      callvalue\n      dup1\n      iszero\n      tag_143\n      jumpi\n      revert(0x00, 0x00)\n    tag_143:\n      pop\n      tag_144\n      tag_145\n      jump\t// in\n    tag_144:\n      mload(0x40)\n      tag_146\n      swap2\n      swap1\n      tag_55\n      jump\t// in\n    tag_146:\n      mload(0x40)\n      dup1\n      swap2\n      sub\n      swap1\n      return\n        /* \"contracts/KipuBank.sol\":5845:6330  function adminTopUpUser(address user)... */\n    tag_24:\n      tag_147\n      0x04\n      dup1\n      calldatasize\n      sub\n      dup2\n      add\n      swap1\n      tag_148\n      swap2\n      swap1\n      tag_113\n      jump\t// in\n    tag_148:\n      tag_149\n      jump\t// in\n    tag_147:\n      stop\n        /* \"contracts/KipuBank.sol\":10159:10606  function withdrawERC20(address token, uint256 amount)... */\n    tag_25:\n      callvalue\n      dup1\n      iszero\n      tag_150\n      jumpi\n      revert(0x00, 0x00)\n    tag_150:\n      pop\n      tag_151\n      0x04\n      dup1\n      calldatasize\n      sub\n      dup2\n      add\n      swap1\n      tag_152\n      swap2\n      swap1\n      tag_63\n      jump\t// in\n    tag_152:\n      tag_153\n      jump\t// in\n    tag_151:\n      stop\n        /* \"@openzeppelin/contracts/access/AccessControl.sol\":2196:2245  bytes32 public constant DEFAULT_ADMIN_ROLE = 0x00 */\n    tag_26:\n      callvalue\n      dup1\n      iszero\n      tag_154\n      jumpi\n      revert(0x00, 0x00)\n    tag_154:\n      pop\n      tag_155\n      tag_156\n      jump\t// in\n    tag_155:\n      mload(0x40)\n      tag_157\n      swap2\n      swap1\n      tag_71\n      jump\t// in\n    tag_157:\n      mload(0x40)\n      dup1\n      swap2\n      sub\n      swap1\n      return\n        /* \"contracts/KipuBank.sol\":4145:4666  function adminReassignVault(address fromUser, address toUser, uint256 amount)... */\n    tag_27:\n      callvalue\n      dup1\n      iszero\n      tag_158\n      jumpi\n      revert(0x00, 0x00)\n    tag_158:\n      pop\n      tag_159\n      0x04\n      dup1\n      calldatasize\n      sub\n      dup2\n      add\n      swap1\n      tag_160\n      swap2\n      swap1\n      tag_161\n      jump\t// in\n    tag_160:\n      tag_162\n      jump\t// in\n    tag_159:\n      stop\n        /* \"contracts/KipuBank.sol\":11397:11811  function deposit() external payable nonZeroAmount(msg.value) {... */\n    tag_28:\n      tag_163\n      tag_164\n      jump\t// in\n    tag_163:\n      stop\n        /* \"@openzeppelin/contracts/access/AccessControl.sol\":4618:4756  function revokeRole(bytes32 role, address account) public virtual onlyRole(getRoleAdmin(role)) {... */\n    tag_29:\n      callvalue\n      dup1\n      iszero\n      tag_165\n      jumpi\n      revert(0x00, 0x00)\n    tag_165:\n      pop\n      tag_166\n      0x04\n      dup1\n      calldatasize\n      sub\n      dup2\n      add\n      swap1\n      tag_167\n      swap2\n      swap1\n      tag_83\n      jump\t// in\n    tag_167:\n      tag_168\n      jump\t// in\n    tag_166:\n      stop\n        /* \"contracts/KipuBank.sol\":10717:10848  function getVaultBalanceERC20(address token) external view returns (uint256) {... */\n    tag_30:\n      callvalue\n      dup1\n      iszero\n      tag_169\n      jumpi\n      revert(0x00, 0x00)\n    tag_169:\n      pop\n      tag_170\n      0x04\n      dup1\n      calldatasize\n      sub\n      dup2\n      add\n      swap1\n      tag_171\n      swap2\n      swap1\n      tag_113\n      jump\t// in\n    tag_171:\n      tag_172\n      jump\t// in\n    tag_170:\n      mload(0x40)\n      tag_173\n      swap2\n      swap1\n      tag_55\n      jump\t// in\n    tag_173:\n      mload(0x40)\n      dup1\n      swap2\n      sub\n      swap1\n      return\n        /* \"contracts/KipuBank.sol\":939:961  uint256 public bankCap */\n    tag_31:\n      callvalue\n      dup1\n      iszero\n      tag_174\n      jumpi\n      revert(0x00, 0x00)\n    tag_174:\n      pop\n      tag_175\n      tag_176\n      jump\t// in\n    tag_175:\n      mload(0x40)\n      tag_177\n      swap2\n      swap1\n      tag_55\n      jump\t// in\n    tag_177:\n      mload(0x40)\n      dup1\n      swap2\n      sub\n      swap1\n      return\n        /* \"contracts/KipuBank.sol\":13000:13101  function getVaultBalance() external view returns (uint256) {... */\n    tag_32:\n      callvalue\n      dup1\n      iszero\n      tag_178\n      jumpi\n      revert(0x00, 0x00)\n    tag_178:\n      pop\n      tag_179\n      tag_180\n      jump\t// in\n    tag_179:\n      mload(0x40)\n      tag_181\n      swap2\n      swap1\n      tag_55\n      jump\t// in\n    tag_181:\n      mload(0x40)\n      dup1\n      swap2\n      sub\n      swap1\n      return\n        /* \"contracts/KipuBank.sol\":4928:5606  function adminAssignExcessToUser(address user, uint256 amount)... */\n    tag_33:\n      callvalue\n      dup1\n      iszero\n      tag_182\n      jumpi\n      revert(0x00, 0x00)\n    tag_182:\n      pop\n      tag_183\n      0x04\n      dup1\n      calldatasize\n      sub\n      dup2\n      add\n      swap1\n      tag_184\n      swap2\n      swap1\n      tag_63\n      jump\t// in\n    tag_184:\n      tag_185\n      jump\t// in\n    tag_183:\n      stop\n        /* \"contracts/KipuBank.sol\":1229:1281  mapping(address => uint256) public totalTokenBalance */\n    tag_34:\n      callvalue\n      dup1\n      iszero\n      tag_186\n      jumpi\n      revert(0x00, 0x00)\n    tag_186:\n      pop\n      tag_187\n      0x04\n      dup1\n      calldatasize\n      sub\n      dup2\n      add\n      swap1\n      tag_188\n      swap2\n      swap1\n      tag_113\n      jump\t// in\n    tag_188:\n      tag_189\n      jump\t// in\n    tag_187:\n      mload(0x40)\n      tag_190\n      swap2\n      swap1\n      tag_55\n      jump\t// in\n    tag_190:\n      mload(0x40)\n      dup1\n      swap2\n      sub\n      swap1\n      return\n        /* \"@openzeppelin/contracts/access/AccessControl.sol\":2541:2743  function supportsInterface(bytes4 interfaceId) public view virtual override returns (bool) {... */\n    tag_46:\n        /* \"@openzeppelin/contracts/access/AccessControl.sol\":2626:2630  bool */\n      0x00\n        /* \"@openzeppelin/contracts/access/AccessControl.sol\":2664:2696  type(IAccessControl).interfaceId */\n      0x7965db0b00000000000000000000000000000000000000000000000000000000\n        /* \"@openzeppelin/contracts/access/AccessControl.sol\":2649:2696  interfaceId == type(IAccessControl).interfaceId */\n      not(0xffffffffffffffffffffffffffffffffffffffffffffffffffffffff)\n      and\n        /* \"@openzeppelin/contracts/access/AccessControl.sol\":2649:2660  interfaceId */\n      dup3\n        /* \"@openzeppelin/contracts/access/AccessControl.sol\":2649:2696  interfaceId == type(IAccessControl).interfaceId */\n      not(0xffffffffffffffffffffffffffffffffffffffffffffffffffffffff)\n      and\n      eq\n        /* \"@openzeppelin/contracts/access/AccessControl.sol\":2649:2736  interfaceId == type(IAccessControl).interfaceId || super.supportsInterface(interfaceId) */\n      dup1\n      tag_192\n      jumpi\n      pop\n        /* \"@openzeppelin/contracts/access/AccessControl.sol\":2700:2736  super.supportsInterface(interfaceId) */\n      tag_193\n        /* \"@openzeppelin/contracts/access/AccessControl.sol\":2724:2735  interfaceId */\n      dup3\n        /* \"@openzeppelin/contracts/access/AccessControl.sol\":2700:2723  super.supportsInterface */\n      tag_194\n        /* \"@openzeppelin/contracts/access/AccessControl.sol\":2700:2736  super.supportsInterface(interfaceId) */\n      jump\t// in\n    tag_193:\n        /* \"@openzeppelin/contracts/access/AccessControl.sol\":2649:2736  interfaceId == type(IAccessControl).interfaceId || super.supportsInterface(interfaceId) */\n    tag_192:\n        /* \"@openzeppelin/contracts/access/AccessControl.sol\":2642:2736  return interfaceId == type(IAccessControl).interfaceId || super.supportsInterface(interfaceId) */\n      swap1\n      pop\n        /* \"@openzeppelin/contracts/access/AccessControl.sol\":2541:2743  function supportsInterface(bytes4 interfaceId) public view virtual override returns (bool) {... */\n      swap2\n      swap1\n      pop\n      jump\t// out\n        /* \"contracts/KipuBank.sol\":8297:8538  function quoteWeiInUsd8(uint256 amountWei) public view returns (uint256 usdAmount8) {... */\n    tag_53:\n        /* \"contracts/KipuBank.sol\":8361:8379  uint256 usdAmount8 */\n      0x00\n        /* \"contracts/KipuBank.sol\":8391:8405  uint256 price8 */\n      0x00\n        /* \"contracts/KipuBank.sol\":8408:8425  getEthUsdPrice8() */\n      tag_196\n        /* \"contracts/KipuBank.sol\":8408:8423  getEthUsdPrice8 */\n      tag_127\n        /* \"contracts/KipuBank.sol\":8408:8425  getEthUsdPrice8() */\n      jump\t// in\n    tag_196:\n        /* \"contracts/KipuBank.sol\":8391:8425  uint256 price8 = getEthUsdPrice8() */\n      swap1\n      pop\n        /* \"contracts/KipuBank.sol\":8527:8531  1e18 */\n      0x0de0b6b3a7640000\n        /* \"contracts/KipuBank.sol\":8517:8523  price8 */\n      dup2\n        /* \"contracts/KipuBank.sol\":8505:8514  amountWei */\n      dup5\n        /* \"contracts/KipuBank.sol\":8505:8523  amountWei * price8 */\n      tag_197\n      swap2\n      swap1\n      tag_198\n      jump\t// in\n    tag_197:\n        /* \"contracts/KipuBank.sol\":8504:8531  (amountWei * price8) / 1e18 */\n      tag_199\n      swap2\n      swap1\n      tag_200\n      jump\t// in\n    tag_199:\n        /* \"contracts/KipuBank.sol\":8497:8531  return (amountWei * price8) / 1e18 */\n      swap2\n      pop\n      pop\n        /* \"contracts/KipuBank.sol\":8297:8538  function quoteWeiInUsd8(uint256 amountWei) public view returns (uint256 usdAmount8) {... */\n      swap2\n      swap1\n      pop\n      jump\t// out\n        /* \"contracts/KipuBank.sol\":1027:1058  uint256 public totalBankBalance */\n    tag_58:\n      sload(0x05)\n      dup2\n      jump\t// out\n        /* \"contracts/KipuBank.sol\":8659:8816  function setTokenCap(address token, uint256 newCap) external onlyOwner {... */\n    tag_64:\n        /* \"contracts/KipuBank.sol\":2873:2878  owner */\n      0x02\n      0x00\n      swap1\n      sload\n      swap1\n      0x0100\n      exp\n      swap1\n      div\n      0xffffffffffffffffffffffffffffffffffffffff\n      and\n        /* \"contracts/KipuBank.sol\":2859:2878  msg.sender != owner */\n      0xffffffffffffffffffffffffffffffffffffffff\n      and\n        /* \"contracts/KipuBank.sol\":2859:2869  msg.sender */\n      caller\n        /* \"contracts/KipuBank.sol\":2859:2878  msg.sender != owner */\n      0xffffffffffffffffffffffffffffffffffffffff\n      and\n      eq\n        /* \"contracts/KipuBank.sol\":2855:2922  if (msg.sender != owner) {... */\n      tag_202\n      jumpi\n        /* \"contracts/KipuBank.sol\":2901:2911  NotOwner() */\n      mload(0x40)\n      0x30cd747100000000000000000000000000000000000000000000000000000000\n      dup2\n      mstore\n      0x04\n      add\n      mload(0x40)\n      dup1\n      swap2\n      sub\n      swap1\n      revert\n        /* \"contracts/KipuBank.sol\":2855:2922  if (msg.sender != owner) {... */\n    tag_202:\n        /* \"contracts/KipuBank.sol\":8758:8764  newCap */\n      dup1\n        /* \"contracts/KipuBank.sol\":8740:8748  tokenCap */\n      0x0a\n        /* \"contracts/KipuBank.sol\":8740:8755  tokenCap[token] */\n      0x00\n        /* \"contracts/KipuBank.sol\":8749:8754  token */\n      dup5\n        /* \"contracts/KipuBank.sol\":8740:8755  tokenCap[token] */\n      0xffffffffffffffffffffffffffffffffffffffff\n      and\n      0xffffffffffffffffffffffffffffffffffffffff\n      and\n      dup2\n      mstore\n      0x20\n      add\n      swap1\n      dup2\n      mstore\n      0x20\n      add\n      0x00\n      keccak256\n        /* \"contracts/KipuBank.sol\":8740:8764  tokenCap[token] = newCap */\n      dup2\n      swap1\n      sstore\n      pop\n        /* \"contracts/KipuBank.sol\":8795:8800  token */\n      dup2\n        /* \"contracts/KipuBank.sol\":8779:8809  TokenCapUpdated(token, newCap) */\n      0xffffffffffffffffffffffffffffffffffffffff\n      and\n      0xb13a5b343485f5dfcbaf032884b3e0fcbfccab798d8f8ea3f867a2fc0b43c54d\n        /* \"contracts/KipuBank.sol\":8802:8808  newCap */\n      dup3\n        /* \"contracts/KipuBank.sol\":8779:8809  TokenCapUpdated(token, newCap) */\n      mload(0x40)\n      tag_204\n      swap2\n      swap1\n      tag_55\n      jump\t// in\n    tag_204:\n      mload(0x40)\n      dup1\n      swap2\n      sub\n      swap1\n      log2\n        /* \"contracts/KipuBank.sol\":8659:8816  function setTokenCap(address token, uint256 newCap) external onlyOwner {... */\n      pop\n      pop\n      jump\t// out\n        /* \"@openzeppelin/contracts/access/AccessControl.sol\":3786:3906  function getRoleAdmin(bytes32 role) public view virtual returns (bytes32) {... */\n    tag_69:\n        /* \"@openzeppelin/contracts/access/AccessControl.sol\":3851:3858  bytes32 */\n      0x00\n        /* \"@openzeppelin/contracts/access/AccessControl.sol\":3877:3883  _roles */\n      0x00\n        /* \"@openzeppelin/contracts/access/AccessControl.sol\":3877:3889  _roles[role] */\n      0x00\n        /* \"@openzeppelin/contracts/access/AccessControl.sol\":3884:3888  role */\n      dup4\n        /* \"@openzeppelin/contracts/access/AccessControl.sol\":3877:3889  _roles[role] */\n      dup2\n      mstore\n      0x20\n      add\n      swap1\n      dup2\n      mstore\n      0x20\n      add\n      0x00\n      keccak256\n        /* \"@openzeppelin/contracts/access/AccessControl.sol\":3877:3899  _roles[role].adminRole */\n      0x01\n      add\n      sload\n        /* \"@openzeppelin/contracts/access/AccessControl.sol\":3870:3899  return _roles[role].adminRole */\n      swap1\n      pop\n        /* \"@openzeppelin/contracts/access/AccessControl.sol\":3786:3906  function getRoleAdmin(bytes32 role) public view virtual returns (bytes32) {... */\n      swap2\n      swap1\n      pop\n      jump\t// out\n        /* \"contracts/KipuBank.sol\":1069:1096  uint256 public depositCount */\n    tag_74:\n      sload(0x06)\n      dup2\n      jump\t// out\n        /* \"contracts/KipuBank.sol\":12124:12864  function withdraw(uint256 _amount) external nonZeroAmount(_amount) {... */\n    tag_79:\n        /* \"contracts/KipuBank.sol\":12182:12189  _amount */\n      dup1\n        /* \"contracts/KipuBank.sol\":3137:3138  0 */\n      0x00\n        /* \"contracts/KipuBank.sol\":3126:3133  _amount */\n      dup2\n        /* \"contracts/KipuBank.sol\":3126:3138  _amount == 0 */\n      sub\n        /* \"contracts/KipuBank.sol\":3122:3201  if (_amount == 0) {... */\n      tag_207\n      jumpi\n        /* \"contracts/KipuBank.sol\":3161:3190  AmountMustBeGreaterThanZero() */\n      mload(0x40)\n      0x5e85ae7300000000000000000000000000000000000000000000000000000000\n      dup2\n      mstore\n      0x04\n      add\n      mload(0x40)\n      dup1\n      swap2\n      sub\n      swap1\n      revert\n        /* \"contracts/KipuBank.sol\":3122:3201  if (_amount == 0) {... */\n    tag_207:\n        /* \"contracts/KipuBank.sol\":12215:12230  withdrawalLimit */\n      immutable(\"0x33cc19d79febe2413fb9e204aeb684d47982ef5754538b90a83e403603eda384\")\n        /* \"contracts/KipuBank.sol\":12205:12212  _amount */\n      dup3\n        /* \"contracts/KipuBank.sol\":12205:12230  _amount > withdrawalLimit */\n      gt\n        /* \"contracts/KipuBank.sol\":12201:12313  if (_amount > withdrawalLimit) {... */\n      iszero\n      tag_209\n      jumpi\n        /* \"contracts/KipuBank.sol\":12277:12284  _amount */\n      dup2\n        /* \"contracts/KipuBank.sol\":12286:12301  withdrawalLimit */\n      immutable(\"0x33cc19d79febe2413fb9e204aeb684d47982ef5754538b90a83e403603eda384\")\n        /* \"contracts/KipuBank.sol\":12253:12302  WithdrawalLimitExceeded(_amount, withdrawalLimit) */\n      mload(0x40)\n      0xb945e2d800000000000000000000000000000000000000000000000000000000\n      dup2\n      mstore\n      0x04\n      add\n      tag_210\n      swap3\n      swap2\n      swap1\n      tag_211\n      jump\t// in\n    tag_210:\n      mload(0x40)\n      dup1\n      swap2\n      sub\n      swap1\n      revert\n        /* \"contracts/KipuBank.sol\":12201:12313  if (_amount > withdrawalLimit) {... */\n    tag_209:\n        /* \"contracts/KipuBank.sol\":12386:12403  uint256 usdValue8 */\n      0x00\n        /* \"contracts/KipuBank.sol\":12406:12429  quoteWeiInUsd8(_amount) */\n      tag_212\n        /* \"contracts/KipuBank.sol\":12421:12428  _amount */\n      dup4\n        /* \"contracts/KipuBank.sol\":12406:12420  quoteWeiInUsd8 */\n      tag_53\n        /* \"contracts/KipuBank.sol\":12406:12429  quoteWeiInUsd8(_amount) */\n      jump\t// in\n    tag_212:\n        /* \"contracts/KipuBank.sol\":12386:12429  uint256 usdValue8 = quoteWeiInUsd8(_amount) */\n      swap1\n      pop\n        /* \"contracts/KipuBank.sol\":756:767  1_000 * 1e8 */\n      0x174876e800\n        /* \"contracts/KipuBank.sol\":12447:12456  usdValue8 */\n      dup2\n        /* \"contracts/KipuBank.sol\":12447:12478  usdValue8 <= MAX_WITHDRAW_USD_8 */\n      gt\n      iszero\n        /* \"contracts/KipuBank.sol\":12439:12502  require(usdValue8 <= MAX_WITHDRAW_USD_8, \"withdraw > 1000 USD\") */\n      tag_213\n      jumpi\n      mload(0x40)\n      0x08c379a000000000000000000000000000000000000000000000000000000000\n      dup2\n      mstore\n      0x04\n      add\n      tag_214\n      swap1\n      tag_215\n      jump\t// in\n    tag_214:\n      mload(0x40)\n      dup1\n      swap2\n      sub\n      swap1\n      revert\n    tag_213:\n        /* \"contracts/KipuBank.sol\":12513:12532  uint256 userBalance */\n      0x00\n        /* \"contracts/KipuBank.sol\":12535:12541  vaults */\n      0x04\n        /* \"contracts/KipuBank.sol\":12535:12553  vaults[msg.sender] */\n      0x00\n        /* \"contracts/KipuBank.sol\":12542:12552  msg.sender */\n      caller\n        /* \"contracts/KipuBank.sol\":12535:12553  vaults[msg.sender] */\n      0xffffffffffffffffffffffffffffffffffffffff\n      and\n      0xffffffffffffffffffffffffffffffffffffffff\n      and\n      dup2\n      mstore\n      0x20\n      add\n      swap1\n      dup2\n      mstore\n      0x20\n      add\n      0x00\n      keccak256\n      sload\n        /* \"contracts/KipuBank.sol\":12513:12553  uint256 userBalance = vaults[msg.sender] */\n      swap1\n      pop\n        /* \"contracts/KipuBank.sol\":12577:12588  userBalance */\n      dup1\n        /* \"contracts/KipuBank.sol\":12567:12574  _amount */\n      dup5\n        /* \"contracts/KipuBank.sol\":12567:12588  _amount > userBalance */\n      gt\n        /* \"contracts/KipuBank.sol\":12563:12663  if (_amount > userBalance) {... */\n      iszero\n      tag_216\n      jumpi\n        /* \"contracts/KipuBank.sol\":12631:12642  userBalance */\n      dup1\n        /* \"contracts/KipuBank.sol\":12644:12651  _amount */\n      dup5\n        /* \"contracts/KipuBank.sol\":12611:12652  InsufficientBalance(userBalance, _amount) */\n      mload(0x40)\n      0xcf47918100000000000000000000000000000000000000000000000000000000\n      dup2\n      mstore\n      0x04\n      add\n      tag_217\n      swap3\n      swap2\n      swap1\n      tag_211\n      jump\t// in\n    tag_217:\n      mload(0x40)\n      dup1\n      swap2\n      sub\n      swap1\n      revert\n        /* \"contracts/KipuBank.sol\":12563:12663  if (_amount > userBalance) {... */\n    tag_216:\n        /* \"contracts/KipuBank.sol\":12695:12702  _amount */\n      dup4\n        /* \"contracts/KipuBank.sol\":12673:12679  vaults */\n      0x04\n        /* \"contracts/KipuBank.sol\":12673:12691  vaults[msg.sender] */\n      0x00\n        /* \"contracts/KipuBank.sol\":12680:12690  msg.sender */\n      caller\n        /* \"contracts/KipuBank.sol\":12673:12691  vaults[msg.sender] */\n      0xffffffffffffffffffffffffffffffffffffffff\n      and\n      0xffffffffffffffffffffffffffffffffffffffff\n      and\n      dup2\n      mstore\n      0x20\n      add\n      swap1\n      dup2\n      mstore\n      0x20\n      add\n      0x00\n      keccak256\n      0x00\n        /* \"contracts/KipuBank.sol\":12673:12702  vaults[msg.sender] -= _amount */\n      dup3\n      dup3\n      sload\n      tag_218\n      swap2\n      swap1\n      tag_219\n      jump\t// in\n    tag_218:\n      swap3\n      pop\n      pop\n      dup2\n      swap1\n      sstore\n      pop\n        /* \"contracts/KipuBank.sol\":12732:12739  _amount */\n      dup4\n        /* \"contracts/KipuBank.sol\":12712:12728  totalBankBalance */\n      0x05\n      0x00\n        /* \"contracts/KipuBank.sol\":12712:12739  totalBankBalance -= _amount */\n      dup3\n      dup3\n      sload\n      tag_220\n      swap2\n      swap1\n      tag_219\n      jump\t// in\n    tag_220:\n      swap3\n      pop\n      pop\n      dup2\n      swap1\n      sstore\n      pop\n        /* \"contracts/KipuBank.sol\":12749:12764  withdrawalCount */\n      0x07\n      0x00\n        /* \"contracts/KipuBank.sol\":12749:12766  withdrawalCount++ */\n      dup2\n      sload\n      dup1\n      swap3\n      swap2\n      swap1\n      tag_221\n      swap1\n      tag_222\n      jump\t// in\n    tag_221:\n      swap2\n      swap1\n      pop\n      sstore\n      pop\n        /* \"contracts/KipuBank.sol\":12777:12811  _safeTransfer(msg.sender, _amount) */\n      tag_223\n        /* \"contracts/KipuBank.sol\":12791:12801  msg.sender */\n      caller\n        /* \"contracts/KipuBank.sol\":12803:12810  _amount */\n      dup6\n        /* \"contracts/KipuBank.sol\":12777:12790  _safeTransfer */\n      tag_224\n        /* \"contracts/KipuBank.sol\":12777:12811  _safeTransfer(msg.sender, _amount) */\n      jump\t// in\n    tag_223:\n        /* \"contracts/KipuBank.sol\":12837:12847  msg.sender */\n      caller\n        /* \"contracts/KipuBank.sol\":12826:12857  Withdrawal(msg.sender, _amount) */\n      0xffffffffffffffffffffffffffffffffffffffff\n      and\n      0x7fcf532c15f0a6db0bd6d0e038bea71d30d808c7d98cb3bf7268a95bf5081b65\n        /* \"contracts/KipuBank.sol\":12849:12856  _amount */\n      dup6\n        /* \"contracts/KipuBank.sol\":12826:12857  Withdrawal(msg.sender, _amount) */\n      mload(0x40)\n      tag_225\n      swap2\n      swap1\n      tag_55\n      jump\t// in\n    tag_225:\n      mload(0x40)\n      dup1\n      swap2\n      sub\n      swap1\n      log2\n        /* \"contracts/KipuBank.sol\":12191:12864  {... */\n      pop\n      pop\n        /* \"contracts/KipuBank.sol\":12124:12864  function withdraw(uint256 _amount) external nonZeroAmount(_amount) {... */\n      pop\n      pop\n      jump\t// out\n        /* \"@openzeppelin/contracts/access/AccessControl.sol\":4202:4338  function grantRole(bytes32 role, address account) public virtual onlyRole(getRoleAdmin(role)) {... */\n    tag_84:\n        /* \"@openzeppelin/contracts/access/AccessControl.sol\":4276:4294  getRoleAdmin(role) */\n      tag_226\n        /* \"@openzeppelin/contracts/access/AccessControl.sol\":4289:4293  role */\n      dup3\n        /* \"@openzeppelin/contracts/access/AccessControl.sol\":4276:4288  getRoleAdmin */\n      tag_69\n        /* \"@openzeppelin/contracts/access/AccessControl.sol\":4276:4294  getRoleAdmin(role) */\n      jump\t// in\n    tag_226:\n        /* \"@openzeppelin/contracts/access/AccessControl.sol\":2473:2489  _checkRole(role) */\n      tag_228\n        /* \"@openzeppelin/contracts/access/AccessControl.sol\":2484:2488  role */\n      dup2\n        /* \"@openzeppelin/contracts/access/AccessControl.sol\":2473:2483  _checkRole */\n      tag_229\n        /* \"@openzeppelin/contracts/access/AccessControl.sol\":2473:2489  _checkRole(role) */\n      jump\t// in\n    tag_228:\n        /* \"@openzeppelin/contracts/access/AccessControl.sol\":4306:4331  _grantRole(role, account) */\n      tag_231\n        /* \"@openzeppelin/contracts/access/AccessControl.sol\":4317:4321  role */\n      dup4\n        /* \"@openzeppelin/contracts/access/AccessControl.sol\":4323:4330  account */\n      dup4\n        /* \"@openzeppelin/contracts/access/AccessControl.sol\":4306:4316  _grantRole */\n      tag_232\n        /* \"@openzeppelin/contracts/access/AccessControl.sol\":4306:4331  _grantRole(role, account) */\n      jump\t// in\n    tag_231:\n      pop\n        /* \"@openzeppelin/contracts/access/AccessControl.sol\":4202:4338  function grantRole(bytes32 role, address account) public virtual onlyRole(getRoleAdmin(role)) {... */\n      pop\n      pop\n      pop\n      jump\t// out\n        /* \"contracts/KipuBank.sol\":562:628  bytes32 public constant RECOVERY_ROLE = keccak256(\"RECOVERY_ROLE\") */\n    tag_87:\n        /* \"contracts/KipuBank.sol\":602:628  keccak256(\"RECOVERY_ROLE\") */\n      0x0acf805600123ef007091da3b3ffb39474074c656c127aa68cb0ffec232a8ff8\n        /* \"contracts/KipuBank.sol\":562:628  bytes32 public constant RECOVERY_ROLE = keccak256(\"RECOVERY_ROLE\") */\n      dup2\n      jump\t// out\n        /* \"contracts/KipuBank.sol\":10987:11115  function setBankCap(uint256 _newCap) external onlyOwner {... */\n    tag_92:\n        /* \"contracts/KipuBank.sol\":2873:2878  owner */\n      0x02\n      0x00\n      swap1\n      sload\n      swap1\n      0x0100\n      exp\n      swap1\n      div\n      0xffffffffffffffffffffffffffffffffffffffff\n      and\n        /* \"contracts/KipuBank.sol\":2859:2878  msg.sender != owner */\n      0xffffffffffffffffffffffffffffffffffffffff\n      and\n        /* \"contracts/KipuBank.sol\":2859:2869  msg.sender */\n      caller\n        /* \"contracts/KipuBank.sol\":2859:2878  msg.sender != owner */\n      0xffffffffffffffffffffffffffffffffffffffff\n      and\n      eq\n        /* \"contracts/KipuBank.sol\":2855:2922  if (msg.sender != owner) {... */\n      tag_234\n      jumpi\n        /* \"contracts/KipuBank.sol\":2901:2911  NotOwner() */\n      mload(0x40)\n      0x30cd747100000000000000000000000000000000000000000000000000000000\n      dup2\n      mstore\n      0x04\n      add\n      mload(0x40)\n      dup1\n      swap2\n      sub\n      swap1\n      revert\n        /* \"contracts/KipuBank.sol\":2855:2922  if (msg.sender != owner) {... */\n    tag_234:\n        /* \"contracts/KipuBank.sol\":11063:11070  _newCap */\n      dup1\n        /* \"contracts/KipuBank.sol\":11053:11060  bankCap */\n      0x03\n        /* \"contracts/KipuBank.sol\":11053:11070  bankCap = _newCap */\n      dup2\n      swap1\n      sstore\n      pop\n        /* \"contracts/KipuBank.sol\":11085:11108  BankCapUpdated(_newCap) */\n      0xbb1d6466d6b9cb3ce29a9dcd7cc2e51ee7e921992290f96d813b174787857a8c\n        /* \"contracts/KipuBank.sol\":11100:11107  _newCap */\n      dup2\n        /* \"contracts/KipuBank.sol\":11085:11108  BankCapUpdated(_newCap) */\n      mload(0x40)\n      tag_236\n      swap2\n      swap1\n      tag_55\n      jump\t// in\n    tag_236:\n      mload(0x40)\n      dup1\n      swap2\n      sub\n      swap1\n      log1\n        /* \"contracts/KipuBank.sol\":10987:11115  function setBankCap(uint256 _newCap) external onlyOwner {... */\n      pop\n      jump\t// out\n        /* \"@openzeppelin/contracts/access/AccessControl.sol\":5304:5549  function renounceRole(bytes32 role, address callerConfirmation) public virtual {... */\n    tag_96:\n        /* \"@openzeppelin/contracts/access/AccessControl.sol\":5419:5431  _msgSender() */\n      tag_238\n        /* \"@openzeppelin/contracts/access/AccessControl.sol\":5419:5429  _msgSender */\n      tag_239\n        /* \"@openzeppelin/contracts/access/AccessControl.sol\":5419:5431  _msgSender() */\n      jump\t// in\n    tag_238:\n        /* \"@openzeppelin/contracts/access/AccessControl.sol\":5397:5431  callerConfirmation != _msgSender() */\n      0xffffffffffffffffffffffffffffffffffffffff\n      and\n        /* \"@openzeppelin/contracts/access/AccessControl.sol\":5397:5415  callerConfirmation */\n      dup2\n        /* \"@openzeppelin/contracts/access/AccessControl.sol\":5397:5431  callerConfirmation != _msgSender() */\n      0xffffffffffffffffffffffffffffffffffffffff\n      and\n      eq\n        /* \"@openzeppelin/contracts/access/AccessControl.sol\":5393:5495  if (callerConfirmation != _msgSender()) {... */\n      tag_240\n      jumpi\n        /* \"@openzeppelin/contracts/access/AccessControl.sol\":5454:5484  AccessControlBadConfirmation() */\n      mload(0x40)\n      0x6697b23200000000000000000000000000000000000000000000000000000000\n      dup2\n      mstore\n      0x04\n      add\n      mload(0x40)\n      dup1\n      swap2\n      sub\n      swap1\n      revert\n        /* \"@openzeppelin/contracts/access/AccessControl.sol\":5393:5495  if (callerConfirmation != _msgSender()) {... */\n    tag_240:\n        /* \"@openzeppelin/contracts/access/AccessControl.sol\":5505:5542  _revokeRole(role, callerConfirmation) */\n      tag_241\n        /* \"@openzeppelin/contracts/access/AccessControl.sol\":5517:5521  role */\n      dup3\n        /* \"@openzeppelin/contracts/access/AccessControl.sol\":5523:5541  callerConfirmation */\n      dup3\n        /* \"@openzeppelin/contracts/access/AccessControl.sol\":5505:5516  _revokeRole */\n      tag_242\n        /* \"@openzeppelin/contracts/access/AccessControl.sol\":5505:5542  _revokeRole(role, callerConfirmation) */\n      jump\t// in\n    tag_241:\n      pop\n        /* \"@openzeppelin/contracts/access/AccessControl.sol\":5304:5549  function renounceRole(bytes32 role, address callerConfirmation) public virtual {... */\n      pop\n      pop\n      jump\t// out\n        /* \"contracts/KipuBank.sol\":6571:7135  function adminWithdrawFromUser(address fromUser, address payable to, uint256 amount)... */\n    tag_101:\n        /* \"contracts/KipuBank.sol\":602:628  keccak256(\"RECOVERY_ROLE\") */\n      0x0acf805600123ef007091da3b3ffb39474074c656c127aa68cb0ffec232a8ff8\n        /* \"@openzeppelin/contracts/access/AccessControl.sol\":2473:2489  _checkRole(role) */\n      tag_244\n        /* \"@openzeppelin/contracts/access/AccessControl.sol\":2484:2488  role */\n      dup2\n        /* \"@openzeppelin/contracts/access/AccessControl.sol\":2473:2483  _checkRole */\n      tag_229\n        /* \"@openzeppelin/contracts/access/AccessControl.sol\":2473:2489  _checkRole(role) */\n      jump\t// in\n    tag_244:\n        /* \"contracts/KipuBank.sol\":6727:6733  amount */\n      dup2\n        /* \"contracts/KipuBank.sol\":3137:3138  0 */\n      0x00\n        /* \"contracts/KipuBank.sol\":3126:3133  _amount */\n      dup2\n        /* \"contracts/KipuBank.sol\":3126:3138  _amount == 0 */\n      sub\n        /* \"contracts/KipuBank.sol\":3122:3201  if (_amount == 0) {... */\n      tag_246\n      jumpi\n        /* \"contracts/KipuBank.sol\":3161:3190  AmountMustBeGreaterThanZero() */\n      mload(0x40)\n      0x5e85ae7300000000000000000000000000000000000000000000000000000000\n      dup2\n      mstore\n      0x04\n      add\n      mload(0x40)\n      dup1\n      swap2\n      sub\n      swap1\n      revert\n        /* \"contracts/KipuBank.sol\":3122:3201  if (_amount == 0) {... */\n    tag_246:\n        /* \"contracts/KipuBank.sol\":6773:6774  0 */\n      0x00\n        /* \"contracts/KipuBank.sol\":6753:6775  fromUser == address(0) */\n      0xffffffffffffffffffffffffffffffffffffffff\n      and\n        /* \"contracts/KipuBank.sol\":6753:6761  fromUser */\n      dup6\n        /* \"contracts/KipuBank.sol\":6753:6775  fromUser == address(0) */\n      0xffffffffffffffffffffffffffffffffffffffff\n      and\n      eq\n        /* \"contracts/KipuBank.sol\":6753:6795  fromUser == address(0) || to == address(0) */\n      dup1\n      tag_248\n      jumpi\n      pop\n        /* \"contracts/KipuBank.sol\":6793:6794  0 */\n      0x00\n        /* \"contracts/KipuBank.sol\":6779:6795  to == address(0) */\n      0xffffffffffffffffffffffffffffffffffffffff\n      and\n        /* \"contracts/KipuBank.sol\":6779:6781  to */\n      dup5\n        /* \"contracts/KipuBank.sol\":6779:6795  to == address(0) */\n      0xffffffffffffffffffffffffffffffffffffffff\n      and\n      eq\n        /* \"contracts/KipuBank.sol\":6753:6795  fromUser == address(0) || to == address(0) */\n    tag_248:\n        /* \"contracts/KipuBank.sol\":6749:6820  if (fromUser == address(0) || to == address(0)) revert InvalidAddress() */\n      iszero\n      tag_249\n      jumpi\n        /* \"contracts/KipuBank.sol\":6804:6820  InvalidAddress() */\n      mload(0x40)\n      0xe6c4247b00000000000000000000000000000000000000000000000000000000\n      dup2\n      mstore\n      0x04\n      add\n      mload(0x40)\n      dup1\n      swap2\n      sub\n      swap1\n      revert\n        /* \"contracts/KipuBank.sol\":6749:6820  if (fromUser == address(0) || to == address(0)) revert InvalidAddress() */\n    tag_249:\n        /* \"contracts/KipuBank.sol\":6831:6846  uint256 fromBal */\n      0x00\n        /* \"contracts/KipuBank.sol\":6849:6855  vaults */\n      0x04\n        /* \"contracts/KipuBank.sol\":6849:6865  vaults[fromUser] */\n      0x00\n        /* \"contracts/KipuBank.sol\":6856:6864  fromUser */\n      dup8\n        /* \"contracts/KipuBank.sol\":6849:6865  vaults[fromUser] */\n      0xffffffffffffffffffffffffffffffffffffffff\n      and\n      0xffffffffffffffffffffffffffffffffffffffff\n      and\n      dup2\n      mstore\n      0x20\n      add\n      swap1\n      dup2\n      mstore\n      0x20\n      add\n      0x00\n      keccak256\n      sload\n        /* \"contracts/KipuBank.sol\":6831:6865  uint256 fromBal = vaults[fromUser] */\n      swap1\n      pop\n        /* \"contracts/KipuBank.sol\":6888:6895  fromBal */\n      dup1\n        /* \"contracts/KipuBank.sol\":6879:6885  amount */\n      dup5\n        /* \"contracts/KipuBank.sol\":6879:6895  amount > fromBal */\n      gt\n        /* \"contracts/KipuBank.sol\":6875:6940  if (amount > fromBal) revert InsufficientBalance(fromBal, amount) */\n      iszero\n      tag_250\n      jumpi\n        /* \"contracts/KipuBank.sol\":6924:6931  fromBal */\n      dup1\n        /* \"contracts/KipuBank.sol\":6933:6939  amount */\n      dup5\n        /* \"contracts/KipuBank.sol\":6904:6940  InsufficientBalance(fromBal, amount) */\n      mload(0x40)\n      0xcf47918100000000000000000000000000000000000000000000000000000000\n      dup2\n      mstore\n      0x04\n      add\n      tag_251\n      swap3\n      swap2\n      swap1\n      tag_211\n      jump\t// in\n    tag_251:\n      mload(0x40)\n      dup1\n      swap2\n      sub\n      swap1\n      revert\n        /* \"contracts/KipuBank.sol\":6875:6940  if (amount > fromBal) revert InsufficientBalance(fromBal, amount) */\n    tag_250:\n        /* \"contracts/KipuBank.sol\":6980:6986  amount */\n      dup4\n        /* \"contracts/KipuBank.sol\":6970:6977  fromBal */\n      dup2\n        /* \"contracts/KipuBank.sol\":6970:6986  fromBal - amount */\n      tag_252\n      swap2\n      swap1\n      tag_219\n      jump\t// in\n    tag_252:\n        /* \"contracts/KipuBank.sol\":6951:6957  vaults */\n      0x04\n        /* \"contracts/KipuBank.sol\":6951:6967  vaults[fromUser] */\n      0x00\n        /* \"contracts/KipuBank.sol\":6958:6966  fromUser */\n      dup9\n        /* \"contracts/KipuBank.sol\":6951:6967  vaults[fromUser] */\n      0xffffffffffffffffffffffffffffffffffffffff\n      and\n      0xffffffffffffffffffffffffffffffffffffffff\n      and\n      dup2\n      mstore\n      0x20\n      add\n      swap1\n      dup2\n      mstore\n      0x20\n      add\n      0x00\n      keccak256\n        /* \"contracts/KipuBank.sol\":6951:6986  vaults[fromUser] = fromBal - amount */\n      dup2\n      swap1\n      sstore\n      pop\n        /* \"contracts/KipuBank.sol\":7016:7022  amount */\n      dup4\n        /* \"contracts/KipuBank.sol\":6996:7012  totalBankBalance */\n      0x05\n      0x00\n        /* \"contracts/KipuBank.sol\":6996:7022  totalBankBalance -= amount */\n      dup3\n      dup3\n      sload\n      tag_253\n      swap2\n      swap1\n      tag_219\n      jump\t// in\n    tag_253:\n      swap3\n      pop\n      pop\n      dup2\n      swap1\n      sstore\n      pop\n        /* \"contracts/KipuBank.sol\":7033:7058  _safeTransfer(to, amount) */\n      tag_254\n        /* \"contracts/KipuBank.sol\":7047:7049  to */\n      dup6\n        /* \"contracts/KipuBank.sol\":7051:7057  amount */\n      dup6\n        /* \"contracts/KipuBank.sol\":7033:7046  _safeTransfer */\n      tag_224\n        /* \"contracts/KipuBank.sol\":7033:7058  _safeTransfer(to, amount) */\n      jump\t// in\n    tag_254:\n        /* \"contracts/KipuBank.sol\":7117:7127  msg.sender */\n      caller\n        /* \"contracts/KipuBank.sol\":7073:7128  AdminWithdrawFromUser(fromUser, to, amount, msg.sender) */\n      0xffffffffffffffffffffffffffffffffffffffff\n      and\n        /* \"contracts/KipuBank.sol\":7105:7107  to */\n      dup6\n        /* \"contracts/KipuBank.sol\":7073:7128  AdminWithdrawFromUser(fromUser, to, amount, msg.sender) */\n      0xffffffffffffffffffffffffffffffffffffffff\n      and\n        /* \"contracts/KipuBank.sol\":7095:7103  fromUser */\n      dup8\n        /* \"contracts/KipuBank.sol\":7073:7128  AdminWithdrawFromUser(fromUser, to, amount, msg.sender) */\n      0xffffffffffffffffffffffffffffffffffffffff\n      and\n      0xa2ec0e896f84a6c3af242072e615b439c765f906b0d00d14dfa84fd9245609b2\n        /* \"contracts/KipuBank.sol\":7109:7115  amount */\n      dup8\n        /* \"contracts/KipuBank.sol\":7073:7128  AdminWithdrawFromUser(fromUser, to, amount, msg.sender) */\n      mload(0x40)\n      tag_255\n      swap2\n      swap1\n      tag_55\n      jump\t// in\n    tag_255:\n      mload(0x40)\n      dup1\n      swap2\n      sub\n      swap1\n      log4\n        /* \"contracts/KipuBank.sol\":6739:7135  {... */\n      pop\n        /* \"@openzeppelin/contracts/access/AccessControl.sol\":2499:2500  _ */\n      pop\n        /* \"contracts/KipuBank.sol\":6571:7135  function adminWithdrawFromUser(address fromUser, address payable to, uint256 amount)... */\n      pop\n      pop\n      pop\n      pop\n      jump\t// out\n        /* \"contracts/KipuBank.sol\":711:767  uint256 public constant MAX_WITHDRAW_USD_8 = 1_000 * 1e8 */\n    tag_104:\n        /* \"contracts/KipuBank.sol\":756:767  1_000 * 1e8 */\n      0x174876e800\n        /* \"contracts/KipuBank.sol\":711:767  uint256 public constant MAX_WITHDRAW_USD_8 = 1_000 * 1e8 */\n      dup2\n      jump\t// out\n        /* \"contracts/KipuBank.sol\":1103:1133  uint256 public withdrawalCount */\n    tag_108:\n      sload(0x07)\n      dup2\n      jump\t// out\n        /* \"contracts/KipuBank.sol\":1303:1346  mapping(address => uint256) public tokenCap */\n    tag_114:\n      mstore(0x20, 0x0a)\n      dup1\n      0x00\n      mstore\n      keccak256(0x00, 0x40)\n      0x00\n      swap2\n      pop\n      swap1\n      pop\n      sload\n      dup2\n      jump\t// out\n        /* \"contracts/KipuBank.sol\":888:928  uint256 public immutable withdrawalLimit */\n    tag_118:\n      immutable(\"0x33cc19d79febe2413fb9e204aeb684d47982ef5754538b90a83e403603eda384\")\n      dup2\n      jump\t// out\n        /* \"contracts/KipuBank.sol\":650:689  AggregatorV3Interface public ethUsdFeed */\n    tag_122:\n      0x01\n      0x00\n      swap1\n      sload\n      swap1\n      0x0100\n      exp\n      swap1\n      div\n      0xffffffffffffffffffffffffffffffffffffffff\n      and\n      dup2\n      jump\t// out\n        /* \"contracts/KipuBank.sol\":7344:8157  function getEthUsdPrice8() public view returns (uint256 price8) {... */\n    tag_127:\n        /* \"contracts/KipuBank.sol\":7392:7406  uint256 price8 */\n      0x00\n        /* \"contracts/KipuBank.sol\":7432:7446  uint80 roundId */\n      0x00\n        /* \"contracts/KipuBank.sol\":7460:7473  int256 answer */\n      0x00\n        /* \"contracts/KipuBank.sol\":7514:7531  uint256 updatedAt */\n      0x00\n        /* \"contracts/KipuBank.sol\":7545:7567  uint80 answeredInRound */\n      0x00\n        /* \"contracts/KipuBank.sol\":7580:7590  ethUsdFeed */\n      0x01\n      0x00\n      swap1\n      sload\n      swap1\n      0x0100\n      exp\n      swap1\n      div\n      0xffffffffffffffffffffffffffffffffffffffff\n      and\n        /* \"contracts/KipuBank.sol\":7580:7606  ethUsdFeed.latestRoundData */\n      0xffffffffffffffffffffffffffffffffffffffff\n      and\n      0xfeaf968c\n        /* \"contracts/KipuBank.sol\":7580:7608  ethUsdFeed.latestRoundData() */\n      mload(0x40)\n      dup2\n      0xffffffff\n      and\n      0xe0\n      shl\n      dup2\n      mstore\n      0x04\n      add\n      0xa0\n      mload(0x40)\n      dup1\n      dup4\n      sub\n      dup2\n      dup7\n      gas\n      staticcall\n      iszero\n      dup1\n      iszero\n      tag_258\n      jumpi\n      returndatacopy(0x00, 0x00, returndatasize)\n      revert(0x00, returndatasize)\n    tag_258:\n      pop\n      pop\n      pop\n      pop\n      mload(0x40)\n      returndatasize\n      not(0x1f)\n      0x1f\n      dup3\n      add\n      and\n      dup3\n      add\n      dup1\n      0x40\n      mstore\n      pop\n      dup2\n      add\n      swap1\n      tag_259\n      swap2\n      swap1\n      tag_260\n      jump\t// in\n    tag_259:\n        /* \"contracts/KipuBank.sol\":7418:7608  (... */\n      swap5\n      pop\n      swap5\n      pop\n      pop\n      swap4\n      pop\n      swap4\n      pop\n        /* \"contracts/KipuBank.sol\":7646:7653  roundId */\n      dup4\n        /* \"contracts/KipuBank.sol\":7627:7653  answeredInRound >= roundId */\n      0xffffffffffffffffffff\n      and\n        /* \"contracts/KipuBank.sol\":7627:7642  answeredInRound */\n      dup2\n        /* \"contracts/KipuBank.sol\":7627:7653  answeredInRound >= roundId */\n      0xffffffffffffffffffff\n      and\n      lt\n      iszero\n        /* \"contracts/KipuBank.sol\":7619:7669  require(answeredInRound >= roundId, \"stale round\") */\n      tag_261\n      jumpi\n      mload(0x40)\n      0x08c379a000000000000000000000000000000000000000000000000000000000\n      dup2\n      mstore\n      0x04\n      add\n      tag_262\n      swap1\n      tag_263\n      jump\t// in\n    tag_262:\n      mload(0x40)\n      dup1\n      swap2\n      sub\n      swap1\n      revert\n    tag_261:\n        /* \"contracts/KipuBank.sol\":7700:7701  0 */\n      0x00\n        /* \"contracts/KipuBank.sol\":7687:7696  updatedAt */\n      dup3\n        /* \"contracts/KipuBank.sol\":7687:7701  updatedAt != 0 */\n      eq\n      iszero\n        /* \"contracts/KipuBank.sol\":7687:7749  updatedAt != 0 && block.timestamp - updatedAt <= MAX_PRICE_AGE */\n      dup1\n      iszero\n      tag_264\n      jumpi\n      pop\n        /* \"contracts/KipuBank.sol\":829:836  1 hours */\n      0x0e10\n        /* \"contracts/KipuBank.sol\":7723:7732  updatedAt */\n      dup3\n        /* \"contracts/KipuBank.sol\":7705:7720  block.timestamp */\n      timestamp\n        /* \"contracts/KipuBank.sol\":7705:7732  block.timestamp - updatedAt */\n      tag_265\n      swap2\n      swap1\n      tag_219\n      jump\t// in\n    tag_265:\n        /* \"contracts/KipuBank.sol\":7705:7749  block.timestamp - updatedAt <= MAX_PRICE_AGE */\n      gt\n      iszero\n        /* \"contracts/KipuBank.sol\":7687:7749  updatedAt != 0 && block.timestamp - updatedAt <= MAX_PRICE_AGE */\n    tag_264:\n        /* \"contracts/KipuBank.sol\":7679:7765  require(updatedAt != 0 && block.timestamp - updatedAt <= MAX_PRICE_AGE, \"stale price\") */\n      tag_266\n      jumpi\n      mload(0x40)\n      0x08c379a000000000000000000000000000000000000000000000000000000000\n      dup2\n      mstore\n      0x04\n      add\n      tag_267\n      swap1\n      tag_268\n      jump\t// in\n    tag_267:\n      mload(0x40)\n      dup1\n      swap2\n      sub\n      swap1\n      revert\n    tag_266:\n        /* \"contracts/KipuBank.sol\":7792:7793  0 */\n      0x00\n        /* \"contracts/KipuBank.sol\":7783:7789  answer */\n      dup4\n        /* \"contracts/KipuBank.sol\":7783:7793  answer > 0 */\n      sgt\n        /* \"contracts/KipuBank.sol\":7775:7811  require(answer > 0, \"invalid price\") */\n      tag_269\n      jumpi\n      mload(0x40)\n      0x08c379a000000000000000000000000000000000000000000000000000000000\n      dup2\n      mstore\n      0x04\n      add\n      tag_270\n      swap1\n      tag_271\n      jump\t// in\n    tag_270:\n      mload(0x40)\n      dup1\n      swap2\n      sub\n      swap1\n      revert\n    tag_269:\n        /* \"contracts/KipuBank.sol\":7822:7836  uint8 decimals */\n      0x00\n        /* \"contracts/KipuBank.sol\":7839:7849  ethUsdFeed */\n      0x01\n      0x00\n      swap1\n      sload\n      swap1\n      0x0100\n      exp\n      swap1\n      div\n      0xffffffffffffffffffffffffffffffffffffffff\n      and\n        /* \"contracts/KipuBank.sol\":7839:7858  ethUsdFeed.decimals */\n      0xffffffffffffffffffffffffffffffffffffffff\n      and\n      0x313ce567\n        /* \"contracts/KipuBank.sol\":7839:7860  ethUsdFeed.decimals() */\n      mload(0x40)\n      dup2\n      0xffffffff\n      and\n      0xe0\n      shl\n      dup2\n      mstore\n      0x04\n      add\n      0x20\n      mload(0x40)\n      dup1\n      dup4\n      sub\n      dup2\n      dup7\n      gas\n      staticcall\n      iszero\n      dup1\n      iszero\n      tag_273\n      jumpi\n      returndatacopy(0x00, 0x00, returndatasize)\n      revert(0x00, returndatasize)\n    tag_273:\n      pop\n      pop\n      pop\n      pop\n      mload(0x40)\n      returndatasize\n      not(0x1f)\n      0x1f\n      dup3\n      add\n      and\n      dup3\n      add\n      dup1\n      0x40\n      mstore\n      pop\n      dup2\n      add\n      swap1\n      tag_274\n      swap2\n      swap1\n      tag_275\n      jump\t// in\n    tag_274:\n        /* \"contracts/KipuBank.sol\":7822:7860  uint8 decimals = ethUsdFeed.decimals() */\n      swap1\n      pop\n        /* \"contracts/KipuBank.sol\":7927:7928  8 */\n      0x08\n        /* \"contracts/KipuBank.sol\":7915:7923  decimals */\n      dup2\n        /* \"contracts/KipuBank.sol\":7915:7928  decimals == 8 */\n      0xff\n      and\n      sub\n        /* \"contracts/KipuBank.sol\":7911:8151  if (decimals == 8) {... */\n      tag_276\n      jumpi\n        /* \"contracts/KipuBank.sol\":7959:7965  answer */\n      dup4\n        /* \"contracts/KipuBank.sol\":7944:7966  return uint256(answer) */\n      swap6\n      pop\n      pop\n      pop\n      pop\n      pop\n      pop\n      jump(tag_256)\n        /* \"contracts/KipuBank.sol\":7911:8151  if (decimals == 8) {... */\n    tag_276:\n        /* \"contracts/KipuBank.sol\":7998:7999  8 */\n      0x08\n        /* \"contracts/KipuBank.sol\":7987:7995  decimals */\n      dup2\n        /* \"contracts/KipuBank.sol\":7987:7999  decimals > 8 */\n      0xff\n      and\n      gt\n        /* \"contracts/KipuBank.sol\":7983:8151  if (decimals > 8) {... */\n      iszero\n      tag_278\n      jumpi\n        /* \"contracts/KipuBank.sol\":8059:8060  8 */\n      0x08\n        /* \"contracts/KipuBank.sol\":8048:8056  decimals */\n      dup2\n        /* \"contracts/KipuBank.sol\":8048:8060  decimals - 8 */\n      tag_279\n      swap2\n      swap1\n      tag_280\n      jump\t// in\n    tag_279:\n        /* \"contracts/KipuBank.sol\":8041:8043  10 */\n      0x0a\n        /* \"contracts/KipuBank.sol\":8041:8061  10 ** (decimals - 8) */\n      tag_281\n      swap2\n      swap1\n      tag_282\n      jump\t// in\n    tag_281:\n        /* \"contracts/KipuBank.sol\":8030:8036  answer */\n      dup5\n        /* \"contracts/KipuBank.sol\":8022:8062  uint256(answer) / (10 ** (decimals - 8)) */\n      tag_283\n      swap2\n      swap1\n      tag_200\n      jump\t// in\n    tag_283:\n        /* \"contracts/KipuBank.sol\":8015:8062  return uint256(answer) / (10 ** (decimals - 8)) */\n      swap6\n      pop\n      pop\n      pop\n      pop\n      pop\n      pop\n      jump(tag_256)\n        /* \"contracts/KipuBank.sol\":7983:8151  if (decimals > 8) {... */\n    tag_278:\n        /* \"contracts/KipuBank.sol\":8130:8138  decimals */\n      dup1\n        /* \"contracts/KipuBank.sol\":8126:8127  8 */\n      0x08\n        /* \"contracts/KipuBank.sol\":8126:8138  8 - decimals */\n      tag_285\n      swap2\n      swap1\n      tag_280\n      jump\t// in\n    tag_285:\n        /* \"contracts/KipuBank.sol\":8119:8121  10 */\n      0x0a\n        /* \"contracts/KipuBank.sol\":8119:8139  10 ** (8 - decimals) */\n      tag_286\n      swap2\n      swap1\n      tag_282\n      jump\t// in\n    tag_286:\n        /* \"contracts/KipuBank.sol\":8108:8114  answer */\n      dup5\n        /* \"contracts/KipuBank.sol\":8100:8140  uint256(answer) * (10 ** (8 - decimals)) */\n      tag_287\n      swap2\n      swap1\n      tag_198\n      jump\t// in\n    tag_287:\n        /* \"contracts/KipuBank.sol\":8093:8140  return uint256(answer) * (10 ** (8 - decimals)) */\n      swap6\n      pop\n      pop\n      pop\n      pop\n      pop\n      pop\n        /* \"contracts/KipuBank.sol\":7344:8157  function getEthUsdPrice8() public view returns (uint256 price8) {... */\n    tag_256:\n      swap1\n      jump\t// out\n        /* \"contracts/KipuBank.sol\":858:878  address public owner */\n    tag_131:\n      0x02\n      0x00\n      swap1\n      sload\n      swap1\n      0x0100\n      exp\n      swap1\n      div\n      0xffffffffffffffffffffffffffffffffffffffff\n      and\n      dup2\n      jump\t// out\n        /* \"@openzeppelin/contracts/access/AccessControl.sol\":2830:2966  function hasRole(bytes32 role, address account) public view virtual returns (bool) {... */\n    tag_137:\n        /* \"@openzeppelin/contracts/access/AccessControl.sol\":2907:2911  bool */\n      0x00\n        /* \"@openzeppelin/contracts/access/AccessControl.sol\":2930:2936  _roles */\n      0x00\n        /* \"@openzeppelin/contracts/access/AccessControl.sol\":2930:2942  _roles[role] */\n      0x00\n        /* \"@openzeppelin/contracts/access/AccessControl.sol\":2937:2941  role */\n      dup5\n        /* \"@openzeppelin/contracts/access/AccessControl.sol\":2930:2942  _roles[role] */\n      dup2\n      mstore\n      0x20\n      add\n      swap1\n      dup2\n      mstore\n      0x20\n      add\n      0x00\n      keccak256\n        /* \"@openzeppelin/contracts/access/AccessControl.sol\":2930:2950  _roles[role].hasRole */\n      0x00\n      add\n        /* \"@openzeppelin/contracts/access/AccessControl.sol\":2930:2959  _roles[role].hasRole[account] */\n      0x00\n        /* \"@openzeppelin/contracts/access/AccessControl.sol\":2951:2958  account */\n      dup4\n        /* \"@openzeppelin/contracts/access/AccessControl.sol\":2930:2959  _roles[role].hasRole[account] */\n      0xffffffffffffffffffffffffffffffffffffffff\n      and\n      0xffffffffffffffffffffffffffffffffffffffff\n      and\n      dup2\n      mstore\n      0x20\n      add\n      swap1\n      dup2\n      mstore\n      0x20\n      add\n      0x00\n      keccak256\n      0x00\n      swap1\n      sload\n      swap1\n      0x0100\n      exp\n      swap1\n      div\n      0xff\n      and\n        /* \"@openzeppelin/contracts/access/AccessControl.sol\":2923:2959  return _roles[role].hasRole[account] */\n      swap1\n      pop\n        /* \"@openzeppelin/contracts/access/AccessControl.sol\":2830:2966  function hasRole(bytes32 role, address account) public view virtual returns (bool) {... */\n      swap3\n      swap2\n      pop\n      pop\n      jump\t// out\n        /* \"contracts/KipuBank.sol\":9011:9940  function depositERC20(address token, uint256 amount)... */\n    tag_142:\n        /* \"contracts/KipuBank.sol\":9103:9109  amount */\n      dup1\n        /* \"contracts/KipuBank.sol\":3137:3138  0 */\n      0x00\n        /* \"contracts/KipuBank.sol\":3126:3133  _amount */\n      dup2\n        /* \"contracts/KipuBank.sol\":3126:3138  _amount == 0 */\n      sub\n        /* \"contracts/KipuBank.sol\":3122:3201  if (_amount == 0) {... */\n      tag_290\n      jumpi\n        /* \"contracts/KipuBank.sol\":3161:3190  AmountMustBeGreaterThanZero() */\n      mload(0x40)\n      0x5e85ae7300000000000000000000000000000000000000000000000000000000\n      dup2\n      mstore\n      0x04\n      add\n      mload(0x40)\n      dup1\n      swap2\n      sub\n      swap1\n      revert\n        /* \"contracts/KipuBank.sol\":3122:3201  if (_amount == 0) {... */\n    tag_290:\n        /* \"contracts/KipuBank.sol\":9125:9133  IERC20 t */\n      0x00\n        /* \"contracts/KipuBank.sol\":9143:9148  token */\n      dup4\n        /* \"contracts/KipuBank.sol\":9125:9149  IERC20 t = IERC20(token) */\n      swap1\n      pop\n        /* \"contracts/KipuBank.sol\":9159:9176  uint256 beforeBal */\n      0x00\n        /* \"contracts/KipuBank.sol\":9179:9180  t */\n      dup2\n        /* \"contracts/KipuBank.sol\":9179:9190  t.balanceOf */\n      0xffffffffffffffffffffffffffffffffffffffff\n      and\n      0x70a08231\n        /* \"contracts/KipuBank.sol\":9199:9203  this */\n      address\n        /* \"contracts/KipuBank.sol\":9179:9205  t.balanceOf(address(this)) */\n      mload(0x40)\n      dup3\n      0xffffffff\n      and\n      0xe0\n      shl\n      dup2\n      mstore\n      0x04\n      add\n      tag_292\n      swap2\n      swap1\n      tag_133\n      jump\t// in\n    tag_292:\n      0x20\n      mload(0x40)\n      dup1\n      dup4\n      sub\n      dup2\n      dup7\n      gas\n      staticcall\n      iszero\n      dup1\n      iszero\n      tag_294\n      jumpi\n      returndatacopy(0x00, 0x00, returndatasize)\n      revert(0x00, returndatasize)\n    tag_294:\n      pop\n      pop\n      pop\n      pop\n      mload(0x40)\n      returndatasize\n      not(0x1f)\n      0x1f\n      dup3\n      add\n      and\n      dup3\n      add\n      dup1\n      0x40\n      mstore\n      pop\n      dup2\n      add\n      swap1\n      tag_295\n      swap2\n      swap1\n      tag_296\n      jump\t// in\n    tag_295:\n        /* \"contracts/KipuBank.sol\":9159:9205  uint256 beforeBal = t.balanceOf(address(this)) */\n      swap1\n      pop\n        /* \"contracts/KipuBank.sol\":9215:9268  t.safeTransferFrom(msg.sender, address(this), amount) */\n      tag_297\n        /* \"contracts/KipuBank.sol\":9234:9244  msg.sender */\n      caller\n        /* \"contracts/KipuBank.sol\":9254:9258  this */\n      address\n        /* \"contracts/KipuBank.sol\":9261:9267  amount */\n      dup7\n        /* \"contracts/KipuBank.sol\":9215:9216  t */\n      dup6\n        /* \"contracts/KipuBank.sol\":9215:9233  t.safeTransferFrom */\n      0xffffffffffffffffffffffffffffffffffffffff\n      and\n      tag_298\n      swap1\n        /* \"contracts/KipuBank.sol\":9215:9268  t.safeTransferFrom(msg.sender, address(this), amount) */\n      swap4\n      swap3\n      swap2\n      swap1\n      0xffffffff\n      and\n      jump\t// in\n    tag_297:\n        /* \"contracts/KipuBank.sol\":9278:9294  uint256 afterBal */\n      0x00\n        /* \"contracts/KipuBank.sol\":9297:9298  t */\n      dup3\n        /* \"contracts/KipuBank.sol\":9297:9308  t.balanceOf */\n      0xffffffffffffffffffffffffffffffffffffffff\n      and\n      0x70a08231\n        /* \"contracts/KipuBank.sol\":9317:9321  this */\n      address\n        /* \"contracts/KipuBank.sol\":9297:9323  t.balanceOf(address(this)) */\n      mload(0x40)\n      dup3\n      0xffffffff\n      and\n      0xe0\n      shl\n      dup2\n      mstore\n      0x04\n      add\n      tag_299\n      swap2\n      swap1\n      tag_133\n      jump\t// in\n    tag_299:\n      0x20\n      mload(0x40)\n      dup1\n      dup4\n      sub\n      dup2\n      dup7\n      gas\n      staticcall\n      iszero\n      dup1\n      iszero\n      tag_301\n      jumpi\n      returndatacopy(0x00, 0x00, returndatasize)\n      revert(0x00, returndatasize)\n    tag_301:\n      pop\n      pop\n      pop\n      pop\n      mload(0x40)\n      returndatasize\n      not(0x1f)\n      0x1f\n      dup3\n      add\n      and\n      dup3\n      add\n      dup1\n      0x40\n      mstore\n      pop\n      dup2\n      add\n      swap1\n      tag_302\n      swap2\n      swap1\n      tag_296\n      jump\t// in\n    tag_302:\n        /* \"contracts/KipuBank.sol\":9278:9323  uint256 afterBal = t.balanceOf(address(this)) */\n      swap1\n      pop\n        /* \"contracts/KipuBank.sol\":9333:9349  uint256 received */\n      0x00\n        /* \"contracts/KipuBank.sol\":9363:9372  beforeBal */\n      dup3\n        /* \"contracts/KipuBank.sol\":9352:9360  afterBal */\n      dup3\n        /* \"contracts/KipuBank.sol\":9352:9372  afterBal - beforeBal */\n      tag_303\n      swap2\n      swap1\n      tag_219\n      jump\t// in\n    tag_303:\n        /* \"contracts/KipuBank.sol\":9333:9372  uint256 received = afterBal - beforeBal */\n      swap1\n      pop\n        /* \"contracts/KipuBank.sol\":9398:9399  0 */\n      0x00\n        /* \"contracts/KipuBank.sol\":9386:9394  received */\n      dup2\n        /* \"contracts/KipuBank.sol\":9386:9399  received == 0 */\n      sub\n        /* \"contracts/KipuBank.sol\":9382:9437  if (received == 0) revert AmountMustBeGreaterThanZero() */\n      tag_304\n      jumpi\n        /* \"contracts/KipuBank.sol\":9408:9437  AmountMustBeGreaterThanZero() */\n      mload(0x40)\n      0x5e85ae7300000000000000000000000000000000000000000000000000000000\n      dup2\n      mstore\n      0x04\n      add\n      mload(0x40)\n      dup1\n      swap2\n      sub\n      swap1\n      revert\n        /* \"contracts/KipuBank.sol\":9382:9437  if (received == 0) revert AmountMustBeGreaterThanZero() */\n    tag_304:\n        /* \"contracts/KipuBank.sol\":9448:9459  uint256 cap */\n      0x00\n        /* \"contracts/KipuBank.sol\":9462:9470  tokenCap */\n      0x0a\n        /* \"contracts/KipuBank.sol\":9462:9477  tokenCap[token] */\n      0x00\n        /* \"contracts/KipuBank.sol\":9471:9476  token */\n      dup10\n        /* \"contracts/KipuBank.sol\":9462:9477  tokenCap[token] */\n      0xffffffffffffffffffffffffffffffffffffffff\n      and\n      0xffffffffffffffffffffffffffffffffffffffff\n      and\n      dup2\n      mstore\n      0x20\n      add\n      swap1\n      dup2\n      mstore\n      0x20\n      add\n      0x00\n      keccak256\n      sload\n        /* \"contracts/KipuBank.sol\":9448:9477  uint256 cap = tokenCap[token] */\n      swap1\n      pop\n        /* \"contracts/KipuBank.sol\":9497:9498  0 */\n      0x00\n        /* \"contracts/KipuBank.sol\":9491:9494  cap */\n      dup2\n        /* \"contracts/KipuBank.sol\":9491:9498  cap > 0 */\n      gt\n        /* \"contracts/KipuBank.sol\":9487:9825  if (cap > 0) {... */\n      iszero\n      tag_305\n      jumpi\n        /* \"contracts/KipuBank.sol\":9514:9530  uint256 newTotal */\n      0x00\n        /* \"contracts/KipuBank.sol\":9560:9568  received */\n      dup3\n        /* \"contracts/KipuBank.sol\":9533:9550  totalTokenBalance */\n      0x09\n        /* \"contracts/KipuBank.sol\":9533:9557  totalTokenBalance[token] */\n      0x00\n        /* \"contracts/KipuBank.sol\":9551:9556  token */\n      dup12\n        /* \"contracts/KipuBank.sol\":9533:9557  totalTokenBalance[token] */\n      0xffffffffffffffffffffffffffffffffffffffff\n      and\n      0xffffffffffffffffffffffffffffffffffffffff\n      and\n      dup2\n      mstore\n      0x20\n      add\n      swap1\n      dup2\n      mstore\n      0x20\n      add\n      0x00\n      keccak256\n      sload\n        /* \"contracts/KipuBank.sol\":9533:9568  totalTokenBalance[token] + received */\n      tag_306\n      swap2\n      swap1\n      tag_307\n      jump\t// in\n    tag_306:\n        /* \"contracts/KipuBank.sol\":9514:9568  uint256 newTotal = totalTokenBalance[token] + received */\n      swap1\n      pop\n        /* \"contracts/KipuBank.sol\":9597:9600  cap */\n      dup2\n        /* \"contracts/KipuBank.sol\":9586:9594  newTotal */\n      dup2\n        /* \"contracts/KipuBank.sol\":9586:9600  newTotal > cap */\n      gt\n        /* \"contracts/KipuBank.sol\":9582:9699  if (newTotal > cap) {... */\n      iszero\n      tag_308\n      jumpi\n        /* \"contracts/KipuBank.sol\":9649:9666  totalTokenBalance */\n      0x09\n        /* \"contracts/KipuBank.sol\":9649:9673  totalTokenBalance[token] */\n      0x00\n        /* \"contracts/KipuBank.sol\":9667:9672  token */\n      dup11\n        /* \"contracts/KipuBank.sol\":9649:9673  totalTokenBalance[token] */\n      0xffffffffffffffffffffffffffffffffffffffff\n      and\n      0xffffffffffffffffffffffffffffffffffffffff\n      and\n      dup2\n      mstore\n      0x20\n      add\n      swap1\n      dup2\n      mstore\n      0x20\n      add\n      0x00\n      keccak256\n      sload\n        /* \"contracts/KipuBank.sol\":9643:9646  cap */\n      dup3\n        /* \"contracts/KipuBank.sol\":9643:9673  cap - totalTokenBalance[token] */\n      tag_309\n      swap2\n      swap1\n      tag_219\n      jump\t// in\n    tag_309:\n        /* \"contracts/KipuBank.sol\":9675:9683  received */\n      dup4\n        /* \"contracts/KipuBank.sol\":9627:9684  BankCapExceeded(cap - totalTokenBalance[token], received) */\n      mload(0x40)\n      0x31728a0500000000000000000000000000000000000000000000000000000000\n      dup2\n      mstore\n      0x04\n      add\n      tag_310\n      swap3\n      swap2\n      swap1\n      tag_211\n      jump\t// in\n    tag_310:\n      mload(0x40)\n      dup1\n      swap2\n      sub\n      swap1\n      revert\n        /* \"contracts/KipuBank.sol\":9582:9699  if (newTotal > cap) {... */\n    tag_308:\n        /* \"contracts/KipuBank.sol\":9739:9747  newTotal */\n      dup1\n        /* \"contracts/KipuBank.sol\":9712:9729  totalTokenBalance */\n      0x09\n        /* \"contracts/KipuBank.sol\":9712:9736  totalTokenBalance[token] */\n      0x00\n        /* \"contracts/KipuBank.sol\":9730:9735  token */\n      dup12\n        /* \"contracts/KipuBank.sol\":9712:9736  totalTokenBalance[token] */\n      0xffffffffffffffffffffffffffffffffffffffff\n      and\n      0xffffffffffffffffffffffffffffffffffffffff\n      and\n      dup2\n      mstore\n      0x20\n      add\n      swap1\n      dup2\n      mstore\n      0x20\n      add\n      0x00\n      keccak256\n        /* \"contracts/KipuBank.sol\":9712:9747  totalTokenBalance[token] = newTotal */\n      dup2\n      swap1\n      sstore\n      pop\n        /* \"contracts/KipuBank.sol\":9500:9758  {... */\n      pop\n        /* \"contracts/KipuBank.sol\":9487:9825  if (cap > 0) {... */\n      jump(tag_311)\n    tag_305:\n        /* \"contracts/KipuBank.sol\":9806:9814  received */\n      dup2\n        /* \"contracts/KipuBank.sol\":9778:9795  totalTokenBalance */\n      0x09\n        /* \"contracts/KipuBank.sol\":9778:9802  totalTokenBalance[token] */\n      0x00\n        /* \"contracts/KipuBank.sol\":9796:9801  token */\n      dup11\n        /* \"contracts/KipuBank.sol\":9778:9802  totalTokenBalance[token] */\n      0xffffffffffffffffffffffffffffffffffffffff\n      and\n      0xffffffffffffffffffffffffffffffffffffffff\n      and\n      dup2\n      mstore\n      0x20\n      add\n      swap1\n      dup2\n      mstore\n      0x20\n      add\n      0x00\n      keccak256\n      0x00\n        /* \"contracts/KipuBank.sol\":9778:9814  totalTokenBalance[token] += received */\n      dup3\n      dup3\n      sload\n      tag_312\n      swap2\n      swap1\n      tag_307\n      jump\t// in\n    tag_312:\n      swap3\n      pop\n      pop\n      dup2\n      swap1\n      sstore\n      pop\n        /* \"contracts/KipuBank.sol\":9487:9825  if (cap > 0) {... */\n    tag_311:\n        /* \"contracts/KipuBank.sol\":9869:9877  received */\n      dup2\n        /* \"contracts/KipuBank.sol\":9835:9846  erc20Vaults */\n      0x08\n        /* \"contracts/KipuBank.sol\":9835:9853  erc20Vaults[token] */\n      0x00\n        /* \"contracts/KipuBank.sol\":9847:9852  token */\n      dup11\n        /* \"contracts/KipuBank.sol\":9835:9853  erc20Vaults[token] */\n      0xffffffffffffffffffffffffffffffffffffffff\n      and\n      0xffffffffffffffffffffffffffffffffffffffff\n      and\n      dup2\n      mstore\n      0x20\n      add\n      swap1\n      dup2\n      mstore\n      0x20\n      add\n      0x00\n      keccak256\n        /* \"contracts/KipuBank.sol\":9835:9865  erc20Vaults[token][msg.sender] */\n      0x00\n        /* \"contracts/KipuBank.sol\":9854:9864  msg.sender */\n      caller\n        /* \"contracts/KipuBank.sol\":9835:9865  erc20Vaults[token][msg.sender] */\n      0xffffffffffffffffffffffffffffffffffffffff\n      and\n      0xffffffffffffffffffffffffffffffffffffffff\n      and\n      dup2\n      mstore\n      0x20\n      add\n      swap1\n      dup2\n      mstore\n      0x20\n      add\n      0x00\n      keccak256\n      0x00\n        /* \"contracts/KipuBank.sol\":9835:9877  erc20Vaults[token][msg.sender] += received */\n      dup3\n      dup3\n      sload\n      tag_313\n      swap2\n      swap1\n      tag_307\n      jump\t// in\n    tag_313:\n      swap3\n      pop\n      pop\n      dup2\n      swap1\n      sstore\n      pop\n        /* \"contracts/KipuBank.sol\":9912:9922  msg.sender */\n      caller\n        /* \"contracts/KipuBank.sol\":9892:9933  ERC20Deposit(token, msg.sender, received) */\n      0xffffffffffffffffffffffffffffffffffffffff\n      and\n        /* \"contracts/KipuBank.sol\":9905:9910  token */\n      dup9\n        /* \"contracts/KipuBank.sol\":9892:9933  ERC20Deposit(token, msg.sender, received) */\n      0xffffffffffffffffffffffffffffffffffffffff\n      and\n      0xc5a3eaef44f54039a9a9d23d5296c9de6bf83e1b6d4ebd109e85cbcf477737a6\n        /* \"contracts/KipuBank.sol\":9924:9932  received */\n      dup5\n        /* \"contracts/KipuBank.sol\":9892:9933  ERC20Deposit(token, msg.sender, received) */\n      mload(0x40)\n      tag_314\n      swap2\n      swap1\n      tag_55\n      jump\t// in\n    tag_314:\n      mload(0x40)\n      dup1\n      swap2\n      sub\n      swap1\n      log3\n        /* \"contracts/KipuBank.sol\":9115:9940  {... */\n      pop\n      pop\n      pop\n      pop\n      pop\n        /* \"contracts/KipuBank.sol\":9011:9940  function depositERC20(address token, uint256 amount)... */\n      pop\n      pop\n      pop\n      jump\t// out\n        /* \"contracts/KipuBank.sol\":789:836  uint256 public constant MAX_PRICE_AGE = 1 hours */\n    tag_145:\n        /* \"contracts/KipuBank.sol\":829:836  1 hours */\n      0x0e10\n        /* \"contracts/KipuBank.sol\":789:836  uint256 public constant MAX_PRICE_AGE = 1 hours */\n      dup2\n      jump\t// out\n        /* \"contracts/KipuBank.sol\":5845:6330  function adminTopUpUser(address user)... */\n    tag_149:\n        /* \"contracts/KipuBank.sol\":602:628  keccak256(\"RECOVERY_ROLE\") */\n      0x0acf805600123ef007091da3b3ffb39474074c656c127aa68cb0ffec232a8ff8\n        /* \"@openzeppelin/contracts/access/AccessControl.sol\":2473:2489  _checkRole(role) */\n      tag_316\n        /* \"@openzeppelin/contracts/access/AccessControl.sol\":2484:2488  role */\n      dup2\n        /* \"@openzeppelin/contracts/access/AccessControl.sol\":2473:2483  _checkRole */\n      tag_229\n        /* \"@openzeppelin/contracts/access/AccessControl.sol\":2473:2489  _checkRole(role) */\n      jump\t// in\n    tag_316:\n        /* \"contracts/KipuBank.sol\":5970:5979  msg.value */\n      callvalue\n        /* \"contracts/KipuBank.sol\":3137:3138  0 */\n      0x00\n        /* \"contracts/KipuBank.sol\":3126:3133  _amount */\n      dup2\n        /* \"contracts/KipuBank.sol\":3126:3138  _amount == 0 */\n      sub\n        /* \"contracts/KipuBank.sol\":3122:3201  if (_amount == 0) {... */\n      tag_318\n      jumpi\n        /* \"contracts/KipuBank.sol\":3161:3190  AmountMustBeGreaterThanZero() */\n      mload(0x40)\n      0x5e85ae7300000000000000000000000000000000000000000000000000000000\n      dup2\n      mstore\n      0x04\n      add\n      mload(0x40)\n      dup1\n      swap2\n      sub\n      swap1\n      revert\n        /* \"contracts/KipuBank.sol\":3122:3201  if (_amount == 0) {... */\n    tag_318:\n        /* \"contracts/KipuBank.sol\":6015:6016  0 */\n      0x00\n        /* \"contracts/KipuBank.sol\":5999:6017  user == address(0) */\n      0xffffffffffffffffffffffffffffffffffffffff\n      and\n        /* \"contracts/KipuBank.sol\":5999:6003  user */\n      dup4\n        /* \"contracts/KipuBank.sol\":5999:6017  user == address(0) */\n      0xffffffffffffffffffffffffffffffffffffffff\n      and\n      sub\n        /* \"contracts/KipuBank.sol\":5995:6042  if (user == address(0)) revert InvalidAddress() */\n      tag_320\n      jumpi\n        /* \"contracts/KipuBank.sol\":6026:6042  InvalidAddress() */\n      mload(0x40)\n      0xe6c4247b00000000000000000000000000000000000000000000000000000000\n      dup2\n      mstore\n      0x04\n      add\n      mload(0x40)\n      dup1\n      swap2\n      sub\n      swap1\n      revert\n        /* \"contracts/KipuBank.sol\":5995:6042  if (user == address(0)) revert InvalidAddress() */\n    tag_320:\n        /* \"contracts/KipuBank.sol\":6053:6069  uint256 newTotal */\n      0x00\n        /* \"contracts/KipuBank.sol\":6091:6100  msg.value */\n      callvalue\n        /* \"contracts/KipuBank.sol\":6072:6088  totalBankBalance */\n      sload(0x05)\n        /* \"contracts/KipuBank.sol\":6072:6100  totalBankBalance + msg.value */\n      tag_321\n      swap2\n      swap1\n      tag_307\n      jump\t// in\n    tag_321:\n        /* \"contracts/KipuBank.sol\":6053:6100  uint256 newTotal = totalBankBalance + msg.value */\n      swap1\n      pop\n        /* \"contracts/KipuBank.sol\":6125:6132  bankCap */\n      sload(0x03)\n        /* \"contracts/KipuBank.sol\":6114:6122  newTotal */\n      dup2\n        /* \"contracts/KipuBank.sol\":6114:6132  newTotal > bankCap */\n      gt\n        /* \"contracts/KipuBank.sol\":6110:6195  if (newTotal > bankCap) revert BankCapExceeded(bankCap - totalBankBalance, msg.value) */\n      iszero\n      tag_322\n      jumpi\n        /* \"contracts/KipuBank.sol\":6167:6183  totalBankBalance */\n      sload(0x05)\n        /* \"contracts/KipuBank.sol\":6157:6164  bankCap */\n      sload(0x03)\n        /* \"contracts/KipuBank.sol\":6157:6183  bankCap - totalBankBalance */\n      tag_323\n      swap2\n      swap1\n      tag_219\n      jump\t// in\n    tag_323:\n        /* \"contracts/KipuBank.sol\":6185:6194  msg.value */\n      callvalue\n        /* \"contracts/KipuBank.sol\":6141:6195  BankCapExceeded(bankCap - totalBankBalance, msg.value) */\n      mload(0x40)\n      0x31728a0500000000000000000000000000000000000000000000000000000000\n      dup2\n      mstore\n      0x04\n      add\n      tag_324\n      swap3\n      swap2\n      swap1\n      tag_211\n      jump\t// in\n    tag_324:\n      mload(0x40)\n      dup1\n      swap2\n      sub\n      swap1\n      revert\n        /* \"contracts/KipuBank.sol\":6110:6195  if (newTotal > bankCap) revert BankCapExceeded(bankCap - totalBankBalance, msg.value) */\n    tag_322:\n        /* \"contracts/KipuBank.sol\":6222:6231  msg.value */\n      callvalue\n        /* \"contracts/KipuBank.sol\":6206:6212  vaults */\n      0x04\n        /* \"contracts/KipuBank.sol\":6206:6218  vaults[user] */\n      0x00\n        /* \"contracts/KipuBank.sol\":6213:6217  user */\n      dup7\n        /* \"contracts/KipuBank.sol\":6206:6218  vaults[user] */\n      0xffffffffffffffffffffffffffffffffffffffff\n      and\n      0xffffffffffffffffffffffffffffffffffffffff\n      and\n      dup2\n      mstore\n      0x20\n      add\n      swap1\n      dup2\n      mstore\n      0x20\n      add\n      0x00\n      keccak256\n      0x00\n        /* \"contracts/KipuBank.sol\":6206:6231  vaults[user] += msg.value */\n      dup3\n      dup3\n      sload\n      tag_325\n      swap2\n      swap1\n      tag_307\n      jump\t// in\n    tag_325:\n      swap3\n      pop\n      pop\n      dup2\n      swap1\n      sstore\n      pop\n        /* \"contracts/KipuBank.sol\":6260:6268  newTotal */\n      dup1\n        /* \"contracts/KipuBank.sol\":6241:6257  totalBankBalance */\n      0x05\n        /* \"contracts/KipuBank.sol\":6241:6268  totalBankBalance = newTotal */\n      dup2\n      swap1\n      sstore\n      pop\n        /* \"contracts/KipuBank.sol\":6312:6322  msg.sender */\n      caller\n        /* \"contracts/KipuBank.sol\":6284:6323  AdminTopUp(user, msg.value, msg.sender) */\n      0xffffffffffffffffffffffffffffffffffffffff\n      and\n        /* \"contracts/KipuBank.sol\":6295:6299  user */\n      dup5\n        /* \"contracts/KipuBank.sol\":6284:6323  AdminTopUp(user, msg.value, msg.sender) */\n      0xffffffffffffffffffffffffffffffffffffffff\n      and\n      0xe0b7399a2482598f5c734dbc05b5933a2a5ae1f0db16c9fec80061e9742e909d\n        /* \"contracts/KipuBank.sol\":6301:6310  msg.value */\n      callvalue\n        /* \"contracts/KipuBank.sol\":6284:6323  AdminTopUp(user, msg.value, msg.sender) */\n      mload(0x40)\n      tag_326\n      swap2\n      swap1\n      tag_55\n      jump\t// in\n    tag_326:\n      mload(0x40)\n      dup1\n      swap2\n      sub\n      swap1\n      log3\n        /* \"contracts/KipuBank.sol\":5985:6330  {... */\n      pop\n        /* \"@openzeppelin/contracts/access/AccessControl.sol\":2499:2500  _ */\n      pop\n        /* \"contracts/KipuBank.sol\":5845:6330  function adminTopUpUser(address user)... */\n      pop\n      pop\n      jump\t// out\n        /* \"contracts/KipuBank.sol\":10159:10606  function withdrawERC20(address token, uint256 amount)... */\n    tag_153:\n        /* \"contracts/KipuBank.sol\":10252:10258  amount */\n      dup1\n        /* \"contracts/KipuBank.sol\":3137:3138  0 */\n      0x00\n        /* \"contracts/KipuBank.sol\":3126:3133  _amount */\n      dup2\n        /* \"contracts/KipuBank.sol\":3126:3138  _amount == 0 */\n      sub\n        /* \"contracts/KipuBank.sol\":3122:3201  if (_amount == 0) {... */\n      tag_328\n      jumpi\n        /* \"contracts/KipuBank.sol\":3161:3190  AmountMustBeGreaterThanZero() */\n      mload(0x40)\n      0x5e85ae7300000000000000000000000000000000000000000000000000000000\n      dup2\n      mstore\n      0x04\n      add\n      mload(0x40)\n      dup1\n      swap2\n      sub\n      swap1\n      revert\n        /* \"contracts/KipuBank.sol\":3122:3201  if (_amount == 0) {... */\n    tag_328:\n        /* \"contracts/KipuBank.sol\":10274:10285  uint256 bal */\n      0x00\n        /* \"contracts/KipuBank.sol\":10288:10299  erc20Vaults */\n      0x08\n        /* \"contracts/KipuBank.sol\":10288:10306  erc20Vaults[token] */\n      0x00\n        /* \"contracts/KipuBank.sol\":10300:10305  token */\n      dup6\n        /* \"contracts/KipuBank.sol\":10288:10306  erc20Vaults[token] */\n      0xffffffffffffffffffffffffffffffffffffffff\n      and\n      0xffffffffffffffffffffffffffffffffffffffff\n      and\n      dup2\n      mstore\n      0x20\n      add\n      swap1\n      dup2\n      mstore\n      0x20\n      add\n      0x00\n      keccak256\n        /* \"contracts/KipuBank.sol\":10288:10318  erc20Vaults[token][msg.sender] */\n      0x00\n        /* \"contracts/KipuBank.sol\":10307:10317  msg.sender */\n      caller\n        /* \"contracts/KipuBank.sol\":10288:10318  erc20Vaults[token][msg.sender] */\n      0xffffffffffffffffffffffffffffffffffffffff\n      and\n      0xffffffffffffffffffffffffffffffffffffffff\n      and\n      dup2\n      mstore\n      0x20\n      add\n      swap1\n      dup2\n      mstore\n      0x20\n      add\n      0x00\n      keccak256\n      sload\n        /* \"contracts/KipuBank.sol\":10274:10318  uint256 bal = erc20Vaults[token][msg.sender] */\n      swap1\n      pop\n        /* \"contracts/KipuBank.sol\":10341:10344  bal */\n      dup1\n        /* \"contracts/KipuBank.sol\":10332:10338  amount */\n      dup4\n        /* \"contracts/KipuBank.sol\":10332:10344  amount > bal */\n      gt\n        /* \"contracts/KipuBank.sol\":10328:10385  if (amount > bal) revert InsufficientBalance(bal, amount) */\n      iszero\n      tag_330\n      jumpi\n        /* \"contracts/KipuBank.sol\":10373:10376  bal */\n      dup1\n        /* \"contracts/KipuBank.sol\":10378:10384  amount */\n      dup4\n        /* \"contracts/KipuBank.sol\":10353:10385  InsufficientBalance(bal, amount) */\n      mload(0x40)\n      0xcf47918100000000000000000000000000000000000000000000000000000000\n      dup2\n      mstore\n      0x04\n      add\n      tag_331\n      swap3\n      swap2\n      swap1\n      tag_211\n      jump\t// in\n    tag_331:\n      mload(0x40)\n      dup1\n      swap2\n      sub\n      swap1\n      revert\n        /* \"contracts/KipuBank.sol\":10328:10385  if (amount > bal) revert InsufficientBalance(bal, amount) */\n    tag_330:\n        /* \"contracts/KipuBank.sol\":10435:10441  amount */\n      dup3\n        /* \"contracts/KipuBank.sol\":10429:10432  bal */\n      dup2\n        /* \"contracts/KipuBank.sol\":10429:10441  bal - amount */\n      tag_332\n      swap2\n      swap1\n      tag_219\n      jump\t// in\n    tag_332:\n        /* \"contracts/KipuBank.sol\":10396:10407  erc20Vaults */\n      0x08\n        /* \"contracts/KipuBank.sol\":10396:10414  erc20Vaults[token] */\n      0x00\n        /* \"contracts/KipuBank.sol\":10408:10413  token */\n      dup7\n        /* \"contracts/KipuBank.sol\":10396:10414  erc20Vaults[token] */\n      0xffffffffffffffffffffffffffffffffffffffff\n      and\n      0xffffffffffffffffffffffffffffffffffffffff\n      and\n      dup2\n      mstore\n      0x20\n      add\n      swap1\n      dup2\n      mstore\n      0x20\n      add\n      0x00\n      keccak256\n        /* \"contracts/KipuBank.sol\":10396:10426  erc20Vaults[token][msg.sender] */\n      0x00\n        /* \"contracts/KipuBank.sol\":10415:10425  msg.sender */\n      caller\n        /* \"contracts/KipuBank.sol\":10396:10426  erc20Vaults[token][msg.sender] */\n      0xffffffffffffffffffffffffffffffffffffffff\n      and\n      0xffffffffffffffffffffffffffffffffffffffff\n      and\n      dup2\n      mstore\n      0x20\n      add\n      swap1\n      dup2\n      mstore\n      0x20\n      add\n      0x00\n      keccak256\n        /* \"contracts/KipuBank.sol\":10396:10441  erc20Vaults[token][msg.sender] = bal - amount */\n      dup2\n      swap1\n      sstore\n      pop\n        /* \"contracts/KipuBank.sol\":10479:10485  amount */\n      dup3\n        /* \"contracts/KipuBank.sol\":10451:10468  totalTokenBalance */\n      0x09\n        /* \"contracts/KipuBank.sol\":10451:10475  totalTokenBalance[token] */\n      0x00\n        /* \"contracts/KipuBank.sol\":10469:10474  token */\n      dup7\n        /* \"contracts/KipuBank.sol\":10451:10475  totalTokenBalance[token] */\n      0xffffffffffffffffffffffffffffffffffffffff\n      and\n      0xffffffffffffffffffffffffffffffffffffffff\n      and\n      dup2\n      mstore\n      0x20\n      add\n      swap1\n      dup2\n      mstore\n      0x20\n      add\n      0x00\n      keccak256\n      0x00\n        /* \"contracts/KipuBank.sol\":10451:10485  totalTokenBalance[token] -= amount */\n      dup3\n      dup3\n      sload\n      tag_333\n      swap2\n      swap1\n      tag_219\n      jump\t// in\n    tag_333:\n      swap3\n      pop\n      pop\n      dup2\n      swap1\n      sstore\n      pop\n        /* \"contracts/KipuBank.sol\":10496:10542  IERC20(token).safeTransfer(msg.sender, amount) */\n      tag_334\n        /* \"contracts/KipuBank.sol\":10523:10533  msg.sender */\n      caller\n        /* \"contracts/KipuBank.sol\":10535:10541  amount */\n      dup5\n        /* \"contracts/KipuBank.sol\":10503:10508  token */\n      dup7\n        /* \"contracts/KipuBank.sol\":10496:10522  IERC20(token).safeTransfer */\n      0xffffffffffffffffffffffffffffffffffffffff\n      and\n      tag_335\n      swap1\n        /* \"contracts/KipuBank.sol\":10496:10542  IERC20(token).safeTransfer(msg.sender, amount) */\n      swap3\n      swap2\n      swap1\n      0xffffffff\n      and\n      jump\t// in\n    tag_334:\n        /* \"contracts/KipuBank.sol\":10580:10590  msg.sender */\n      caller\n        /* \"contracts/KipuBank.sol\":10557:10599  ERC20Withdrawal(token, msg.sender, amount) */\n      0xffffffffffffffffffffffffffffffffffffffff\n      and\n        /* \"contracts/KipuBank.sol\":10573:10578  token */\n      dup5\n        /* \"contracts/KipuBank.sol\":10557:10599  ERC20Withdrawal(token, msg.sender, amount) */\n      0xffffffffffffffffffffffffffffffffffffffff\n      and\n      0x2fbb3e8dc2807d6a61feb98fc2120153f77b2c0d25ef6272e1756935dd62c847\n        /* \"contracts/KipuBank.sol\":10592:10598  amount */\n      dup6\n        /* \"contracts/KipuBank.sol\":10557:10599  ERC20Withdrawal(token, msg.sender, amount) */\n      mload(0x40)\n      tag_336\n      swap2\n      swap1\n      tag_55\n      jump\t// in\n    tag_336:\n      mload(0x40)\n      dup1\n      swap2\n      sub\n      swap1\n      log3\n        /* \"contracts/KipuBank.sol\":10264:10606  {... */\n      pop\n        /* \"contracts/KipuBank.sol\":10159:10606  function withdrawERC20(address token, uint256 amount)... */\n      pop\n      pop\n      pop\n      jump\t// out\n        /* \"@openzeppelin/contracts/access/AccessControl.sol\":2196:2245  bytes32 public constant DEFAULT_ADMIN_ROLE = 0x00 */\n    tag_156:\n        /* \"@openzeppelin/contracts/access/AccessControl.sol\":2241:2245  0x00 */\n      0x00\n        /* \"@openzeppelin/contracts/access/AccessControl.sol\":2196:2245  bytes32 public constant DEFAULT_ADMIN_ROLE = 0x00 */\n      0x00\n      shl\n      dup2\n      jump\t// out\n        /* \"contracts/KipuBank.sol\":4145:4666  function adminReassignVault(address fromUser, address toUser, uint256 amount)... */\n    tag_162:\n        /* \"contracts/KipuBank.sol\":602:628  keccak256(\"RECOVERY_ROLE\") */\n      0x0acf805600123ef007091da3b3ffb39474074c656c127aa68cb0ffec232a8ff8\n        /* \"@openzeppelin/contracts/access/AccessControl.sol\":2473:2489  _checkRole(role) */\n      tag_338\n        /* \"@openzeppelin/contracts/access/AccessControl.sol\":2484:2488  role */\n      dup2\n        /* \"@openzeppelin/contracts/access/AccessControl.sol\":2473:2483  _checkRole */\n      tag_229\n        /* \"@openzeppelin/contracts/access/AccessControl.sol\":2473:2489  _checkRole(role) */\n      jump\t// in\n    tag_338:\n        /* \"contracts/KipuBank.sol\":4294:4300  amount */\n      dup2\n        /* \"contracts/KipuBank.sol\":3137:3138  0 */\n      0x00\n        /* \"contracts/KipuBank.sol\":3126:3133  _amount */\n      dup2\n        /* \"contracts/KipuBank.sol\":3126:3138  _amount == 0 */\n      sub\n        /* \"contracts/KipuBank.sol\":3122:3201  if (_amount == 0) {... */\n      tag_340\n      jumpi\n        /* \"contracts/KipuBank.sol\":3161:3190  AmountMustBeGreaterThanZero() */\n      mload(0x40)\n      0x5e85ae7300000000000000000000000000000000000000000000000000000000\n      dup2\n      mstore\n      0x04\n      add\n      mload(0x40)\n      dup1\n      swap2\n      sub\n      swap1\n      revert\n        /* \"contracts/KipuBank.sol\":3122:3201  if (_amount == 0) {... */\n    tag_340:\n        /* \"contracts/KipuBank.sol\":4340:4341  0 */\n      0x00\n        /* \"contracts/KipuBank.sol\":4320:4342  fromUser == address(0) */\n      0xffffffffffffffffffffffffffffffffffffffff\n      and\n        /* \"contracts/KipuBank.sol\":4320:4328  fromUser */\n      dup6\n        /* \"contracts/KipuBank.sol\":4320:4342  fromUser == address(0) */\n      0xffffffffffffffffffffffffffffffffffffffff\n      and\n      eq\n        /* \"contracts/KipuBank.sol\":4320:4366  fromUser == address(0) || toUser == address(0) */\n      dup1\n      tag_342\n      jumpi\n      pop\n        /* \"contracts/KipuBank.sol\":4364:4365  0 */\n      0x00\n        /* \"contracts/KipuBank.sol\":4346:4366  toUser == address(0) */\n      0xffffffffffffffffffffffffffffffffffffffff\n      and\n        /* \"contracts/KipuBank.sol\":4346:4352  toUser */\n      dup5\n        /* \"contracts/KipuBank.sol\":4346:4366  toUser == address(0) */\n      0xffffffffffffffffffffffffffffffffffffffff\n      and\n      eq\n        /* \"contracts/KipuBank.sol\":4320:4366  fromUser == address(0) || toUser == address(0) */\n    tag_342:\n        /* \"contracts/KipuBank.sol\":4316:4391  if (fromUser == address(0) || toUser == address(0)) revert InvalidAddress() */\n      iszero\n      tag_343\n      jumpi\n        /* \"contracts/KipuBank.sol\":4375:4391  InvalidAddress() */\n      mload(0x40)\n      0xe6c4247b00000000000000000000000000000000000000000000000000000000\n      dup2\n      mstore\n      0x04\n      add\n      mload(0x40)\n      dup1\n      swap2\n      sub\n      swap1\n      revert\n        /* \"contracts/KipuBank.sol\":4316:4391  if (fromUser == address(0) || toUser == address(0)) revert InvalidAddress() */\n    tag_343:\n        /* \"contracts/KipuBank.sol\":4401:4416  uint256 fromBal */\n      0x00\n        /* \"contracts/KipuBank.sol\":4419:4425  vaults */\n      0x04\n        /* \"contracts/KipuBank.sol\":4419:4435  vaults[fromUser] */\n      0x00\n        /* \"contracts/KipuBank.sol\":4426:4434  fromUser */\n      dup8\n        /* \"contracts/KipuBank.sol\":4419:4435  vaults[fromUser] */\n      0xffffffffffffffffffffffffffffffffffffffff\n      and\n      0xffffffffffffffffffffffffffffffffffffffff\n      and\n      dup2\n      mstore\n      0x20\n      add\n      swap1\n      dup2\n      mstore\n      0x20\n      add\n      0x00\n      keccak256\n      sload\n        /* \"contracts/KipuBank.sol\":4401:4435  uint256 fromBal = vaults[fromUser] */\n      swap1\n      pop\n        /* \"contracts/KipuBank.sol\":4458:4465  fromBal */\n      dup1\n        /* \"contracts/KipuBank.sol\":4449:4455  amount */\n      dup5\n        /* \"contracts/KipuBank.sol\":4449:4465  amount > fromBal */\n      gt\n        /* \"contracts/KipuBank.sol\":4445:4510  if (amount > fromBal) revert InsufficientBalance(fromBal, amount) */\n      iszero\n      tag_344\n      jumpi\n        /* \"contracts/KipuBank.sol\":4494:4501  fromBal */\n      dup1\n        /* \"contracts/KipuBank.sol\":4503:4509  amount */\n      dup5\n        /* \"contracts/KipuBank.sol\":4474:4510  InsufficientBalance(fromBal, amount) */\n      mload(0x40)\n      0xcf47918100000000000000000000000000000000000000000000000000000000\n      dup2\n      mstore\n      0x04\n      add\n      tag_345\n      swap3\n      swap2\n      swap1\n      tag_211\n      jump\t// in\n    tag_345:\n      mload(0x40)\n      dup1\n      swap2\n      sub\n      swap1\n      revert\n        /* \"contracts/KipuBank.sol\":4445:4510  if (amount > fromBal) revert InsufficientBalance(fromBal, amount) */\n    tag_344:\n        /* \"contracts/KipuBank.sol\":4550:4556  amount */\n      dup4\n        /* \"contracts/KipuBank.sol\":4540:4547  fromBal */\n      dup2\n        /* \"contracts/KipuBank.sol\":4540:4556  fromBal - amount */\n      tag_346\n      swap2\n      swap1\n      tag_219\n      jump\t// in\n    tag_346:\n        /* \"contracts/KipuBank.sol\":4521:4527  vaults */\n      0x04\n        /* \"contracts/KipuBank.sol\":4521:4537  vaults[fromUser] */\n      0x00\n        /* \"contracts/KipuBank.sol\":4528:4536  fromUser */\n      dup9\n        /* \"contracts/KipuBank.sol\":4521:4537  vaults[fromUser] */\n      0xffffffffffffffffffffffffffffffffffffffff\n      and\n      0xffffffffffffffffffffffffffffffffffffffff\n      and\n      dup2\n      mstore\n      0x20\n      add\n      swap1\n      dup2\n      mstore\n      0x20\n      add\n      0x00\n      keccak256\n        /* \"contracts/KipuBank.sol\":4521:4556  vaults[fromUser] = fromBal - amount */\n      dup2\n      swap1\n      sstore\n      pop\n        /* \"contracts/KipuBank.sol\":4584:4590  amount */\n      dup4\n        /* \"contracts/KipuBank.sol\":4566:4572  vaults */\n      0x04\n        /* \"contracts/KipuBank.sol\":4566:4580  vaults[toUser] */\n      0x00\n        /* \"contracts/KipuBank.sol\":4573:4579  toUser */\n      dup8\n        /* \"contracts/KipuBank.sol\":4566:4580  vaults[toUser] */\n      0xffffffffffffffffffffffffffffffffffffffff\n      and\n      0xffffffffffffffffffffffffffffffffffffffff\n      and\n      dup2\n      mstore\n      0x20\n      add\n      swap1\n      dup2\n      mstore\n      0x20\n      add\n      0x00\n      keccak256\n      0x00\n        /* \"contracts/KipuBank.sol\":4566:4590  vaults[toUser] += amount */\n      dup3\n      dup3\n      sload\n      tag_347\n      swap2\n      swap1\n      tag_307\n      jump\t// in\n    tag_347:\n      swap3\n      pop\n      pop\n      dup2\n      swap1\n      sstore\n      pop\n        /* \"contracts/KipuBank.sol\":4648:4658  msg.sender */\n      caller\n        /* \"contracts/KipuBank.sol\":4606:4659  VaultReassigned(fromUser, toUser, amount, msg.sender) */\n      0xffffffffffffffffffffffffffffffffffffffff\n      and\n        /* \"contracts/KipuBank.sol\":4632:4638  toUser */\n      dup6\n        /* \"contracts/KipuBank.sol\":4606:4659  VaultReassigned(fromUser, toUser, amount, msg.sender) */\n      0xffffffffffffffffffffffffffffffffffffffff\n      and\n        /* \"contracts/KipuBank.sol\":4622:4630  fromUser */\n      dup8\n        /* \"contracts/KipuBank.sol\":4606:4659  VaultReassigned(fromUser, toUser, amount, msg.sender) */\n      0xffffffffffffffffffffffffffffffffffffffff\n      and\n      0xf83122a55a6bae953bfb8caaeaf6f8a3636e17b1cd279d61a727ed951bd25082\n        /* \"contracts/KipuBank.sol\":4640:4646  amount */\n      dup8\n        /* \"contracts/KipuBank.sol\":4606:4659  VaultReassigned(fromUser, toUser, amount, msg.sender) */\n      mload(0x40)\n      tag_348\n      swap2\n      swap1\n      tag_55\n      jump\t// in\n    tag_348:\n      mload(0x40)\n      dup1\n      swap2\n      sub\n      swap1\n      log4\n        /* \"contracts/KipuBank.sol\":4306:4666  {... */\n      pop\n        /* \"@openzeppelin/contracts/access/AccessControl.sol\":2499:2500  _ */\n      pop\n        /* \"contracts/KipuBank.sol\":4145:4666  function adminReassignVault(address fromUser, address toUser, uint256 amount)... */\n      pop\n      pop\n      pop\n      pop\n      jump\t// out\n        /* \"contracts/KipuBank.sol\":11397:11811  function deposit() external payable nonZeroAmount(msg.value) {... */\n    tag_164:\n        /* \"contracts/KipuBank.sol\":11447:11456  msg.value */\n      callvalue\n        /* \"contracts/KipuBank.sol\":3137:3138  0 */\n      0x00\n        /* \"contracts/KipuBank.sol\":3126:3133  _amount */\n      dup2\n        /* \"contracts/KipuBank.sol\":3126:3138  _amount == 0 */\n      sub\n        /* \"contracts/KipuBank.sol\":3122:3201  if (_amount == 0) {... */\n      tag_350\n      jumpi\n        /* \"contracts/KipuBank.sol\":3161:3190  AmountMustBeGreaterThanZero() */\n      mload(0x40)\n      0x5e85ae7300000000000000000000000000000000000000000000000000000000\n      dup2\n      mstore\n      0x04\n      add\n      mload(0x40)\n      dup1\n      swap2\n      sub\n      swap1\n      revert\n        /* \"contracts/KipuBank.sol\":3122:3201  if (_amount == 0) {... */\n    tag_350:\n        /* \"contracts/KipuBank.sol\":11468:11491  uint256 newTotalBalance */\n      0x00\n        /* \"contracts/KipuBank.sol\":11513:11522  msg.value */\n      callvalue\n        /* \"contracts/KipuBank.sol\":11494:11510  totalBankBalance */\n      sload(0x05)\n        /* \"contracts/KipuBank.sol\":11494:11522  totalBankBalance + msg.value */\n      tag_352\n      swap2\n      swap1\n      tag_307\n      jump\t// in\n    tag_352:\n        /* \"contracts/KipuBank.sol\":11468:11522  uint256 newTotalBalance = totalBankBalance + msg.value */\n      swap1\n      pop\n        /* \"contracts/KipuBank.sol\":11554:11561  bankCap */\n      sload(0x03)\n        /* \"contracts/KipuBank.sol\":11536:11551  newTotalBalance */\n      dup2\n        /* \"contracts/KipuBank.sol\":11536:11561  newTotalBalance > bankCap */\n      gt\n        /* \"contracts/KipuBank.sol\":11532:11649  if (newTotalBalance > bankCap) {... */\n      iszero\n      tag_353\n      jumpi\n        /* \"contracts/KipuBank.sol\":11610:11626  totalBankBalance */\n      sload(0x05)\n        /* \"contracts/KipuBank.sol\":11600:11607  bankCap */\n      sload(0x03)\n        /* \"contracts/KipuBank.sol\":11600:11626  bankCap - totalBankBalance */\n      tag_354\n      swap2\n      swap1\n      tag_219\n      jump\t// in\n    tag_354:\n        /* \"contracts/KipuBank.sol\":11628:11637  msg.value */\n      callvalue\n        /* \"contracts/KipuBank.sol\":11584:11638  BankCapExceeded(bankCap - totalBankBalance, msg.value) */\n      mload(0x40)\n      0x31728a0500000000000000000000000000000000000000000000000000000000\n      dup2\n      mstore\n      0x04\n      add\n      tag_355\n      swap3\n      swap2\n      swap1\n      tag_211\n      jump\t// in\n    tag_355:\n      mload(0x40)\n      dup1\n      swap2\n      sub\n      swap1\n      revert\n        /* \"contracts/KipuBank.sol\":11532:11649  if (newTotalBalance > bankCap) {... */\n    tag_353:\n        /* \"contracts/KipuBank.sol\":11681:11690  msg.value */\n      callvalue\n        /* \"contracts/KipuBank.sol\":11659:11665  vaults */\n      0x04\n        /* \"contracts/KipuBank.sol\":11659:11677  vaults[msg.sender] */\n      0x00\n        /* \"contracts/KipuBank.sol\":11666:11676  msg.sender */\n      caller\n        /* \"contracts/KipuBank.sol\":11659:11677  vaults[msg.sender] */\n      0xffffffffffffffffffffffffffffffffffffffff\n      and\n      0xffffffffffffffffffffffffffffffffffffffff\n      and\n      dup2\n      mstore\n      0x20\n      add\n      swap1\n      dup2\n      mstore\n      0x20\n      add\n      0x00\n      keccak256\n      0x00\n        /* \"contracts/KipuBank.sol\":11659:11690  vaults[msg.sender] += msg.value */\n      dup3\n      dup3\n      sload\n      tag_356\n      swap2\n      swap1\n      tag_307\n      jump\t// in\n    tag_356:\n      swap3\n      pop\n      pop\n      dup2\n      swap1\n      sstore\n      pop\n        /* \"contracts/KipuBank.sol\":11719:11734  newTotalBalance */\n      dup1\n        /* \"contracts/KipuBank.sol\":11700:11716  totalBankBalance */\n      0x05\n        /* \"contracts/KipuBank.sol\":11700:11734  totalBankBalance = newTotalBalance */\n      dup2\n      swap1\n      sstore\n      pop\n        /* \"contracts/KipuBank.sol\":11744:11756  depositCount */\n      0x06\n      0x00\n        /* \"contracts/KipuBank.sol\":11744:11758  depositCount++ */\n      dup2\n      sload\n      dup1\n      swap3\n      swap2\n      swap1\n      tag_357\n      swap1\n      tag_222\n      jump\t// in\n    tag_357:\n      swap2\n      swap1\n      pop\n      sstore\n      pop\n        /* \"contracts/KipuBank.sol\":11782:11792  msg.sender */\n      caller\n        /* \"contracts/KipuBank.sol\":11774:11804  Deposit(msg.sender, msg.value) */\n      0xffffffffffffffffffffffffffffffffffffffff\n      and\n      0xe1fffcc4923d04b559f4d29a8bfc6cda04eb5b0d3c460751c2402c5c5cc9109c\n        /* \"contracts/KipuBank.sol\":11794:11803  msg.value */\n      callvalue\n        /* \"contracts/KipuBank.sol\":11774:11804  Deposit(msg.sender, msg.value) */\n      mload(0x40)\n      tag_358\n      swap2\n      swap1\n      tag_55\n      jump\t// in\n    tag_358:\n      mload(0x40)\n      dup1\n      swap2\n      sub\n      swap1\n      log2\n        /* \"contracts/KipuBank.sol\":11458:11811  {... */\n      pop\n        /* \"contracts/KipuBank.sol\":11397:11811  function deposit() external payable nonZeroAmount(msg.value) {... */\n      pop\n      jump\t// out\n        /* \"@openzeppelin/contracts/access/AccessControl.sol\":4618:4756  function revokeRole(bytes32 role, address account) public virtual onlyRole(getRoleAdmin(role)) {... */\n    tag_168:\n        /* \"@openzeppelin/contracts/access/AccessControl.sol\":4693:4711  getRoleAdmin(role) */\n      tag_359\n        /* \"@openzeppelin/contracts/access/AccessControl.sol\":4706:4710  role */\n      dup3\n        /* \"@openzeppelin/contracts/access/AccessControl.sol\":4693:4705  getRoleAdmin */\n      tag_69\n        /* \"@openzeppelin/contracts/access/AccessControl.sol\":4693:4711  getRoleAdmin(role) */\n      jump\t// in\n    tag_359:\n        /* \"@openzeppelin/contracts/access/AccessControl.sol\":2473:2489  _checkRole(role) */\n      tag_361\n        /* \"@openzeppelin/contracts/access/AccessControl.sol\":2484:2488  role */\n      dup2\n        /* \"@openzeppelin/contracts/access/AccessControl.sol\":2473:2483  _checkRole */\n      tag_229\n        /* \"@openzeppelin/contracts/access/AccessControl.sol\":2473:2489  _checkRole(role) */\n      jump\t// in\n    tag_361:\n        /* \"@openzeppelin/contracts/access/AccessControl.sol\":4723:4749  _revokeRole(role, account) */\n      tag_363\n        /* \"@openzeppelin/contracts/access/AccessControl.sol\":4735:4739  role */\n      dup4\n        /* \"@openzeppelin/contracts/access/AccessControl.sol\":4741:4748  account */\n      dup4\n        /* \"@openzeppelin/contracts/access/AccessControl.sol\":4723:4734  _revokeRole */\n      tag_242\n        /* \"@openzeppelin/contracts/access/AccessControl.sol\":4723:4749  _revokeRole(role, account) */\n      jump\t// in\n    tag_363:\n      pop\n        /* \"@openzeppelin/contracts/access/AccessControl.sol\":4618:4756  function revokeRole(bytes32 role, address account) public virtual onlyRole(getRoleAdmin(role)) {... */\n      pop\n      pop\n      pop\n      jump\t// out\n        /* \"contracts/KipuBank.sol\":10717:10848  function getVaultBalanceERC20(address token) external view returns (uint256) {... */\n    tag_172:\n        /* \"contracts/KipuBank.sol\":10785:10792  uint256 */\n      0x00\n        /* \"contracts/KipuBank.sol\":10811:10822  erc20Vaults */\n      0x08\n        /* \"contracts/KipuBank.sol\":10811:10829  erc20Vaults[token] */\n      0x00\n        /* \"contracts/KipuBank.sol\":10823:10828  token */\n      dup4\n        /* \"contracts/KipuBank.sol\":10811:10829  erc20Vaults[token] */\n      0xffffffffffffffffffffffffffffffffffffffff\n      and\n      0xffffffffffffffffffffffffffffffffffffffff\n      and\n      dup2\n      mstore\n      0x20\n      add\n      swap1\n      dup2\n      mstore\n      0x20\n      add\n      0x00\n      keccak256\n        /* \"contracts/KipuBank.sol\":10811:10841  erc20Vaults[token][msg.sender] */\n      0x00\n        /* \"contracts/KipuBank.sol\":10830:10840  msg.sender */\n      caller\n        /* \"contracts/KipuBank.sol\":10811:10841  erc20Vaults[token][msg.sender] */\n      0xffffffffffffffffffffffffffffffffffffffff\n      and\n      0xffffffffffffffffffffffffffffffffffffffff\n      and\n      dup2\n      mstore\n      0x20\n      add\n      swap1\n      dup2\n      mstore\n      0x20\n      add\n      0x00\n      keccak256\n      sload\n        /* \"contracts/KipuBank.sol\":10804:10841  return erc20Vaults[token][msg.sender] */\n      swap1\n      pop\n        /* \"contracts/KipuBank.sol\":10717:10848  function getVaultBalanceERC20(address token) external view returns (uint256) {... */\n      swap2\n      swap1\n      pop\n      jump\t// out\n        /* \"contracts/KipuBank.sol\":939:961  uint256 public bankCap */\n    tag_176:\n      sload(0x03)\n      dup2\n      jump\t// out\n        /* \"contracts/KipuBank.sol\":13000:13101  function getVaultBalance() external view returns (uint256) {... */\n    tag_180:\n        /* \"contracts/KipuBank.sol\":13050:13057  uint256 */\n      0x00\n        /* \"contracts/KipuBank.sol\":13076:13082  vaults */\n      0x04\n        /* \"contracts/KipuBank.sol\":13076:13094  vaults[msg.sender] */\n      0x00\n        /* \"contracts/KipuBank.sol\":13083:13093  msg.sender */\n      caller\n        /* \"contracts/KipuBank.sol\":13076:13094  vaults[msg.sender] */\n      0xffffffffffffffffffffffffffffffffffffffff\n      and\n      0xffffffffffffffffffffffffffffffffffffffff\n      and\n      dup2\n      mstore\n      0x20\n      add\n      swap1\n      dup2\n      mstore\n      0x20\n      add\n      0x00\n      keccak256\n      sload\n        /* \"contracts/KipuBank.sol\":13069:13094  return vaults[msg.sender] */\n      swap1\n      pop\n        /* \"contracts/KipuBank.sol\":13000:13101  function getVaultBalance() external view returns (uint256) {... */\n      swap1\n      jump\t// out\n        /* \"contracts/KipuBank.sol\":4928:5606  function adminAssignExcessToUser(address user, uint256 amount)... */\n    tag_185:\n        /* \"contracts/KipuBank.sol\":602:628  keccak256(\"RECOVERY_ROLE\") */\n      0x0acf805600123ef007091da3b3ffb39474074c656c127aa68cb0ffec232a8ff8\n        /* \"@openzeppelin/contracts/access/AccessControl.sol\":2473:2489  _checkRole(role) */\n      tag_367\n        /* \"@openzeppelin/contracts/access/AccessControl.sol\":2484:2488  role */\n      dup2\n        /* \"@openzeppelin/contracts/access/AccessControl.sol\":2473:2483  _checkRole */\n      tag_229\n        /* \"@openzeppelin/contracts/access/AccessControl.sol\":2473:2489  _checkRole(role) */\n      jump\t// in\n    tag_367:\n        /* \"contracts/KipuBank.sol\":5062:5068  amount */\n      dup2\n        /* \"contracts/KipuBank.sol\":3137:3138  0 */\n      0x00\n        /* \"contracts/KipuBank.sol\":3126:3133  _amount */\n      dup2\n        /* \"contracts/KipuBank.sol\":3126:3138  _amount == 0 */\n      sub\n        /* \"contracts/KipuBank.sol\":3122:3201  if (_amount == 0) {... */\n      tag_369\n      jumpi\n        /* \"contracts/KipuBank.sol\":3161:3190  AmountMustBeGreaterThanZero() */\n      mload(0x40)\n      0x5e85ae7300000000000000000000000000000000000000000000000000000000\n      dup2\n      mstore\n      0x04\n      add\n      mload(0x40)\n      dup1\n      swap2\n      sub\n      swap1\n      revert\n        /* \"contracts/KipuBank.sol\":3122:3201  if (_amount == 0) {... */\n    tag_369:\n        /* \"contracts/KipuBank.sol\":5104:5105  0 */\n      0x00\n        /* \"contracts/KipuBank.sol\":5088:5106  user == address(0) */\n      0xffffffffffffffffffffffffffffffffffffffff\n      and\n        /* \"contracts/KipuBank.sol\":5088:5092  user */\n      dup5\n        /* \"contracts/KipuBank.sol\":5088:5106  user == address(0) */\n      0xffffffffffffffffffffffffffffffffffffffff\n      and\n      sub\n        /* \"contracts/KipuBank.sol\":5084:5131  if (user == address(0)) revert InvalidAddress() */\n      tag_371\n      jumpi\n        /* \"contracts/KipuBank.sol\":5115:5131  InvalidAddress() */\n      mload(0x40)\n      0xe6c4247b00000000000000000000000000000000000000000000000000000000\n      dup2\n      mstore\n      0x04\n      add\n      mload(0x40)\n      dup1\n      swap2\n      sub\n      swap1\n      revert\n        /* \"contracts/KipuBank.sol\":5084:5131  if (user == address(0)) revert InvalidAddress() */\n    tag_371:\n        /* \"contracts/KipuBank.sol\":5142:5161  uint256 contractBal */\n      0x00\n        /* \"contracts/KipuBank.sol\":5164:5185  address(this).balance */\n      selfbalance\n        /* \"contracts/KipuBank.sol\":5142:5185  uint256 contractBal = address(this).balance */\n      swap1\n      pop\n        /* \"contracts/KipuBank.sol\":5232:5238  amount */\n      dup4\n        /* \"contracts/KipuBank.sol\":5213:5229  totalBankBalance */\n      sload(0x05)\n        /* \"contracts/KipuBank.sol\":5213:5238  totalBankBalance + amount */\n      tag_372\n      swap2\n      swap1\n      tag_307\n      jump\t// in\n    tag_372:\n        /* \"contracts/KipuBank.sol\":5199:5210  contractBal */\n      dup2\n        /* \"contracts/KipuBank.sol\":5199:5238  contractBal < totalBankBalance + amount */\n      lt\n        /* \"contracts/KipuBank.sol\":5195:5327  if (contractBal < totalBankBalance + amount) {... */\n      iszero\n      tag_373\n      jumpi\n        /* \"contracts/KipuBank.sol\":5291:5307  totalBankBalance */\n      sload(0x05)\n        /* \"contracts/KipuBank.sol\":5277:5288  contractBal */\n      dup2\n        /* \"contracts/KipuBank.sol\":5277:5307  contractBal - totalBankBalance */\n      tag_374\n      swap2\n      swap1\n      tag_219\n      jump\t// in\n    tag_374:\n        /* \"contracts/KipuBank.sol\":5309:5315  amount */\n      dup5\n        /* \"contracts/KipuBank.sol\":5261:5316  BankCapExceeded(contractBal - totalBankBalance, amount) */\n      mload(0x40)\n      0x31728a0500000000000000000000000000000000000000000000000000000000\n      dup2\n      mstore\n      0x04\n      add\n      tag_375\n      swap3\n      swap2\n      swap1\n      tag_211\n      jump\t// in\n    tag_375:\n      mload(0x40)\n      dup1\n      swap2\n      sub\n      swap1\n      revert\n        /* \"contracts/KipuBank.sol\":5195:5327  if (contractBal < totalBankBalance + amount) {... */\n    tag_373:\n        /* \"contracts/KipuBank.sol\":5337:5353  uint256 newTotal */\n      0x00\n        /* \"contracts/KipuBank.sol\":5375:5381  amount */\n      dup5\n        /* \"contracts/KipuBank.sol\":5356:5372  totalBankBalance */\n      sload(0x05)\n        /* \"contracts/KipuBank.sol\":5356:5381  totalBankBalance + amount */\n      tag_376\n      swap2\n      swap1\n      tag_307\n      jump\t// in\n    tag_376:\n        /* \"contracts/KipuBank.sol\":5337:5381  uint256 newTotal = totalBankBalance + amount */\n      swap1\n      pop\n        /* \"contracts/KipuBank.sol\":5406:5413  bankCap */\n      sload(0x03)\n        /* \"contracts/KipuBank.sol\":5395:5403  newTotal */\n      dup2\n        /* \"contracts/KipuBank.sol\":5395:5413  newTotal > bankCap */\n      gt\n        /* \"contracts/KipuBank.sol\":5391:5473  if (newTotal > bankCap) revert BankCapExceeded(bankCap - totalBankBalance, amount) */\n      iszero\n      tag_377\n      jumpi\n        /* \"contracts/KipuBank.sol\":5448:5464  totalBankBalance */\n      sload(0x05)\n        /* \"contracts/KipuBank.sol\":5438:5445  bankCap */\n      sload(0x03)\n        /* \"contracts/KipuBank.sol\":5438:5464  bankCap - totalBankBalance */\n      tag_378\n      swap2\n      swap1\n      tag_219\n      jump\t// in\n    tag_378:\n        /* \"contracts/KipuBank.sol\":5466:5472  amount */\n      dup6\n        /* \"contracts/KipuBank.sol\":5422:5473  BankCapExceeded(bankCap - totalBankBalance, amount) */\n      mload(0x40)\n      0x31728a0500000000000000000000000000000000000000000000000000000000\n      dup2\n      mstore\n      0x04\n      add\n      tag_379\n      swap3\n      swap2\n      swap1\n      tag_211\n      jump\t// in\n    tag_379:\n      mload(0x40)\n      dup1\n      swap2\n      sub\n      swap1\n      revert\n        /* \"contracts/KipuBank.sol\":5391:5473  if (newTotal > bankCap) revert BankCapExceeded(bankCap - totalBankBalance, amount) */\n    tag_377:\n        /* \"contracts/KipuBank.sol\":5500:5506  amount */\n      dup5\n        /* \"contracts/KipuBank.sol\":5484:5490  vaults */\n      0x04\n        /* \"contracts/KipuBank.sol\":5484:5496  vaults[user] */\n      0x00\n        /* \"contracts/KipuBank.sol\":5491:5495  user */\n      dup9\n        /* \"contracts/KipuBank.sol\":5484:5496  vaults[user] */\n      0xffffffffffffffffffffffffffffffffffffffff\n      and\n      0xffffffffffffffffffffffffffffffffffffffff\n      and\n      dup2\n      mstore\n      0x20\n      add\n      swap1\n      dup2\n      mstore\n      0x20\n      add\n      0x00\n      keccak256\n      0x00\n        /* \"contracts/KipuBank.sol\":5484:5506  vaults[user] += amount */\n      dup3\n      dup3\n      sload\n      tag_380\n      swap2\n      swap1\n      tag_307\n      jump\t// in\n    tag_380:\n      swap3\n      pop\n      pop\n      dup2\n      swap1\n      sstore\n      pop\n        /* \"contracts/KipuBank.sol\":5535:5543  newTotal */\n      dup1\n        /* \"contracts/KipuBank.sol\":5516:5532  totalBankBalance */\n      0x05\n        /* \"contracts/KipuBank.sol\":5516:5543  totalBankBalance = newTotal */\n      dup2\n      swap1\n      sstore\n      pop\n        /* \"contracts/KipuBank.sol\":5588:5598  msg.sender */\n      caller\n        /* \"contracts/KipuBank.sol\":5559:5599  ExcessAssigned(user, amount, msg.sender) */\n      0xffffffffffffffffffffffffffffffffffffffff\n      and\n        /* \"contracts/KipuBank.sol\":5574:5578  user */\n      dup7\n        /* \"contracts/KipuBank.sol\":5559:5599  ExcessAssigned(user, amount, msg.sender) */\n      0xffffffffffffffffffffffffffffffffffffffff\n      and\n      0x3692b2c1f23f30193ac244cfe2cbff64281879bd7675106f06c3aafe27de8eac\n        /* \"contracts/KipuBank.sol\":5580:5586  amount */\n      dup8\n        /* \"contracts/KipuBank.sol\":5559:5599  ExcessAssigned(user, amount, msg.sender) */\n      mload(0x40)\n      tag_381\n      swap2\n      swap1\n      tag_55\n      jump\t// in\n    tag_381:\n      mload(0x40)\n      dup1\n      swap2\n      sub\n      swap1\n      log3\n        /* \"contracts/KipuBank.sol\":5074:5606  {... */\n      pop\n      pop\n        /* \"@openzeppelin/contracts/access/AccessControl.sol\":2499:2500  _ */\n      pop\n        /* \"contracts/KipuBank.sol\":4928:5606  function adminAssignExcessToUser(address user, uint256 amount)... */\n      pop\n      pop\n      pop\n      jump\t// out\n        /* \"contracts/KipuBank.sol\":1229:1281  mapping(address => uint256) public totalTokenBalance */\n    tag_189:\n      mstore(0x20, 0x09)\n      dup1\n      0x00\n      mstore\n      keccak256(0x00, 0x40)\n      0x00\n      swap2\n      pop\n      swap1\n      pop\n      sload\n      dup2\n      jump\t// out\n        /* \"@openzeppelin/contracts/utils/introspection/ERC165.sol\":730:876  function supportsInterface(bytes4 interfaceId) public view virtual returns (bool) {... */\n    tag_194:\n        /* \"@openzeppelin/contracts/utils/introspection/ERC165.sol\":806:810  bool */\n      0x00\n        /* \"@openzeppelin/contracts/utils/introspection/ERC165.sol\":844:869  type(IERC165).interfaceId */\n      0x01ffc9a700000000000000000000000000000000000000000000000000000000\n        /* \"@openzeppelin/contracts/utils/introspection/ERC165.sol\":829:869  interfaceId == type(IERC165).interfaceId */\n      not(0xffffffffffffffffffffffffffffffffffffffffffffffffffffffff)\n      and\n        /* \"@openzeppelin/contracts/utils/introspection/ERC165.sol\":829:840  interfaceId */\n      dup3\n        /* \"@openzeppelin/contracts/utils/introspection/ERC165.sol\":829:869  interfaceId == type(IERC165).interfaceId */\n      not(0xffffffffffffffffffffffffffffffffffffffffffffffffffffffff)\n      and\n      eq\n        /* \"@openzeppelin/contracts/utils/introspection/ERC165.sol\":822:869  return interfaceId == type(IERC165).interfaceId */\n      swap1\n      pop\n        /* \"@openzeppelin/contracts/utils/introspection/ERC165.sol\":730:876  function supportsInterface(bytes4 interfaceId) public view virtual returns (bool) {... */\n      swap2\n      swap1\n      pop\n      jump\t// out\n        /* \"contracts/KipuBank.sol\":13356:13552  function _safeTransfer(address _to, uint256 _amount) private {... */\n    tag_224:\n        /* \"contracts/KipuBank.sol\":13428:13440  bool success */\n      0x00\n        /* \"contracts/KipuBank.sol\":13446:13449  _to */\n      dup3\n        /* \"contracts/KipuBank.sol\":13446:13454  _to.call */\n      0xffffffffffffffffffffffffffffffffffffffff\n      and\n        /* \"contracts/KipuBank.sol\":13462:13469  _amount */\n      dup3\n        /* \"contracts/KipuBank.sol\":13446:13474  _to.call{value: _amount}(\"\") */\n      mload(0x40)\n      tag_384\n      swap1\n      tag_385\n      jump\t// in\n    tag_384:\n      0x00\n      mload(0x40)\n      dup1\n      dup4\n      sub\n      dup2\n      dup6\n      dup8\n      gas\n      call\n      swap3\n      pop\n      pop\n      pop\n      returndatasize\n      dup1\n      0x00\n      dup2\n      eq\n      tag_388\n      jumpi\n      mload(0x40)\n      swap2\n      pop\n      and(add(returndatasize, 0x3f), not(0x1f))\n      dup3\n      add\n      0x40\n      mstore\n      returndatasize\n      dup3\n      mstore\n      returndatasize\n      0x00\n      0x20\n      dup5\n      add\n      returndatacopy\n      jump(tag_387)\n    tag_388:\n      0x60\n      swap2\n      pop\n    tag_387:\n      pop\n        /* \"contracts/KipuBank.sol\":13427:13474  (bool success, ) = _to.call{value: _amount}(\"\") */\n      pop\n      swap1\n      pop\n        /* \"contracts/KipuBank.sol\":13489:13496  success */\n      dup1\n        /* \"contracts/KipuBank.sol\":13484:13546  if (!success) {... */\n      tag_389\n      jumpi\n        /* \"contracts/KipuBank.sol\":13519:13535  TransferFailed() */\n      mload(0x40)\n      0x90b8ec1800000000000000000000000000000000000000000000000000000000\n      dup2\n      mstore\n      0x04\n      add\n      mload(0x40)\n      dup1\n      swap2\n      sub\n      swap1\n      revert\n        /* \"contracts/KipuBank.sol\":13484:13546  if (!success) {... */\n    tag_389:\n        /* \"contracts/KipuBank.sol\":13417:13552  {... */\n      pop\n        /* \"contracts/KipuBank.sol\":13356:13552  function _safeTransfer(address _to, uint256 _amount) private {... */\n      pop\n      pop\n      jump\t// out\n        /* \"@openzeppelin/contracts/access/AccessControl.sol\":3175:3278  function _checkRole(bytes32 role) internal view virtual {... */\n    tag_229:\n        /* \"@openzeppelin/contracts/access/AccessControl.sol\":3241:3271  _checkRole(role, _msgSender()) */\n      tag_391\n        /* \"@openzeppelin/contracts/access/AccessControl.sol\":3252:3256  role */\n      dup2\n        /* \"@openzeppelin/contracts/access/AccessControl.sol\":3258:3270  _msgSender() */\n      tag_392\n        /* \"@openzeppelin/contracts/access/AccessControl.sol\":3258:3268  _msgSender */\n      tag_239\n        /* \"@openzeppelin/contracts/access/AccessControl.sol\":3258:3270  _msgSender() */\n      jump\t// in\n    tag_392:\n        /* \"@openzeppelin/contracts/access/AccessControl.sol\":3241:3251  _checkRole */\n      tag_393\n        /* \"@openzeppelin/contracts/access/AccessControl.sol\":3241:3271  _checkRole(role, _msgSender()) */\n      jump\t// in\n    tag_391:\n        /* \"@openzeppelin/contracts/access/AccessControl.sol\":3175:3278  function _checkRole(bytes32 role) internal view virtual {... */\n      pop\n      jump\t// out\n        /* \"@openzeppelin/contracts/access/AccessControl.sol\":6155:6471  function _grantRole(bytes32 role, address account) internal virtual returns (bool) {... */\n    tag_232:\n        /* \"@openzeppelin/contracts/access/AccessControl.sol\":6232:6236  bool */\n      0x00\n        /* \"@openzeppelin/contracts/access/AccessControl.sol\":6253:6275  hasRole(role, account) */\n      tag_395\n        /* \"@openzeppelin/contracts/access/AccessControl.sol\":6261:6265  role */\n      dup4\n        /* \"@openzeppelin/contracts/access/AccessControl.sol\":6267:6274  account */\n      dup4\n        /* \"@openzeppelin/contracts/access/AccessControl.sol\":6253:6260  hasRole */\n      tag_137\n        /* \"@openzeppelin/contracts/access/AccessControl.sol\":6253:6275  hasRole(role, account) */\n      jump\t// in\n    tag_395:\n        /* \"@openzeppelin/contracts/access/AccessControl.sol\":6248:6465  if (!hasRole(role, account)) {... */\n      tag_396\n      jumpi\n        /* \"@openzeppelin/contracts/access/AccessControl.sol\":6323:6327  true */\n      0x01\n        /* \"@openzeppelin/contracts/access/AccessControl.sol\":6291:6297  _roles */\n      0x00\n        /* \"@openzeppelin/contracts/access/AccessControl.sol\":6291:6303  _roles[role] */\n      0x00\n        /* \"@openzeppelin/contracts/access/AccessControl.sol\":6298:6302  role */\n      dup6\n        /* \"@openzeppelin/contracts/access/AccessControl.sol\":6291:6303  _roles[role] */\n      dup2\n      mstore\n      0x20\n      add\n      swap1\n      dup2\n      mstore\n      0x20\n      add\n      0x00\n      keccak256\n        /* \"@openzeppelin/contracts/access/AccessControl.sol\":6291:6311  _roles[role].hasRole */\n      0x00\n      add\n        /* \"@openzeppelin/contracts/access/AccessControl.sol\":6291:6320  _roles[role].hasRole[account] */\n      0x00\n        /* \"@openzeppelin/contracts/access/AccessControl.sol\":6312:6319  account */\n      dup5\n        /* \"@openzeppelin/contracts/access/AccessControl.sol\":6291:6320  _roles[role].hasRole[account] */\n      0xffffffffffffffffffffffffffffffffffffffff\n      and\n      0xffffffffffffffffffffffffffffffffffffffff\n      and\n      dup2\n      mstore\n      0x20\n      add\n      swap1\n      dup2\n      mstore\n      0x20\n      add\n      0x00\n      keccak256\n      0x00\n        /* \"@openzeppelin/contracts/access/AccessControl.sol\":6291:6327  _roles[role].hasRole[account] = true */\n      0x0100\n      exp\n      dup2\n      sload\n      dup2\n      0xff\n      mul\n      not\n      and\n      swap1\n      dup4\n      iszero\n      iszero\n      mul\n      or\n      swap1\n      sstore\n      pop\n        /* \"@openzeppelin/contracts/access/AccessControl.sol\":6373:6385  _msgSender() */\n      tag_397\n        /* \"@openzeppelin/contracts/access/AccessControl.sol\":6373:6383  _msgSender */\n      tag_239\n        /* \"@openzeppelin/contracts/access/AccessControl.sol\":6373:6385  _msgSender() */\n      jump\t// in\n    tag_397:\n        /* \"@openzeppelin/contracts/access/AccessControl.sol\":6346:6386  RoleGranted(role, account, _msgSender()) */\n      0xffffffffffffffffffffffffffffffffffffffff\n      and\n        /* \"@openzeppelin/contracts/access/AccessControl.sol\":6364:6371  account */\n      dup3\n        /* \"@openzeppelin/contracts/access/AccessControl.sol\":6346:6386  RoleGranted(role, account, _msgSender()) */\n      0xffffffffffffffffffffffffffffffffffffffff\n      and\n        /* \"@openzeppelin/contracts/access/AccessControl.sol\":6358:6362  role */\n      dup5\n        /* \"@openzeppelin/contracts/access/AccessControl.sol\":6346:6386  RoleGranted(role, account, _msgSender()) */\n      0x2f8788117e7eff1d82e926ec794901d17c78024a50270940304540a733656f0d\n      mload(0x40)\n      mload(0x40)\n      dup1\n      swap2\n      sub\n      swap1\n      log4\n        /* \"@openzeppelin/contracts/access/AccessControl.sol\":6407:6411  true */\n      0x01\n        /* \"@openzeppelin/contracts/access/AccessControl.sol\":6400:6411  return true */\n      swap1\n      pop\n      jump(tag_394)\n        /* \"@openzeppelin/contracts/access/AccessControl.sol\":6248:6465  if (!hasRole(role, account)) {... */\n    tag_396:\n        /* \"@openzeppelin/contracts/access/AccessControl.sol\":6449:6454  false */\n      0x00\n        /* \"@openzeppelin/contracts/access/AccessControl.sol\":6442:6454  return false */\n      swap1\n      pop\n        /* \"@openzeppelin/contracts/access/AccessControl.sol\":6155:6471  function _grantRole(bytes32 role, address account) internal virtual returns (bool) {... */\n    tag_394:\n      swap3\n      swap2\n      pop\n      pop\n      jump\t// out\n        /* \"@openzeppelin/contracts/utils/Context.sol\":656:752  function _msgSender() internal view virtual returns (address) {... */\n    tag_239:\n        /* \"@openzeppelin/contracts/utils/Context.sol\":709:716  address */\n      0x00\n        /* \"@openzeppelin/contracts/utils/Context.sol\":735:745  msg.sender */\n      caller\n        /* \"@openzeppelin/contracts/utils/Context.sol\":728:745  return msg.sender */\n      swap1\n      pop\n        /* \"@openzeppelin/contracts/utils/Context.sol\":656:752  function _msgSender() internal view virtual returns (address) {... */\n      swap1\n      jump\t// out\n        /* \"@openzeppelin/contracts/access/AccessControl.sol\":6708:7025  function _revokeRole(bytes32 role, address account) internal virtual returns (bool) {... */\n    tag_242:\n        /* \"@openzeppelin/contracts/access/AccessControl.sol\":6786:6790  bool */\n      0x00\n        /* \"@openzeppelin/contracts/access/AccessControl.sol\":6806:6828  hasRole(role, account) */\n      tag_401\n        /* \"@openzeppelin/contracts/access/AccessControl.sol\":6814:6818  role */\n      dup4\n        /* \"@openzeppelin/contracts/access/AccessControl.sol\":6820:6827  account */\n      dup4\n        /* \"@openzeppelin/contracts/access/AccessControl.sol\":6806:6813  hasRole */\n      tag_137\n        /* \"@openzeppelin/contracts/access/AccessControl.sol\":6806:6828  hasRole(role, account) */\n      jump\t// in\n    tag_401:\n        /* \"@openzeppelin/contracts/access/AccessControl.sol\":6802:7019  if (hasRole(role, account)) {... */\n      iszero\n      tag_402\n      jumpi\n        /* \"@openzeppelin/contracts/access/AccessControl.sol\":6876:6881  false */\n      0x00\n        /* \"@openzeppelin/contracts/access/AccessControl.sol\":6844:6850  _roles */\n      0x00\n        /* \"@openzeppelin/contracts/access/AccessControl.sol\":6844:6856  _roles[role] */\n      0x00\n        /* \"@openzeppelin/contracts/access/AccessControl.sol\":6851:6855  role */\n      dup6\n        /* \"@openzeppelin/contracts/access/AccessControl.sol\":6844:6856  _roles[role] */\n      dup2\n      mstore\n      0x20\n      add\n      swap1\n      dup2\n      mstore\n      0x20\n      add\n      0x00\n      keccak256\n        /* \"@openzeppelin/contracts/access/AccessControl.sol\":6844:6864  _roles[role].hasRole */\n      0x00\n      add\n        /* \"@openzeppelin/contracts/access/AccessControl.sol\":6844:6873  _roles[role].hasRole[account] */\n      0x00\n        /* \"@openzeppelin/contracts/access/AccessControl.sol\":6865:6872  account */\n      dup5\n        /* \"@openzeppelin/contracts/access/AccessControl.sol\":6844:6873  _roles[role].hasRole[account] */\n      0xffffffffffffffffffffffffffffffffffffffff\n      and\n      0xffffffffffffffffffffffffffffffffffffffff\n      and\n      dup2\n      mstore\n      0x20\n      add\n      swap1\n      dup2\n      mstore\n      0x20\n      add\n      0x00\n      keccak256\n      0x00\n        /* \"@openzeppelin/contracts/access/AccessControl.sol\":6844:6881  _roles[role].hasRole[account] = false */\n      0x0100\n      exp\n      dup2\n      sload\n      dup2\n      0xff\n      mul\n      not\n      and\n      swap1\n      dup4\n      iszero\n      iszero\n      mul\n      or\n      swap1\n      sstore\n      pop\n        /* \"@openzeppelin/contracts/access/AccessControl.sol\":6927:6939  _msgSender() */\n      tag_403\n        /* \"@openzeppelin/contracts/access/AccessControl.sol\":6927:6937  _msgSender */\n      tag_239\n        /* \"@openzeppelin/contracts/access/AccessControl.sol\":6927:6939  _msgSender() */\n      jump\t// in\n    tag_403:\n        /* \"@openzeppelin/contracts/access/AccessControl.sol\":6900:6940  RoleRevoked(role, account, _msgSender()) */\n      0xffffffffffffffffffffffffffffffffffffffff\n      and\n        /* \"@openzeppelin/contracts/access/AccessControl.sol\":6918:6925  account */\n      dup3\n        /* \"@openzeppelin/contracts/access/AccessControl.sol\":6900:6940  RoleRevoked(role, account, _msgSender()) */\n      0xffffffffffffffffffffffffffffffffffffffff\n      and\n        /* \"@openzeppelin/contracts/access/AccessControl.sol\":6912:6916  role */\n      dup5\n        /* \"@openzeppelin/contracts/access/AccessControl.sol\":6900:6940  RoleRevoked(role, account, _msgSender()) */\n      0xf6391f5c32d9c69d2a47ea670b442974b53935d1edc7fd64eb21e047a839171b\n      mload(0x40)\n      mload(0x40)\n      dup1\n      swap2\n      sub\n      swap1\n      log4\n        /* \"@openzeppelin/contracts/access/AccessControl.sol\":6961:6965  true */\n      0x01\n        /* \"@openzeppelin/contracts/access/AccessControl.sol\":6954:6965  return true */\n      swap1\n      pop\n      jump(tag_400)\n        /* \"@openzeppelin/contracts/access/AccessControl.sol\":6802:7019  if (hasRole(role, account)) {... */\n    tag_402:\n        /* \"@openzeppelin/contracts/access/AccessControl.sol\":7003:7008  false */\n      0x00\n        /* \"@openzeppelin/contracts/access/AccessControl.sol\":6996:7008  return false */\n      swap1\n      pop\n        /* \"@openzeppelin/contracts/access/AccessControl.sol\":6708:7025  function _revokeRole(bytes32 role, address account) internal virtual returns (bool) {... */\n    tag_400:\n      swap3\n      swap2\n      pop\n      pop\n      jump\t// out\n        /* \"@openzeppelin/contracts/token/ERC20/utils/SafeERC20.sol\":1618:1806  function safeTransferFrom(IERC20 token, address from, address to, uint256 value) internal {... */\n    tag_298:\n        /* \"@openzeppelin/contracts/token/ERC20/utils/SafeERC20.sol\":1718:1799  _callOptionalReturn(token, abi.encodeCall(token.transferFrom, (from, to, value))) */\n      tag_406\n        /* \"@openzeppelin/contracts/token/ERC20/utils/SafeERC20.sol\":1738:1743  token */\n      dup5\n        /* \"@openzeppelin/contracts/token/ERC20/utils/SafeERC20.sol\":1760:1765  token */\n      dup6\n        /* \"@openzeppelin/contracts/token/ERC20/utils/SafeERC20.sol\":1760:1778  token.transferFrom */\n      0xffffffffffffffffffffffffffffffffffffffff\n      and\n      0x23b872dd\n        /* \"@openzeppelin/contracts/token/ERC20/utils/SafeERC20.sol\":1781:1785  from */\n      dup7\n        /* \"@openzeppelin/contracts/token/ERC20/utils/SafeERC20.sol\":1787:1789  to */\n      dup7\n        /* \"@openzeppelin/contracts/token/ERC20/utils/SafeERC20.sol\":1791:1796  value */\n      dup7\n        /* \"@openzeppelin/contracts/token/ERC20/utils/SafeERC20.sol\":1745:1798  abi.encodeCall(token.transferFrom, (from, to, value)) */\n      add(0x24, mload(0x40))\n      tag_407\n      swap4\n      swap3\n      swap2\n      swap1\n      tag_408\n      jump\t// in\n    tag_407:\n      mload(0x40)\n      0x20\n      dup2\n      dup4\n      sub\n      sub\n      dup2\n      mstore\n      swap1\n      0x40\n      mstore\n      swap2\n      pop\n      0xe0\n      shl\n      0x20\n      dup3\n      add\n      dup1\n      mload\n      0xffffffffffffffffffffffffffffffffffffffffffffffffffffffff\n      dup4\n      dup2\n      dup4\n      and\n      or\n      dup4\n      mstore\n      pop\n      pop\n      pop\n      pop\n        /* \"@openzeppelin/contracts/token/ERC20/utils/SafeERC20.sol\":1718:1737  _callOptionalReturn */\n      tag_409\n        /* \"@openzeppelin/contracts/token/ERC20/utils/SafeERC20.sol\":1718:1799  _callOptionalReturn(token, abi.encodeCall(token.transferFrom, (from, to, value))) */\n      jump\t// in\n    tag_406:\n        /* \"@openzeppelin/contracts/token/ERC20/utils/SafeERC20.sol\":1618:1806  function safeTransferFrom(IERC20 token, address from, address to, uint256 value) internal {... */\n      pop\n      pop\n      pop\n      pop\n      jump\t// out\n        /* \"@openzeppelin/contracts/token/ERC20/utils/SafeERC20.sol\":1219:1379  function safeTransfer(IERC20 token, address to, uint256 value) internal {... */\n    tag_335:\n        /* \"@openzeppelin/contracts/token/ERC20/utils/SafeERC20.sol\":1301:1372  _callOptionalReturn(token, abi.encodeCall(token.transfer, (to, value))) */\n      tag_411\n        /* \"@openzeppelin/contracts/token/ERC20/utils/SafeERC20.sol\":1321:1326  token */\n      dup4\n        /* \"@openzeppelin/contracts/token/ERC20/utils/SafeERC20.sol\":1343:1348  token */\n      dup5\n        /* \"@openzeppelin/contracts/token/ERC20/utils/SafeERC20.sol\":1343:1357  token.transfer */\n      0xffffffffffffffffffffffffffffffffffffffff\n      and\n      0xa9059cbb\n        /* \"@openzeppelin/contracts/token/ERC20/utils/SafeERC20.sol\":1360:1362  to */\n      dup6\n        /* \"@openzeppelin/contracts/token/ERC20/utils/SafeERC20.sol\":1364:1369  value */\n      dup6\n        /* \"@openzeppelin/contracts/token/ERC20/utils/SafeERC20.sol\":1328:1371  abi.encodeCall(token.transfer, (to, value)) */\n      add(0x24, mload(0x40))\n      tag_412\n      swap3\n      swap2\n      swap1\n      tag_413\n      jump\t// in\n    tag_412:\n      mload(0x40)\n      0x20\n      dup2\n      dup4\n      sub\n      sub\n      dup2\n      mstore\n      swap1\n      0x40\n      mstore\n      swap2\n      pop\n      0xe0\n      shl\n      0x20\n      dup3\n      add\n      dup1\n      mload\n      0xffffffffffffffffffffffffffffffffffffffffffffffffffffffff\n      dup4\n      dup2\n      dup4\n      and\n      or\n      dup4\n      mstore\n      pop\n      pop\n      pop\n      pop\n        /* \"@openzeppelin/contracts/token/ERC20/utils/SafeERC20.sol\":1301:1320  _callOptionalReturn */\n      tag_409\n        /* \"@openzeppelin/contracts/token/ERC20/utils/SafeERC20.sol\":1301:1372  _callOptionalReturn(token, abi.encodeCall(token.transfer, (to, value))) */\n      jump\t// in\n    tag_411:\n        /* \"@openzeppelin/contracts/token/ERC20/utils/SafeERC20.sol\":1219:1379  function safeTransfer(IERC20 token, address to, uint256 value) internal {... */\n      pop\n      pop\n      pop\n      jump\t// out\n        /* \"@openzeppelin/contracts/access/AccessControl.sol\":3408:3605  function _checkRole(bytes32 role, address account) internal view virtual {... */\n    tag_393:\n        /* \"@openzeppelin/contracts/access/AccessControl.sol\":3496:3518  hasRole(role, account) */\n      tag_415\n        /* \"@openzeppelin/contracts/access/AccessControl.sol\":3504:3508  role */\n      dup3\n        /* \"@openzeppelin/contracts/access/AccessControl.sol\":3510:3517  account */\n      dup3\n        /* \"@openzeppelin/contracts/access/AccessControl.sol\":3496:3503  hasRole */\n      tag_137\n        /* \"@openzeppelin/contracts/access/AccessControl.sol\":3496:3518  hasRole(role, account) */\n      jump\t// in\n    tag_415:\n        /* \"@openzeppelin/contracts/access/AccessControl.sol\":3491:3599  if (!hasRole(role, account)) {... */\n      tag_416\n      jumpi\n        /* \"@openzeppelin/contracts/access/AccessControl.sol\":3574:3581  account */\n      dup1\n        /* \"@openzeppelin/contracts/access/AccessControl.sol\":3583:3587  role */\n      dup3\n        /* \"@openzeppelin/contracts/access/AccessControl.sol\":3541:3588  AccessControlUnauthorizedAccount(account, role) */\n      mload(0x40)\n      0xe2517d3f00000000000000000000000000000000000000000000000000000000\n      dup2\n      mstore\n      0x04\n      add\n      tag_417\n      swap3\n      swap2\n      swap1\n      tag_418\n      jump\t// in\n    tag_417:\n      mload(0x40)\n      dup1\n      swap2\n      sub\n      swap1\n      revert\n        /* \"@openzeppelin/contracts/access/AccessControl.sol\":3491:3599  if (!hasRole(role, account)) {... */\n    tag_416:\n        /* \"@openzeppelin/contracts/access/AccessControl.sol\":3408:3605  function _checkRole(bytes32 role, address account) internal view virtual {... */\n      pop\n      pop\n      jump\t// out\n        /* \"@openzeppelin/contracts/token/ERC20/utils/SafeERC20.sol\":8370:9090  function _callOptionalReturn(IERC20 token, bytes memory data) private {... */\n    tag_409:\n        /* \"@openzeppelin/contracts/token/ERC20/utils/SafeERC20.sol\":8450:8468  uint256 returnSize */\n      0x00\n        /* \"@openzeppelin/contracts/token/ERC20/utils/SafeERC20.sol\":8478:8497  uint256 returnValue */\n      0x00\n        /* \"@openzeppelin/contracts/token/ERC20/utils/SafeERC20.sol\":8616:8620  0x20 */\n      0x20\n        /* \"@openzeppelin/contracts/token/ERC20/utils/SafeERC20.sol\":8613:8614  0 */\n      0x00\n        /* \"@openzeppelin/contracts/token/ERC20/utils/SafeERC20.sol\":8606:8610  data */\n      dup5\n        /* \"@openzeppelin/contracts/token/ERC20/utils/SafeERC20.sol\":8600:8611  mload(data) */\n      mload\n        /* \"@openzeppelin/contracts/token/ERC20/utils/SafeERC20.sol\":8593:8597  0x20 */\n      0x20\n        /* \"@openzeppelin/contracts/token/ERC20/utils/SafeERC20.sol\":8587:8591  data */\n      dup7\n        /* \"@openzeppelin/contracts/token/ERC20/utils/SafeERC20.sol\":8583:8598  add(data, 0x20) */\n      add\n        /* \"@openzeppelin/contracts/token/ERC20/utils/SafeERC20.sol\":8580:8581  0 */\n      0x00\n        /* \"@openzeppelin/contracts/token/ERC20/utils/SafeERC20.sol\":8573:8578  token */\n      dup9\n        /* \"@openzeppelin/contracts/token/ERC20/utils/SafeERC20.sol\":8566:8571  gas() */\n      gas\n        /* \"@openzeppelin/contracts/token/ERC20/utils/SafeERC20.sol\":8561:8621  call(gas(), token, 0, add(data, 0x20), mload(data), 0, 0x20) */\n      call\n        /* \"@openzeppelin/contracts/token/ERC20/utils/SafeERC20.sol\":8673:8680  success */\n      dup1\n        /* \"@openzeppelin/contracts/token/ERC20/utils/SafeERC20.sol\":8663:8839  if iszero(success) {... */\n      tag_420\n      jumpi\n        /* \"@openzeppelin/contracts/token/ERC20/utils/SafeERC20.sol\":8717:8721  0x40 */\n      0x40\n        /* \"@openzeppelin/contracts/token/ERC20/utils/SafeERC20.sol\":8711:8722  mload(0x40) */\n      mload\n        /* \"@openzeppelin/contracts/token/ERC20/utils/SafeERC20.sol\":8762:8778  returndatasize() */\n      returndatasize\n        /* \"@openzeppelin/contracts/token/ERC20/utils/SafeERC20.sol\":8759:8760  0 */\n      0x00\n        /* \"@openzeppelin/contracts/token/ERC20/utils/SafeERC20.sol\":8754:8757  ptr */\n      dup3\n        /* \"@openzeppelin/contracts/token/ERC20/utils/SafeERC20.sol\":8739:8779  returndatacopy(ptr, 0, returndatasize()) */\n      returndatacopy\n        /* \"@openzeppelin/contracts/token/ERC20/utils/SafeERC20.sol\":8808:8824  returndatasize() */\n      returndatasize\n        /* \"@openzeppelin/contracts/token/ERC20/utils/SafeERC20.sol\":8803:8806  ptr */\n      dup2\n        /* \"@openzeppelin/contracts/token/ERC20/utils/SafeERC20.sol\":8796:8825  revert(ptr, returndatasize()) */\n      revert\n        /* \"@openzeppelin/contracts/token/ERC20/utils/SafeERC20.sol\":8663:8839  if iszero(success) {... */\n    tag_420:\n        /* \"@openzeppelin/contracts/token/ERC20/utils/SafeERC20.sol\":8866:8882  returndatasize() */\n      returndatasize\n        /* \"@openzeppelin/contracts/token/ERC20/utils/SafeERC20.sol\":8852:8882  returnSize := returndatasize() */\n      swap3\n      pop\n        /* \"@openzeppelin/contracts/token/ERC20/utils/SafeERC20.sol\":8916:8917  0 */\n      0x00\n        /* \"@openzeppelin/contracts/token/ERC20/utils/SafeERC20.sol\":8910:8918  mload(0) */\n      mload\n        /* \"@openzeppelin/contracts/token/ERC20/utils/SafeERC20.sol\":8895:8918  returnValue := mload(0) */\n      swap2\n      pop\n        /* \"@openzeppelin/contracts/token/ERC20/utils/SafeERC20.sol\":8532:8928  {... */\n      pop\n        /* \"@openzeppelin/contracts/token/ERC20/utils/SafeERC20.sol\":8956:8957  0 */\n      0x00\n        /* \"@openzeppelin/contracts/token/ERC20/utils/SafeERC20.sol\":8942:8952  returnSize */\n      dup3\n        /* \"@openzeppelin/contracts/token/ERC20/utils/SafeERC20.sol\":8942:8957  returnSize == 0 */\n      eq\n        /* \"@openzeppelin/contracts/token/ERC20/utils/SafeERC20.sol\":8942:9010  returnSize == 0 ? address(token).code.length == 0 : returnValue != 1 */\n      tag_421\n      jumpi\n        /* \"@openzeppelin/contracts/token/ERC20/utils/SafeERC20.sol\":9009:9010  1 */\n      0x01\n        /* \"@openzeppelin/contracts/token/ERC20/utils/SafeERC20.sol\":8994:9005  returnValue */\n      dup2\n        /* \"@openzeppelin/contracts/token/ERC20/utils/SafeERC20.sol\":8994:9010  returnValue != 1 */\n      eq\n      iszero\n        /* \"@openzeppelin/contracts/token/ERC20/utils/SafeERC20.sol\":8942:9010  returnSize == 0 ? address(token).code.length == 0 : returnValue != 1 */\n      jump(tag_422)\n    tag_421:\n        /* \"@openzeppelin/contracts/token/ERC20/utils/SafeERC20.sol\":8990:8991  0 */\n      0x00\n        /* \"@openzeppelin/contracts/token/ERC20/utils/SafeERC20.sol\":8968:8973  token */\n      dup5\n        /* \"@openzeppelin/contracts/token/ERC20/utils/SafeERC20.sol\":8960:8986  address(token).code.length */\n      0xffffffffffffffffffffffffffffffffffffffff\n      and\n      extcodesize\n        /* \"@openzeppelin/contracts/token/ERC20/utils/SafeERC20.sol\":8960:8991  address(token).code.length == 0 */\n      eq\n        /* \"@openzeppelin/contracts/token/ERC20/utils/SafeERC20.sol\":8942:9010  returnSize == 0 ? address(token).code.length == 0 : returnValue != 1 */\n    tag_422:\n        /* \"@openzeppelin/contracts/token/ERC20/utils/SafeERC20.sol\":8938:9084  if (returnSize == 0 ? address(token).code.length == 0 : returnValue != 1) {... */\n      iszero\n      tag_423\n      jumpi\n        /* \"@openzeppelin/contracts/token/ERC20/utils/SafeERC20.sol\":9066:9071  token */\n      dup4\n        /* \"@openzeppelin/contracts/token/ERC20/utils/SafeERC20.sol\":9033:9073  SafeERC20FailedOperation(address(token)) */\n      mload(0x40)\n      0x5274afe700000000000000000000000000000000000000000000000000000000\n      dup2\n      mstore\n      0x04\n      add\n      tag_424\n      swap2\n      swap1\n      tag_133\n      jump\t// in\n    tag_424:\n      mload(0x40)\n      dup1\n      swap2\n      sub\n      swap1\n      revert\n        /* \"@openzeppelin/contracts/token/ERC20/utils/SafeERC20.sol\":8938:9084  if (returnSize == 0 ? address(token).code.length == 0 : returnValue != 1) {... */\n    tag_423:\n        /* \"@openzeppelin/contracts/token/ERC20/utils/SafeERC20.sol\":8440:9090  {... */\n      pop\n      pop\n        /* \"@openzeppelin/contracts/token/ERC20/utils/SafeERC20.sol\":8370:9090  function _callOptionalReturn(IERC20 token, bytes memory data) private {... */\n      pop\n      pop\n      jump\t// out\n        /* \"#utility.yul\":88:205   */\n    tag_426:\n        /* \"#utility.yul\":197:198   */\n      0x00\n        /* \"#utility.yul\":194:195   */\n      0x00\n        /* \"#utility.yul\":187:199   */\n      revert\n        /* \"#utility.yul\":334:483   */\n    tag_428:\n        /* \"#utility.yul\":370:377   */\n      0x00\n        /* \"#utility.yul\":410:476   */\n      0xffffffff00000000000000000000000000000000000000000000000000000000\n        /* \"#utility.yul\":403:408   */\n      dup3\n        /* \"#utility.yul\":399:477   */\n      and\n        /* \"#utility.yul\":388:477   */\n      swap1\n      pop\n        /* \"#utility.yul\":334:483   */\n      swap2\n      swap1\n      pop\n      jump\t// out\n        /* \"#utility.yul\":489:609   */\n    tag_429:\n        /* \"#utility.yul\":561:584   */\n      tag_487\n        /* \"#utility.yul\":578:583   */\n      dup2\n        /* \"#utility.yul\":561:584   */\n      tag_428\n      jump\t// in\n    tag_487:\n        /* \"#utility.yul\":554:559   */\n      dup2\n        /* \"#utility.yul\":551:585   */\n      eq\n        /* \"#utility.yul\":541:603   */\n      tag_488\n      jumpi\n        /* \"#utility.yul\":599:600   */\n      0x00\n        /* \"#utility.yul\":596:597   */\n      0x00\n        /* \"#utility.yul\":589:601   */\n      revert\n        /* \"#utility.yul\":541:603   */\n    tag_488:\n        /* \"#utility.yul\":489:609   */\n      pop\n      jump\t// out\n        /* \"#utility.yul\":615:752   */\n    tag_430:\n        /* \"#utility.yul\":660:665   */\n      0x00\n        /* \"#utility.yul\":698:704   */\n      dup2\n        /* \"#utility.yul\":685:705   */\n      calldataload\n        /* \"#utility.yul\":676:705   */\n      swap1\n      pop\n        /* \"#utility.yul\":714:746   */\n      tag_490\n        /* \"#utility.yul\":740:745   */\n      dup2\n        /* \"#utility.yul\":714:746   */\n      tag_429\n      jump\t// in\n    tag_490:\n        /* \"#utility.yul\":615:752   */\n      swap3\n      swap2\n      pop\n      pop\n      jump\t// out\n        /* \"#utility.yul\":758:1085   */\n    tag_45:\n        /* \"#utility.yul\":816:822   */\n      0x00\n        /* \"#utility.yul\":865:867   */\n      0x20\n        /* \"#utility.yul\":853:862   */\n      dup3\n        /* \"#utility.yul\":844:851   */\n      dup5\n        /* \"#utility.yul\":840:863   */\n      sub\n        /* \"#utility.yul\":836:868   */\n      slt\n        /* \"#utility.yul\":833:952   */\n      iszero\n      tag_492\n      jumpi\n        /* \"#utility.yul\":871:950   */\n      tag_493\n      tag_426\n      jump\t// in\n    tag_493:\n        /* \"#utility.yul\":833:952   */\n    tag_492:\n        /* \"#utility.yul\":991:992   */\n      0x00\n        /* \"#utility.yul\":1016:1068   */\n      tag_494\n        /* \"#utility.yul\":1060:1067   */\n      dup5\n        /* \"#utility.yul\":1051:1057   */\n      dup3\n        /* \"#utility.yul\":1040:1049   */\n      dup6\n        /* \"#utility.yul\":1036:1058   */\n      add\n        /* \"#utility.yul\":1016:1068   */\n      tag_430\n      jump\t// in\n    tag_494:\n        /* \"#utility.yul\":1006:1068   */\n      swap2\n      pop\n        /* \"#utility.yul\":962:1078   */\n      pop\n        /* \"#utility.yul\":758:1085   */\n      swap3\n      swap2\n      pop\n      pop\n      jump\t// out\n        /* \"#utility.yul\":1091:1181   */\n    tag_431:\n        /* \"#utility.yul\":1125:1132   */\n      0x00\n        /* \"#utility.yul\":1168:1173   */\n      dup2\n        /* \"#utility.yul\":1161:1174   */\n      iszero\n        /* \"#utility.yul\":1154:1175   */\n      iszero\n        /* \"#utility.yul\":1143:1175   */\n      swap1\n      pop\n        /* \"#utility.yul\":1091:1181   */\n      swap2\n      swap1\n      pop\n      jump\t// out\n        /* \"#utility.yul\":1187:1296   */\n    tag_432:\n        /* \"#utility.yul\":1268:1289   */\n      tag_497\n        /* \"#utility.yul\":1283:1288   */\n      dup2\n        /* \"#utility.yul\":1268:1289   */\n      tag_431\n      jump\t// in\n    tag_497:\n        /* \"#utility.yul\":1263:1266   */\n      dup3\n        /* \"#utility.yul\":1256:1290   */\n      mstore\n        /* \"#utility.yul\":1187:1296   */\n      pop\n      pop\n      jump\t// out\n        /* \"#utility.yul\":1302:1512   */\n    tag_48:\n        /* \"#utility.yul\":1389:1393   */\n      0x00\n        /* \"#utility.yul\":1427:1429   */\n      0x20\n        /* \"#utility.yul\":1416:1425   */\n      dup3\n        /* \"#utility.yul\":1412:1430   */\n      add\n        /* \"#utility.yul\":1404:1430   */\n      swap1\n      pop\n        /* \"#utility.yul\":1440:1505   */\n      tag_499\n        /* \"#utility.yul\":1502:1503   */\n      0x00\n        /* \"#utility.yul\":1491:1500   */\n      dup4\n        /* \"#utility.yul\":1487:1504   */\n      add\n        /* \"#utility.yul\":1478:1484   */\n      dup5\n        /* \"#utility.yul\":1440:1505   */\n      tag_432\n      jump\t// in\n    tag_499:\n        /* \"#utility.yul\":1302:1512   */\n      swap3\n      swap2\n      pop\n      pop\n      jump\t// out\n        /* \"#utility.yul\":1518:1595   */\n    tag_433:\n        /* \"#utility.yul\":1555:1562   */\n      0x00\n        /* \"#utility.yul\":1584:1589   */\n      dup2\n        /* \"#utility.yul\":1573:1589   */\n      swap1\n      pop\n        /* \"#utility.yul\":1518:1595   */\n      swap2\n      swap1\n      pop\n      jump\t// out\n        /* \"#utility.yul\":1601:1723   */\n    tag_434:\n        /* \"#utility.yul\":1674:1698   */\n      tag_502\n        /* \"#utility.yul\":1692:1697   */\n      dup2\n        /* \"#utility.yul\":1674:1698   */\n      tag_433\n      jump\t// in\n    tag_502:\n        /* \"#utility.yul\":1667:1672   */\n      dup2\n        /* \"#utility.yul\":1664:1699   */\n      eq\n        /* \"#utility.yul\":1654:1717   */\n      tag_503\n      jumpi\n        /* \"#utility.yul\":1713:1714   */\n      0x00\n        /* \"#utility.yul\":1710:1711   */\n      0x00\n        /* \"#utility.yul\":1703:1715   */\n      revert\n        /* \"#utility.yul\":1654:1717   */\n    tag_503:\n        /* \"#utility.yul\":1601:1723   */\n      pop\n      jump\t// out\n        /* \"#utility.yul\":1729:1868   */\n    tag_435:\n        /* \"#utility.yul\":1775:1780   */\n      0x00\n        /* \"#utility.yul\":1813:1819   */\n      dup2\n        /* \"#utility.yul\":1800:1820   */\n      calldataload\n        /* \"#utility.yul\":1791:1820   */\n      swap1\n      pop\n        /* \"#utility.yul\":1829:1862   */\n      tag_505\n        /* \"#utility.yul\":1856:1861   */\n      dup2\n        /* \"#utility.yul\":1829:1862   */\n      tag_434\n      jump\t// in\n    tag_505:\n        /* \"#utility.yul\":1729:1868   */\n      swap3\n      swap2\n      pop\n      pop\n      jump\t// out\n        /* \"#utility.yul\":1874:2203   */\n    tag_52:\n        /* \"#utility.yul\":1933:1939   */\n      0x00\n        /* \"#utility.yul\":1982:1984   */\n      0x20\n        /* \"#utility.yul\":1970:1979   */\n      dup3\n        /* \"#utility.yul\":1961:1968   */\n      dup5\n        /* \"#utility.yul\":1957:1980   */\n      sub\n        /* \"#utility.yul\":1953:1985   */\n      slt\n        /* \"#utility.yul\":1950:2069   */\n      iszero\n      tag_507\n      jumpi\n        /* \"#utility.yul\":1988:2067   */\n      tag_508\n      tag_426\n      jump\t// in\n    tag_508:\n        /* \"#utility.yul\":1950:2069   */\n    tag_507:\n        /* \"#utility.yul\":2108:2109   */\n      0x00\n        /* \"#utility.yul\":2133:2186   */\n      tag_509\n        /* \"#utility.yul\":2178:2185   */\n      dup5\n        /* \"#utility.yul\":2169:2175   */\n      dup3\n        /* \"#utility.yul\":2158:2167   */\n      dup6\n        /* \"#utility.yul\":2154:2176   */\n      add\n        /* \"#utility.yul\":2133:2186   */\n      tag_435\n      jump\t// in\n    tag_509:\n        /* \"#utility.yul\":2123:2186   */\n      swap2\n      pop\n        /* \"#utility.yul\":2079:2196   */\n      pop\n        /* \"#utility.yul\":1874:2203   */\n      swap3\n      swap2\n      pop\n      pop\n      jump\t// out\n        /* \"#utility.yul\":2209:2327   */\n    tag_436:\n        /* \"#utility.yul\":2296:2320   */\n      tag_511\n        /* \"#utility.yul\":2314:2319   */\n      dup2\n        /* \"#utility.yul\":2296:2320   */\n      tag_433\n      jump\t// in\n    tag_511:\n        /* \"#utility.yul\":2291:2294   */\n      dup3\n        /* \"#utility.yul\":2284:2321   */\n      mstore\n        /* \"#utility.yul\":2209:2327   */\n      pop\n      pop\n      jump\t// out\n        /* \"#utility.yul\":2333:2555   */\n    tag_55:\n        /* \"#utility.yul\":2426:2430   */\n      0x00\n        /* \"#utility.yul\":2464:2466   */\n      0x20\n        /* \"#utility.yul\":2453:2462   */\n      dup3\n        /* \"#utility.yul\":2449:2467   */\n      add\n        /* \"#utility.yul\":2441:2467   */\n      swap1\n      pop\n        /* \"#utility.yul\":2477:2548   */\n      tag_513\n        /* \"#utility.yul\":2545:2546   */\n      0x00\n        /* \"#utility.yul\":2534:2543   */\n      dup4\n        /* \"#utility.yul\":2530:2547   */\n      add\n        /* \"#utility.yul\":2521:2527   */\n      dup5\n        /* \"#utility.yul\":2477:2548   */\n      tag_436\n      jump\t// in\n    tag_513:\n        /* \"#utility.yul\":2333:2555   */\n      swap3\n      swap2\n      pop\n      pop\n      jump\t// out\n        /* \"#utility.yul\":2561:2687   */\n    tag_437:\n        /* \"#utility.yul\":2598:2605   */\n      0x00\n        /* \"#utility.yul\":2638:2680   */\n      0xffffffffffffffffffffffffffffffffffffffff\n        /* \"#utility.yul\":2631:2636   */\n      dup3\n        /* \"#utility.yul\":2627:2681   */\n      and\n        /* \"#utility.yul\":2616:2681   */\n      swap1\n      pop\n        /* \"#utility.yul\":2561:2687   */\n      swap2\n      swap1\n      pop\n      jump\t// out\n        /* \"#utility.yul\":2693:2789   */\n    tag_438:\n        /* \"#utility.yul\":2730:2737   */\n      0x00\n        /* \"#utility.yul\":2759:2783   */\n      tag_516\n        /* \"#utility.yul\":2777:2782   */\n      dup3\n        /* \"#utility.yul\":2759:2783   */\n      tag_437\n      jump\t// in\n    tag_516:\n        /* \"#utility.yul\":2748:2783   */\n      swap1\n      pop\n        /* \"#utility.yul\":2693:2789   */\n      swap2\n      swap1\n      pop\n      jump\t// out\n        /* \"#utility.yul\":2795:2917   */\n    tag_439:\n        /* \"#utility.yul\":2868:2892   */\n      tag_518\n        /* \"#utility.yul\":2886:2891   */\n      dup2\n        /* \"#utility.yul\":2868:2892   */\n      tag_438\n      jump\t// in\n    tag_518:\n        /* \"#utility.yul\":2861:2866   */\n      dup2\n        /* \"#utility.yul\":2858:2893   */\n      eq\n        /* \"#utility.yul\":2848:2911   */\n      tag_519\n      jumpi\n        /* \"#utility.yul\":2907:2908   */\n      0x00\n        /* \"#utility.yul\":2904:2905   */\n      0x00\n        /* \"#utility.yul\":2897:2909   */\n      revert\n        /* \"#utility.yul\":2848:2911   */\n    tag_519:\n        /* \"#utility.yul\":2795:2917   */\n      pop\n      jump\t// out\n        /* \"#utility.yul\":2923:3062   */\n    tag_440:\n        /* \"#utility.yul\":2969:2974   */\n      0x00\n        /* \"#utility.yul\":3007:3013   */\n      dup2\n        /* \"#utility.yul\":2994:3014   */\n      calldataload\n        /* \"#utility.yul\":2985:3014   */\n      swap1\n      pop\n        /* \"#utility.yul\":3023:3056   */\n      tag_521\n        /* \"#utility.yul\":3050:3055   */\n      dup2\n        /* \"#utility.yul\":3023:3056   */\n      tag_439\n      jump\t// in\n    tag_521:\n        /* \"#utility.yul\":2923:3062   */\n      swap3\n      swap2\n      pop\n      pop\n      jump\t// out\n        /* \"#utility.yul\":3068:3542   */\n    tag_63:\n        /* \"#utility.yul\":3136:3142   */\n      0x00\n        /* \"#utility.yul\":3144:3150   */\n      0x00\n        /* \"#utility.yul\":3193:3195   */\n      0x40\n        /* \"#utility.yul\":3181:3190   */\n      dup4\n        /* \"#utility.yul\":3172:3179   */\n      dup6\n        /* \"#utility.yul\":3168:3191   */\n      sub\n        /* \"#utility.yul\":3164:3196   */\n      slt\n        /* \"#utility.yul\":3161:3280   */\n      iszero\n      tag_523\n      jumpi\n        /* \"#utility.yul\":3199:3278   */\n      tag_524\n      tag_426\n      jump\t// in\n    tag_524:\n        /* \"#utility.yul\":3161:3280   */\n    tag_523:\n        /* \"#utility.yul\":3319:3320   */\n      0x00\n        /* \"#utility.yul\":3344:3397   */\n      tag_525\n        /* \"#utility.yul\":3389:3396   */\n      dup6\n        /* \"#utility.yul\":3380:3386   */\n      dup3\n        /* \"#utility.yul\":3369:3378   */\n      dup7\n        /* \"#utility.yul\":3365:3387   */\n      add\n        /* \"#utility.yul\":3344:3397   */\n      tag_440\n      jump\t// in\n    tag_525:\n        /* \"#utility.yul\":3334:3397   */\n      swap3\n      pop\n        /* \"#utility.yul\":3290:3407   */\n      pop\n        /* \"#utility.yul\":3446:3448   */\n      0x20\n        /* \"#utility.yul\":3472:3525   */\n      tag_526\n        /* \"#utility.yul\":3517:3524   */\n      dup6\n        /* \"#utility.yul\":3508:3514   */\n      dup3\n        /* \"#utility.yul\":3497:3506   */\n      dup7\n        /* \"#utility.yul\":3493:3515   */\n      add\n        /* \"#utility.yul\":3472:3525   */\n      tag_435\n      jump\t// in\n    tag_526:\n        /* \"#utility.yul\":3462:3525   */\n      swap2\n      pop\n        /* \"#utility.yul\":3417:3535   */\n      pop\n        /* \"#utility.yul\":3068:3542   */\n      swap3\n      pop\n      swap3\n      swap1\n      pop\n      jump\t// out\n        /* \"#utility.yul\":3548:3625   */\n    tag_441:\n        /* \"#utility.yul\":3585:3592   */\n      0x00\n        /* \"#utility.yul\":3614:3619   */\n      dup2\n        /* \"#utility.yul\":3603:3619   */\n      swap1\n      pop\n        /* \"#utility.yul\":3548:3625   */\n      swap2\n      swap1\n      pop\n      jump\t// out\n        /* \"#utility.yul\":3631:3753   */\n    tag_442:\n        /* \"#utility.yul\":3704:3728   */\n      tag_529\n        /* \"#utility.yul\":3722:3727   */\n      dup2\n        /* \"#utility.yul\":3704:3728   */\n      tag_441\n      jump\t// in\n    tag_529:\n        /* \"#utility.yul\":3697:3702   */\n      dup2\n        /* \"#utility.yul\":3694:3729   */\n      eq\n        /* \"#utility.yul\":3684:3747   */\n      tag_530\n      jumpi\n        /* \"#utility.yul\":3743:3744   */\n      0x00\n        /* \"#utility.yul\":3740:3741   */\n      0x00\n        /* \"#utility.yul\":3733:3745   */\n      revert\n        /* \"#utility.yul\":3684:3747   */\n    tag_530:\n        /* \"#utility.yul\":3631:3753   */\n      pop\n      jump\t// out\n        /* \"#utility.yul\":3759:3898   */\n    tag_443:\n        /* \"#utility.yul\":3805:3810   */\n      0x00\n        /* \"#utility.yul\":3843:3849   */\n      dup2\n        /* \"#utility.yul\":3830:3850   */\n      calldataload\n        /* \"#utility.yul\":3821:3850   */\n      swap1\n      pop\n        /* \"#utility.yul\":3859:3892   */\n      tag_532\n        /* \"#utility.yul\":3886:3891   */\n      dup2\n        /* \"#utility.yul\":3859:3892   */\n      tag_442\n      jump\t// in\n    tag_532:\n        /* \"#utility.yul\":3759:3898   */\n      swap3\n      swap2\n      pop\n      pop\n      jump\t// out\n        /* \"#utility.yul\":3904:4233   */\n    tag_68:\n        /* \"#utility.yul\":3963:3969   */\n      0x00\n        /* \"#utility.yul\":4012:4014   */\n      0x20\n        /* \"#utility.yul\":4000:4009   */\n      dup3\n        /* \"#utility.yul\":3991:3998   */\n      dup5\n        /* \"#utility.yul\":3987:4010   */\n      sub\n        /* \"#utility.yul\":3983:4015   */\n      slt\n        /* \"#utility.yul\":3980:4099   */\n      iszero\n      tag_534\n      jumpi\n        /* \"#utility.yul\":4018:4097   */\n      tag_535\n      tag_426\n      jump\t// in\n    tag_535:\n        /* \"#utility.yul\":3980:4099   */\n    tag_534:\n        /* \"#utility.yul\":4138:4139   */\n      0x00\n        /* \"#utility.yul\":4163:4216   */\n      tag_536\n        /* \"#utility.yul\":4208:4215   */\n      dup5\n        /* \"#utility.yul\":4199:4205   */\n      dup3\n        /* \"#utility.yul\":4188:4197   */\n      dup6\n        /* \"#utility.yul\":4184:4206   */\n      add\n        /* \"#utility.yul\":4163:4216   */\n      tag_443\n      jump\t// in\n    tag_536:\n        /* \"#utility.yul\":4153:4216   */\n      swap2\n      pop\n        /* \"#utility.yul\":4109:4226   */\n      pop\n        /* \"#utility.yul\":3904:4233   */\n      swap3\n      swap2\n      pop\n      pop\n      jump\t// out\n        /* \"#utility.yul\":4239:4357   */\n    tag_444:\n        /* \"#utility.yul\":4326:4350   */\n      tag_538\n        /* \"#utility.yul\":4344:4349   */\n      dup2\n        /* \"#utility.yul\":4326:4350   */\n      tag_441\n      jump\t// in\n    tag_538:\n        /* \"#utility.yul\":4321:4324   */\n      dup3\n        /* \"#utility.yul\":4314:4351   */\n      mstore\n        /* \"#utility.yul\":4239:4357   */\n      pop\n      pop\n      jump\t// out\n        /* \"#utility.yul\":4363:4585   */\n    tag_71:\n        /* \"#utility.yul\":4456:4460   */\n      0x00\n        /* \"#utility.yul\":4494:4496   */\n      0x20\n        /* \"#utility.yul\":4483:4492   */\n      dup3\n        /* \"#utility.yul\":4479:4497   */\n      add\n        /* \"#utility.yul\":4471:4497   */\n      swap1\n      pop\n        /* \"#utility.yul\":4507:4578   */\n      tag_540\n        /* \"#utility.yul\":4575:4576   */\n      0x00\n        /* \"#utility.yul\":4564:4573   */\n      dup4\n        /* \"#utility.yul\":4560:4577   */\n      add\n        /* \"#utility.yul\":4551:4557   */\n      dup5\n        /* \"#utility.yul\":4507:4578   */\n      tag_444\n      jump\t// in\n    tag_540:\n        /* \"#utility.yul\":4363:4585   */\n      swap3\n      swap2\n      pop\n      pop\n      jump\t// out\n        /* \"#utility.yul\":4591:5065   */\n    tag_83:\n        /* \"#utility.yul\":4659:4665   */\n      0x00\n        /* \"#utility.yul\":4667:4673   */\n      0x00\n        /* \"#utility.yul\":4716:4718   */\n      0x40\n        /* \"#utility.yul\":4704:4713   */\n      dup4\n        /* \"#utility.yul\":4695:4702   */\n      dup6\n        /* \"#utility.yul\":4691:4714   */\n      sub\n        /* \"#utility.yul\":4687:4719   */\n      slt\n        /* \"#utility.yul\":4684:4803   */\n      iszero\n      tag_542\n      jumpi\n        /* \"#utility.yul\":4722:4801   */\n      tag_543\n      tag_426\n      jump\t// in\n    tag_543:\n        /* \"#utility.yul\":4684:4803   */\n    tag_542:\n        /* \"#utility.yul\":4842:4843   */\n      0x00\n        /* \"#utility.yul\":4867:4920   */\n      tag_544\n        /* \"#utility.yul\":4912:4919   */\n      dup6\n        /* \"#utility.yul\":4903:4909   */\n      dup3\n        /* \"#utility.yul\":4892:4901   */\n      dup7\n        /* \"#utility.yul\":4888:4910   */\n      add\n        /* \"#utility.yul\":4867:4920   */\n      tag_443\n      jump\t// in\n    tag_544:\n        /* \"#utility.yul\":4857:4920   */\n      swap3\n      pop\n        /* \"#utility.yul\":4813:4930   */\n      pop\n        /* \"#utility.yul\":4969:4971   */\n      0x20\n        /* \"#utility.yul\":4995:5048   */\n      tag_545\n        /* \"#utility.yul\":5040:5047   */\n      dup6\n        /* \"#utility.yul\":5031:5037   */\n      dup3\n        /* \"#utility.yul\":5020:5029   */\n      dup7\n        /* \"#utility.yul\":5016:5038   */\n      add\n        /* \"#utility.yul\":4995:5048   */\n      tag_440\n      jump\t// in\n    tag_545:\n        /* \"#utility.yul\":4985:5048   */\n      swap2\n      pop\n        /* \"#utility.yul\":4940:5058   */\n      pop\n        /* \"#utility.yul\":4591:5065   */\n      swap3\n      pop\n      swap3\n      swap1\n      pop\n      jump\t// out\n        /* \"#utility.yul\":5071:5175   */\n    tag_445:\n        /* \"#utility.yul\":5116:5123   */\n      0x00\n        /* \"#utility.yul\":5145:5169   */\n      tag_547\n        /* \"#utility.yul\":5163:5168   */\n      dup3\n        /* \"#utility.yul\":5145:5169   */\n      tag_437\n      jump\t// in\n    tag_547:\n        /* \"#utility.yul\":5134:5169   */\n      swap1\n      pop\n        /* \"#utility.yul\":5071:5175   */\n      swap2\n      swap1\n      pop\n      jump\t// out\n        /* \"#utility.yul\":5181:5319   */\n    tag_446:\n        /* \"#utility.yul\":5262:5294   */\n      tag_549\n        /* \"#utility.yul\":5288:5293   */\n      dup2\n        /* \"#utility.yul\":5262:5294   */\n      tag_445\n      jump\t// in\n    tag_549:\n        /* \"#utility.yul\":5255:5260   */\n      dup2\n        /* \"#utility.yul\":5252:5295   */\n      eq\n        /* \"#utility.yul\":5242:5313   */\n      tag_550\n      jumpi\n        /* \"#utility.yul\":5309:5310   */\n      0x00\n        /* \"#utility.yul\":5306:5307   */\n      0x00\n        /* \"#utility.yul\":5299:5311   */\n      revert\n        /* \"#utility.yul\":5242:5313   */\n    tag_550:\n        /* \"#utility.yul\":5181:5319   */\n      pop\n      jump\t// out\n        /* \"#utility.yul\":5325:5480   */\n    tag_447:\n        /* \"#utility.yul\":5379:5384   */\n      0x00\n        /* \"#utility.yul\":5417:5423   */\n      dup2\n        /* \"#utility.yul\":5404:5424   */\n      calldataload\n        /* \"#utility.yul\":5395:5424   */\n      swap1\n      pop\n        /* \"#utility.yul\":5433:5474   */\n      tag_552\n        /* \"#utility.yul\":5468:5473   */\n      dup2\n        /* \"#utility.yul\":5433:5474   */\n      tag_446\n      jump\t// in\n    tag_552:\n        /* \"#utility.yul\":5325:5480   */\n      swap3\n      swap2\n      pop\n      pop\n      jump\t// out\n        /* \"#utility.yul\":5486:6121   */\n    tag_100:\n        /* \"#utility.yul\":5571:5577   */\n      0x00\n        /* \"#utility.yul\":5579:5585   */\n      0x00\n        /* \"#utility.yul\":5587:5593   */\n      0x00\n        /* \"#utility.yul\":5636:5638   */\n      0x60\n        /* \"#utility.yul\":5624:5633   */\n      dup5\n        /* \"#utility.yul\":5615:5622   */\n      dup7\n        /* \"#utility.yul\":5611:5634   */\n      sub\n        /* \"#utility.yul\":5607:5639   */\n      slt\n        /* \"#utility.yul\":5604:5723   */\n      iszero\n      tag_554\n      jumpi\n        /* \"#utility.yul\":5642:5721   */\n      tag_555\n      tag_426\n      jump\t// in\n    tag_555:\n        /* \"#utility.yul\":5604:5723   */\n    tag_554:\n        /* \"#utility.yul\":5762:5763   */\n      0x00\n        /* \"#utility.yul\":5787:5840   */\n      tag_556\n        /* \"#utility.yul\":5832:5839   */\n      dup7\n        /* \"#utility.yul\":5823:5829   */\n      dup3\n        /* \"#utility.yul\":5812:5821   */\n      dup8\n        /* \"#utility.yul\":5808:5830   */\n      add\n        /* \"#utility.yul\":5787:5840   */\n      tag_440\n      jump\t// in\n    tag_556:\n        /* \"#utility.yul\":5777:5840   */\n      swap4\n      pop\n        /* \"#utility.yul\":5733:5850   */\n      pop\n        /* \"#utility.yul\":5889:5891   */\n      0x20\n        /* \"#utility.yul\":5915:5976   */\n      tag_557\n        /* \"#utility.yul\":5968:5975   */\n      dup7\n        /* \"#utility.yul\":5959:5965   */\n      dup3\n        /* \"#utility.yul\":5948:5957   */\n      dup8\n        /* \"#utility.yul\":5944:5966   */\n      add\n        /* \"#utility.yul\":5915:5976   */\n      tag_447\n      jump\t// in\n    tag_557:\n        /* \"#utility.yul\":5905:5976   */\n      swap3\n      pop\n        /* \"#utility.yul\":5860:5986   */\n      pop\n        /* \"#utility.yul\":6025:6027   */\n      0x40\n        /* \"#utility.yul\":6051:6104   */\n      tag_558\n        /* \"#utility.yul\":6096:6103   */\n      dup7\n        /* \"#utility.yul\":6087:6093   */\n      dup3\n        /* \"#utility.yul\":6076:6085   */\n      dup8\n        /* \"#utility.yul\":6072:6094   */\n      add\n        /* \"#utility.yul\":6051:6104   */\n      tag_435\n      jump\t// in\n    tag_558:\n        /* \"#utility.yul\":6041:6104   */\n      swap2\n      pop\n        /* \"#utility.yul\":5996:6114   */\n      pop\n        /* \"#utility.yul\":5486:6121   */\n      swap3\n      pop\n      swap3\n      pop\n      swap3\n      jump\t// out\n        /* \"#utility.yul\":6127:6456   */\n    tag_113:\n        /* \"#utility.yul\":6186:6192   */\n      0x00\n        /* \"#utility.yul\":6235:6237   */\n      0x20\n        /* \"#utility.yul\":6223:6232   */\n      dup3\n        /* \"#utility.yul\":6214:6221   */\n      dup5\n        /* \"#utility.yul\":6210:6233   */\n      sub\n        /* \"#utility.yul\":6206:6238   */\n      slt\n        /* \"#utility.yul\":6203:6322   */\n      iszero\n      tag_560\n      jumpi\n        /* \"#utility.yul\":6241:6320   */\n      tag_561\n      tag_426\n      jump\t// in\n    tag_561:\n        /* \"#utility.yul\":6203:6322   */\n    tag_560:\n        /* \"#utility.yul\":6361:6362   */\n      0x00\n        /* \"#utility.yul\":6386:6439   */\n      tag_562\n        /* \"#utility.yul\":6431:6438   */\n      dup5\n        /* \"#utility.yul\":6422:6428   */\n      dup3\n        /* \"#utility.yul\":6411:6420   */\n      dup6\n        /* \"#utility.yul\":6407:6429   */\n      add\n        /* \"#utility.yul\":6386:6439   */\n      tag_440\n      jump\t// in\n    tag_562:\n        /* \"#utility.yul\":6376:6439   */\n      swap2\n      pop\n        /* \"#utility.yul\":6332:6449   */\n      pop\n        /* \"#utility.yul\":6127:6456   */\n      swap3\n      swap2\n      pop\n      pop\n      jump\t// out\n        /* \"#utility.yul\":6462:6522   */\n    tag_448:\n        /* \"#utility.yul\":6490:6493   */\n      0x00\n        /* \"#utility.yul\":6511:6516   */\n      dup2\n        /* \"#utility.yul\":6504:6516   */\n      swap1\n      pop\n        /* \"#utility.yul\":6462:6522   */\n      swap2\n      swap1\n      pop\n      jump\t// out\n        /* \"#utility.yul\":6528:6670   */\n    tag_449:\n        /* \"#utility.yul\":6578:6587   */\n      0x00\n        /* \"#utility.yul\":6611:6664   */\n      tag_565\n        /* \"#utility.yul\":6629:6663   */\n      tag_566\n        /* \"#utility.yul\":6638:6662   */\n      tag_567\n        /* \"#utility.yul\":6656:6661   */\n      dup5\n        /* \"#utility.yul\":6638:6662   */\n      tag_437\n      jump\t// in\n    tag_567:\n        /* \"#utility.yul\":6629:6663   */\n      tag_448\n      jump\t// in\n    tag_566:\n        /* \"#utility.yul\":6611:6664   */\n      tag_437\n      jump\t// in\n    tag_565:\n        /* \"#utility.yul\":6598:6664   */\n      swap1\n      pop\n        /* \"#utility.yul\":6528:6670   */\n      swap2\n      swap1\n      pop\n      jump\t// out\n        /* \"#utility.yul\":6676:6802   */\n    tag_450:\n        /* \"#utility.yul\":6726:6735   */\n      0x00\n        /* \"#utility.yul\":6759:6796   */\n      tag_569\n        /* \"#utility.yul\":6790:6795   */\n      dup3\n        /* \"#utility.yul\":6759:6796   */\n      tag_449\n      jump\t// in\n    tag_569:\n        /* \"#utility.yul\":6746:6796   */\n      swap1\n      pop\n        /* \"#utility.yul\":6676:6802   */\n      swap2\n      swap1\n      pop\n      jump\t// out\n        /* \"#utility.yul\":6808:6963   */\n    tag_451:\n        /* \"#utility.yul\":6887:6896   */\n      0x00\n        /* \"#utility.yul\":6920:6957   */\n      tag_571\n        /* \"#utility.yul\":6951:6956   */\n      dup3\n        /* \"#utility.yul\":6920:6957   */\n      tag_450\n      jump\t// in\n    tag_571:\n        /* \"#utility.yul\":6907:6957   */\n      swap1\n      pop\n        /* \"#utility.yul\":6808:6963   */\n      swap2\n      swap1\n      pop\n      jump\t// out\n        /* \"#utility.yul\":6969:7158   */\n    tag_452:\n        /* \"#utility.yul\":7085:7151   */\n      tag_573\n        /* \"#utility.yul\":7145:7150   */\n      dup2\n        /* \"#utility.yul\":7085:7151   */\n      tag_451\n      jump\t// in\n    tag_573:\n        /* \"#utility.yul\":7080:7083   */\n      dup3\n        /* \"#utility.yul\":7073:7152   */\n      mstore\n        /* \"#utility.yul\":6969:7158   */\n      pop\n      pop\n      jump\t// out\n        /* \"#utility.yul\":7164:7444   */\n    tag_124:\n        /* \"#utility.yul\":7286:7290   */\n      0x00\n        /* \"#utility.yul\":7324:7326   */\n      0x20\n        /* \"#utility.yul\":7313:7322   */\n      dup3\n        /* \"#utility.yul\":7309:7327   */\n      add\n        /* \"#utility.yul\":7301:7327   */\n      swap1\n      pop\n        /* \"#utility.yul\":7337:7437   */\n      tag_575\n        /* \"#utility.yul\":7434:7435   */\n      0x00\n        /* \"#utility.yul\":7423:7432   */\n      dup4\n        /* \"#utility.yul\":7419:7436   */\n      add\n        /* \"#utility.yul\":7410:7416   */\n      dup5\n        /* \"#utility.yul\":7337:7437   */\n      tag_452\n      jump\t// in\n    tag_575:\n        /* \"#utility.yul\":7164:7444   */\n      swap3\n      swap2\n      pop\n      pop\n      jump\t// out\n        /* \"#utility.yul\":7450:7568   */\n    tag_453:\n        /* \"#utility.yul\":7537:7561   */\n      tag_577\n        /* \"#utility.yul\":7555:7560   */\n      dup2\n        /* \"#utility.yul\":7537:7561   */\n      tag_438\n      jump\t// in\n    tag_577:\n        /* \"#utility.yul\":7532:7535   */\n      dup3\n        /* \"#utility.yul\":7525:7562   */\n      mstore\n        /* \"#utility.yul\":7450:7568   */\n      pop\n      pop\n      jump\t// out\n        /* \"#utility.yul\":7574:7796   */\n    tag_133:\n        /* \"#utility.yul\":7667:7671   */\n      0x00\n        /* \"#utility.yul\":7705:7707   */\n      0x20\n        /* \"#utility.yul\":7694:7703   */\n      dup3\n        /* \"#utility.yul\":7690:7708   */\n      add\n        /* \"#utility.yul\":7682:7708   */\n      swap1\n      pop\n        /* \"#utility.yul\":7718:7789   */\n      tag_579\n        /* \"#utility.yul\":7786:7787   */\n      0x00\n        /* \"#utility.yul\":7775:7784   */\n      dup4\n        /* \"#utility.yul\":7771:7788   */\n      add\n        /* \"#utility.yul\":7762:7768   */\n      dup5\n        /* \"#utility.yul\":7718:7789   */\n      tag_453\n      jump\t// in\n    tag_579:\n        /* \"#utility.yul\":7574:7796   */\n      swap3\n      swap2\n      pop\n      pop\n      jump\t// out\n        /* \"#utility.yul\":7802:8421   */\n    tag_161:\n        /* \"#utility.yul\":7879:7885   */\n      0x00\n        /* \"#utility.yul\":7887:7893   */\n      0x00\n        /* \"#utility.yul\":7895:7901   */\n      0x00\n        /* \"#utility.yul\":7944:7946   */\n      0x60\n        /* \"#utility.yul\":7932:7941   */\n      dup5\n        /* \"#utility.yul\":7923:7930   */\n      dup7\n        /* \"#utility.yul\":7919:7942   */\n      sub\n        /* \"#utility.yul\":7915:7947   */\n      slt\n        /* \"#utility.yul\":7912:8031   */\n      iszero\n      tag_581\n      jumpi\n        /* \"#utility.yul\":7950:8029   */\n      tag_582\n      tag_426\n      jump\t// in\n    tag_582:\n        /* \"#utility.yul\":7912:8031   */\n    tag_581:\n        /* \"#utility.yul\":8070:8071   */\n      0x00\n        /* \"#utility.yul\":8095:8148   */\n      tag_583\n        /* \"#utility.yul\":8140:8147   */\n      dup7\n        /* \"#utility.yul\":8131:8137   */\n      dup3\n        /* \"#utility.yul\":8120:8129   */\n      dup8\n        /* \"#utility.yul\":8116:8138   */\n      add\n        /* \"#utility.yul\":8095:8148   */\n      tag_440\n      jump\t// in\n    tag_583:\n        /* \"#utility.yul\":8085:8148   */\n      swap4\n      pop\n        /* \"#utility.yul\":8041:8158   */\n      pop\n        /* \"#utility.yul\":8197:8199   */\n      0x20\n        /* \"#utility.yul\":8223:8276   */\n      tag_584\n        /* \"#utility.yul\":8268:8275   */\n      dup7\n        /* \"#utility.yul\":8259:8265   */\n      dup3\n        /* \"#utility.yul\":8248:8257   */\n      dup8\n        /* \"#utility.yul\":8244:8266   */\n      add\n        /* \"#utility.yul\":8223:8276   */\n      tag_440\n      jump\t// in\n    tag_584:\n        /* \"#utility.yul\":8213:8276   */\n      swap3\n      pop\n        /* \"#utility.yul\":8168:8286   */\n      pop\n        /* \"#utility.yul\":8325:8327   */\n      0x40\n        /* \"#utility.yul\":8351:8404   */\n      tag_585\n        /* \"#utility.yul\":8396:8403   */\n      dup7\n        /* \"#utility.yul\":8387:8393   */\n      dup3\n        /* \"#utility.yul\":8376:8385   */\n      dup8\n        /* \"#utility.yul\":8372:8394   */\n      add\n        /* \"#utility.yul\":8351:8404   */\n      tag_435\n      jump\t// in\n    tag_585:\n        /* \"#utility.yul\":8341:8404   */\n      swap2\n      pop\n        /* \"#utility.yul\":8296:8414   */\n      pop\n        /* \"#utility.yul\":7802:8421   */\n      swap3\n      pop\n      swap3\n      pop\n      swap3\n      jump\t// out\n        /* \"#utility.yul\":8427:8607   */\n    tag_454:\n        /* \"#utility.yul\":8475:8552   */\n      0x4e487b7100000000000000000000000000000000000000000000000000000000\n        /* \"#utility.yul\":8472:8473   */\n      0x00\n        /* \"#utility.yul\":8465:8553   */\n      mstore\n        /* \"#utility.yul\":8572:8576   */\n      0x11\n        /* \"#utility.yul\":8569:8570   */\n      0x04\n        /* \"#utility.yul\":8562:8577   */\n      mstore\n        /* \"#utility.yul\":8596:8600   */\n      0x24\n        /* \"#utility.yul\":8593:8594   */\n      0x00\n        /* \"#utility.yul\":8586:8601   */\n      revert\n        /* \"#utility.yul\":8613:9023   */\n    tag_198:\n        /* \"#utility.yul\":8653:8660   */\n      0x00\n        /* \"#utility.yul\":8676:8696   */\n      tag_588\n        /* \"#utility.yul\":8694:8695   */\n      dup3\n        /* \"#utility.yul\":8676:8696   */\n      tag_433\n      jump\t// in\n    tag_588:\n        /* \"#utility.yul\":8671:8696   */\n      swap2\n      pop\n        /* \"#utility.yul\":8710:8730   */\n      tag_589\n        /* \"#utility.yul\":8728:8729   */\n      dup4\n        /* \"#utility.yul\":8710:8730   */\n      tag_433\n      jump\t// in\n    tag_589:\n        /* \"#utility.yul\":8705:8730   */\n      swap3\n      pop\n        /* \"#utility.yul\":8765:8766   */\n      dup3\n        /* \"#utility.yul\":8762:8763   */\n      dup3\n        /* \"#utility.yul\":8758:8767   */\n      mul\n        /* \"#utility.yul\":8787:8817   */\n      tag_590\n        /* \"#utility.yul\":8805:8816   */\n      dup2\n        /* \"#utility.yul\":8787:8817   */\n      tag_433\n      jump\t// in\n    tag_590:\n        /* \"#utility.yul\":8776:8817   */\n      swap2\n      pop\n        /* \"#utility.yul\":8966:8967   */\n      dup3\n        /* \"#utility.yul\":8957:8964   */\n      dup3\n        /* \"#utility.yul\":8953:8968   */\n      div\n        /* \"#utility.yul\":8950:8951   */\n      dup5\n        /* \"#utility.yul\":8947:8969   */\n      eq\n        /* \"#utility.yul\":8927:8928   */\n      dup4\n        /* \"#utility.yul\":8920:8929   */\n      iszero\n        /* \"#utility.yul\":8900:8983   */\n      or\n        /* \"#utility.yul\":8877:9016   */\n      tag_591\n      jumpi\n        /* \"#utility.yul\":8996:9014   */\n      tag_592\n      tag_454\n      jump\t// in\n    tag_592:\n        /* \"#utility.yul\":8877:9016   */\n    tag_591:\n        /* \"#utility.yul\":8661:9023   */\n      pop\n        /* \"#utility.yul\":8613:9023   */\n      swap3\n      swap2\n      pop\n      pop\n      jump\t// out\n        /* \"#utility.yul\":9029:9209   */\n    tag_455:\n        /* \"#utility.yul\":9077:9154   */\n      0x4e487b7100000000000000000000000000000000000000000000000000000000\n        /* \"#utility.yul\":9074:9075   */\n      0x00\n        /* \"#utility.yul\":9067:9155   */\n      mstore\n        /* \"#utility.yul\":9174:9178   */\n      0x12\n        /* \"#utility.yul\":9171:9172   */\n      0x04\n        /* \"#utility.yul\":9164:9179   */\n      mstore\n        /* \"#utility.yul\":9198:9202   */\n      0x24\n        /* \"#utility.yul\":9195:9196   */\n      0x00\n        /* \"#utility.yul\":9188:9203   */\n      revert\n        /* \"#utility.yul\":9215:9400   */\n    tag_200:\n        /* \"#utility.yul\":9255:9256   */\n      0x00\n        /* \"#utility.yul\":9272:9292   */\n      tag_595\n        /* \"#utility.yul\":9290:9291   */\n      dup3\n        /* \"#utility.yul\":9272:9292   */\n      tag_433\n      jump\t// in\n    tag_595:\n        /* \"#utility.yul\":9267:9292   */\n      swap2\n      pop\n        /* \"#utility.yul\":9306:9326   */\n      tag_596\n        /* \"#utility.yul\":9324:9325   */\n      dup4\n        /* \"#utility.yul\":9306:9326   */\n      tag_433\n      jump\t// in\n    tag_596:\n        /* \"#utility.yul\":9301:9326   */\n      swap3\n      pop\n        /* \"#utility.yul\":9345:9346   */\n      dup3\n        /* \"#utility.yul\":9335:9370   */\n      tag_597\n      jumpi\n        /* \"#utility.yul\":9350:9368   */\n      tag_598\n      tag_455\n      jump\t// in\n    tag_598:\n        /* \"#utility.yul\":9335:9370   */\n    tag_597:\n        /* \"#utility.yul\":9392:9393   */\n      dup3\n        /* \"#utility.yul\":9389:9390   */\n      dup3\n        /* \"#utility.yul\":9385:9394   */\n      div\n        /* \"#utility.yul\":9380:9394   */\n      swap1\n      pop\n        /* \"#utility.yul\":9215:9400   */\n      swap3\n      swap2\n      pop\n      pop\n      jump\t// out\n        /* \"#utility.yul\":9406:9738   */\n    tag_211:\n        /* \"#utility.yul\":9527:9531   */\n      0x00\n        /* \"#utility.yul\":9565:9567   */\n      0x40\n        /* \"#utility.yul\":9554:9563   */\n      dup3\n        /* \"#utility.yul\":9550:9568   */\n      add\n        /* \"#utility.yul\":9542:9568   */\n      swap1\n      pop\n        /* \"#utility.yul\":9578:9649   */\n      tag_600\n        /* \"#utility.yul\":9646:9647   */\n      0x00\n        /* \"#utility.yul\":9635:9644   */\n      dup4\n        /* \"#utility.yul\":9631:9648   */\n      add\n        /* \"#utility.yul\":9622:9628   */\n      dup6\n        /* \"#utility.yul\":9578:9649   */\n      tag_436\n      jump\t// in\n    tag_600:\n        /* \"#utility.yul\":9659:9731   */\n      tag_601\n        /* \"#utility.yul\":9727:9729   */\n      0x20\n        /* \"#utility.yul\":9716:9725   */\n      dup4\n        /* \"#utility.yul\":9712:9730   */\n      add\n        /* \"#utility.yul\":9703:9709   */\n      dup5\n        /* \"#utility.yul\":9659:9731   */\n      tag_436\n      jump\t// in\n    tag_601:\n        /* \"#utility.yul\":9406:9738   */\n      swap4\n      swap3\n      pop\n      pop\n      pop\n      jump\t// out\n        /* \"#utility.yul\":9744:9913   */\n    tag_456:\n        /* \"#utility.yul\":9828:9839   */\n      0x00\n        /* \"#utility.yul\":9862:9868   */\n      dup3\n        /* \"#utility.yul\":9857:9860   */\n      dup3\n        /* \"#utility.yul\":9850:9869   */\n      mstore\n        /* \"#utility.yul\":9902:9906   */\n      0x20\n        /* \"#utility.yul\":9897:9900   */\n      dup3\n        /* \"#utility.yul\":9893:9907   */\n      add\n        /* \"#utility.yul\":9878:9907   */\n      swap1\n      pop\n        /* \"#utility.yul\":9744:9913   */\n      swap3\n      swap2\n      pop\n      pop\n      jump\t// out\n        /* \"#utility.yul\":9919:10088   */\n    tag_457:\n        /* \"#utility.yul\":10059:10080   */\n      0x7769746864726177203e20313030302055534400000000000000000000000000\n        /* \"#utility.yul\":10055:10056   */\n      0x00\n        /* \"#utility.yul\":10047:10053   */\n      dup3\n        /* \"#utility.yul\":10043:10057   */\n      add\n        /* \"#utility.yul\":10036:10081   */\n      mstore\n        /* \"#utility.yul\":9919:10088   */\n      pop\n      jump\t// out\n        /* \"#utility.yul\":10094:10460   */\n    tag_458:\n        /* \"#utility.yul\":10236:10239   */\n      0x00\n        /* \"#utility.yul\":10257:10324   */\n      tag_605\n        /* \"#utility.yul\":10321:10323   */\n      0x13\n        /* \"#utility.yul\":10316:10319   */\n      dup4\n        /* \"#utility.yul\":10257:10324   */\n      tag_456\n      jump\t// in\n    tag_605:\n        /* \"#utility.yul\":10250:10324   */\n      swap2\n      pop\n        /* \"#utility.yul\":10333:10426   */\n      tag_606\n        /* \"#utility.yul\":10422:10425   */\n      dup3\n        /* \"#utility.yul\":10333:10426   */\n      tag_457\n      jump\t// in\n    tag_606:\n        /* \"#utility.yul\":10451:10453   */\n      0x20\n        /* \"#utility.yul\":10446:10449   */\n      dup3\n        /* \"#utility.yul\":10442:10454   */\n      add\n        /* \"#utility.yul\":10435:10454   */\n      swap1\n      pop\n        /* \"#utility.yul\":10094:10460   */\n      swap2\n      swap1\n      pop\n      jump\t// out\n        /* \"#utility.yul\":10466:10885   */\n    tag_215:\n        /* \"#utility.yul\":10632:10636   */\n      0x00\n        /* \"#utility.yul\":10670:10672   */\n      0x20\n        /* \"#utility.yul\":10659:10668   */\n      dup3\n        /* \"#utility.yul\":10655:10673   */\n      add\n        /* \"#utility.yul\":10647:10673   */\n      swap1\n      pop\n        /* \"#utility.yul\":10719:10728   */\n      dup2\n        /* \"#utility.yul\":10713:10717   */\n      dup2\n        /* \"#utility.yul\":10709:10729   */\n      sub\n        /* \"#utility.yul\":10705:10706   */\n      0x00\n        /* \"#utility.yul\":10694:10703   */\n      dup4\n        /* \"#utility.yul\":10690:10707   */\n      add\n        /* \"#utility.yul\":10683:10730   */\n      mstore\n        /* \"#utility.yul\":10747:10878   */\n      tag_608\n        /* \"#utility.yul\":10873:10877   */\n      dup2\n        /* \"#utility.yul\":10747:10878   */\n      tag_458\n      jump\t// in\n    tag_608:\n        /* \"#utility.yul\":10739:10878   */\n      swap1\n      pop\n        /* \"#utility.yul\":10466:10885   */\n      swap2\n      swap1\n      pop\n      jump\t// out\n        /* \"#utility.yul\":10891:11085   */\n    tag_219:\n        /* \"#utility.yul\":10931:10935   */\n      0x00\n        /* \"#utility.yul\":10951:10971   */\n      tag_610\n        /* \"#utility.yul\":10969:10970   */\n      dup3\n        /* \"#utility.yul\":10951:10971   */\n      tag_433\n      jump\t// in\n    tag_610:\n        /* \"#utility.yul\":10946:10971   */\n      swap2\n      pop\n        /* \"#utility.yul\":10985:11005   */\n      tag_611\n        /* \"#utility.yul\":11003:11004   */\n      dup4\n        /* \"#utility.yul\":10985:11005   */\n      tag_433\n      jump\t// in\n    tag_611:\n        /* \"#utility.yul\":10980:11005   */\n      swap3\n      pop\n        /* \"#utility.yul\":11029:11030   */\n      dup3\n        /* \"#utility.yul\":11026:11027   */\n      dup3\n        /* \"#utility.yul\":11022:11031   */\n      sub\n        /* \"#utility.yul\":11014:11031   */\n      swap1\n      pop\n        /* \"#utility.yul\":11053:11054   */\n      dup2\n        /* \"#utility.yul\":11047:11051   */\n      dup2\n        /* \"#utility.yul\":11044:11055   */\n      gt\n        /* \"#utility.yul\":11041:11078   */\n      iszero\n      tag_612\n      jumpi\n        /* \"#utility.yul\":11058:11076   */\n      tag_613\n      tag_454\n      jump\t// in\n    tag_613:\n        /* \"#utility.yul\":11041:11078   */\n    tag_612:\n        /* \"#utility.yul\":10891:11085   */\n      swap3\n      swap2\n      pop\n      pop\n      jump\t// out\n        /* \"#utility.yul\":11091:11324   */\n    tag_222:\n        /* \"#utility.yul\":11130:11133   */\n      0x00\n        /* \"#utility.yul\":11153:11177   */\n      tag_615\n        /* \"#utility.yul\":11171:11176   */\n      dup3\n        /* \"#utility.yul\":11153:11177   */\n      tag_433\n      jump\t// in\n    tag_615:\n        /* \"#utility.yul\":11144:11177   */\n      swap2\n      pop\n        /* \"#utility.yul\":11199:11265   */\n      0xffffffffffffffffffffffffffffffffffffffffffffffffffffffffffffffff\n        /* \"#utility.yul\":11192:11197   */\n      dup3\n        /* \"#utility.yul\":11189:11266   */\n      sub\n        /* \"#utility.yul\":11186:11289   */\n      tag_616\n      jumpi\n        /* \"#utility.yul\":11269:11287   */\n      tag_617\n      tag_454\n      jump\t// in\n    tag_617:\n        /* \"#utility.yul\":11186:11289   */\n    tag_616:\n        /* \"#utility.yul\":11316:11317   */\n      0x01\n        /* \"#utility.yul\":11309:11314   */\n      dup3\n        /* \"#utility.yul\":11305:11318   */\n      add\n        /* \"#utility.yul\":11298:11318   */\n      swap1\n      pop\n        /* \"#utility.yul\":11091:11324   */\n      swap2\n      swap1\n      pop\n      jump\t// out\n        /* \"#utility.yul\":11330:11435   */\n    tag_459:\n        /* \"#utility.yul\":11366:11373   */\n      0x00\n        /* \"#utility.yul\":11406:11428   */\n      0xffffffffffffffffffff\n        /* \"#utility.yul\":11399:11404   */\n      dup3\n        /* \"#utility.yul\":11395:11429   */\n      and\n        /* \"#utility.yul\":11384:11429   */\n      swap1\n      pop\n        /* \"#utility.yul\":11330:11435   */\n      swap2\n      swap1\n      pop\n      jump\t// out\n        /* \"#utility.yul\":11441:11561   */\n    tag_460:\n        /* \"#utility.yul\":11513:11536   */\n      tag_620\n        /* \"#utility.yul\":11530:11535   */\n      dup2\n        /* \"#utility.yul\":11513:11536   */\n      tag_459\n      jump\t// in\n    tag_620:\n        /* \"#utility.yul\":11506:11511   */\n      dup2\n        /* \"#utility.yul\":11503:11537   */\n      eq\n        /* \"#utility.yul\":11493:11555   */\n      tag_621\n      jumpi\n        /* \"#utility.yul\":11551:11552   */\n      0x00\n        /* \"#utility.yul\":11548:11549   */\n      0x00\n        /* \"#utility.yul\":11541:11553   */\n      revert\n        /* \"#utility.yul\":11493:11555   */\n    tag_621:\n        /* \"#utility.yul\":11441:11561   */\n      pop\n      jump\t// out\n        /* \"#utility.yul\":11567:11708   */\n    tag_461:\n        /* \"#utility.yul\":11623:11628   */\n      0x00\n        /* \"#utility.yul\":11654:11660   */\n      dup2\n        /* \"#utility.yul\":11648:11661   */\n      mload\n        /* \"#utility.yul\":11639:11661   */\n      swap1\n      pop\n        /* \"#utility.yul\":11670:11702   */\n      tag_623\n        /* \"#utility.yul\":11696:11701   */\n      dup2\n        /* \"#utility.yul\":11670:11702   */\n      tag_460\n      jump\t// in\n    tag_623:\n        /* \"#utility.yul\":11567:11708   */\n      swap3\n      swap2\n      pop\n      pop\n      jump\t// out\n        /* \"#utility.yul\":11714:11790   */\n    tag_462:\n        /* \"#utility.yul\":11750:11757   */\n      0x00\n        /* \"#utility.yul\":11779:11784   */\n      dup2\n        /* \"#utility.yul\":11768:11784   */\n      swap1\n      pop\n        /* \"#utility.yul\":11714:11790   */\n      swap2\n      swap1\n      pop\n      jump\t// out\n        /* \"#utility.yul\":11796:11916   */\n    tag_463:\n        /* \"#utility.yul\":11868:11891   */\n      tag_626\n        /* \"#utility.yul\":11885:11890   */\n      dup2\n        /* \"#utility.yul\":11868:11891   */\n      tag_462\n      jump\t// in\n    tag_626:\n        /* \"#utility.yul\":11861:11866   */\n      dup2\n        /* \"#utility.yul\":11858:11892   */\n      eq\n        /* \"#utility.yul\":11848:11910   */\n      tag_627\n      jumpi\n        /* \"#utility.yul\":11906:11907   */\n      0x00\n        /* \"#utility.yul\":11903:11904   */\n      0x00\n        /* \"#utility.yul\":11896:11908   */\n      revert\n        /* \"#utility.yul\":11848:11910   */\n    tag_627:\n        /* \"#utility.yul\":11796:11916   */\n      pop\n      jump\t// out\n        /* \"#utility.yul\":11922:12063   */\n    tag_464:\n        /* \"#utility.yul\":11978:11983   */\n      0x00\n        /* \"#utility.yul\":12009:12015   */\n      dup2\n        /* \"#utility.yul\":12003:12016   */\n      mload\n        /* \"#utility.yul\":11994:12016   */\n      swap1\n      pop\n        /* \"#utility.yul\":12025:12057   */\n      tag_629\n        /* \"#utility.yul\":12051:12056   */\n      dup2\n        /* \"#utility.yul\":12025:12057   */\n      tag_463\n      jump\t// in\n    tag_629:\n        /* \"#utility.yul\":11922:12063   */\n      swap3\n      swap2\n      pop\n      pop\n      jump\t// out\n        /* \"#utility.yul\":12069:12212   */\n    tag_465:\n        /* \"#utility.yul\":12126:12131   */\n      0x00\n        /* \"#utility.yul\":12157:12163   */\n      dup2\n        /* \"#utility.yul\":12151:12164   */\n      mload\n        /* \"#utility.yul\":12142:12164   */\n      swap1\n      pop\n        /* \"#utility.yul\":12173:12206   */\n      tag_631\n        /* \"#utility.yul\":12200:12205   */\n      dup2\n        /* \"#utility.yul\":12173:12206   */\n      tag_434\n      jump\t// in\n    tag_631:\n        /* \"#utility.yul\":12069:12212   */\n      swap3\n      swap2\n      pop\n      pop\n      jump\t// out\n        /* \"#utility.yul\":12218:13189   */\n    tag_260:\n        /* \"#utility.yul\":12321:12327   */\n      0x00\n        /* \"#utility.yul\":12329:12335   */\n      0x00\n        /* \"#utility.yul\":12337:12343   */\n      0x00\n        /* \"#utility.yul\":12345:12351   */\n      0x00\n        /* \"#utility.yul\":12353:12359   */\n      0x00\n        /* \"#utility.yul\":12402:12405   */\n      0xa0\n        /* \"#utility.yul\":12390:12399   */\n      dup7\n        /* \"#utility.yul\":12381:12388   */\n      dup9\n        /* \"#utility.yul\":12377:12400   */\n      sub\n        /* \"#utility.yul\":12373:12406   */\n      slt\n        /* \"#utility.yul\":12370:12490   */\n      iszero\n      tag_633\n      jumpi\n        /* \"#utility.yul\":12409:12488   */\n      tag_634\n      tag_426\n      jump\t// in\n    tag_634:\n        /* \"#utility.yul\":12370:12490   */\n    tag_633:\n        /* \"#utility.yul\":12529:12530   */\n      0x00\n        /* \"#utility.yul\":12554:12617   */\n      tag_635\n        /* \"#utility.yul\":12609:12616   */\n      dup9\n        /* \"#utility.yul\":12600:12606   */\n      dup3\n        /* \"#utility.yul\":12589:12598   */\n      dup10\n        /* \"#utility.yul\":12585:12607   */\n      add\n        /* \"#utility.yul\":12554:12617   */\n      tag_461\n      jump\t// in\n    tag_635:\n        /* \"#utility.yul\":12544:12617   */\n      swap6\n      pop\n        /* \"#utility.yul\":12500:12627   */\n      pop\n        /* \"#utility.yul\":12666:12668   */\n      0x20\n        /* \"#utility.yul\":12692:12755   */\n      tag_636\n        /* \"#utility.yul\":12747:12754   */\n      dup9\n        /* \"#utility.yul\":12738:12744   */\n      dup3\n        /* \"#utility.yul\":12727:12736   */\n      dup10\n        /* \"#utility.yul\":12723:12745   */\n      add\n        /* \"#utility.yul\":12692:12755   */\n      tag_464\n      jump\t// in\n    tag_636:\n        /* \"#utility.yul\":12682:12755   */\n      swap5\n      pop\n        /* \"#utility.yul\":12637:12765   */\n      pop\n        /* \"#utility.yul\":12804:12806   */\n      0x40\n        /* \"#utility.yul\":12830:12894   */\n      tag_637\n        /* \"#utility.yul\":12886:12893   */\n      dup9\n        /* \"#utility.yul\":12877:12883   */\n      dup3\n        /* \"#utility.yul\":12866:12875   */\n      dup10\n        /* \"#utility.yul\":12862:12884   */\n      add\n        /* \"#utility.yul\":12830:12894   */\n      tag_465\n      jump\t// in\n    tag_637:\n        /* \"#utility.yul\":12820:12894   */\n      swap4\n      pop\n        /* \"#utility.yul\":12775:12904   */\n      pop\n        /* \"#utility.yul\":12943:12945   */\n      0x60\n        /* \"#utility.yul\":12969:13033   */\n      tag_638\n        /* \"#utility.yul\":13025:13032   */\n      dup9\n        /* \"#utility.yul\":13016:13022   */\n      dup3\n        /* \"#utility.yul\":13005:13014   */\n      dup10\n        /* \"#utility.yul\":13001:13023   */\n      add\n        /* \"#utility.yul\":12969:13033   */\n      tag_465\n      jump\t// in\n    tag_638:\n        /* \"#utility.yul\":12959:13033   */\n      swap3\n      pop\n        /* \"#utility.yul\":12914:13043   */\n      pop\n        /* \"#utility.yul\":13082:13085   */\n      0x80\n        /* \"#utility.yul\":13109:13172   */\n      tag_639\n        /* \"#utility.yul\":13164:13171   */\n      dup9\n        /* \"#utility.yul\":13155:13161   */\n      dup3\n        /* \"#utility.yul\":13144:13153   */\n      dup10\n        /* \"#utility.yul\":13140:13162   */\n      add\n        /* \"#utility.yul\":13109:13172   */\n      tag_461\n      jump\t// in\n    tag_639:\n        /* \"#utility.yul\":13099:13172   */\n      swap2\n      pop\n        /* \"#utility.yul\":13053:13182   */\n      pop\n        /* \"#utility.yul\":12218:13189   */\n      swap3\n      swap6\n      pop\n      swap3\n      swap6\n      swap1\n      swap4\n      pop\n      jump\t// out\n        /* \"#utility.yul\":13195:13356   */\n    tag_466:\n        /* \"#utility.yul\":13335:13348   */\n      0x7374616c6520726f756e64000000000000000000000000000000000000000000\n        /* \"#utility.yul\":13331:13332   */\n      0x00\n        /* \"#utility.yul\":13323:13329   */\n      dup3\n        /* \"#utility.yul\":13319:13333   */\n      add\n        /* \"#utility.yul\":13312:13349   */\n      mstore\n        /* \"#utility.yul\":13195:13356   */\n      pop\n      jump\t// out\n        /* \"#utility.yul\":13362:13728   */\n    tag_467:\n        /* \"#utility.yul\":13504:13507   */\n      0x00\n        /* \"#utility.yul\":13525:13592   */\n      tag_642\n        /* \"#utility.yul\":13589:13591   */\n      0x0b\n        /* \"#utility.yul\":13584:13587   */\n      dup4\n        /* \"#utility.yul\":13525:13592   */\n      tag_456\n      jump\t// in\n    tag_642:\n        /* \"#utility.yul\":13518:13592   */\n      swap2\n      pop\n        /* \"#utility.yul\":13601:13694   */\n      tag_643\n        /* \"#utility.yul\":13690:13693   */\n      dup3\n        /* \"#utility.yul\":13601:13694   */\n      tag_466\n      jump\t// in\n    tag_643:\n        /* \"#utility.yul\":13719:13721   */\n      0x20\n        /* \"#utility.yul\":13714:13717   */\n      dup3\n        /* \"#utility.yul\":13710:13722   */\n      add\n        /* \"#utility.yul\":13703:13722   */\n      swap1\n      pop\n        /* \"#utility.yul\":13362:13728   */\n      swap2\n      swap1\n      pop\n      jump\t// out\n        /* \"#utility.yul\":13734:14153   */\n    tag_263:\n        /* \"#utility.yul\":13900:13904   */\n      0x00\n        /* \"#utility.yul\":13938:13940   */\n      0x20\n        /* \"#utility.yul\":13927:13936   */\n      dup3\n        /* \"#utility.yul\":13923:13941   */\n      add\n        /* \"#utility.yul\":13915:13941   */\n      swap1\n      pop\n        /* \"#utility.yul\":13987:13996   */\n      dup2\n        /* \"#utility.yul\":13981:13985   */\n      dup2\n        /* \"#utility.yul\":13977:13997   */\n      sub\n        /* \"#utility.yul\":13973:13974   */\n      0x00\n        /* \"#utility.yul\":13962:13971   */\n      dup4\n        /* \"#utility.yul\":13958:13975   */\n      add\n        /* \"#utility.yul\":13951:13998   */\n      mstore\n        /* \"#utility.yul\":14015:14146   */\n      tag_645\n        /* \"#utility.yul\":14141:14145   */\n      dup2\n        /* \"#utility.yul\":14015:14146   */\n      tag_467\n      jump\t// in\n    tag_645:\n        /* \"#utility.yul\":14007:14146   */\n      swap1\n      pop\n        /* \"#utility.yul\":13734:14153   */\n      swap2\n      swap1\n      pop\n      jump\t// out\n        /* \"#utility.yul\":14159:14320   */\n    tag_468:\n        /* \"#utility.yul\":14299:14312   */\n      0x7374616c65207072696365000000000000000000000000000000000000000000\n        /* \"#utility.yul\":14295:14296   */\n      0x00\n        /* \"#utility.yul\":14287:14293   */\n      dup3\n        /* \"#utility.yul\":14283:14297   */\n      add\n        /* \"#utility.yul\":14276:14313   */\n      mstore\n        /* \"#utility.yul\":14159:14320   */\n      pop\n      jump\t// out\n        /* \"#utility.yul\":14326:14692   */\n    tag_469:\n        /* \"#utility.yul\":14468:14471   */\n      0x00\n        /* \"#utility.yul\":14489:14556   */\n      tag_648\n        /* \"#utility.yul\":14553:14555   */\n      0x0b\n        /* \"#utility.yul\":14548:14551   */\n      dup4\n        /* \"#utility.yul\":14489:14556   */\n      tag_456\n      jump\t// in\n    tag_648:\n        /* \"#utility.yul\":14482:14556   */\n      swap2\n      pop\n        /* \"#utility.yul\":14565:14658   */\n      tag_649\n        /* \"#utility.yul\":14654:14657   */\n      dup3\n        /* \"#utility.yul\":14565:14658   */\n      tag_468\n      jump\t// in\n    tag_649:\n        /* \"#utility.yul\":14683:14685   */\n      0x20\n        /* \"#utility.yul\":14678:14681   */\n      dup3\n        /* \"#utility.yul\":14674:14686   */\n      add\n        /* \"#utility.yul\":14667:14686   */\n      swap1\n      pop\n        /* \"#utility.yul\":14326:14692   */\n      swap2\n      swap1\n      pop\n      jump\t// out\n        /* \"#utility.yul\":14698:15117   */\n    tag_268:\n        /* \"#utility.yul\":14864:14868   */\n      0x00\n        /* \"#utility.yul\":14902:14904   */\n      0x20\n        /* \"#utility.yul\":14891:14900   */\n      dup3\n        /* \"#utility.yul\":14887:14905   */\n      add\n        /* \"#utility.yul\":14879:14905   */\n      swap1\n      pop\n        /* \"#utility.yul\":14951:14960   */\n      dup2\n        /* \"#utility.yul\":14945:14949   */\n      dup2\n        /* \"#utility.yul\":14941:14961   */\n      sub\n        /* \"#utility.yul\":14937:14938   */\n      0x00\n        /* \"#utility.yul\":14926:14935   */\n      dup4\n        /* \"#utility.yul\":14922:14939   */\n      add\n        /* \"#utility.yul\":14915:14962   */\n      mstore\n        /* \"#utility.yul\":14979:15110   */\n      tag_651\n        /* \"#utility.yul\":15105:15109   */\n      dup2\n        /* \"#utility.yul\":14979:15110   */\n      tag_469\n      jump\t// in\n    tag_651:\n        /* \"#utility.yul\":14971:15110   */\n      swap1\n      pop\n        /* \"#utility.yul\":14698:15117   */\n      swap2\n      swap1\n      pop\n      jump\t// out\n        /* \"#utility.yul\":15123:15286   */\n    tag_470:\n        /* \"#utility.yul\":15263:15278   */\n      0x696e76616c696420707269636500000000000000000000000000000000000000\n        /* \"#utility.yul\":15259:15260   */\n      0x00\n        /* \"#utility.yul\":15251:15257   */\n      dup3\n        /* \"#utility.yul\":15247:15261   */\n      add\n        /* \"#utility.yul\":15240:15279   */\n      mstore\n        /* \"#utility.yul\":15123:15286   */\n      pop\n      jump\t// out\n        /* \"#utility.yul\":15292:15658   */\n    tag_471:\n        /* \"#utility.yul\":15434:15437   */\n      0x00\n        /* \"#utility.yul\":15455:15522   */\n      tag_654\n        /* \"#utility.yul\":15519:15521   */\n      0x0d\n        /* \"#utility.yul\":15514:15517   */\n      dup4\n        /* \"#utility.yul\":15455:15522   */\n      tag_456\n      jump\t// in\n    tag_654:\n        /* \"#utility.yul\":15448:15522   */\n      swap2\n      pop\n        /* \"#utility.yul\":15531:15624   */\n      tag_655\n        /* \"#utility.yul\":15620:15623   */\n      dup3\n        /* \"#utility.yul\":15531:15624   */\n      tag_470\n      jump\t// in\n    tag_655:\n        /* \"#utility.yul\":15649:15651   */\n      0x20\n        /* \"#utility.yul\":15644:15647   */\n      dup3\n        /* \"#utility.yul\":15640:15652   */\n      add\n        /* \"#utility.yul\":15633:15652   */\n      swap1\n      pop\n        /* \"#utility.yul\":15292:15658   */\n      swap2\n      swap1\n      pop\n      jump\t// out\n        /* \"#utility.yul\":15664:16083   */\n    tag_271:\n        /* \"#utility.yul\":15830:15834   */\n      0x00\n        /* \"#utility.yul\":15868:15870   */\n      0x20\n        /* \"#utility.yul\":15857:15866   */\n      dup3\n        /* \"#utility.yul\":15853:15871   */\n      add\n        /* \"#utility.yul\":15845:15871   */\n      swap1\n      pop\n        /* \"#utility.yul\":15917:15926   */\n      dup2\n        /* \"#utility.yul\":15911:15915   */\n      dup2\n        /* \"#utility.yul\":15907:15927   */\n      sub\n        /* \"#utility.yul\":15903:15904   */\n      0x00\n        /* \"#utility.yul\":15892:15901   */\n      dup4\n        /* \"#utility.yul\":15888:15905   */\n      add\n        /* \"#utility.yul\":15881:15928   */\n      mstore\n        /* \"#utility.yul\":15945:16076   */\n      tag_657\n        /* \"#utility.yul\":16071:16075   */\n      dup2\n        /* \"#utility.yul\":15945:16076   */\n      tag_471\n      jump\t// in\n    tag_657:\n        /* \"#utility.yul\":15937:16076   */\n      swap1\n      pop\n        /* \"#utility.yul\":15664:16083   */\n      swap2\n      swap1\n      pop\n      jump\t// out\n        /* \"#utility.yul\":16089:16175   */\n    tag_472:\n        /* \"#utility.yul\":16124:16131   */\n      0x00\n        /* \"#utility.yul\":16164:16168   */\n      0xff\n        /* \"#utility.yul\":16157:16162   */\n      dup3\n        /* \"#utility.yul\":16153:16169   */\n      and\n        /* \"#utility.yul\":16142:16169   */\n      swap1\n      pop\n        /* \"#utility.yul\":16089:16175   */\n      swap2\n      swap1\n      pop\n      jump\t// out\n        /* \"#utility.yul\":16181:16299   */\n    tag_473:\n        /* \"#utility.yul\":16252:16274   */\n      tag_660\n        /* \"#utility.yul\":16268:16273   */\n      dup2\n        /* \"#utility.yul\":16252:16274   */\n      tag_472\n      jump\t// in\n    tag_660:\n        /* \"#utility.yul\":16245:16250   */\n      dup2\n        /* \"#utility.yul\":16242:16275   */\n      eq\n        /* \"#utility.yul\":16232:16293   */\n      tag_661\n      jumpi\n        /* \"#utility.yul\":16289:16290   */\n      0x00\n        /* \"#utility.yul\":16286:16287   */\n      0x00\n        /* \"#utility.yul\":16279:16291   */\n      revert\n        /* \"#utility.yul\":16232:16293   */\n    tag_661:\n        /* \"#utility.yul\":16181:16299   */\n      pop\n      jump\t// out\n        /* \"#utility.yul\":16305:16444   */\n    tag_474:\n        /* \"#utility.yul\":16360:16365   */\n      0x00\n        /* \"#utility.yul\":16391:16397   */\n      dup2\n        /* \"#utility.yul\":16385:16398   */\n      mload\n        /* \"#utility.yul\":16376:16398   */\n      swap1\n      pop\n        /* \"#utility.yul\":16407:16438   */\n      tag_663\n        /* \"#utility.yul\":16432:16437   */\n      dup2\n        /* \"#utility.yul\":16407:16438   */\n      tag_473\n      jump\t// in\n    tag_663:\n        /* \"#utility.yul\":16305:16444   */\n      swap3\n      swap2\n      pop\n      pop\n      jump\t// out\n        /* \"#utility.yul\":16450:16797   */\n    tag_275:\n        /* \"#utility.yul\":16518:16524   */\n      0x00\n        /* \"#utility.yul\":16567:16569   */\n      0x20\n        /* \"#utility.yul\":16555:16564   */\n      dup3\n        /* \"#utility.yul\":16546:16553   */\n      dup5\n        /* \"#utility.yul\":16542:16565   */\n      sub\n        /* \"#utility.yul\":16538:16570   */\n      slt\n        /* \"#utility.yul\":16535:16654   */\n      iszero\n      tag_665\n      jumpi\n        /* \"#utility.yul\":16573:16652   */\n      tag_666\n      tag_426\n      jump\t// in\n    tag_666:\n        /* \"#utility.yul\":16535:16654   */\n    tag_665:\n        /* \"#utility.yul\":16693:16694   */\n      0x00\n        /* \"#utility.yul\":16718:16780   */\n      tag_667\n        /* \"#utility.yul\":16772:16779   */\n      dup5\n        /* \"#utility.yul\":16763:16769   */\n      dup3\n        /* \"#utility.yul\":16752:16761   */\n      dup6\n        /* \"#utility.yul\":16748:16770   */\n      add\n        /* \"#utility.yul\":16718:16780   */\n      tag_474\n      jump\t// in\n    tag_667:\n        /* \"#utility.yul\":16708:16780   */\n      swap2\n      pop\n        /* \"#utility.yul\":16664:16790   */\n      pop\n        /* \"#utility.yul\":16450:16797   */\n      swap3\n      swap2\n      pop\n      pop\n      jump\t// out\n        /* \"#utility.yul\":16803:16994   */\n    tag_280:\n        /* \"#utility.yul\":16841:16845   */\n      0x00\n        /* \"#utility.yul\":16861:16879   */\n      tag_669\n        /* \"#utility.yul\":16877:16878   */\n      dup3\n        /* \"#utility.yul\":16861:16879   */\n      tag_472\n      jump\t// in\n    tag_669:\n        /* \"#utility.yul\":16856:16879   */\n      swap2\n      pop\n        /* \"#utility.yul\":16893:16911   */\n      tag_670\n        /* \"#utility.yul\":16909:16910   */\n      dup4\n        /* \"#utility.yul\":16893:16911   */\n      tag_472\n      jump\t// in\n    tag_670:\n        /* \"#utility.yul\":16888:16911   */\n      swap3\n      pop\n        /* \"#utility.yul\":16935:16936   */\n      dup3\n        /* \"#utility.yul\":16932:16933   */\n      dup3\n        /* \"#utility.yul\":16928:16937   */\n      sub\n        /* \"#utility.yul\":16920:16937   */\n      swap1\n      pop\n        /* \"#utility.yul\":16959:16963   */\n      0xff\n        /* \"#utility.yul\":16953:16957   */\n      dup2\n        /* \"#utility.yul\":16950:16964   */\n      gt\n        /* \"#utility.yul\":16947:16987   */\n      iszero\n      tag_671\n      jumpi\n        /* \"#utility.yul\":16967:16985   */\n      tag_672\n      tag_454\n      jump\t// in\n    tag_672:\n        /* \"#utility.yul\":16947:16987   */\n    tag_671:\n        /* \"#utility.yul\":16803:16994   */\n      swap3\n      swap2\n      pop\n      pop\n      jump\t// out\n        /* \"#utility.yul\":17000:17102   */\n    tag_475:\n        /* \"#utility.yul\":17042:17050   */\n      0x00\n        /* \"#utility.yul\":17089:17094   */\n      dup2\n        /* \"#utility.yul\":17086:17087   */\n      0x01\n        /* \"#utility.yul\":17082:17095   */\n      shr\n        /* \"#utility.yul\":17061:17095   */\n      swap1\n      pop\n        /* \"#utility.yul\":17000:17102   */\n      swap2\n      swap1\n      pop\n      jump\t// out\n        /* \"#utility.yul\":17108:17956   */\n    tag_476:\n        /* \"#utility.yul\":17169:17174   */\n      0x00\n        /* \"#utility.yul\":17176:17180   */\n      0x00\n        /* \"#utility.yul\":17200:17206   */\n      dup3\n        /* \"#utility.yul\":17191:17206   */\n      swap2\n      pop\n        /* \"#utility.yul\":17224:17229   */\n      dup4\n        /* \"#utility.yul\":17215:17229   */\n      swap1\n      pop\n        /* \"#utility.yul\":17238:17950   */\n    tag_675:\n        /* \"#utility.yul\":17259:17260   */\n      0x01\n        /* \"#utility.yul\":17249:17257   */\n      dup6\n        /* \"#utility.yul\":17246:17261   */\n      gt\n        /* \"#utility.yul\":17238:17950   */\n      iszero\n      tag_677\n      jumpi\n        /* \"#utility.yul\":17354:17358   */\n      dup1\n        /* \"#utility.yul\":17349:17352   */\n      dup7\n        /* \"#utility.yul\":17345:17359   */\n      div\n        /* \"#utility.yul\":17339:17343   */\n      dup2\n        /* \"#utility.yul\":17336:17360   */\n      gt\n        /* \"#utility.yul\":17333:17383   */\n      iszero\n      tag_678\n      jumpi\n        /* \"#utility.yul\":17363:17381   */\n      tag_679\n      tag_454\n      jump\t// in\n    tag_679:\n        /* \"#utility.yul\":17333:17383   */\n    tag_678:\n        /* \"#utility.yul\":17413:17414   */\n      0x01\n        /* \"#utility.yul\":17403:17411   */\n      dup6\n        /* \"#utility.yul\":17399:17415   */\n      and\n        /* \"#utility.yul\":17396:17847   */\n      iszero\n      tag_680\n      jumpi\n        /* \"#utility.yul\":17828:17832   */\n      dup1\n        /* \"#utility.yul\":17821:17826   */\n      dup3\n        /* \"#utility.yul\":17817:17833   */\n      mul\n        /* \"#utility.yul\":17808:17833   */\n      swap2\n      pop\n        /* \"#utility.yul\":17396:17847   */\n    tag_680:\n        /* \"#utility.yul\":17878:17882   */\n      dup1\n        /* \"#utility.yul\":17872:17876   */\n      dup2\n        /* \"#utility.yul\":17868:17883   */\n      mul\n        /* \"#utility.yul\":17860:17883   */\n      swap1\n      pop\n        /* \"#utility.yul\":17908:17940   */\n      tag_681\n        /* \"#utility.yul\":17931:17939   */\n      dup6\n        /* \"#utility.yul\":17908:17940   */\n      tag_475\n      jump\t// in\n    tag_681:\n        /* \"#utility.yul\":17896:17940   */\n      swap5\n      pop\n        /* \"#utility.yul\":17238:17950   */\n      jump(tag_675)\n    tag_677:\n        /* \"#utility.yul\":17108:17956   */\n      swap5\n      pop\n      swap5\n      swap3\n      pop\n      pop\n      pop\n      jump\t// out\n        /* \"#utility.yul\":17962:19035   */\n    tag_477:\n        /* \"#utility.yul\":18016:18021   */\n      0x00\n        /* \"#utility.yul\":18207:18215   */\n      dup3\n        /* \"#utility.yul\":18197:18237   */\n      tag_683\n      jumpi\n        /* \"#utility.yul\":18228:18229   */\n      0x01\n        /* \"#utility.yul\":18219:18229   */\n      swap1\n      pop\n        /* \"#utility.yul\":18230:18235   */\n      jump(tag_682)\n        /* \"#utility.yul\":18197:18237   */\n    tag_683:\n        /* \"#utility.yul\":18256:18260   */\n      dup2\n        /* \"#utility.yul\":18246:18282   */\n      tag_684\n      jumpi\n        /* \"#utility.yul\":18273:18274   */\n      0x00\n        /* \"#utility.yul\":18264:18274   */\n      swap1\n      pop\n        /* \"#utility.yul\":18275:18280   */\n      jump(tag_682)\n        /* \"#utility.yul\":18246:18282   */\n    tag_684:\n        /* \"#utility.yul\":18342:18346   */\n      dup2\n        /* \"#utility.yul\":18390:18391   */\n      0x01\n        /* \"#utility.yul\":18385:18412   */\n      dup2\n      eq\n      tag_686\n      jumpi\n        /* \"#utility.yul\":18426:18427   */\n      0x02\n        /* \"#utility.yul\":18421:18612   */\n      dup2\n      eq\n      tag_687\n      jumpi\n        /* \"#utility.yul\":18335:18612   */\n      jump(tag_685)\n        /* \"#utility.yul\":18385:18412   */\n    tag_686:\n        /* \"#utility.yul\":18403:18404   */\n      0x01\n        /* \"#utility.yul\":18394:18404   */\n      swap2\n      pop\n        /* \"#utility.yul\":18405:18410   */\n      pop\n      jump(tag_682)\n        /* \"#utility.yul\":18421:18612   */\n    tag_687:\n        /* \"#utility.yul\":18466:18469   */\n      0xff\n        /* \"#utility.yul\":18456:18464   */\n      dup5\n        /* \"#utility.yul\":18453:18470   */\n      gt\n        /* \"#utility.yul\":18450:18493   */\n      iszero\n      tag_688\n      jumpi\n        /* \"#utility.yul\":18473:18491   */\n      tag_689\n      tag_454\n      jump\t// in\n    tag_689:\n        /* \"#utility.yul\":18450:18493   */\n    tag_688:\n        /* \"#utility.yul\":18522:18530   */\n      dup4\n        /* \"#utility.yul\":18519:18520   */\n      0x02\n        /* \"#utility.yul\":18515:18531   */\n      exp\n        /* \"#utility.yul\":18506:18531   */\n      swap2\n      pop\n        /* \"#utility.yul\":18557:18560   */\n      dup5\n        /* \"#utility.yul\":18550:18555   */\n      dup3\n        /* \"#utility.yul\":18547:18561   */\n      gt\n        /* \"#utility.yul\":18544:18584   */\n      iszero\n      tag_690\n      jumpi\n        /* \"#utility.yul\":18564:18582   */\n      tag_691\n      tag_454\n      jump\t// in\n    tag_691:\n        /* \"#utility.yul\":18544:18584   */\n    tag_690:\n        /* \"#utility.yul\":18597:18602   */\n      pop\n      jump(tag_682)\n        /* \"#utility.yul\":18335:18612   */\n    tag_685:\n      pop\n        /* \"#utility.yul\":18721:18723   */\n      0x20\n        /* \"#utility.yul\":18711:18719   */\n      dup4\n        /* \"#utility.yul\":18708:18724   */\n      lt\n        /* \"#utility.yul\":18702:18705   */\n      0x0133\n        /* \"#utility.yul\":18696:18700   */\n      dup4\n        /* \"#utility.yul\":18693:18706   */\n      lt\n        /* \"#utility.yul\":18689:18725   */\n      and\n        /* \"#utility.yul\":18671:18673   */\n      0x4e\n        /* \"#utility.yul\":18661:18669   */\n      dup5\n        /* \"#utility.yul\":18658:18674   */\n      lt\n        /* \"#utility.yul\":18653:18655   */\n      0x0b\n        /* \"#utility.yul\":18647:18651   */\n      dup5\n        /* \"#utility.yul\":18644:18656   */\n      lt\n        /* \"#utility.yul\":18640:18675   */\n      and\n        /* \"#utility.yul\":18624:18735   */\n      or\n        /* \"#utility.yul\":18621:18867   */\n      iszero\n      tag_692\n      jumpi\n        /* \"#utility.yul\":18777:18785   */\n      dup3\n        /* \"#utility.yul\":18771:18775   */\n      dup3\n        /* \"#utility.yul\":18767:18786   */\n      exp\n        /* \"#utility.yul\":18758:18786   */\n      swap1\n      pop\n        /* \"#utility.yul\":18812:18815   */\n      dup4\n        /* \"#utility.yul\":18805:18810   */\n      dup2\n        /* \"#utility.yul\":18802:18816   */\n      gt\n        /* \"#utility.yul\":18799:18839   */\n      iszero\n      tag_693\n      jumpi\n        /* \"#utility.yul\":18819:18837   */\n      tag_694\n      tag_454\n      jump\t// in\n    tag_694:\n        /* \"#utility.yul\":18799:18839   */\n    tag_693:\n        /* \"#utility.yul\":18852:18857   */\n      jump(tag_682)\n        /* \"#utility.yul\":18621:18867   */\n    tag_692:\n        /* \"#utility.yul\":18892:18934   */\n      tag_695\n        /* \"#utility.yul\":18930:18933   */\n      dup5\n        /* \"#utility.yul\":18920:18928   */\n      dup5\n        /* \"#utility.yul\":18914:18918   */\n      dup5\n        /* \"#utility.yul\":18911:18912   */\n      0x01\n        /* \"#utility.yul\":18892:18934   */\n      tag_476\n      jump\t// in\n    tag_695:\n        /* \"#utility.yul\":18877:18934   */\n      swap3\n      pop\n      swap1\n      pop\n        /* \"#utility.yul\":18966:18970   */\n      dup2\n        /* \"#utility.yul\":18961:18964   */\n      dup5\n        /* \"#utility.yul\":18957:18971   */\n      div\n        /* \"#utility.yul\":18950:18955   */\n      dup2\n        /* \"#utility.yul\":18947:18972   */\n      gt\n        /* \"#utility.yul\":18944:18995   */\n      iszero\n      tag_696\n      jumpi\n        /* \"#utility.yul\":18975:18993   */\n      tag_697\n      tag_454\n      jump\t// in\n    tag_697:\n        /* \"#utility.yul\":18944:18995   */\n    tag_696:\n        /* \"#utility.yul\":19024:19028   */\n      dup2\n        /* \"#utility.yul\":19017:19022   */\n      dup2\n        /* \"#utility.yul\":19013:19029   */\n      mul\n        /* \"#utility.yul\":19004:19029   */\n      swap1\n      pop\n        /* \"#utility.yul\":17962:19035   */\n    tag_682:\n      swap4\n      swap3\n      pop\n      pop\n      pop\n      jump\t// out\n        /* \"#utility.yul\":19041:19322   */\n    tag_282:\n        /* \"#utility.yul\":19099:19104   */\n      0x00\n        /* \"#utility.yul\":19123:19146   */\n      tag_699\n        /* \"#utility.yul\":19141:19145   */\n      dup3\n        /* \"#utility.yul\":19123:19146   */\n      tag_433\n      jump\t// in\n    tag_699:\n        /* \"#utility.yul\":19115:19146   */\n      swap2\n      pop\n        /* \"#utility.yul\":19167:19192   */\n      tag_700\n        /* \"#utility.yul\":19183:19191   */\n      dup4\n        /* \"#utility.yul\":19167:19192   */\n      tag_472\n      jump\t// in\n    tag_700:\n        /* \"#utility.yul\":19155:19192   */\n      swap3\n      pop\n        /* \"#utility.yul\":19211:19315   */\n      tag_701\n        /* \"#utility.yul\":19248:19314   */\n      0xffffffffffffffffffffffffffffffffffffffffffffffffffffffffffffffff\n        /* \"#utility.yul\":19238:19246   */\n      dup5\n        /* \"#utility.yul\":19232:19236   */\n      dup5\n        /* \"#utility.yul\":19211:19315   */\n      tag_477\n      jump\t// in\n    tag_701:\n        /* \"#utility.yul\":19202:19315   */\n      swap1\n      pop\n        /* \"#utility.yul\":19041:19322   */\n      swap3\n      swap2\n      pop\n      pop\n      jump\t// out\n        /* \"#utility.yul\":19328:19679   */\n    tag_296:\n        /* \"#utility.yul\":19398:19404   */\n      0x00\n        /* \"#utility.yul\":19447:19449   */\n      0x20\n        /* \"#utility.yul\":19435:19444   */\n      dup3\n        /* \"#utility.yul\":19426:19433   */\n      dup5\n        /* \"#utility.yul\":19422:19445   */\n      sub\n        /* \"#utility.yul\":19418:19450   */\n      slt\n        /* \"#utility.yul\":19415:19534   */\n      iszero\n      tag_703\n      jumpi\n        /* \"#utility.yul\":19453:19532   */\n      tag_704\n      tag_426\n      jump\t// in\n    tag_704:\n        /* \"#utility.yul\":19415:19534   */\n    tag_703:\n        /* \"#utility.yul\":19573:19574   */\n      0x00\n        /* \"#utility.yul\":19598:19662   */\n      tag_705\n        /* \"#utility.yul\":19654:19661   */\n      dup5\n        /* \"#utility.yul\":19645:19651   */\n      dup3\n        /* \"#utility.yul\":19634:19643   */\n      dup6\n        /* \"#utility.yul\":19630:19652   */\n      add\n        /* \"#utility.yul\":19598:19662   */\n      tag_465\n      jump\t// in\n    tag_705:\n        /* \"#utility.yul\":19588:19662   */\n      swap2\n      pop\n        /* \"#utility.yul\":19544:19672   */\n      pop\n        /* \"#utility.yul\":19328:19679   */\n      swap3\n      swap2\n      pop\n      pop\n      jump\t// out\n        /* \"#utility.yul\":19685:19876   */\n    tag_307:\n        /* \"#utility.yul\":19725:19728   */\n      0x00\n        /* \"#utility.yul\":19744:19764   */\n      tag_707\n        /* \"#utility.yul\":19762:19763   */\n      dup3\n        /* \"#utility.yul\":19744:19764   */\n      tag_433\n      jump\t// in\n    tag_707:\n        /* \"#utility.yul\":19739:19764   */\n      swap2\n      pop\n        /* \"#utility.yul\":19778:19798   */\n      tag_708\n        /* \"#utility.yul\":19796:19797   */\n      dup4\n        /* \"#utility.yul\":19778:19798   */\n      tag_433\n      jump\t// in\n    tag_708:\n        /* \"#utility.yul\":19773:19798   */\n      swap3\n      pop\n        /* \"#utility.yul\":19821:19822   */\n      dup3\n        /* \"#utility.yul\":19818:19819   */\n      dup3\n        /* \"#utility.yul\":19814:19823   */\n      add\n        /* \"#utility.yul\":19807:19823   */\n      swap1\n      pop\n        /* \"#utility.yul\":19842:19845   */\n      dup1\n        /* \"#utility.yul\":19839:19840   */\n      dup3\n        /* \"#utility.yul\":19836:19846   */\n      gt\n        /* \"#utility.yul\":19833:19869   */\n      iszero\n      tag_709\n      jumpi\n        /* \"#utility.yul\":19849:19867   */\n      tag_710\n      tag_454\n      jump\t// in\n    tag_710:\n        /* \"#utility.yul\":19833:19869   */\n    tag_709:\n        /* \"#utility.yul\":19685:19876   */\n      swap3\n      swap2\n      pop\n      pop\n      jump\t// out\n        /* \"#utility.yul\":19882:20029   */\n    tag_478:\n        /* \"#utility.yul\":19983:19994   */\n      0x00\n        /* \"#utility.yul\":20020:20023   */\n      dup2\n        /* \"#utility.yul\":20005:20023   */\n      swap1\n      pop\n        /* \"#utility.yul\":19882:20029   */\n      swap3\n      swap2\n      pop\n      pop\n      jump\t// out\n        /* \"#utility.yul\":20035:20149   */\n    tag_479:\n      pop\n      jump\t// out\n        /* \"#utility.yul\":20155:20553   */\n    tag_480:\n        /* \"#utility.yul\":20314:20317   */\n      0x00\n        /* \"#utility.yul\":20335:20418   */\n      tag_714\n        /* \"#utility.yul\":20416:20417   */\n      0x00\n        /* \"#utility.yul\":20411:20414   */\n      dup4\n        /* \"#utility.yul\":20335:20418   */\n      tag_478\n      jump\t// in\n    tag_714:\n        /* \"#utility.yul\":20328:20418   */\n      swap2\n      pop\n        /* \"#utility.yul\":20427:20520   */\n      tag_715\n        /* \"#utility.yul\":20516:20519   */\n      dup3\n        /* \"#utility.yul\":20427:20520   */\n      tag_479\n      jump\t// in\n    tag_715:\n        /* \"#utility.yul\":20545:20546   */\n      0x00\n        /* \"#utility.yul\":20540:20543   */\n      dup3\n        /* \"#utility.yul\":20536:20547   */\n      add\n        /* \"#utility.yul\":20529:20547   */\n      swap1\n      pop\n        /* \"#utility.yul\":20155:20553   */\n      swap2\n      swap1\n      pop\n      jump\t// out\n        /* \"#utility.yul\":20559:20938   */\n    tag_385:\n        /* \"#utility.yul\":20743:20746   */\n      0x00\n        /* \"#utility.yul\":20765:20912   */\n      tag_717\n        /* \"#utility.yul\":20908:20911   */\n      dup3\n        /* \"#utility.yul\":20765:20912   */\n      tag_480\n      jump\t// in\n    tag_717:\n        /* \"#utility.yul\":20758:20912   */\n      swap2\n      pop\n        /* \"#utility.yul\":20929:20932   */\n      dup2\n        /* \"#utility.yul\":20922:20932   */\n      swap1\n      pop\n        /* \"#utility.yul\":20559:20938   */\n      swap2\n      swap1\n      pop\n      jump\t// out\n        /* \"#utility.yul\":20944:21386   */\n    tag_408:\n        /* \"#utility.yul\":21093:21097   */\n      0x00\n        /* \"#utility.yul\":21131:21133   */\n      0x60\n        /* \"#utility.yul\":21120:21129   */\n      dup3\n        /* \"#utility.yul\":21116:21134   */\n      add\n        /* \"#utility.yul\":21108:21134   */\n      swap1\n      pop\n        /* \"#utility.yul\":21144:21215   */\n      tag_719\n        /* \"#utility.yul\":21212:21213   */\n      0x00\n        /* \"#utility.yul\":21201:21210   */\n      dup4\n        /* \"#utility.yul\":21197:21214   */\n      add\n        /* \"#utility.yul\":21188:21194   */\n      dup7\n        /* \"#utility.yul\":21144:21215   */\n      tag_453\n      jump\t// in\n    tag_719:\n        /* \"#utility.yul\":21225:21297   */\n      tag_720\n        /* \"#utility.yul\":21293:21295   */\n      0x20\n        /* \"#utility.yul\":21282:21291   */\n      dup4\n        /* \"#utility.yul\":21278:21296   */\n      add\n        /* \"#utility.yul\":21269:21275   */\n      dup6\n        /* \"#utility.yul\":21225:21297   */\n      tag_453\n      jump\t// in\n    tag_720:\n        /* \"#utility.yul\":21307:21379   */\n      tag_721\n        /* \"#utility.yul\":21375:21377   */\n      0x40\n        /* \"#utility.yul\":21364:21373   */\n      dup4\n        /* \"#utility.yul\":21360:21378   */\n      add\n        /* \"#utility.yul\":21351:21357   */\n      dup5\n        /* \"#utility.yul\":21307:21379   */\n      tag_436\n      jump\t// in\n    tag_721:\n        /* \"#utility.yul\":20944:21386   */\n      swap5\n      swap4\n      pop\n      pop\n      pop\n      pop\n      jump\t// out\n        /* \"#utility.yul\":21392:21724   */\n    tag_413:\n        /* \"#utility.yul\":21513:21517   */\n      0x00\n        /* \"#utility.yul\":21551:21553   */\n      0x40\n        /* \"#utility.yul\":21540:21549   */\n      dup3\n        /* \"#utility.yul\":21536:21554   */\n      add\n        /* \"#utility.yul\":21528:21554   */\n      swap1\n      pop\n        /* \"#utility.yul\":21564:21635   */\n      tag_723\n        /* \"#utility.yul\":21632:21633   */\n      0x00\n        /* \"#utility.yul\":21621:21630   */\n      dup4\n        /* \"#utility.yul\":21617:21634   */\n      add\n        /* \"#utility.yul\":21608:21614   */\n      dup6\n        /* \"#utility.yul\":21564:21635   */\n      tag_453\n      jump\t// in\n    tag_723:\n        /* \"#utility.yul\":21645:21717   */\n      tag_724\n        /* \"#utility.yul\":21713:21715   */\n      0x20\n        /* \"#utility.yul\":21702:21711   */\n      dup4\n        /* \"#utility.yul\":21698:21716   */\n      add\n        /* \"#utility.yul\":21689:21695   */\n      dup5\n        /* \"#utility.yul\":21645:21717   */\n      tag_436\n      jump\t// in\n    tag_724:\n        /* \"#utility.yul\":21392:21724   */\n      swap4\n      swap3\n      pop\n      pop\n      pop\n      jump\t// out\n        /* \"#utility.yul\":21730:22062   */\n    tag_418:\n        /* \"#utility.yul\":21851:21855   */\n      0x00\n        /* \"#utility.yul\":21889:21891   */\n      0x40\n        /* \"#utility.yul\":21878:21887   */\n      dup3\n        /* \"#utility.yul\":21874:21892   */\n      add\n        /* \"#utility.yul\":21866:21892   */\n      swap1\n      pop\n        /* \"#utility.yul\":21902:21973   */\n      tag_726\n        /* \"#utility.yul\":21970:21971   */\n      0x00\n        /* \"#utility.yul\":21959:21968   */\n      dup4\n        /* \"#utility.yul\":21955:21972   */\n      add\n        /* \"#utility.yul\":21946:21952   */\n      dup6\n        /* \"#utility.yul\":21902:21973   */\n      tag_453\n      jump\t// in\n    tag_726:\n        /* \"#utility.yul\":21983:22055   */\n      tag_727\n        /* \"#utility.yul\":22051:22053   */\n      0x20\n        /* \"#utility.yul\":22040:22049   */\n      dup4\n        /* \"#utility.yul\":22036:22054   */\n      add\n        /* \"#utility.yul\":22027:22033   */\n      dup5\n        /* \"#utility.yul\":21983:22055   */\n      tag_444\n      jump\t// in\n    tag_727:\n        /* \"#utility.yul\":21730:22062   */\n      swap4\n      swap3\n      pop\n      pop\n      pop\n      jump\t// out\n\n    auxdata: 0xa2646970667358221220c3ab54d4ba912fb4f72e1955bd3d1358c5ca5973141579525029ab80febbe5e764736f6c634300081e0033\n}\n",
				"bytecode": {
					"linkReferences": {},
					"object": "60a060405234801561000f575f5ffd5b506040516137fd3803806137fd833981810160405281019061003191906102fc565b6100435f5f1b3361010c60201b60201c565b506100747f0acf805600123ef007091da3b3ffb39474074c656c127aa68cb0ffec232a8ff83361010c60201b60201c565b503360025f6101000a81548173ffffffffffffffffffffffffffffffffffffffff021916908373ffffffffffffffffffffffffffffffffffffffff1602179055508260038190555081608081815250508060015f6101000a81548173ffffffffffffffffffffffffffffffffffffffff021916908373ffffffffffffffffffffffffffffffffffffffff16021790555050505061034c565b5f61011d838361020160201b60201c565b6101f75760015f5f8581526020019081526020015f205f015f8473ffffffffffffffffffffffffffffffffffffffff1673ffffffffffffffffffffffffffffffffffffffff1681526020019081526020015f205f6101000a81548160ff02191690831515021790555061019461026460201b60201c565b73ffffffffffffffffffffffffffffffffffffffff168273ffffffffffffffffffffffffffffffffffffffff16847f2f8788117e7eff1d82e926ec794901d17c78024a50270940304540a733656f0d60405160405180910390a4600190506101fb565b5f90505b92915050565b5f5f5f8481526020019081526020015f205f015f8373ffffffffffffffffffffffffffffffffffffffff1673ffffffffffffffffffffffffffffffffffffffff1681526020019081526020015f205f9054906101000a900460ff16905092915050565b5f33905090565b5f5ffd5b5f819050919050565b6102818161026f565b811461028b575f5ffd5b50565b5f8151905061029c81610278565b92915050565b5f73ffffffffffffffffffffffffffffffffffffffff82169050919050565b5f6102cb826102a2565b9050919050565b6102db816102c1565b81146102e5575f5ffd5b50565b5f815190506102f6816102d2565b92915050565b5f5f5f606084860312156103135761031261026b565b5b5f6103208682870161028e565b93505060206103318682870161028e565b9250506040610342868287016102e8565b9150509250925092565b60805161348b6103725f395f81816109bf015281816109e80152611029015261348b5ff3fe6080604052600436106101ed575f3560e01c80638009b7bd1161010c578063a217fddf1161009f578063dc8843601161006e578063dc884360146106a1578063ecbea24d146106dd578063ed12e8ef14610707578063f38048b714610731578063f546599214610759576101ed565b8063a217fddf1461061d578063c265f47e14610647578063d0e30db01461066f578063d547741f14610679576101ed565b806397feb926116100db57806397feb926146105875780639d7f7e86146105af5780639f188164146105d9578063a1db9782146105f5576101ed565b80638009b7bd146104cd5780638367df3f146104f75780638da5cb5b1461052157806391d148541461054b576101ed565b806331993a1c116101845780635ba98164116101535780635ba981641461041357806371706cbe1461043d5780637bcd4ff0146104675780637ddfe78d146104a3576101ed565b806331993a1c1461037157806331eab30f1461039b57806336568abe146103c357806356bf180e146103eb576101ed565b8063248a9ca3116101c0578063248a9ca3146102bb5780632dfdf0b5146102f75780632e1a7d4d146103215780632f2ff15d14610349576101ed565b806301ffc9a7146101f157806306c0427e1461022d5780631977e938146102695780631d47e4a314610293575b5f5ffd5b3480156101fc575f5ffd5b506102176004803603810190610212919061292a565b610795565b604051610224919061296f565b60405180910390f35b348015610238575f5ffd5b50610253600480360381019061024e91906129bb565b61080e565b60405161026091906129f5565b60405180910390f35b348015610274575f5ffd5b5061027d610841565b60405161028a91906129f5565b60405180910390f35b34801561029e575f5ffd5b506102b960048036038101906102b49190612a68565b610847565b005b3480156102c6575f5ffd5b506102e160048036038101906102dc9190612ad9565b610961565b6040516102ee9190612b13565b60405180910390f35b348015610302575f5ffd5b5061030b61097d565b60405161031891906129f5565b60405180910390f35b34801561032c575f5ffd5b50610347600480360381019061034291906129bb565b610983565b005b348015610354575f5ffd5b5061036f600480360381019061036a9190612b2c565b610c00565b005b34801561037c575f5ffd5b50610385610c22565b6040516103929190612b13565b60405180910390f35b3480156103a6575f5ffd5b506103c160048036038101906103bc91906129bb565b610c46565b005b3480156103ce575f5ffd5b506103e960048036038101906103e49190612b2c565b610d0d565b005b3480156103f6575f5ffd5b50610411600480360381019061040c9190612ba5565b610d88565b005b34801561041e575f5ffd5b50610427611003565b60405161043491906129f5565b60405180910390f35b348015610448575f5ffd5b5061045161100c565b60405161045e91906129f5565b60405180910390f35b348015610472575f5ffd5b5061048d60048036038101906104889190612bf5565b611012565b60405161049a91906129f5565b60405180910390f35b3480156104ae575f5ffd5b506104b7611027565b6040516104c491906129f5565b60405180910390f35b3480156104d8575f5ffd5b506104e161104b565b6040516104ee9190612c7b565b60405180910390f35b348015610502575f5ffd5b5061050b611070565b60405161051891906129f5565b60405180910390f35b34801561052c575f5ffd5b50610535611319565b6040516105429190612ca3565b60405180910390f35b348015610556575f5ffd5b50610571600480360381019061056c9190612b2c565b61133e565b60405161057e919061296f565b60405180910390f35b348015610592575f5ffd5b506105ad60048036038101906105a89190612a68565b6113a1565b005b3480156105ba575f5ffd5b506105c3611807565b6040516105d091906129f5565b60405180910390f35b6105f360048036038101906105ee9190612bf5565b61180d565b005b348015610600575f5ffd5b5061061b60048036038101906106169190612a68565b611a04565b005b348015610628575f5ffd5b50610631611c72565b60405161063e9190612b13565b60405180910390f35b348015610652575f5ffd5b5061066d60048036038101906106689190612cbc565b611c78565b005b610677611f24565b005b348015610684575f5ffd5b5061069f600480360381019061069a9190612b2c565b61208a565b005b3480156106ac575f5ffd5b506106c760048036038101906106c29190612bf5565b6120ac565b6040516106d491906129f5565b60405180910390f35b3480156106e8575f5ffd5b506106f161212d565b6040516106fe91906129f5565b60405180910390f35b348015610712575f5ffd5b5061071b612133565b60405161072891906129f5565b60405180910390f35b34801561073c575f5ffd5b5061075760048036038101906107529190612a68565b612177565b005b348015610764575f5ffd5b5061077f600480360381019061077a9190612bf5565b6123d5565b60405161078c91906129f5565b60405180910390f35b5f7f7965db0b000000000000000000000000000000000000000000000000000000007bffffffffffffffffffffffffffffffffffffffffffffffffffffffff1916827bffffffffffffffffffffffffffffffffffffffffffffffffffffffff191614806108075750610806826123ea565b5b9050919050565b5f5f610818611070565b9050670de0b6b3a7640000818461082f9190612d39565b6108399190612da7565b915050919050565b60055481565b60025f9054906101000a900473ffffffffffffffffffffffffffffffffffffffff1673ffffffffffffffffffffffffffffffffffffffff163373ffffffffffffffffffffffffffffffffffffffff16146108cd576040517f30cd747100000000000000000000000000000000000000000000000000000000815260040160405180910390fd5b80600a5f8473ffffffffffffffffffffffffffffffffffffffff1673ffffffffffffffffffffffffffffffffffffffff1681526020019081526020015f20819055508173ffffffffffffffffffffffffffffffffffffffff167fb13a5b343485f5dfcbaf032884b3e0fcbfccab798d8f8ea3f867a2fc0b43c54d8260405161095591906129f5565b60405180910390a25050565b5f5f5f8381526020019081526020015f20600101549050919050565b60065481565b805f81036109bd576040517f5e85ae7300000000000000000000000000000000000000000000000000000000815260040160405180910390fd5b7f0000000000000000000000000000000000000000000000000000000000000000821115610a4457817f00000000000000000000000000000000000000000000000000000000000000006040517fb945e2d8000000000000000000000000000000000000000000000000000000008152600401610a3b929190612dd7565b60405180910390fd5b5f610a4e8361080e565b905064174876e800811115610a98576040517f08c379a0000000000000000000000000000000000000000000000000000000008152600401610a8f90612e58565b60405180910390fd5b5f60045f3373ffffffffffffffffffffffffffffffffffffffff1673ffffffffffffffffffffffffffffffffffffffff1681526020019081526020015f2054905080841115610b205780846040517fcf479181000000000000000000000000000000000000000000000000000000008152600401610b17929190612dd7565b60405180910390fd5b8360045f3373ffffffffffffffffffffffffffffffffffffffff1673ffffffffffffffffffffffffffffffffffffffff1681526020019081526020015f205f828254610b6c9190612e76565b925050819055508360055f828254610b849190612e76565b9250508190555060075f815480929190610b9d90612ea9565b9190505550610bac3385612453565b3373ffffffffffffffffffffffffffffffffffffffff167f7fcf532c15f0a6db0bd6d0e038bea71d30d808c7d98cb3bf7268a95bf5081b6585604051610bf291906129f5565b60405180910390a250505050565b610c0982610961565b610c12816124f7565b610c1c838361250b565b50505050565b7f0acf805600123ef007091da3b3ffb39474074c656c127aa68cb0ffec232a8ff881565b60025f9054906101000a900473ffffffffffffffffffffffffffffffffffffffff1673ffffffffffffffffffffffffffffffffffffffff163373ffffffffffffffffffffffffffffffffffffffff1614610ccc576040517f30cd747100000000000000000000000000000000000000000000000000000000815260040160405180910390fd5b806003819055507fbb1d6466d6b9cb3ce29a9dcd7cc2e51ee7e921992290f96d813b174787857a8c81604051610d0291906129f5565b60405180910390a150565b610d156125f4565b73ffffffffffffffffffffffffffffffffffffffff168173ffffffffffffffffffffffffffffffffffffffff1614610d79576040517f6697b23200000000000000000000000000000000000000000000000000000000815260040160405180910390fd5b610d8382826125fb565b505050565b7f0acf805600123ef007091da3b3ffb39474074c656c127aa68cb0ffec232a8ff8610db2816124f7565b815f8103610dec576040517f5e85ae7300000000000000000000000000000000000000000000000000000000815260040160405180910390fd5b5f73ffffffffffffffffffffffffffffffffffffffff168573ffffffffffffffffffffffffffffffffffffffff161480610e5157505f73ffffffffffffffffffffffffffffffffffffffff168473ffffffffffffffffffffffffffffffffffffffff16145b15610e88576040517fe6c4247b00000000000000000000000000000000000000000000000000000000815260040160405180910390fd5b5f60045f8773ffffffffffffffffffffffffffffffffffffffff1673ffffffffffffffffffffffffffffffffffffffff1681526020019081526020015f2054905080841115610f105780846040517fcf479181000000000000000000000000000000000000000000000000000000008152600401610f07929190612dd7565b60405180910390fd5b8381610f1c9190612e76565b60045f8873ffffffffffffffffffffffffffffffffffffffff1673ffffffffffffffffffffffffffffffffffffffff1681526020019081526020015f20819055508360055f828254610f6e9190612e76565b92505081905550610f7f8585612453565b3373ffffffffffffffffffffffffffffffffffffffff168573ffffffffffffffffffffffffffffffffffffffff168773ffffffffffffffffffffffffffffffffffffffff167fa2ec0e896f84a6c3af242072e615b439c765f906b0d00d14dfa84fd9245609b287604051610ff391906129f5565b60405180910390a4505050505050565b64174876e80081565b60075481565b600a602052805f5260405f205f915090505481565b7f000000000000000000000000000000000000000000000000000000000000000081565b60015f9054906101000a900473ffffffffffffffffffffffffffffffffffffffff1681565b5f5f5f5f5f60015f9054906101000a900473ffffffffffffffffffffffffffffffffffffffff1673ffffffffffffffffffffffffffffffffffffffff1663feaf968c6040518163ffffffff1660e01b815260040160a060405180830381865afa1580156110df573d5f5f3e3d5ffd5b505050506040513d601f19601f820116820180604052508101906111039190612f76565b9450945050935093508369ffffffffffffffffffff168169ffffffffffffffffffff161015611167576040517f08c379a000000000000000000000000000000000000000000000000000000000815260040161115e90613037565b60405180910390fd5b5f82141580156111845750610e1082426111819190612e76565b11155b6111c3576040517f08c379a00000000000000000000000000000000000000000000000000000000081526004016111ba9061309f565b60405180910390fd5b5f8313611205576040517f08c379a00000000000000000000000000000000000000000000000000000000081526004016111fc90613107565b60405180910390fd5b5f60015f9054906101000a900473ffffffffffffffffffffffffffffffffffffffff1673ffffffffffffffffffffffffffffffffffffffff1663313ce5676040518163ffffffff1660e01b8152600401602060405180830381865afa158015611270573d5f5f3e3d5ffd5b505050506040513d601f19601f82011682018060405250810190611294919061315b565b905060088160ff16036112ae578395505050505050611316565b60088160ff1611156112ea576008816112c79190613186565b600a6112d391906132e9565b846112de9190612da7565b95505050505050611316565b8060086112f79190613186565b600a61130391906132e9565b8461130e9190612d39565b955050505050505b90565b60025f9054906101000a900473ffffffffffffffffffffffffffffffffffffffff1681565b5f5f5f8481526020019081526020015f205f015f8373ffffffffffffffffffffffffffffffffffffffff1673ffffffffffffffffffffffffffffffffffffffff1681526020019081526020015f205f9054906101000a900460ff16905092915050565b805f81036113db576040517f5e85ae7300000000000000000000000000000000000000000000000000000000815260040160405180910390fd5b5f8390505f8173ffffffffffffffffffffffffffffffffffffffff166370a08231306040518263ffffffff1660e01b81526004016114199190612ca3565b602060405180830381865afa158015611434573d5f5f3e3d5ffd5b505050506040513d601f19601f820116820180604052508101906114589190613333565b90506114873330868573ffffffffffffffffffffffffffffffffffffffff166126e4909392919063ffffffff16565b5f8273ffffffffffffffffffffffffffffffffffffffff166370a08231306040518263ffffffff1660e01b81526004016114c19190612ca3565b602060405180830381865afa1580156114dc573d5f5f3e3d5ffd5b505050506040513d601f19601f820116820180604052508101906115009190613333565b90505f828261150f9190612e76565b90505f810361154a576040517f5e85ae7300000000000000000000000000000000000000000000000000000000815260040160405180910390fd5b5f600a5f8973ffffffffffffffffffffffffffffffffffffffff1673ffffffffffffffffffffffffffffffffffffffff1681526020019081526020015f205490505f8111156116b6575f8260095f8b73ffffffffffffffffffffffffffffffffffffffff1673ffffffffffffffffffffffffffffffffffffffff1681526020019081526020015f20546115dd919061335e565b90508181111561166e5760095f8a73ffffffffffffffffffffffffffffffffffffffff1673ffffffffffffffffffffffffffffffffffffffff1681526020019081526020015f2054826116309190612e76565b836040517f31728a05000000000000000000000000000000000000000000000000000000008152600401611665929190612dd7565b60405180910390fd5b8060095f8b73ffffffffffffffffffffffffffffffffffffffff1673ffffffffffffffffffffffffffffffffffffffff1681526020019081526020015f20819055505061170a565b8160095f8a73ffffffffffffffffffffffffffffffffffffffff1673ffffffffffffffffffffffffffffffffffffffff1681526020019081526020015f205f828254611702919061335e565b925050819055505b8160085f8a73ffffffffffffffffffffffffffffffffffffffff1673ffffffffffffffffffffffffffffffffffffffff1681526020019081526020015f205f3373ffffffffffffffffffffffffffffffffffffffff1673ffffffffffffffffffffffffffffffffffffffff1681526020019081526020015f205f828254611791919061335e565b925050819055503373ffffffffffffffffffffffffffffffffffffffff168873ffffffffffffffffffffffffffffffffffffffff167fc5a3eaef44f54039a9a9d23d5296c9de6bf83e1b6d4ebd109e85cbcf477737a6846040516117f591906129f5565b60405180910390a35050505050505050565b610e1081565b7f0acf805600123ef007091da3b3ffb39474074c656c127aa68cb0ffec232a8ff8611837816124f7565b345f8103611871576040517f5e85ae7300000000000000000000000000000000000000000000000000000000815260040160405180910390fd5b5f73ffffffffffffffffffffffffffffffffffffffff168373ffffffffffffffffffffffffffffffffffffffff16036118d6576040517fe6c4247b00000000000000000000000000000000000000000000000000000000815260040160405180910390fd5b5f346005546118e5919061335e565b905060035481111561193f576005546003546119019190612e76565b346040517f31728a05000000000000000000000000000000000000000000000000000000008152600401611936929190612dd7565b60405180910390fd5b3460045f8673ffffffffffffffffffffffffffffffffffffffff1673ffffffffffffffffffffffffffffffffffffffff1681526020019081526020015f205f82825461198b919061335e565b92505081905550806005819055503373ffffffffffffffffffffffffffffffffffffffff168473ffffffffffffffffffffffffffffffffffffffff167fe0b7399a2482598f5c734dbc05b5933a2a5ae1f0db16c9fec80061e9742e909d346040516119f691906129f5565b60405180910390a350505050565b805f8103611a3e576040517f5e85ae7300000000000000000000000000000000000000000000000000000000815260040160405180910390fd5b5f60085f8573ffffffffffffffffffffffffffffffffffffffff1673ffffffffffffffffffffffffffffffffffffffff1681526020019081526020015f205f3373ffffffffffffffffffffffffffffffffffffffff1673ffffffffffffffffffffffffffffffffffffffff1681526020019081526020015f2054905080831115611b015780836040517fcf479181000000000000000000000000000000000000000000000000000000008152600401611af8929190612dd7565b60405180910390fd5b8281611b0d9190612e76565b60085f8673ffffffffffffffffffffffffffffffffffffffff1673ffffffffffffffffffffffffffffffffffffffff1681526020019081526020015f205f3373ffffffffffffffffffffffffffffffffffffffff1673ffffffffffffffffffffffffffffffffffffffff1681526020019081526020015f20819055508260095f8673ffffffffffffffffffffffffffffffffffffffff1673ffffffffffffffffffffffffffffffffffffffff1681526020019081526020015f205f828254611bd59190612e76565b92505081905550611c0733848673ffffffffffffffffffffffffffffffffffffffff166127669092919063ffffffff16565b3373ffffffffffffffffffffffffffffffffffffffff168473ffffffffffffffffffffffffffffffffffffffff167f2fbb3e8dc2807d6a61feb98fc2120153f77b2c0d25ef6272e1756935dd62c84785604051611c6491906129f5565b60405180910390a350505050565b5f5f1b81565b7f0acf805600123ef007091da3b3ffb39474074c656c127aa68cb0ffec232a8ff8611ca2816124f7565b815f8103611cdc576040517f5e85ae7300000000000000000000000000000000000000000000000000000000815260040160405180910390fd5b5f73ffffffffffffffffffffffffffffffffffffffff168573ffffffffffffffffffffffffffffffffffffffff161480611d4157505f73ffffffffffffffffffffffffffffffffffffffff168473ffffffffffffffffffffffffffffffffffffffff16145b15611d78576040517fe6c4247b00000000000000000000000000000000000000000000000000000000815260040160405180910390fd5b5f60045f8773ffffffffffffffffffffffffffffffffffffffff1673ffffffffffffffffffffffffffffffffffffffff1681526020019081526020015f2054905080841115611e005780846040517fcf479181000000000000000000000000000000000000000000000000000000008152600401611df7929190612dd7565b60405180910390fd5b8381611e0c9190612e76565b60045f8873ffffffffffffffffffffffffffffffffffffffff1673ffffffffffffffffffffffffffffffffffffffff1681526020019081526020015f20819055508360045f8773ffffffffffffffffffffffffffffffffffffffff1673ffffffffffffffffffffffffffffffffffffffff1681526020019081526020015f205f828254611e99919061335e565b925050819055503373ffffffffffffffffffffffffffffffffffffffff168573ffffffffffffffffffffffffffffffffffffffff168773ffffffffffffffffffffffffffffffffffffffff167ff83122a55a6bae953bfb8caaeaf6f8a3636e17b1cd279d61a727ed951bd2508287604051611f1491906129f5565b60405180910390a4505050505050565b345f8103611f5e576040517f5e85ae7300000000000000000000000000000000000000000000000000000000815260040160405180910390fd5b5f34600554611f6d919061335e565b9050600354811115611fc757600554600354611f899190612e76565b346040517f31728a05000000000000000000000000000000000000000000000000000000008152600401611fbe929190612dd7565b60405180910390fd5b3460045f3373ffffffffffffffffffffffffffffffffffffffff1673ffffffffffffffffffffffffffffffffffffffff1681526020019081526020015f205f828254612013919061335e565b925050819055508060058190555060065f81548092919061203390612ea9565b91905055503373ffffffffffffffffffffffffffffffffffffffff167fe1fffcc4923d04b559f4d29a8bfc6cda04eb5b0d3c460751c2402c5c5cc9109c3460405161207e91906129f5565b60405180910390a25050565b61209382610961565b61209c816124f7565b6120a683836125fb565b50505050565b5f60085f8373ffffffffffffffffffffffffffffffffffffffff1673ffffffffffffffffffffffffffffffffffffffff1681526020019081526020015f205f3373ffffffffffffffffffffffffffffffffffffffff1673ffffffffffffffffffffffffffffffffffffffff1681526020019081526020015f20549050919050565b60035481565b5f60045f3373ffffffffffffffffffffffffffffffffffffffff1673ffffffffffffffffffffffffffffffffffffffff1681526020019081526020015f2054905090565b7f0acf805600123ef007091da3b3ffb39474074c656c127aa68cb0ffec232a8ff86121a1816124f7565b815f81036121db576040517f5e85ae7300000000000000000000000000000000000000000000000000000000815260040160405180910390fd5b5f73ffffffffffffffffffffffffffffffffffffffff168473ffffffffffffffffffffffffffffffffffffffff1603612240576040517fe6c4247b00000000000000000000000000000000000000000000000000000000815260040160405180910390fd5b5f47905083600554612252919061335e565b8110156122a557600554816122679190612e76565b846040517f31728a0500000000000000000000000000000000000000000000000000000000815260040161229c929190612dd7565b60405180910390fd5b5f846005546122b4919061335e565b905060035481111561230e576005546003546122d09190612e76565b856040517f31728a05000000000000000000000000000000000000000000000000000000008152600401612305929190612dd7565b60405180910390fd5b8460045f8873ffffffffffffffffffffffffffffffffffffffff1673ffffffffffffffffffffffffffffffffffffffff1681526020019081526020015f205f82825461235a919061335e565b92505081905550806005819055503373ffffffffffffffffffffffffffffffffffffffff168673ffffffffffffffffffffffffffffffffffffffff167f3692b2c1f23f30193ac244cfe2cbff64281879bd7675106f06c3aafe27de8eac876040516123c591906129f5565b60405180910390a3505050505050565b6009602052805f5260405f205f915090505481565b5f7f01ffc9a7000000000000000000000000000000000000000000000000000000007bffffffffffffffffffffffffffffffffffffffffffffffffffffffff1916827bffffffffffffffffffffffffffffffffffffffffffffffffffffffff1916149050919050565b5f8273ffffffffffffffffffffffffffffffffffffffff1682604051612478906133be565b5f6040518083038185875af1925050503d805f81146124b2576040519150601f19603f3d011682016040523d82523d5f602084013e6124b7565b606091505b50509050806124f2576040517f90b8ec1800000000000000000000000000000000000000000000000000000000815260040160405180910390fd5b505050565b612508816125036125f4565b6127e5565b50565b5f612516838361133e565b6125ea5760015f5f8581526020019081526020015f205f015f8473ffffffffffffffffffffffffffffffffffffffff1673ffffffffffffffffffffffffffffffffffffffff1681526020019081526020015f205f6101000a81548160ff0219169083151502179055506125876125f4565b73ffffffffffffffffffffffffffffffffffffffff168273ffffffffffffffffffffffffffffffffffffffff16847f2f8788117e7eff1d82e926ec794901d17c78024a50270940304540a733656f0d60405160405180910390a4600190506125ee565b5f90505b92915050565b5f33905090565b5f612606838361133e565b156126da575f5f5f8581526020019081526020015f205f015f8473ffffffffffffffffffffffffffffffffffffffff1673ffffffffffffffffffffffffffffffffffffffff1681526020019081526020015f205f6101000a81548160ff0219169083151502179055506126776125f4565b73ffffffffffffffffffffffffffffffffffffffff168273ffffffffffffffffffffffffffffffffffffffff16847ff6391f5c32d9c69d2a47ea670b442974b53935d1edc7fd64eb21e047a839171b60405160405180910390a4600190506126de565b5f90505b92915050565b612760848573ffffffffffffffffffffffffffffffffffffffff166323b872dd868686604051602401612719939291906133d2565b604051602081830303815290604052915060e01b6020820180517bffffffffffffffffffffffffffffffffffffffffffffffffffffffff8381831617835250505050612836565b50505050565b6127e0838473ffffffffffffffffffffffffffffffffffffffff1663a9059cbb8585604051602401612799929190613407565b604051602081830303815290604052915060e01b6020820180517bffffffffffffffffffffffffffffffffffffffffffffffffffffffff8381831617835250505050612836565b505050565b6127ef828261133e565b6128325780826040517fe2517d3f00000000000000000000000000000000000000000000000000000000815260040161282992919061342e565b60405180910390fd5b5050565b5f5f60205f8451602086015f885af180612855576040513d5f823e3d81fd5b3d92505f519150505f821461286e576001811415612889565b5f8473ffffffffffffffffffffffffffffffffffffffff163b145b156128cb57836040517f5274afe70000000000000000000000000000000000000000000000000000000081526004016128c29190612ca3565b60405180910390fd5b50505050565b5f5ffd5b5f7fffffffff0000000000000000000000000000000000000000000000000000000082169050919050565b612909816128d5565b8114612913575f5ffd5b50565b5f8135905061292481612900565b92915050565b5f6020828403121561293f5761293e6128d1565b5b5f61294c84828501612916565b91505092915050565b5f8115159050919050565b61296981612955565b82525050565b5f6020820190506129825f830184612960565b92915050565b5f819050919050565b61299a81612988565b81146129a4575f5ffd5b50565b5f813590506129b581612991565b92915050565b5f602082840312156129d0576129cf6128d1565b5b5f6129dd848285016129a7565b91505092915050565b6129ef81612988565b82525050565b5f602082019050612a085f8301846129e6565b92915050565b5f73ffffffffffffffffffffffffffffffffffffffff82169050919050565b5f612a3782612a0e565b9050919050565b612a4781612a2d565b8114612a51575f5ffd5b50565b5f81359050612a6281612a3e565b92915050565b5f5f60408385031215612a7e57612a7d6128d1565b5b5f612a8b85828601612a54565b9250506020612a9c858286016129a7565b9150509250929050565b5f819050919050565b612ab881612aa6565b8114612ac2575f5ffd5b50565b5f81359050612ad381612aaf565b92915050565b5f60208284031215612aee57612aed6128d1565b5b5f612afb84828501612ac5565b91505092915050565b612b0d81612aa6565b82525050565b5f602082019050612b265f830184612b04565b92915050565b5f5f60408385031215612b4257612b416128d1565b5b5f612b4f85828601612ac5565b9250506020612b6085828601612a54565b9150509250929050565b5f612b7482612a0e565b9050919050565b612b8481612b6a565b8114612b8e575f5ffd5b50565b5f81359050612b9f81612b7b565b92915050565b5f5f5f60608486031215612bbc57612bbb6128d1565b5b5f612bc986828701612a54565b9350506020612bda86828701612b91565b9250506040612beb868287016129a7565b9150509250925092565b5f60208284031215612c0a57612c096128d1565b5b5f612c1784828501612a54565b91505092915050565b5f819050919050565b5f612c43612c3e612c3984612a0e565b612c20565b612a0e565b9050919050565b5f612c5482612c29565b9050919050565b5f612c6582612c4a565b9050919050565b612c7581612c5b565b82525050565b5f602082019050612c8e5f830184612c6c565b92915050565b612c9d81612a2d565b82525050565b5f602082019050612cb65f830184612c94565b92915050565b5f5f5f60608486031215612cd357612cd26128d1565b5b5f612ce086828701612a54565b9350506020612cf186828701612a54565b9250506040612d02868287016129a7565b9150509250925092565b7f4e487b71000000000000000000000000000000000000000000000000000000005f52601160045260245ffd5b5f612d4382612988565b9150612d4e83612988565b9250828202612d5c81612988565b91508282048414831517612d7357612d72612d0c565b5b5092915050565b7f4e487b71000000000000000000000000000000000000000000000000000000005f52601260045260245ffd5b5f612db182612988565b9150612dbc83612988565b925082612dcc57612dcb612d7a565b5b828204905092915050565b5f604082019050612dea5f8301856129e6565b612df760208301846129e6565b9392505050565b5f82825260208201905092915050565b7f7769746864726177203e203130303020555344000000000000000000000000005f82015250565b5f612e42601383612dfe565b9150612e4d82612e0e565b602082019050919050565b5f6020820190508181035f830152612e6f81612e36565b9050919050565b5f612e8082612988565b9150612e8b83612988565b9250828203905081811115612ea357612ea2612d0c565b5b92915050565b5f612eb382612988565b91507fffffffffffffffffffffffffffffffffffffffffffffffffffffffffffffffff8203612ee557612ee4612d0c565b5b600182019050919050565b5f69ffffffffffffffffffff82169050919050565b612f0e81612ef0565b8114612f18575f5ffd5b50565b5f81519050612f2981612f05565b92915050565b5f819050919050565b612f4181612f2f565b8114612f4b575f5ffd5b50565b5f81519050612f5c81612f38565b92915050565b5f81519050612f7081612991565b92915050565b5f5f5f5f5f60a08688031215612f8f57612f8e6128d1565b5b5f612f9c88828901612f1b565b9550506020612fad88828901612f4e565b9450506040612fbe88828901612f62565b9350506060612fcf88828901612f62565b9250506080612fe088828901612f1b565b9150509295509295909350565b7f7374616c6520726f756e640000000000000000000000000000000000000000005f82015250565b5f613021600b83612dfe565b915061302c82612fed565b602082019050919050565b5f6020820190508181035f83015261304e81613015565b9050919050565b7f7374616c652070726963650000000000000000000000000000000000000000005f82015250565b5f613089600b83612dfe565b915061309482613055565b602082019050919050565b5f6020820190508181035f8301526130b68161307d565b9050919050565b7f696e76616c6964207072696365000000000000000000000000000000000000005f82015250565b5f6130f1600d83612dfe565b91506130fc826130bd565b602082019050919050565b5f6020820190508181035f83015261311e816130e5565b9050919050565b5f60ff82169050919050565b61313a81613125565b8114613144575f5ffd5b50565b5f8151905061315581613131565b92915050565b5f602082840312156131705761316f6128d1565b5b5f61317d84828501613147565b91505092915050565b5f61319082613125565b915061319b83613125565b9250828203905060ff8111156131b4576131b3612d0c565b5b92915050565b5f8160011c9050919050565b5f5f8291508390505b600185111561320f578086048111156131eb576131ea612d0c565b5b60018516156131fa5780820291505b8081029050613208856131ba565b94506131cf565b94509492505050565b5f8261322757600190506132e2565b81613234575f90506132e2565b816001811461324a576002811461325457613283565b60019150506132e2565b60ff84111561326657613265612d0c565b5b8360020a91508482111561327d5761327c612d0c565b5b506132e2565b5060208310610133831016604e8410600b84101617156132b85782820a9050838111156132b3576132b2612d0c565b5b6132e2565b6132c584848460016131c6565b925090508184048111156132dc576132db612d0c565b5b81810290505b9392505050565b5f6132f382612988565b91506132fe83613125565b925061332b7fffffffffffffffffffffffffffffffffffffffffffffffffffffffffffffffff8484613218565b905092915050565b5f60208284031215613348576133476128d1565b5b5f61335584828501612f62565b91505092915050565b5f61336882612988565b915061337383612988565b925082820190508082111561338b5761338a612d0c565b5b92915050565b5f81905092915050565b50565b5f6133a95f83613391565b91506133b48261339b565b5f82019050919050565b5f6133c88261339e565b9150819050919050565b5f6060820190506133e55f830186612c94565b6133f26020830185612c94565b6133ff60408301846129e6565b949350505050565b5f60408201905061341a5f830185612c94565b61342760208301846129e6565b9392505050565b5f6040820190506134415f830185612c94565b61344e6020830184612b04565b939250505056fea2646970667358221220c3ab54d4ba912fb4f72e1955bd3d1358c5ca5973141579525029ab80febbe5e764736f6c634300081e0033",
					"opcodes": "PUSH1 0xA0 PUSH1 0x40 MSTORE CALLVALUE DUP1 ISZERO PUSH2 0xF JUMPI PUSH0 PUSH0 REVERT JUMPDEST POP PUSH1 0x40 MLOAD PUSH2 0x37FD CODESIZE SUB DUP1 PUSH2 0x37FD DUP4 CODECOPY DUP2 DUP2 ADD PUSH1 0x40 MSTORE DUP2 ADD SWAP1 PUSH2 0x31 SWAP2 SWAP1 PUSH2 0x2FC JUMP JUMPDEST PUSH2 0x43 PUSH0 PUSH0 SHL CALLER PUSH2 0x10C PUSH1 0x20 SHL PUSH1 0x20 SHR JUMP JUMPDEST POP PUSH2 0x74 PUSH32 0xACF805600123EF007091DA3B3FFB39474074C656C127AA68CB0FFEC232A8FF8 CALLER PUSH2 0x10C PUSH1 0x20 SHL PUSH1 0x20 SHR JUMP JUMPDEST POP CALLER PUSH1 0x2 PUSH0 PUSH2 0x100 EXP DUP2 SLOAD DUP2 PUSH20 0xFFFFFFFFFFFFFFFFFFFFFFFFFFFFFFFFFFFFFFFF MUL NOT AND SWAP1 DUP4 PUSH20 0xFFFFFFFFFFFFFFFFFFFFFFFFFFFFFFFFFFFFFFFF AND MUL OR SWAP1 SSTORE POP DUP3 PUSH1 0x3 DUP2 SWAP1 SSTORE POP DUP2 PUSH1 0x80 DUP2 DUP2 MSTORE POP POP DUP1 PUSH1 0x1 PUSH0 PUSH2 0x100 EXP DUP2 SLOAD DUP2 PUSH20 0xFFFFFFFFFFFFFFFFFFFFFFFFFFFFFFFFFFFFFFFF MUL NOT AND SWAP1 DUP4 PUSH20 0xFFFFFFFFFFFFFFFFFFFFFFFFFFFFFFFFFFFFFFFF AND MUL OR SWAP1 SSTORE POP POP POP POP PUSH2 0x34C JUMP JUMPDEST PUSH0 PUSH2 0x11D DUP4 DUP4 PUSH2 0x201 PUSH1 0x20 SHL PUSH1 0x20 SHR JUMP JUMPDEST PUSH2 0x1F7 JUMPI PUSH1 0x1 PUSH0 PUSH0 DUP6 DUP2 MSTORE PUSH1 0x20 ADD SWAP1 DUP2 MSTORE PUSH1 0x20 ADD PUSH0 KECCAK256 PUSH0 ADD PUSH0 DUP5 PUSH20 0xFFFFFFFFFFFFFFFFFFFFFFFFFFFFFFFFFFFFFFFF AND PUSH20 0xFFFFFFFFFFFFFFFFFFFFFFFFFFFFFFFFFFFFFFFF AND DUP2 MSTORE PUSH1 0x20 ADD SWAP1 DUP2 MSTORE PUSH1 0x20 ADD PUSH0 KECCAK256 PUSH0 PUSH2 0x100 EXP DUP2 SLOAD DUP2 PUSH1 0xFF MUL NOT AND SWAP1 DUP4 ISZERO ISZERO MUL OR SWAP1 SSTORE POP PUSH2 0x194 PUSH2 0x264 PUSH1 0x20 SHL PUSH1 0x20 SHR JUMP JUMPDEST PUSH20 0xFFFFFFFFFFFFFFFFFFFFFFFFFFFFFFFFFFFFFFFF AND DUP3 PUSH20 0xFFFFFFFFFFFFFFFFFFFFFFFFFFFFFFFFFFFFFFFF AND DUP5 PUSH32 0x2F8788117E7EFF1D82E926EC794901D17C78024A50270940304540A733656F0D PUSH1 0x40 MLOAD PUSH1 0x40 MLOAD DUP1 SWAP2 SUB SWAP1 LOG4 PUSH1 0x1 SWAP1 POP PUSH2 0x1FB JUMP JUMPDEST PUSH0 SWAP1 POP JUMPDEST SWAP3 SWAP2 POP POP JUMP JUMPDEST PUSH0 PUSH0 PUSH0 DUP5 DUP2 MSTORE PUSH1 0x20 ADD SWAP1 DUP2 MSTORE PUSH1 0x20 ADD PUSH0 KECCAK256 PUSH0 ADD PUSH0 DUP4 PUSH20 0xFFFFFFFFFFFFFFFFFFFFFFFFFFFFFFFFFFFFFFFF AND PUSH20 0xFFFFFFFFFFFFFFFFFFFFFFFFFFFFFFFFFFFFFFFF AND DUP2 MSTORE PUSH1 0x20 ADD SWAP1 DUP2 MSTORE PUSH1 0x20 ADD PUSH0 KECCAK256 PUSH0 SWAP1 SLOAD SWAP1 PUSH2 0x100 EXP SWAP1 DIV PUSH1 0xFF AND SWAP1 POP SWAP3 SWAP2 POP POP JUMP JUMPDEST PUSH0 CALLER SWAP1 POP SWAP1 JUMP JUMPDEST PUSH0 PUSH0 REVERT JUMPDEST PUSH0 DUP2 SWAP1 POP SWAP2 SWAP1 POP JUMP JUMPDEST PUSH2 0x281 DUP2 PUSH2 0x26F JUMP JUMPDEST DUP2 EQ PUSH2 0x28B JUMPI PUSH0 PUSH0 REVERT JUMPDEST POP JUMP JUMPDEST PUSH0 DUP2 MLOAD SWAP1 POP PUSH2 0x29C DUP2 PUSH2 0x278 JUMP JUMPDEST SWAP3 SWAP2 POP POP JUMP JUMPDEST PUSH0 PUSH20 0xFFFFFFFFFFFFFFFFFFFFFFFFFFFFFFFFFFFFFFFF DUP3 AND SWAP1 POP SWAP2 SWAP1 POP JUMP JUMPDEST PUSH0 PUSH2 0x2CB DUP3 PUSH2 0x2A2 JUMP JUMPDEST SWAP1 POP SWAP2 SWAP1 POP JUMP JUMPDEST PUSH2 0x2DB DUP2 PUSH2 0x2C1 JUMP JUMPDEST DUP2 EQ PUSH2 0x2E5 JUMPI PUSH0 PUSH0 REVERT JUMPDEST POP JUMP JUMPDEST PUSH0 DUP2 MLOAD SWAP1 POP PUSH2 0x2F6 DUP2 PUSH2 0x2D2 JUMP JUMPDEST SWAP3 SWAP2 POP POP JUMP JUMPDEST PUSH0 PUSH0 PUSH0 PUSH1 0x60 DUP5 DUP7 SUB SLT ISZERO PUSH2 0x313 JUMPI PUSH2 0x312 PUSH2 0x26B JUMP JUMPDEST JUMPDEST PUSH0 PUSH2 0x320 DUP7 DUP3 DUP8 ADD PUSH2 0x28E JUMP JUMPDEST SWAP4 POP POP PUSH1 0x20 PUSH2 0x331 DUP7 DUP3 DUP8 ADD PUSH2 0x28E JUMP JUMPDEST SWAP3 POP POP PUSH1 0x40 PUSH2 0x342 DUP7 DUP3 DUP8 ADD PUSH2 0x2E8 JUMP JUMPDEST SWAP2 POP POP SWAP3 POP SWAP3 POP SWAP3 JUMP JUMPDEST PUSH1 0x80 MLOAD PUSH2 0x348B PUSH2 0x372 PUSH0 CODECOPY PUSH0 DUP2 DUP2 PUSH2 0x9BF ADD MSTORE DUP2 DUP2 PUSH2 0x9E8 ADD MSTORE PUSH2 0x1029 ADD MSTORE PUSH2 0x348B PUSH0 RETURN INVALID PUSH1 0x80 PUSH1 0x40 MSTORE PUSH1 0x4 CALLDATASIZE LT PUSH2 0x1ED JUMPI PUSH0 CALLDATALOAD PUSH1 0xE0 SHR DUP1 PUSH4 0x8009B7BD GT PUSH2 0x10C JUMPI DUP1 PUSH4 0xA217FDDF GT PUSH2 0x9F JUMPI DUP1 PUSH4 0xDC884360 GT PUSH2 0x6E JUMPI DUP1 PUSH4 0xDC884360 EQ PUSH2 0x6A1 JUMPI DUP1 PUSH4 0xECBEA24D EQ PUSH2 0x6DD JUMPI DUP1 PUSH4 0xED12E8EF EQ PUSH2 0x707 JUMPI DUP1 PUSH4 0xF38048B7 EQ PUSH2 0x731 JUMPI DUP1 PUSH4 0xF5465992 EQ PUSH2 0x759 JUMPI PUSH2 0x1ED JUMP JUMPDEST DUP1 PUSH4 0xA217FDDF EQ PUSH2 0x61D JUMPI DUP1 PUSH4 0xC265F47E EQ PUSH2 0x647 JUMPI DUP1 PUSH4 0xD0E30DB0 EQ PUSH2 0x66F JUMPI DUP1 PUSH4 0xD547741F EQ PUSH2 0x679 JUMPI PUSH2 0x1ED JUMP JUMPDEST DUP1 PUSH4 0x97FEB926 GT PUSH2 0xDB JUMPI DUP1 PUSH4 0x97FEB926 EQ PUSH2 0x587 JUMPI DUP1 PUSH4 0x9D7F7E86 EQ PUSH2 0x5AF JUMPI DUP1 PUSH4 0x9F188164 EQ PUSH2 0x5D9 JUMPI DUP1 PUSH4 0xA1DB9782 EQ PUSH2 0x5F5 JUMPI PUSH2 0x1ED JUMP JUMPDEST DUP1 PUSH4 0x8009B7BD EQ PUSH2 0x4CD JUMPI DUP1 PUSH4 0x8367DF3F EQ PUSH2 0x4F7 JUMPI DUP1 PUSH4 0x8DA5CB5B EQ PUSH2 0x521 JUMPI DUP1 PUSH4 0x91D14854 EQ PUSH2 0x54B JUMPI PUSH2 0x1ED JUMP JUMPDEST DUP1 PUSH4 0x31993A1C GT PUSH2 0x184 JUMPI DUP1 PUSH4 0x5BA98164 GT PUSH2 0x153 JUMPI DUP1 PUSH4 0x5BA98164 EQ PUSH2 0x413 JUMPI DUP1 PUSH4 0x71706CBE EQ PUSH2 0x43D JUMPI DUP1 PUSH4 0x7BCD4FF0 EQ PUSH2 0x467 JUMPI DUP1 PUSH4 0x7DDFE78D EQ PUSH2 0x4A3 JUMPI PUSH2 0x1ED JUMP JUMPDEST DUP1 PUSH4 0x31993A1C EQ PUSH2 0x371 JUMPI DUP1 PUSH4 0x31EAB30F EQ PUSH2 0x39B JUMPI DUP1 PUSH4 0x36568ABE EQ PUSH2 0x3C3 JUMPI DUP1 PUSH4 0x56BF180E EQ PUSH2 0x3EB JUMPI PUSH2 0x1ED JUMP JUMPDEST DUP1 PUSH4 0x248A9CA3 GT PUSH2 0x1C0 JUMPI DUP1 PUSH4 0x248A9CA3 EQ PUSH2 0x2BB JUMPI DUP1 PUSH4 0x2DFDF0B5 EQ PUSH2 0x2F7 JUMPI DUP1 PUSH4 0x2E1A7D4D EQ PUSH2 0x321 JUMPI DUP1 PUSH4 0x2F2FF15D EQ PUSH2 0x349 JUMPI PUSH2 0x1ED JUMP JUMPDEST DUP1 PUSH4 0x1FFC9A7 EQ PUSH2 0x1F1 JUMPI DUP1 PUSH4 0x6C0427E EQ PUSH2 0x22D JUMPI DUP1 PUSH4 0x1977E938 EQ PUSH2 0x269 JUMPI DUP1 PUSH4 0x1D47E4A3 EQ PUSH2 0x293 JUMPI JUMPDEST PUSH0 PUSH0 REVERT JUMPDEST CALLVALUE DUP1 ISZERO PUSH2 0x1FC JUMPI PUSH0 PUSH0 REVERT JUMPDEST POP PUSH2 0x217 PUSH1 0x4 DUP1 CALLDATASIZE SUB DUP2 ADD SWAP1 PUSH2 0x212 SWAP2 SWAP1 PUSH2 0x292A JUMP JUMPDEST PUSH2 0x795 JUMP JUMPDEST PUSH1 0x40 MLOAD PUSH2 0x224 SWAP2 SWAP1 PUSH2 0x296F JUMP JUMPDEST PUSH1 0x40 MLOAD DUP1 SWAP2 SUB SWAP1 RETURN JUMPDEST CALLVALUE DUP1 ISZERO PUSH2 0x238 JUMPI PUSH0 PUSH0 REVERT JUMPDEST POP PUSH2 0x253 PUSH1 0x4 DUP1 CALLDATASIZE SUB DUP2 ADD SWAP1 PUSH2 0x24E SWAP2 SWAP1 PUSH2 0x29BB JUMP JUMPDEST PUSH2 0x80E JUMP JUMPDEST PUSH1 0x40 MLOAD PUSH2 0x260 SWAP2 SWAP1 PUSH2 0x29F5 JUMP JUMPDEST PUSH1 0x40 MLOAD DUP1 SWAP2 SUB SWAP1 RETURN JUMPDEST CALLVALUE DUP1 ISZERO PUSH2 0x274 JUMPI PUSH0 PUSH0 REVERT JUMPDEST POP PUSH2 0x27D PUSH2 0x841 JUMP JUMPDEST PUSH1 0x40 MLOAD PUSH2 0x28A SWAP2 SWAP1 PUSH2 0x29F5 JUMP JUMPDEST PUSH1 0x40 MLOAD DUP1 SWAP2 SUB SWAP1 RETURN JUMPDEST CALLVALUE DUP1 ISZERO PUSH2 0x29E JUMPI PUSH0 PUSH0 REVERT JUMPDEST POP PUSH2 0x2B9 PUSH1 0x4 DUP1 CALLDATASIZE SUB DUP2 ADD SWAP1 PUSH2 0x2B4 SWAP2 SWAP1 PUSH2 0x2A68 JUMP JUMPDEST PUSH2 0x847 JUMP JUMPDEST STOP JUMPDEST CALLVALUE DUP1 ISZERO PUSH2 0x2C6 JUMPI PUSH0 PUSH0 REVERT JUMPDEST POP PUSH2 0x2E1 PUSH1 0x4 DUP1 CALLDATASIZE SUB DUP2 ADD SWAP1 PUSH2 0x2DC SWAP2 SWAP1 PUSH2 0x2AD9 JUMP JUMPDEST PUSH2 0x961 JUMP JUMPDEST PUSH1 0x40 MLOAD PUSH2 0x2EE SWAP2 SWAP1 PUSH2 0x2B13 JUMP JUMPDEST PUSH1 0x40 MLOAD DUP1 SWAP2 SUB SWAP1 RETURN JUMPDEST CALLVALUE DUP1 ISZERO PUSH2 0x302 JUMPI PUSH0 PUSH0 REVERT JUMPDEST POP PUSH2 0x30B PUSH2 0x97D JUMP JUMPDEST PUSH1 0x40 MLOAD PUSH2 0x318 SWAP2 SWAP1 PUSH2 0x29F5 JUMP JUMPDEST PUSH1 0x40 MLOAD DUP1 SWAP2 SUB SWAP1 RETURN JUMPDEST CALLVALUE DUP1 ISZERO PUSH2 0x32C JUMPI PUSH0 PUSH0 REVERT JUMPDEST POP PUSH2 0x347 PUSH1 0x4 DUP1 CALLDATASIZE SUB DUP2 ADD SWAP1 PUSH2 0x342 SWAP2 SWAP1 PUSH2 0x29BB JUMP JUMPDEST PUSH2 0x983 JUMP JUMPDEST STOP JUMPDEST CALLVALUE DUP1 ISZERO PUSH2 0x354 JUMPI PUSH0 PUSH0 REVERT JUMPDEST POP PUSH2 0x36F PUSH1 0x4 DUP1 CALLDATASIZE SUB DUP2 ADD SWAP1 PUSH2 0x36A SWAP2 SWAP1 PUSH2 0x2B2C JUMP JUMPDEST PUSH2 0xC00 JUMP JUMPDEST STOP JUMPDEST CALLVALUE DUP1 ISZERO PUSH2 0x37C JUMPI PUSH0 PUSH0 REVERT JUMPDEST POP PUSH2 0x385 PUSH2 0xC22 JUMP JUMPDEST PUSH1 0x40 MLOAD PUSH2 0x392 SWAP2 SWAP1 PUSH2 0x2B13 JUMP JUMPDEST PUSH1 0x40 MLOAD DUP1 SWAP2 SUB SWAP1 RETURN JUMPDEST CALLVALUE DUP1 ISZERO PUSH2 0x3A6 JUMPI PUSH0 PUSH0 REVERT JUMPDEST POP PUSH2 0x3C1 PUSH1 0x4 DUP1 CALLDATASIZE SUB DUP2 ADD SWAP1 PUSH2 0x3BC SWAP2 SWAP1 PUSH2 0x29BB JUMP JUMPDEST PUSH2 0xC46 JUMP JUMPDEST STOP JUMPDEST CALLVALUE DUP1 ISZERO PUSH2 0x3CE JUMPI PUSH0 PUSH0 REVERT JUMPDEST POP PUSH2 0x3E9 PUSH1 0x4 DUP1 CALLDATASIZE SUB DUP2 ADD SWAP1 PUSH2 0x3E4 SWAP2 SWAP1 PUSH2 0x2B2C JUMP JUMPDEST PUSH2 0xD0D JUMP JUMPDEST STOP JUMPDEST CALLVALUE DUP1 ISZERO PUSH2 0x3F6 JUMPI PUSH0 PUSH0 REVERT JUMPDEST POP PUSH2 0x411 PUSH1 0x4 DUP1 CALLDATASIZE SUB DUP2 ADD SWAP1 PUSH2 0x40C SWAP2 SWAP1 PUSH2 0x2BA5 JUMP JUMPDEST PUSH2 0xD88 JUMP JUMPDEST STOP JUMPDEST CALLVALUE DUP1 ISZERO PUSH2 0x41E JUMPI PUSH0 PUSH0 REVERT JUMPDEST POP PUSH2 0x427 PUSH2 0x1003 JUMP JUMPDEST PUSH1 0x40 MLOAD PUSH2 0x434 SWAP2 SWAP1 PUSH2 0x29F5 JUMP JUMPDEST PUSH1 0x40 MLOAD DUP1 SWAP2 SUB SWAP1 RETURN JUMPDEST CALLVALUE DUP1 ISZERO PUSH2 0x448 JUMPI PUSH0 PUSH0 REVERT JUMPDEST POP PUSH2 0x451 PUSH2 0x100C JUMP JUMPDEST PUSH1 0x40 MLOAD PUSH2 0x45E SWAP2 SWAP1 PUSH2 0x29F5 JUMP JUMPDEST PUSH1 0x40 MLOAD DUP1 SWAP2 SUB SWAP1 RETURN JUMPDEST CALLVALUE DUP1 ISZERO PUSH2 0x472 JUMPI PUSH0 PUSH0 REVERT JUMPDEST POP PUSH2 0x48D PUSH1 0x4 DUP1 CALLDATASIZE SUB DUP2 ADD SWAP1 PUSH2 0x488 SWAP2 SWAP1 PUSH2 0x2BF5 JUMP JUMPDEST PUSH2 0x1012 JUMP JUMPDEST PUSH1 0x40 MLOAD PUSH2 0x49A SWAP2 SWAP1 PUSH2 0x29F5 JUMP JUMPDEST PUSH1 0x40 MLOAD DUP1 SWAP2 SUB SWAP1 RETURN JUMPDEST CALLVALUE DUP1 ISZERO PUSH2 0x4AE JUMPI PUSH0 PUSH0 REVERT JUMPDEST POP PUSH2 0x4B7 PUSH2 0x1027 JUMP JUMPDEST PUSH1 0x40 MLOAD PUSH2 0x4C4 SWAP2 SWAP1 PUSH2 0x29F5 JUMP JUMPDEST PUSH1 0x40 MLOAD DUP1 SWAP2 SUB SWAP1 RETURN JUMPDEST CALLVALUE DUP1 ISZERO PUSH2 0x4D8 JUMPI PUSH0 PUSH0 REVERT JUMPDEST POP PUSH2 0x4E1 PUSH2 0x104B JUMP JUMPDEST PUSH1 0x40 MLOAD PUSH2 0x4EE SWAP2 SWAP1 PUSH2 0x2C7B JUMP JUMPDEST PUSH1 0x40 MLOAD DUP1 SWAP2 SUB SWAP1 RETURN JUMPDEST CALLVALUE DUP1 ISZERO PUSH2 0x502 JUMPI PUSH0 PUSH0 REVERT JUMPDEST POP PUSH2 0x50B PUSH2 0x1070 JUMP JUMPDEST PUSH1 0x40 MLOAD PUSH2 0x518 SWAP2 SWAP1 PUSH2 0x29F5 JUMP JUMPDEST PUSH1 0x40 MLOAD DUP1 SWAP2 SUB SWAP1 RETURN JUMPDEST CALLVALUE DUP1 ISZERO PUSH2 0x52C JUMPI PUSH0 PUSH0 REVERT JUMPDEST POP PUSH2 0x535 PUSH2 0x1319 JUMP JUMPDEST PUSH1 0x40 MLOAD PUSH2 0x542 SWAP2 SWAP1 PUSH2 0x2CA3 JUMP JUMPDEST PUSH1 0x40 MLOAD DUP1 SWAP2 SUB SWAP1 RETURN JUMPDEST CALLVALUE DUP1 ISZERO PUSH2 0x556 JUMPI PUSH0 PUSH0 REVERT JUMPDEST POP PUSH2 0x571 PUSH1 0x4 DUP1 CALLDATASIZE SUB DUP2 ADD SWAP1 PUSH2 0x56C SWAP2 SWAP1 PUSH2 0x2B2C JUMP JUMPDEST PUSH2 0x133E JUMP JUMPDEST PUSH1 0x40 MLOAD PUSH2 0x57E SWAP2 SWAP1 PUSH2 0x296F JUMP JUMPDEST PUSH1 0x40 MLOAD DUP1 SWAP2 SUB SWAP1 RETURN JUMPDEST CALLVALUE DUP1 ISZERO PUSH2 0x592 JUMPI PUSH0 PUSH0 REVERT JUMPDEST POP PUSH2 0x5AD PUSH1 0x4 DUP1 CALLDATASIZE SUB DUP2 ADD SWAP1 PUSH2 0x5A8 SWAP2 SWAP1 PUSH2 0x2A68 JUMP JUMPDEST PUSH2 0x13A1 JUMP JUMPDEST STOP JUMPDEST CALLVALUE DUP1 ISZERO PUSH2 0x5BA JUMPI PUSH0 PUSH0 REVERT JUMPDEST POP PUSH2 0x5C3 PUSH2 0x1807 JUMP JUMPDEST PUSH1 0x40 MLOAD PUSH2 0x5D0 SWAP2 SWAP1 PUSH2 0x29F5 JUMP JUMPDEST PUSH1 0x40 MLOAD DUP1 SWAP2 SUB SWAP1 RETURN JUMPDEST PUSH2 0x5F3 PUSH1 0x4 DUP1 CALLDATASIZE SUB DUP2 ADD SWAP1 PUSH2 0x5EE SWAP2 SWAP1 PUSH2 0x2BF5 JUMP JUMPDEST PUSH2 0x180D JUMP JUMPDEST STOP JUMPDEST CALLVALUE DUP1 ISZERO PUSH2 0x600 JUMPI PUSH0 PUSH0 REVERT JUMPDEST POP PUSH2 0x61B PUSH1 0x4 DUP1 CALLDATASIZE SUB DUP2 ADD SWAP1 PUSH2 0x616 SWAP2 SWAP1 PUSH2 0x2A68 JUMP JUMPDEST PUSH2 0x1A04 JUMP JUMPDEST STOP JUMPDEST CALLVALUE DUP1 ISZERO PUSH2 0x628 JUMPI PUSH0 PUSH0 REVERT JUMPDEST POP PUSH2 0x631 PUSH2 0x1C72 JUMP JUMPDEST PUSH1 0x40 MLOAD PUSH2 0x63E SWAP2 SWAP1 PUSH2 0x2B13 JUMP JUMPDEST PUSH1 0x40 MLOAD DUP1 SWAP2 SUB SWAP1 RETURN JUMPDEST CALLVALUE DUP1 ISZERO PUSH2 0x652 JUMPI PUSH0 PUSH0 REVERT JUMPDEST POP PUSH2 0x66D PUSH1 0x4 DUP1 CALLDATASIZE SUB DUP2 ADD SWAP1 PUSH2 0x668 SWAP2 SWAP1 PUSH2 0x2CBC JUMP JUMPDEST PUSH2 0x1C78 JUMP JUMPDEST STOP JUMPDEST PUSH2 0x677 PUSH2 0x1F24 JUMP JUMPDEST STOP JUMPDEST CALLVALUE DUP1 ISZERO PUSH2 0x684 JUMPI PUSH0 PUSH0 REVERT JUMPDEST POP PUSH2 0x69F PUSH1 0x4 DUP1 CALLDATASIZE SUB DUP2 ADD SWAP1 PUSH2 0x69A SWAP2 SWAP1 PUSH2 0x2B2C JUMP JUMPDEST PUSH2 0x208A JUMP JUMPDEST STOP JUMPDEST CALLVALUE DUP1 ISZERO PUSH2 0x6AC JUMPI PUSH0 PUSH0 REVERT JUMPDEST POP PUSH2 0x6C7 PUSH1 0x4 DUP1 CALLDATASIZE SUB DUP2 ADD SWAP1 PUSH2 0x6C2 SWAP2 SWAP1 PUSH2 0x2BF5 JUMP JUMPDEST PUSH2 0x20AC JUMP JUMPDEST PUSH1 0x40 MLOAD PUSH2 0x6D4 SWAP2 SWAP1 PUSH2 0x29F5 JUMP JUMPDEST PUSH1 0x40 MLOAD DUP1 SWAP2 SUB SWAP1 RETURN JUMPDEST CALLVALUE DUP1 ISZERO PUSH2 0x6E8 JUMPI PUSH0 PUSH0 REVERT JUMPDEST POP PUSH2 0x6F1 PUSH2 0x212D JUMP JUMPDEST PUSH1 0x40 MLOAD PUSH2 0x6FE SWAP2 SWAP1 PUSH2 0x29F5 JUMP JUMPDEST PUSH1 0x40 MLOAD DUP1 SWAP2 SUB SWAP1 RETURN JUMPDEST CALLVALUE DUP1 ISZERO PUSH2 0x712 JUMPI PUSH0 PUSH0 REVERT JUMPDEST POP PUSH2 0x71B PUSH2 0x2133 JUMP JUMPDEST PUSH1 0x40 MLOAD PUSH2 0x728 SWAP2 SWAP1 PUSH2 0x29F5 JUMP JUMPDEST PUSH1 0x40 MLOAD DUP1 SWAP2 SUB SWAP1 RETURN JUMPDEST CALLVALUE DUP1 ISZERO PUSH2 0x73C JUMPI PUSH0 PUSH0 REVERT JUMPDEST POP PUSH2 0x757 PUSH1 0x4 DUP1 CALLDATASIZE SUB DUP2 ADD SWAP1 PUSH2 0x752 SWAP2 SWAP1 PUSH2 0x2A68 JUMP JUMPDEST PUSH2 0x2177 JUMP JUMPDEST STOP JUMPDEST CALLVALUE DUP1 ISZERO PUSH2 0x764 JUMPI PUSH0 PUSH0 REVERT JUMPDEST POP PUSH2 0x77F PUSH1 0x4 DUP1 CALLDATASIZE SUB DUP2 ADD SWAP1 PUSH2 0x77A SWAP2 SWAP1 PUSH2 0x2BF5 JUMP JUMPDEST PUSH2 0x23D5 JUMP JUMPDEST PUSH1 0x40 MLOAD PUSH2 0x78C SWAP2 SWAP1 PUSH2 0x29F5 JUMP JUMPDEST PUSH1 0x40 MLOAD DUP1 SWAP2 SUB SWAP1 RETURN JUMPDEST PUSH0 PUSH32 0x7965DB0B00000000000000000000000000000000000000000000000000000000 PUSH28 0xFFFFFFFFFFFFFFFFFFFFFFFFFFFFFFFFFFFFFFFFFFFFFFFFFFFFFFFF NOT AND DUP3 PUSH28 0xFFFFFFFFFFFFFFFFFFFFFFFFFFFFFFFFFFFFFFFFFFFFFFFFFFFFFFFF NOT AND EQ DUP1 PUSH2 0x807 JUMPI POP PUSH2 0x806 DUP3 PUSH2 0x23EA JUMP JUMPDEST JUMPDEST SWAP1 POP SWAP2 SWAP1 POP JUMP JUMPDEST PUSH0 PUSH0 PUSH2 0x818 PUSH2 0x1070 JUMP JUMPDEST SWAP1 POP PUSH8 0xDE0B6B3A7640000 DUP2 DUP5 PUSH2 0x82F SWAP2 SWAP1 PUSH2 0x2D39 JUMP JUMPDEST PUSH2 0x839 SWAP2 SWAP1 PUSH2 0x2DA7 JUMP JUMPDEST SWAP2 POP POP SWAP2 SWAP1 POP JUMP JUMPDEST PUSH1 0x5 SLOAD DUP2 JUMP JUMPDEST PUSH1 0x2 PUSH0 SWAP1 SLOAD SWAP1 PUSH2 0x100 EXP SWAP1 DIV PUSH20 0xFFFFFFFFFFFFFFFFFFFFFFFFFFFFFFFFFFFFFFFF AND PUSH20 0xFFFFFFFFFFFFFFFFFFFFFFFFFFFFFFFFFFFFFFFF AND CALLER PUSH20 0xFFFFFFFFFFFFFFFFFFFFFFFFFFFFFFFFFFFFFFFF AND EQ PUSH2 0x8CD JUMPI PUSH1 0x40 MLOAD PUSH32 0x30CD747100000000000000000000000000000000000000000000000000000000 DUP2 MSTORE PUSH1 0x4 ADD PUSH1 0x40 MLOAD DUP1 SWAP2 SUB SWAP1 REVERT JUMPDEST DUP1 PUSH1 0xA PUSH0 DUP5 PUSH20 0xFFFFFFFFFFFFFFFFFFFFFFFFFFFFFFFFFFFFFFFF AND PUSH20 0xFFFFFFFFFFFFFFFFFFFFFFFFFFFFFFFFFFFFFFFF AND DUP2 MSTORE PUSH1 0x20 ADD SWAP1 DUP2 MSTORE PUSH1 0x20 ADD PUSH0 KECCAK256 DUP2 SWAP1 SSTORE POP DUP2 PUSH20 0xFFFFFFFFFFFFFFFFFFFFFFFFFFFFFFFFFFFFFFFF AND PUSH32 0xB13A5B343485F5DFCBAF032884B3E0FCBFCCAB798D8F8EA3F867A2FC0B43C54D DUP3 PUSH1 0x40 MLOAD PUSH2 0x955 SWAP2 SWAP1 PUSH2 0x29F5 JUMP JUMPDEST PUSH1 0x40 MLOAD DUP1 SWAP2 SUB SWAP1 LOG2 POP POP JUMP JUMPDEST PUSH0 PUSH0 PUSH0 DUP4 DUP2 MSTORE PUSH1 0x20 ADD SWAP1 DUP2 MSTORE PUSH1 0x20 ADD PUSH0 KECCAK256 PUSH1 0x1 ADD SLOAD SWAP1 POP SWAP2 SWAP1 POP JUMP JUMPDEST PUSH1 0x6 SLOAD DUP2 JUMP JUMPDEST DUP1 PUSH0 DUP2 SUB PUSH2 0x9BD JUMPI PUSH1 0x40 MLOAD PUSH32 0x5E85AE7300000000000000000000000000000000000000000000000000000000 DUP2 MSTORE PUSH1 0x4 ADD PUSH1 0x40 MLOAD DUP1 SWAP2 SUB SWAP1 REVERT JUMPDEST PUSH32 0x0 DUP3 GT ISZERO PUSH2 0xA44 JUMPI DUP2 PUSH32 0x0 PUSH1 0x40 MLOAD PUSH32 0xB945E2D800000000000000000000000000000000000000000000000000000000 DUP2 MSTORE PUSH1 0x4 ADD PUSH2 0xA3B SWAP3 SWAP2 SWAP1 PUSH2 0x2DD7 JUMP JUMPDEST PUSH1 0x40 MLOAD DUP1 SWAP2 SUB SWAP1 REVERT JUMPDEST PUSH0 PUSH2 0xA4E DUP4 PUSH2 0x80E JUMP JUMPDEST SWAP1 POP PUSH5 0x174876E800 DUP2 GT ISZERO PUSH2 0xA98 JUMPI PUSH1 0x40 MLOAD PUSH32 0x8C379A000000000000000000000000000000000000000000000000000000000 DUP2 MSTORE PUSH1 0x4 ADD PUSH2 0xA8F SWAP1 PUSH2 0x2E58 JUMP JUMPDEST PUSH1 0x40 MLOAD DUP1 SWAP2 SUB SWAP1 REVERT JUMPDEST PUSH0 PUSH1 0x4 PUSH0 CALLER PUSH20 0xFFFFFFFFFFFFFFFFFFFFFFFFFFFFFFFFFFFFFFFF AND PUSH20 0xFFFFFFFFFFFFFFFFFFFFFFFFFFFFFFFFFFFFFFFF AND DUP2 MSTORE PUSH1 0x20 ADD SWAP1 DUP2 MSTORE PUSH1 0x20 ADD PUSH0 KECCAK256 SLOAD SWAP1 POP DUP1 DUP5 GT ISZERO PUSH2 0xB20 JUMPI DUP1 DUP5 PUSH1 0x40 MLOAD PUSH32 0xCF47918100000000000000000000000000000000000000000000000000000000 DUP2 MSTORE PUSH1 0x4 ADD PUSH2 0xB17 SWAP3 SWAP2 SWAP1 PUSH2 0x2DD7 JUMP JUMPDEST PUSH1 0x40 MLOAD DUP1 SWAP2 SUB SWAP1 REVERT JUMPDEST DUP4 PUSH1 0x4 PUSH0 CALLER PUSH20 0xFFFFFFFFFFFFFFFFFFFFFFFFFFFFFFFFFFFFFFFF AND PUSH20 0xFFFFFFFFFFFFFFFFFFFFFFFFFFFFFFFFFFFFFFFF AND DUP2 MSTORE PUSH1 0x20 ADD SWAP1 DUP2 MSTORE PUSH1 0x20 ADD PUSH0 KECCAK256 PUSH0 DUP3 DUP3 SLOAD PUSH2 0xB6C SWAP2 SWAP1 PUSH2 0x2E76 JUMP JUMPDEST SWAP3 POP POP DUP2 SWAP1 SSTORE POP DUP4 PUSH1 0x5 PUSH0 DUP3 DUP3 SLOAD PUSH2 0xB84 SWAP2 SWAP1 PUSH2 0x2E76 JUMP JUMPDEST SWAP3 POP POP DUP2 SWAP1 SSTORE POP PUSH1 0x7 PUSH0 DUP2 SLOAD DUP1 SWAP3 SWAP2 SWAP1 PUSH2 0xB9D SWAP1 PUSH2 0x2EA9 JUMP JUMPDEST SWAP2 SWAP1 POP SSTORE POP PUSH2 0xBAC CALLER DUP6 PUSH2 0x2453 JUMP JUMPDEST CALLER PUSH20 0xFFFFFFFFFFFFFFFFFFFFFFFFFFFFFFFFFFFFFFFF AND PUSH32 0x7FCF532C15F0A6DB0BD6D0E038BEA71D30D808C7D98CB3BF7268A95BF5081B65 DUP6 PUSH1 0x40 MLOAD PUSH2 0xBF2 SWAP2 SWAP1 PUSH2 0x29F5 JUMP JUMPDEST PUSH1 0x40 MLOAD DUP1 SWAP2 SUB SWAP1 LOG2 POP POP POP POP JUMP JUMPDEST PUSH2 0xC09 DUP3 PUSH2 0x961 JUMP JUMPDEST PUSH2 0xC12 DUP2 PUSH2 0x24F7 JUMP JUMPDEST PUSH2 0xC1C DUP4 DUP4 PUSH2 0x250B JUMP JUMPDEST POP POP POP POP JUMP JUMPDEST PUSH32 0xACF805600123EF007091DA3B3FFB39474074C656C127AA68CB0FFEC232A8FF8 DUP2 JUMP JUMPDEST PUSH1 0x2 PUSH0 SWAP1 SLOAD SWAP1 PUSH2 0x100 EXP SWAP1 DIV PUSH20 0xFFFFFFFFFFFFFFFFFFFFFFFFFFFFFFFFFFFFFFFF AND PUSH20 0xFFFFFFFFFFFFFFFFFFFFFFFFFFFFFFFFFFFFFFFF AND CALLER PUSH20 0xFFFFFFFFFFFFFFFFFFFFFFFFFFFFFFFFFFFFFFFF AND EQ PUSH2 0xCCC JUMPI PUSH1 0x40 MLOAD PUSH32 0x30CD747100000000000000000000000000000000000000000000000000000000 DUP2 MSTORE PUSH1 0x4 ADD PUSH1 0x40 MLOAD DUP1 SWAP2 SUB SWAP1 REVERT JUMPDEST DUP1 PUSH1 0x3 DUP2 SWAP1 SSTORE POP PUSH32 0xBB1D6466D6B9CB3CE29A9DCD7CC2E51EE7E921992290F96D813B174787857A8C DUP2 PUSH1 0x40 MLOAD PUSH2 0xD02 SWAP2 SWAP1 PUSH2 0x29F5 JUMP JUMPDEST PUSH1 0x40 MLOAD DUP1 SWAP2 SUB SWAP1 LOG1 POP JUMP JUMPDEST PUSH2 0xD15 PUSH2 0x25F4 JUMP JUMPDEST PUSH20 0xFFFFFFFFFFFFFFFFFFFFFFFFFFFFFFFFFFFFFFFF AND DUP2 PUSH20 0xFFFFFFFFFFFFFFFFFFFFFFFFFFFFFFFFFFFFFFFF AND EQ PUSH2 0xD79 JUMPI PUSH1 0x40 MLOAD PUSH32 0x6697B23200000000000000000000000000000000000000000000000000000000 DUP2 MSTORE PUSH1 0x4 ADD PUSH1 0x40 MLOAD DUP1 SWAP2 SUB SWAP1 REVERT JUMPDEST PUSH2 0xD83 DUP3 DUP3 PUSH2 0x25FB JUMP JUMPDEST POP POP POP JUMP JUMPDEST PUSH32 0xACF805600123EF007091DA3B3FFB39474074C656C127AA68CB0FFEC232A8FF8 PUSH2 0xDB2 DUP2 PUSH2 0x24F7 JUMP JUMPDEST DUP2 PUSH0 DUP2 SUB PUSH2 0xDEC JUMPI PUSH1 0x40 MLOAD PUSH32 0x5E85AE7300000000000000000000000000000000000000000000000000000000 DUP2 MSTORE PUSH1 0x4 ADD PUSH1 0x40 MLOAD DUP1 SWAP2 SUB SWAP1 REVERT JUMPDEST PUSH0 PUSH20 0xFFFFFFFFFFFFFFFFFFFFFFFFFFFFFFFFFFFFFFFF AND DUP6 PUSH20 0xFFFFFFFFFFFFFFFFFFFFFFFFFFFFFFFFFFFFFFFF AND EQ DUP1 PUSH2 0xE51 JUMPI POP PUSH0 PUSH20 0xFFFFFFFFFFFFFFFFFFFFFFFFFFFFFFFFFFFFFFFF AND DUP5 PUSH20 0xFFFFFFFFFFFFFFFFFFFFFFFFFFFFFFFFFFFFFFFF AND EQ JUMPDEST ISZERO PUSH2 0xE88 JUMPI PUSH1 0x40 MLOAD PUSH32 0xE6C4247B00000000000000000000000000000000000000000000000000000000 DUP2 MSTORE PUSH1 0x4 ADD PUSH1 0x40 MLOAD DUP1 SWAP2 SUB SWAP1 REVERT JUMPDEST PUSH0 PUSH1 0x4 PUSH0 DUP8 PUSH20 0xFFFFFFFFFFFFFFFFFFFFFFFFFFFFFFFFFFFFFFFF AND PUSH20 0xFFFFFFFFFFFFFFFFFFFFFFFFFFFFFFFFFFFFFFFF AND DUP2 MSTORE PUSH1 0x20 ADD SWAP1 DUP2 MSTORE PUSH1 0x20 ADD PUSH0 KECCAK256 SLOAD SWAP1 POP DUP1 DUP5 GT ISZERO PUSH2 0xF10 JUMPI DUP1 DUP5 PUSH1 0x40 MLOAD PUSH32 0xCF47918100000000000000000000000000000000000000000000000000000000 DUP2 MSTORE PUSH1 0x4 ADD PUSH2 0xF07 SWAP3 SWAP2 SWAP1 PUSH2 0x2DD7 JUMP JUMPDEST PUSH1 0x40 MLOAD DUP1 SWAP2 SUB SWAP1 REVERT JUMPDEST DUP4 DUP2 PUSH2 0xF1C SWAP2 SWAP1 PUSH2 0x2E76 JUMP JUMPDEST PUSH1 0x4 PUSH0 DUP9 PUSH20 0xFFFFFFFFFFFFFFFFFFFFFFFFFFFFFFFFFFFFFFFF AND PUSH20 0xFFFFFFFFFFFFFFFFFFFFFFFFFFFFFFFFFFFFFFFF AND DUP2 MSTORE PUSH1 0x20 ADD SWAP1 DUP2 MSTORE PUSH1 0x20 ADD PUSH0 KECCAK256 DUP2 SWAP1 SSTORE POP DUP4 PUSH1 0x5 PUSH0 DUP3 DUP3 SLOAD PUSH2 0xF6E SWAP2 SWAP1 PUSH2 0x2E76 JUMP JUMPDEST SWAP3 POP POP DUP2 SWAP1 SSTORE POP PUSH2 0xF7F DUP6 DUP6 PUSH2 0x2453 JUMP JUMPDEST CALLER PUSH20 0xFFFFFFFFFFFFFFFFFFFFFFFFFFFFFFFFFFFFFFFF AND DUP6 PUSH20 0xFFFFFFFFFFFFFFFFFFFFFFFFFFFFFFFFFFFFFFFF AND DUP8 PUSH20 0xFFFFFFFFFFFFFFFFFFFFFFFFFFFFFFFFFFFFFFFF AND PUSH32 0xA2EC0E896F84A6C3AF242072E615B439C765F906B0D00D14DFA84FD9245609B2 DUP8 PUSH1 0x40 MLOAD PUSH2 0xFF3 SWAP2 SWAP1 PUSH2 0x29F5 JUMP JUMPDEST PUSH1 0x40 MLOAD DUP1 SWAP2 SUB SWAP1 LOG4 POP POP POP POP POP POP JUMP JUMPDEST PUSH5 0x174876E800 DUP2 JUMP JUMPDEST PUSH1 0x7 SLOAD DUP2 JUMP JUMPDEST PUSH1 0xA PUSH1 0x20 MSTORE DUP1 PUSH0 MSTORE PUSH1 0x40 PUSH0 KECCAK256 PUSH0 SWAP2 POP SWAP1 POP SLOAD DUP2 JUMP JUMPDEST PUSH32 0x0 DUP2 JUMP JUMPDEST PUSH1 0x1 PUSH0 SWAP1 SLOAD SWAP1 PUSH2 0x100 EXP SWAP1 DIV PUSH20 0xFFFFFFFFFFFFFFFFFFFFFFFFFFFFFFFFFFFFFFFF AND DUP2 JUMP JUMPDEST PUSH0 PUSH0 PUSH0 PUSH0 PUSH0 PUSH1 0x1 PUSH0 SWAP1 SLOAD SWAP1 PUSH2 0x100 EXP SWAP1 DIV PUSH20 0xFFFFFFFFFFFFFFFFFFFFFFFFFFFFFFFFFFFFFFFF AND PUSH20 0xFFFFFFFFFFFFFFFFFFFFFFFFFFFFFFFFFFFFFFFF AND PUSH4 0xFEAF968C PUSH1 0x40 MLOAD DUP2 PUSH4 0xFFFFFFFF AND PUSH1 0xE0 SHL DUP2 MSTORE PUSH1 0x4 ADD PUSH1 0xA0 PUSH1 0x40 MLOAD DUP1 DUP4 SUB DUP2 DUP7 GAS STATICCALL ISZERO DUP1 ISZERO PUSH2 0x10DF JUMPI RETURNDATASIZE PUSH0 PUSH0 RETURNDATACOPY RETURNDATASIZE PUSH0 REVERT JUMPDEST POP POP POP POP PUSH1 0x40 MLOAD RETURNDATASIZE PUSH1 0x1F NOT PUSH1 0x1F DUP3 ADD AND DUP3 ADD DUP1 PUSH1 0x40 MSTORE POP DUP2 ADD SWAP1 PUSH2 0x1103 SWAP2 SWAP1 PUSH2 0x2F76 JUMP JUMPDEST SWAP5 POP SWAP5 POP POP SWAP4 POP SWAP4 POP DUP4 PUSH10 0xFFFFFFFFFFFFFFFFFFFF AND DUP2 PUSH10 0xFFFFFFFFFFFFFFFFFFFF AND LT ISZERO PUSH2 0x1167 JUMPI PUSH1 0x40 MLOAD PUSH32 0x8C379A000000000000000000000000000000000000000000000000000000000 DUP2 MSTORE PUSH1 0x4 ADD PUSH2 0x115E SWAP1 PUSH2 0x3037 JUMP JUMPDEST PUSH1 0x40 MLOAD DUP1 SWAP2 SUB SWAP1 REVERT JUMPDEST PUSH0 DUP3 EQ ISZERO DUP1 ISZERO PUSH2 0x1184 JUMPI POP PUSH2 0xE10 DUP3 TIMESTAMP PUSH2 0x1181 SWAP2 SWAP1 PUSH2 0x2E76 JUMP JUMPDEST GT ISZERO JUMPDEST PUSH2 0x11C3 JUMPI PUSH1 0x40 MLOAD PUSH32 0x8C379A000000000000000000000000000000000000000000000000000000000 DUP2 MSTORE PUSH1 0x4 ADD PUSH2 0x11BA SWAP1 PUSH2 0x309F JUMP JUMPDEST PUSH1 0x40 MLOAD DUP1 SWAP2 SUB SWAP1 REVERT JUMPDEST PUSH0 DUP4 SGT PUSH2 0x1205 JUMPI PUSH1 0x40 MLOAD PUSH32 0x8C379A000000000000000000000000000000000000000000000000000000000 DUP2 MSTORE PUSH1 0x4 ADD PUSH2 0x11FC SWAP1 PUSH2 0x3107 JUMP JUMPDEST PUSH1 0x40 MLOAD DUP1 SWAP2 SUB SWAP1 REVERT JUMPDEST PUSH0 PUSH1 0x1 PUSH0 SWAP1 SLOAD SWAP1 PUSH2 0x100 EXP SWAP1 DIV PUSH20 0xFFFFFFFFFFFFFFFFFFFFFFFFFFFFFFFFFFFFFFFF AND PUSH20 0xFFFFFFFFFFFFFFFFFFFFFFFFFFFFFFFFFFFFFFFF AND PUSH4 0x313CE567 PUSH1 0x40 MLOAD DUP2 PUSH4 0xFFFFFFFF AND PUSH1 0xE0 SHL DUP2 MSTORE PUSH1 0x4 ADD PUSH1 0x20 PUSH1 0x40 MLOAD DUP1 DUP4 SUB DUP2 DUP7 GAS STATICCALL ISZERO DUP1 ISZERO PUSH2 0x1270 JUMPI RETURNDATASIZE PUSH0 PUSH0 RETURNDATACOPY RETURNDATASIZE PUSH0 REVERT JUMPDEST POP POP POP POP PUSH1 0x40 MLOAD RETURNDATASIZE PUSH1 0x1F NOT PUSH1 0x1F DUP3 ADD AND DUP3 ADD DUP1 PUSH1 0x40 MSTORE POP DUP2 ADD SWAP1 PUSH2 0x1294 SWAP2 SWAP1 PUSH2 0x315B JUMP JUMPDEST SWAP1 POP PUSH1 0x8 DUP2 PUSH1 0xFF AND SUB PUSH2 0x12AE JUMPI DUP4 SWAP6 POP POP POP POP POP POP PUSH2 0x1316 JUMP JUMPDEST PUSH1 0x8 DUP2 PUSH1 0xFF AND GT ISZERO PUSH2 0x12EA JUMPI PUSH1 0x8 DUP2 PUSH2 0x12C7 SWAP2 SWAP1 PUSH2 0x3186 JUMP JUMPDEST PUSH1 0xA PUSH2 0x12D3 SWAP2 SWAP1 PUSH2 0x32E9 JUMP JUMPDEST DUP5 PUSH2 0x12DE SWAP2 SWAP1 PUSH2 0x2DA7 JUMP JUMPDEST SWAP6 POP POP POP POP POP POP PUSH2 0x1316 JUMP JUMPDEST DUP1 PUSH1 0x8 PUSH2 0x12F7 SWAP2 SWAP1 PUSH2 0x3186 JUMP JUMPDEST PUSH1 0xA PUSH2 0x1303 SWAP2 SWAP1 PUSH2 0x32E9 JUMP JUMPDEST DUP5 PUSH2 0x130E SWAP2 SWAP1 PUSH2 0x2D39 JUMP JUMPDEST SWAP6 POP POP POP POP POP POP JUMPDEST SWAP1 JUMP JUMPDEST PUSH1 0x2 PUSH0 SWAP1 SLOAD SWAP1 PUSH2 0x100 EXP SWAP1 DIV PUSH20 0xFFFFFFFFFFFFFFFFFFFFFFFFFFFFFFFFFFFFFFFF AND DUP2 JUMP JUMPDEST PUSH0 PUSH0 PUSH0 DUP5 DUP2 MSTORE PUSH1 0x20 ADD SWAP1 DUP2 MSTORE PUSH1 0x20 ADD PUSH0 KECCAK256 PUSH0 ADD PUSH0 DUP4 PUSH20 0xFFFFFFFFFFFFFFFFFFFFFFFFFFFFFFFFFFFFFFFF AND PUSH20 0xFFFFFFFFFFFFFFFFFFFFFFFFFFFFFFFFFFFFFFFF AND DUP2 MSTORE PUSH1 0x20 ADD SWAP1 DUP2 MSTORE PUSH1 0x20 ADD PUSH0 KECCAK256 PUSH0 SWAP1 SLOAD SWAP1 PUSH2 0x100 EXP SWAP1 DIV PUSH1 0xFF AND SWAP1 POP SWAP3 SWAP2 POP POP JUMP JUMPDEST DUP1 PUSH0 DUP2 SUB PUSH2 0x13DB JUMPI PUSH1 0x40 MLOAD PUSH32 0x5E85AE7300000000000000000000000000000000000000000000000000000000 DUP2 MSTORE PUSH1 0x4 ADD PUSH1 0x40 MLOAD DUP1 SWAP2 SUB SWAP1 REVERT JUMPDEST PUSH0 DUP4 SWAP1 POP PUSH0 DUP2 PUSH20 0xFFFFFFFFFFFFFFFFFFFFFFFFFFFFFFFFFFFFFFFF AND PUSH4 0x70A08231 ADDRESS PUSH1 0x40 MLOAD DUP3 PUSH4 0xFFFFFFFF AND PUSH1 0xE0 SHL DUP2 MSTORE PUSH1 0x4 ADD PUSH2 0x1419 SWAP2 SWAP1 PUSH2 0x2CA3 JUMP JUMPDEST PUSH1 0x20 PUSH1 0x40 MLOAD DUP1 DUP4 SUB DUP2 DUP7 GAS STATICCALL ISZERO DUP1 ISZERO PUSH2 0x1434 JUMPI RETURNDATASIZE PUSH0 PUSH0 RETURNDATACOPY RETURNDATASIZE PUSH0 REVERT JUMPDEST POP POP POP POP PUSH1 0x40 MLOAD RETURNDATASIZE PUSH1 0x1F NOT PUSH1 0x1F DUP3 ADD AND DUP3 ADD DUP1 PUSH1 0x40 MSTORE POP DUP2 ADD SWAP1 PUSH2 0x1458 SWAP2 SWAP1 PUSH2 0x3333 JUMP JUMPDEST SWAP1 POP PUSH2 0x1487 CALLER ADDRESS DUP7 DUP6 PUSH20 0xFFFFFFFFFFFFFFFFFFFFFFFFFFFFFFFFFFFFFFFF AND PUSH2 0x26E4 SWAP1 SWAP4 SWAP3 SWAP2 SWAP1 PUSH4 0xFFFFFFFF AND JUMP JUMPDEST PUSH0 DUP3 PUSH20 0xFFFFFFFFFFFFFFFFFFFFFFFFFFFFFFFFFFFFFFFF AND PUSH4 0x70A08231 ADDRESS PUSH1 0x40 MLOAD DUP3 PUSH4 0xFFFFFFFF AND PUSH1 0xE0 SHL DUP2 MSTORE PUSH1 0x4 ADD PUSH2 0x14C1 SWAP2 SWAP1 PUSH2 0x2CA3 JUMP JUMPDEST PUSH1 0x20 PUSH1 0x40 MLOAD DUP1 DUP4 SUB DUP2 DUP7 GAS STATICCALL ISZERO DUP1 ISZERO PUSH2 0x14DC JUMPI RETURNDATASIZE PUSH0 PUSH0 RETURNDATACOPY RETURNDATASIZE PUSH0 REVERT JUMPDEST POP POP POP POP PUSH1 0x40 MLOAD RETURNDATASIZE PUSH1 0x1F NOT PUSH1 0x1F DUP3 ADD AND DUP3 ADD DUP1 PUSH1 0x40 MSTORE POP DUP2 ADD SWAP1 PUSH2 0x1500 SWAP2 SWAP1 PUSH2 0x3333 JUMP JUMPDEST SWAP1 POP PUSH0 DUP3 DUP3 PUSH2 0x150F SWAP2 SWAP1 PUSH2 0x2E76 JUMP JUMPDEST SWAP1 POP PUSH0 DUP2 SUB PUSH2 0x154A JUMPI PUSH1 0x40 MLOAD PUSH32 0x5E85AE7300000000000000000000000000000000000000000000000000000000 DUP2 MSTORE PUSH1 0x4 ADD PUSH1 0x40 MLOAD DUP1 SWAP2 SUB SWAP1 REVERT JUMPDEST PUSH0 PUSH1 0xA PUSH0 DUP10 PUSH20 0xFFFFFFFFFFFFFFFFFFFFFFFFFFFFFFFFFFFFFFFF AND PUSH20 0xFFFFFFFFFFFFFFFFFFFFFFFFFFFFFFFFFFFFFFFF AND DUP2 MSTORE PUSH1 0x20 ADD SWAP1 DUP2 MSTORE PUSH1 0x20 ADD PUSH0 KECCAK256 SLOAD SWAP1 POP PUSH0 DUP2 GT ISZERO PUSH2 0x16B6 JUMPI PUSH0 DUP3 PUSH1 0x9 PUSH0 DUP12 PUSH20 0xFFFFFFFFFFFFFFFFFFFFFFFFFFFFFFFFFFFFFFFF AND PUSH20 0xFFFFFFFFFFFFFFFFFFFFFFFFFFFFFFFFFFFFFFFF AND DUP2 MSTORE PUSH1 0x20 ADD SWAP1 DUP2 MSTORE PUSH1 0x20 ADD PUSH0 KECCAK256 SLOAD PUSH2 0x15DD SWAP2 SWAP1 PUSH2 0x335E JUMP JUMPDEST SWAP1 POP DUP2 DUP2 GT ISZERO PUSH2 0x166E JUMPI PUSH1 0x9 PUSH0 DUP11 PUSH20 0xFFFFFFFFFFFFFFFFFFFFFFFFFFFFFFFFFFFFFFFF AND PUSH20 0xFFFFFFFFFFFFFFFFFFFFFFFFFFFFFFFFFFFFFFFF AND DUP2 MSTORE PUSH1 0x20 ADD SWAP1 DUP2 MSTORE PUSH1 0x20 ADD PUSH0 KECCAK256 SLOAD DUP3 PUSH2 0x1630 SWAP2 SWAP1 PUSH2 0x2E76 JUMP JUMPDEST DUP4 PUSH1 0x40 MLOAD PUSH32 0x31728A0500000000000000000000000000000000000000000000000000000000 DUP2 MSTORE PUSH1 0x4 ADD PUSH2 0x1665 SWAP3 SWAP2 SWAP1 PUSH2 0x2DD7 JUMP JUMPDEST PUSH1 0x40 MLOAD DUP1 SWAP2 SUB SWAP1 REVERT JUMPDEST DUP1 PUSH1 0x9 PUSH0 DUP12 PUSH20 0xFFFFFFFFFFFFFFFFFFFFFFFFFFFFFFFFFFFFFFFF AND PUSH20 0xFFFFFFFFFFFFFFFFFFFFFFFFFFFFFFFFFFFFFFFF AND DUP2 MSTORE PUSH1 0x20 ADD SWAP1 DUP2 MSTORE PUSH1 0x20 ADD PUSH0 KECCAK256 DUP2 SWAP1 SSTORE POP POP PUSH2 0x170A JUMP JUMPDEST DUP2 PUSH1 0x9 PUSH0 DUP11 PUSH20 0xFFFFFFFFFFFFFFFFFFFFFFFFFFFFFFFFFFFFFFFF AND PUSH20 0xFFFFFFFFFFFFFFFFFFFFFFFFFFFFFFFFFFFFFFFF AND DUP2 MSTORE PUSH1 0x20 ADD SWAP1 DUP2 MSTORE PUSH1 0x20 ADD PUSH0 KECCAK256 PUSH0 DUP3 DUP3 SLOAD PUSH2 0x1702 SWAP2 SWAP1 PUSH2 0x335E JUMP JUMPDEST SWAP3 POP POP DUP2 SWAP1 SSTORE POP JUMPDEST DUP2 PUSH1 0x8 PUSH0 DUP11 PUSH20 0xFFFFFFFFFFFFFFFFFFFFFFFFFFFFFFFFFFFFFFFF AND PUSH20 0xFFFFFFFFFFFFFFFFFFFFFFFFFFFFFFFFFFFFFFFF AND DUP2 MSTORE PUSH1 0x20 ADD SWAP1 DUP2 MSTORE PUSH1 0x20 ADD PUSH0 KECCAK256 PUSH0 CALLER PUSH20 0xFFFFFFFFFFFFFFFFFFFFFFFFFFFFFFFFFFFFFFFF AND PUSH20 0xFFFFFFFFFFFFFFFFFFFFFFFFFFFFFFFFFFFFFFFF AND DUP2 MSTORE PUSH1 0x20 ADD SWAP1 DUP2 MSTORE PUSH1 0x20 ADD PUSH0 KECCAK256 PUSH0 DUP3 DUP3 SLOAD PUSH2 0x1791 SWAP2 SWAP1 PUSH2 0x335E JUMP JUMPDEST SWAP3 POP POP DUP2 SWAP1 SSTORE POP CALLER PUSH20 0xFFFFFFFFFFFFFFFFFFFFFFFFFFFFFFFFFFFFFFFF AND DUP9 PUSH20 0xFFFFFFFFFFFFFFFFFFFFFFFFFFFFFFFFFFFFFFFF AND PUSH32 0xC5A3EAEF44F54039A9A9D23D5296C9DE6BF83E1B6D4EBD109E85CBCF477737A6 DUP5 PUSH1 0x40 MLOAD PUSH2 0x17F5 SWAP2 SWAP1 PUSH2 0x29F5 JUMP JUMPDEST PUSH1 0x40 MLOAD DUP1 SWAP2 SUB SWAP1 LOG3 POP POP POP POP POP POP POP POP JUMP JUMPDEST PUSH2 0xE10 DUP2 JUMP JUMPDEST PUSH32 0xACF805600123EF007091DA3B3FFB39474074C656C127AA68CB0FFEC232A8FF8 PUSH2 0x1837 DUP2 PUSH2 0x24F7 JUMP JUMPDEST CALLVALUE PUSH0 DUP2 SUB PUSH2 0x1871 JUMPI PUSH1 0x40 MLOAD PUSH32 0x5E85AE7300000000000000000000000000000000000000000000000000000000 DUP2 MSTORE PUSH1 0x4 ADD PUSH1 0x40 MLOAD DUP1 SWAP2 SUB SWAP1 REVERT JUMPDEST PUSH0 PUSH20 0xFFFFFFFFFFFFFFFFFFFFFFFFFFFFFFFFFFFFFFFF AND DUP4 PUSH20 0xFFFFFFFFFFFFFFFFFFFFFFFFFFFFFFFFFFFFFFFF AND SUB PUSH2 0x18D6 JUMPI PUSH1 0x40 MLOAD PUSH32 0xE6C4247B00000000000000000000000000000000000000000000000000000000 DUP2 MSTORE PUSH1 0x4 ADD PUSH1 0x40 MLOAD DUP1 SWAP2 SUB SWAP1 REVERT JUMPDEST PUSH0 CALLVALUE PUSH1 0x5 SLOAD PUSH2 0x18E5 SWAP2 SWAP1 PUSH2 0x335E JUMP JUMPDEST SWAP1 POP PUSH1 0x3 SLOAD DUP2 GT ISZERO PUSH2 0x193F JUMPI PUSH1 0x5 SLOAD PUSH1 0x3 SLOAD PUSH2 0x1901 SWAP2 SWAP1 PUSH2 0x2E76 JUMP JUMPDEST CALLVALUE PUSH1 0x40 MLOAD PUSH32 0x31728A0500000000000000000000000000000000000000000000000000000000 DUP2 MSTORE PUSH1 0x4 ADD PUSH2 0x1936 SWAP3 SWAP2 SWAP1 PUSH2 0x2DD7 JUMP JUMPDEST PUSH1 0x40 MLOAD DUP1 SWAP2 SUB SWAP1 REVERT JUMPDEST CALLVALUE PUSH1 0x4 PUSH0 DUP7 PUSH20 0xFFFFFFFFFFFFFFFFFFFFFFFFFFFFFFFFFFFFFFFF AND PUSH20 0xFFFFFFFFFFFFFFFFFFFFFFFFFFFFFFFFFFFFFFFF AND DUP2 MSTORE PUSH1 0x20 ADD SWAP1 DUP2 MSTORE PUSH1 0x20 ADD PUSH0 KECCAK256 PUSH0 DUP3 DUP3 SLOAD PUSH2 0x198B SWAP2 SWAP1 PUSH2 0x335E JUMP JUMPDEST SWAP3 POP POP DUP2 SWAP1 SSTORE POP DUP1 PUSH1 0x5 DUP2 SWAP1 SSTORE POP CALLER PUSH20 0xFFFFFFFFFFFFFFFFFFFFFFFFFFFFFFFFFFFFFFFF AND DUP5 PUSH20 0xFFFFFFFFFFFFFFFFFFFFFFFFFFFFFFFFFFFFFFFF AND PUSH32 0xE0B7399A2482598F5C734DBC05B5933A2A5AE1F0DB16C9FEC80061E9742E909D CALLVALUE PUSH1 0x40 MLOAD PUSH2 0x19F6 SWAP2 SWAP1 PUSH2 0x29F5 JUMP JUMPDEST PUSH1 0x40 MLOAD DUP1 SWAP2 SUB SWAP1 LOG3 POP POP POP POP JUMP JUMPDEST DUP1 PUSH0 DUP2 SUB PUSH2 0x1A3E JUMPI PUSH1 0x40 MLOAD PUSH32 0x5E85AE7300000000000000000000000000000000000000000000000000000000 DUP2 MSTORE PUSH1 0x4 ADD PUSH1 0x40 MLOAD DUP1 SWAP2 SUB SWAP1 REVERT JUMPDEST PUSH0 PUSH1 0x8 PUSH0 DUP6 PUSH20 0xFFFFFFFFFFFFFFFFFFFFFFFFFFFFFFFFFFFFFFFF AND PUSH20 0xFFFFFFFFFFFFFFFFFFFFFFFFFFFFFFFFFFFFFFFF AND DUP2 MSTORE PUSH1 0x20 ADD SWAP1 DUP2 MSTORE PUSH1 0x20 ADD PUSH0 KECCAK256 PUSH0 CALLER PUSH20 0xFFFFFFFFFFFFFFFFFFFFFFFFFFFFFFFFFFFFFFFF AND PUSH20 0xFFFFFFFFFFFFFFFFFFFFFFFFFFFFFFFFFFFFFFFF AND DUP2 MSTORE PUSH1 0x20 ADD SWAP1 DUP2 MSTORE PUSH1 0x20 ADD PUSH0 KECCAK256 SLOAD SWAP1 POP DUP1 DUP4 GT ISZERO PUSH2 0x1B01 JUMPI DUP1 DUP4 PUSH1 0x40 MLOAD PUSH32 0xCF47918100000000000000000000000000000000000000000000000000000000 DUP2 MSTORE PUSH1 0x4 ADD PUSH2 0x1AF8 SWAP3 SWAP2 SWAP1 PUSH2 0x2DD7 JUMP JUMPDEST PUSH1 0x40 MLOAD DUP1 SWAP2 SUB SWAP1 REVERT JUMPDEST DUP3 DUP2 PUSH2 0x1B0D SWAP2 SWAP1 PUSH2 0x2E76 JUMP JUMPDEST PUSH1 0x8 PUSH0 DUP7 PUSH20 0xFFFFFFFFFFFFFFFFFFFFFFFFFFFFFFFFFFFFFFFF AND PUSH20 0xFFFFFFFFFFFFFFFFFFFFFFFFFFFFFFFFFFFFFFFF AND DUP2 MSTORE PUSH1 0x20 ADD SWAP1 DUP2 MSTORE PUSH1 0x20 ADD PUSH0 KECCAK256 PUSH0 CALLER PUSH20 0xFFFFFFFFFFFFFFFFFFFFFFFFFFFFFFFFFFFFFFFF AND PUSH20 0xFFFFFFFFFFFFFFFFFFFFFFFFFFFFFFFFFFFFFFFF AND DUP2 MSTORE PUSH1 0x20 ADD SWAP1 DUP2 MSTORE PUSH1 0x20 ADD PUSH0 KECCAK256 DUP2 SWAP1 SSTORE POP DUP3 PUSH1 0x9 PUSH0 DUP7 PUSH20 0xFFFFFFFFFFFFFFFFFFFFFFFFFFFFFFFFFFFFFFFF AND PUSH20 0xFFFFFFFFFFFFFFFFFFFFFFFFFFFFFFFFFFFFFFFF AND DUP2 MSTORE PUSH1 0x20 ADD SWAP1 DUP2 MSTORE PUSH1 0x20 ADD PUSH0 KECCAK256 PUSH0 DUP3 DUP3 SLOAD PUSH2 0x1BD5 SWAP2 SWAP1 PUSH2 0x2E76 JUMP JUMPDEST SWAP3 POP POP DUP2 SWAP1 SSTORE POP PUSH2 0x1C07 CALLER DUP5 DUP7 PUSH20 0xFFFFFFFFFFFFFFFFFFFFFFFFFFFFFFFFFFFFFFFF AND PUSH2 0x2766 SWAP1 SWAP3 SWAP2 SWAP1 PUSH4 0xFFFFFFFF AND JUMP JUMPDEST CALLER PUSH20 0xFFFFFFFFFFFFFFFFFFFFFFFFFFFFFFFFFFFFFFFF AND DUP5 PUSH20 0xFFFFFFFFFFFFFFFFFFFFFFFFFFFFFFFFFFFFFFFF AND PUSH32 0x2FBB3E8DC2807D6A61FEB98FC2120153F77B2C0D25EF6272E1756935DD62C847 DUP6 PUSH1 0x40 MLOAD PUSH2 0x1C64 SWAP2 SWAP1 PUSH2 0x29F5 JUMP JUMPDEST PUSH1 0x40 MLOAD DUP1 SWAP2 SUB SWAP1 LOG3 POP POP POP POP JUMP JUMPDEST PUSH0 PUSH0 SHL DUP2 JUMP JUMPDEST PUSH32 0xACF805600123EF007091DA3B3FFB39474074C656C127AA68CB0FFEC232A8FF8 PUSH2 0x1CA2 DUP2 PUSH2 0x24F7 JUMP JUMPDEST DUP2 PUSH0 DUP2 SUB PUSH2 0x1CDC JUMPI PUSH1 0x40 MLOAD PUSH32 0x5E85AE7300000000000000000000000000000000000000000000000000000000 DUP2 MSTORE PUSH1 0x4 ADD PUSH1 0x40 MLOAD DUP1 SWAP2 SUB SWAP1 REVERT JUMPDEST PUSH0 PUSH20 0xFFFFFFFFFFFFFFFFFFFFFFFFFFFFFFFFFFFFFFFF AND DUP6 PUSH20 0xFFFFFFFFFFFFFFFFFFFFFFFFFFFFFFFFFFFFFFFF AND EQ DUP1 PUSH2 0x1D41 JUMPI POP PUSH0 PUSH20 0xFFFFFFFFFFFFFFFFFFFFFFFFFFFFFFFFFFFFFFFF AND DUP5 PUSH20 0xFFFFFFFFFFFFFFFFFFFFFFFFFFFFFFFFFFFFFFFF AND EQ JUMPDEST ISZERO PUSH2 0x1D78 JUMPI PUSH1 0x40 MLOAD PUSH32 0xE6C4247B00000000000000000000000000000000000000000000000000000000 DUP2 MSTORE PUSH1 0x4 ADD PUSH1 0x40 MLOAD DUP1 SWAP2 SUB SWAP1 REVERT JUMPDEST PUSH0 PUSH1 0x4 PUSH0 DUP8 PUSH20 0xFFFFFFFFFFFFFFFFFFFFFFFFFFFFFFFFFFFFFFFF AND PUSH20 0xFFFFFFFFFFFFFFFFFFFFFFFFFFFFFFFFFFFFFFFF AND DUP2 MSTORE PUSH1 0x20 ADD SWAP1 DUP2 MSTORE PUSH1 0x20 ADD PUSH0 KECCAK256 SLOAD SWAP1 POP DUP1 DUP5 GT ISZERO PUSH2 0x1E00 JUMPI DUP1 DUP5 PUSH1 0x40 MLOAD PUSH32 0xCF47918100000000000000000000000000000000000000000000000000000000 DUP2 MSTORE PUSH1 0x4 ADD PUSH2 0x1DF7 SWAP3 SWAP2 SWAP1 PUSH2 0x2DD7 JUMP JUMPDEST PUSH1 0x40 MLOAD DUP1 SWAP2 SUB SWAP1 REVERT JUMPDEST DUP4 DUP2 PUSH2 0x1E0C SWAP2 SWAP1 PUSH2 0x2E76 JUMP JUMPDEST PUSH1 0x4 PUSH0 DUP9 PUSH20 0xFFFFFFFFFFFFFFFFFFFFFFFFFFFFFFFFFFFFFFFF AND PUSH20 0xFFFFFFFFFFFFFFFFFFFFFFFFFFFFFFFFFFFFFFFF AND DUP2 MSTORE PUSH1 0x20 ADD SWAP1 DUP2 MSTORE PUSH1 0x20 ADD PUSH0 KECCAK256 DUP2 SWAP1 SSTORE POP DUP4 PUSH1 0x4 PUSH0 DUP8 PUSH20 0xFFFFFFFFFFFFFFFFFFFFFFFFFFFFFFFFFFFFFFFF AND PUSH20 0xFFFFFFFFFFFFFFFFFFFFFFFFFFFFFFFFFFFFFFFF AND DUP2 MSTORE PUSH1 0x20 ADD SWAP1 DUP2 MSTORE PUSH1 0x20 ADD PUSH0 KECCAK256 PUSH0 DUP3 DUP3 SLOAD PUSH2 0x1E99 SWAP2 SWAP1 PUSH2 0x335E JUMP JUMPDEST SWAP3 POP POP DUP2 SWAP1 SSTORE POP CALLER PUSH20 0xFFFFFFFFFFFFFFFFFFFFFFFFFFFFFFFFFFFFFFFF AND DUP6 PUSH20 0xFFFFFFFFFFFFFFFFFFFFFFFFFFFFFFFFFFFFFFFF AND DUP8 PUSH20 0xFFFFFFFFFFFFFFFFFFFFFFFFFFFFFFFFFFFFFFFF AND PUSH32 0xF83122A55A6BAE953BFB8CAAEAF6F8A3636E17B1CD279D61A727ED951BD25082 DUP8 PUSH1 0x40 MLOAD PUSH2 0x1F14 SWAP2 SWAP1 PUSH2 0x29F5 JUMP JUMPDEST PUSH1 0x40 MLOAD DUP1 SWAP2 SUB SWAP1 LOG4 POP POP POP POP POP POP JUMP JUMPDEST CALLVALUE PUSH0 DUP2 SUB PUSH2 0x1F5E JUMPI PUSH1 0x40 MLOAD PUSH32 0x5E85AE7300000000000000000000000000000000000000000000000000000000 DUP2 MSTORE PUSH1 0x4 ADD PUSH1 0x40 MLOAD DUP1 SWAP2 SUB SWAP1 REVERT JUMPDEST PUSH0 CALLVALUE PUSH1 0x5 SLOAD PUSH2 0x1F6D SWAP2 SWAP1 PUSH2 0x335E JUMP JUMPDEST SWAP1 POP PUSH1 0x3 SLOAD DUP2 GT ISZERO PUSH2 0x1FC7 JUMPI PUSH1 0x5 SLOAD PUSH1 0x3 SLOAD PUSH2 0x1F89 SWAP2 SWAP1 PUSH2 0x2E76 JUMP JUMPDEST CALLVALUE PUSH1 0x40 MLOAD PUSH32 0x31728A0500000000000000000000000000000000000000000000000000000000 DUP2 MSTORE PUSH1 0x4 ADD PUSH2 0x1FBE SWAP3 SWAP2 SWAP1 PUSH2 0x2DD7 JUMP JUMPDEST PUSH1 0x40 MLOAD DUP1 SWAP2 SUB SWAP1 REVERT JUMPDEST CALLVALUE PUSH1 0x4 PUSH0 CALLER PUSH20 0xFFFFFFFFFFFFFFFFFFFFFFFFFFFFFFFFFFFFFFFF AND PUSH20 0xFFFFFFFFFFFFFFFFFFFFFFFFFFFFFFFFFFFFFFFF AND DUP2 MSTORE PUSH1 0x20 ADD SWAP1 DUP2 MSTORE PUSH1 0x20 ADD PUSH0 KECCAK256 PUSH0 DUP3 DUP3 SLOAD PUSH2 0x2013 SWAP2 SWAP1 PUSH2 0x335E JUMP JUMPDEST SWAP3 POP POP DUP2 SWAP1 SSTORE POP DUP1 PUSH1 0x5 DUP2 SWAP1 SSTORE POP PUSH1 0x6 PUSH0 DUP2 SLOAD DUP1 SWAP3 SWAP2 SWAP1 PUSH2 0x2033 SWAP1 PUSH2 0x2EA9 JUMP JUMPDEST SWAP2 SWAP1 POP SSTORE POP CALLER PUSH20 0xFFFFFFFFFFFFFFFFFFFFFFFFFFFFFFFFFFFFFFFF AND PUSH32 0xE1FFFCC4923D04B559F4D29A8BFC6CDA04EB5B0D3C460751C2402C5C5CC9109C CALLVALUE PUSH1 0x40 MLOAD PUSH2 0x207E SWAP2 SWAP1 PUSH2 0x29F5 JUMP JUMPDEST PUSH1 0x40 MLOAD DUP1 SWAP2 SUB SWAP1 LOG2 POP POP JUMP JUMPDEST PUSH2 0x2093 DUP3 PUSH2 0x961 JUMP JUMPDEST PUSH2 0x209C DUP2 PUSH2 0x24F7 JUMP JUMPDEST PUSH2 0x20A6 DUP4 DUP4 PUSH2 0x25FB JUMP JUMPDEST POP POP POP POP JUMP JUMPDEST PUSH0 PUSH1 0x8 PUSH0 DUP4 PUSH20 0xFFFFFFFFFFFFFFFFFFFFFFFFFFFFFFFFFFFFFFFF AND PUSH20 0xFFFFFFFFFFFFFFFFFFFFFFFFFFFFFFFFFFFFFFFF AND DUP2 MSTORE PUSH1 0x20 ADD SWAP1 DUP2 MSTORE PUSH1 0x20 ADD PUSH0 KECCAK256 PUSH0 CALLER PUSH20 0xFFFFFFFFFFFFFFFFFFFFFFFFFFFFFFFFFFFFFFFF AND PUSH20 0xFFFFFFFFFFFFFFFFFFFFFFFFFFFFFFFFFFFFFFFF AND DUP2 MSTORE PUSH1 0x20 ADD SWAP1 DUP2 MSTORE PUSH1 0x20 ADD PUSH0 KECCAK256 SLOAD SWAP1 POP SWAP2 SWAP1 POP JUMP JUMPDEST PUSH1 0x3 SLOAD DUP2 JUMP JUMPDEST PUSH0 PUSH1 0x4 PUSH0 CALLER PUSH20 0xFFFFFFFFFFFFFFFFFFFFFFFFFFFFFFFFFFFFFFFF AND PUSH20 0xFFFFFFFFFFFFFFFFFFFFFFFFFFFFFFFFFFFFFFFF AND DUP2 MSTORE PUSH1 0x20 ADD SWAP1 DUP2 MSTORE PUSH1 0x20 ADD PUSH0 KECCAK256 SLOAD SWAP1 POP SWAP1 JUMP JUMPDEST PUSH32 0xACF805600123EF007091DA3B3FFB39474074C656C127AA68CB0FFEC232A8FF8 PUSH2 0x21A1 DUP2 PUSH2 0x24F7 JUMP JUMPDEST DUP2 PUSH0 DUP2 SUB PUSH2 0x21DB JUMPI PUSH1 0x40 MLOAD PUSH32 0x5E85AE7300000000000000000000000000000000000000000000000000000000 DUP2 MSTORE PUSH1 0x4 ADD PUSH1 0x40 MLOAD DUP1 SWAP2 SUB SWAP1 REVERT JUMPDEST PUSH0 PUSH20 0xFFFFFFFFFFFFFFFFFFFFFFFFFFFFFFFFFFFFFFFF AND DUP5 PUSH20 0xFFFFFFFFFFFFFFFFFFFFFFFFFFFFFFFFFFFFFFFF AND SUB PUSH2 0x2240 JUMPI PUSH1 0x40 MLOAD PUSH32 0xE6C4247B00000000000000000000000000000000000000000000000000000000 DUP2 MSTORE PUSH1 0x4 ADD PUSH1 0x40 MLOAD DUP1 SWAP2 SUB SWAP1 REVERT JUMPDEST PUSH0 SELFBALANCE SWAP1 POP DUP4 PUSH1 0x5 SLOAD PUSH2 0x2252 SWAP2 SWAP1 PUSH2 0x335E JUMP JUMPDEST DUP2 LT ISZERO PUSH2 0x22A5 JUMPI PUSH1 0x5 SLOAD DUP2 PUSH2 0x2267 SWAP2 SWAP1 PUSH2 0x2E76 JUMP JUMPDEST DUP5 PUSH1 0x40 MLOAD PUSH32 0x31728A0500000000000000000000000000000000000000000000000000000000 DUP2 MSTORE PUSH1 0x4 ADD PUSH2 0x229C SWAP3 SWAP2 SWAP1 PUSH2 0x2DD7 JUMP JUMPDEST PUSH1 0x40 MLOAD DUP1 SWAP2 SUB SWAP1 REVERT JUMPDEST PUSH0 DUP5 PUSH1 0x5 SLOAD PUSH2 0x22B4 SWAP2 SWAP1 PUSH2 0x335E JUMP JUMPDEST SWAP1 POP PUSH1 0x3 SLOAD DUP2 GT ISZERO PUSH2 0x230E JUMPI PUSH1 0x5 SLOAD PUSH1 0x3 SLOAD PUSH2 0x22D0 SWAP2 SWAP1 PUSH2 0x2E76 JUMP JUMPDEST DUP6 PUSH1 0x40 MLOAD PUSH32 0x31728A0500000000000000000000000000000000000000000000000000000000 DUP2 MSTORE PUSH1 0x4 ADD PUSH2 0x2305 SWAP3 SWAP2 SWAP1 PUSH2 0x2DD7 JUMP JUMPDEST PUSH1 0x40 MLOAD DUP1 SWAP2 SUB SWAP1 REVERT JUMPDEST DUP5 PUSH1 0x4 PUSH0 DUP9 PUSH20 0xFFFFFFFFFFFFFFFFFFFFFFFFFFFFFFFFFFFFFFFF AND PUSH20 0xFFFFFFFFFFFFFFFFFFFFFFFFFFFFFFFFFFFFFFFF AND DUP2 MSTORE PUSH1 0x20 ADD SWAP1 DUP2 MSTORE PUSH1 0x20 ADD PUSH0 KECCAK256 PUSH0 DUP3 DUP3 SLOAD PUSH2 0x235A SWAP2 SWAP1 PUSH2 0x335E JUMP JUMPDEST SWAP3 POP POP DUP2 SWAP1 SSTORE POP DUP1 PUSH1 0x5 DUP2 SWAP1 SSTORE POP CALLER PUSH20 0xFFFFFFFFFFFFFFFFFFFFFFFFFFFFFFFFFFFFFFFF AND DUP7 PUSH20 0xFFFFFFFFFFFFFFFFFFFFFFFFFFFFFFFFFFFFFFFF AND PUSH32 0x3692B2C1F23F30193AC244CFE2CBFF64281879BD7675106F06C3AAFE27DE8EAC DUP8 PUSH1 0x40 MLOAD PUSH2 0x23C5 SWAP2 SWAP1 PUSH2 0x29F5 JUMP JUMPDEST PUSH1 0x40 MLOAD DUP1 SWAP2 SUB SWAP1 LOG3 POP POP POP POP POP POP JUMP JUMPDEST PUSH1 0x9 PUSH1 0x20 MSTORE DUP1 PUSH0 MSTORE PUSH1 0x40 PUSH0 KECCAK256 PUSH0 SWAP2 POP SWAP1 POP SLOAD DUP2 JUMP JUMPDEST PUSH0 PUSH32 0x1FFC9A700000000000000000000000000000000000000000000000000000000 PUSH28 0xFFFFFFFFFFFFFFFFFFFFFFFFFFFFFFFFFFFFFFFFFFFFFFFFFFFFFFFF NOT AND DUP3 PUSH28 0xFFFFFFFFFFFFFFFFFFFFFFFFFFFFFFFFFFFFFFFFFFFFFFFFFFFFFFFF NOT AND EQ SWAP1 POP SWAP2 SWAP1 POP JUMP JUMPDEST PUSH0 DUP3 PUSH20 0xFFFFFFFFFFFFFFFFFFFFFFFFFFFFFFFFFFFFFFFF AND DUP3 PUSH1 0x40 MLOAD PUSH2 0x2478 SWAP1 PUSH2 0x33BE JUMP JUMPDEST PUSH0 PUSH1 0x40 MLOAD DUP1 DUP4 SUB DUP2 DUP6 DUP8 GAS CALL SWAP3 POP POP POP RETURNDATASIZE DUP1 PUSH0 DUP2 EQ PUSH2 0x24B2 JUMPI PUSH1 0x40 MLOAD SWAP2 POP PUSH1 0x1F NOT PUSH1 0x3F RETURNDATASIZE ADD AND DUP3 ADD PUSH1 0x40 MSTORE RETURNDATASIZE DUP3 MSTORE RETURNDATASIZE PUSH0 PUSH1 0x20 DUP5 ADD RETURNDATACOPY PUSH2 0x24B7 JUMP JUMPDEST PUSH1 0x60 SWAP2 POP JUMPDEST POP POP SWAP1 POP DUP1 PUSH2 0x24F2 JUMPI PUSH1 0x40 MLOAD PUSH32 0x90B8EC1800000000000000000000000000000000000000000000000000000000 DUP2 MSTORE PUSH1 0x4 ADD PUSH1 0x40 MLOAD DUP1 SWAP2 SUB SWAP1 REVERT JUMPDEST POP POP POP JUMP JUMPDEST PUSH2 0x2508 DUP2 PUSH2 0x2503 PUSH2 0x25F4 JUMP JUMPDEST PUSH2 0x27E5 JUMP JUMPDEST POP JUMP JUMPDEST PUSH0 PUSH2 0x2516 DUP4 DUP4 PUSH2 0x133E JUMP JUMPDEST PUSH2 0x25EA JUMPI PUSH1 0x1 PUSH0 PUSH0 DUP6 DUP2 MSTORE PUSH1 0x20 ADD SWAP1 DUP2 MSTORE PUSH1 0x20 ADD PUSH0 KECCAK256 PUSH0 ADD PUSH0 DUP5 PUSH20 0xFFFFFFFFFFFFFFFFFFFFFFFFFFFFFFFFFFFFFFFF AND PUSH20 0xFFFFFFFFFFFFFFFFFFFFFFFFFFFFFFFFFFFFFFFF AND DUP2 MSTORE PUSH1 0x20 ADD SWAP1 DUP2 MSTORE PUSH1 0x20 ADD PUSH0 KECCAK256 PUSH0 PUSH2 0x100 EXP DUP2 SLOAD DUP2 PUSH1 0xFF MUL NOT AND SWAP1 DUP4 ISZERO ISZERO MUL OR SWAP1 SSTORE POP PUSH2 0x2587 PUSH2 0x25F4 JUMP JUMPDEST PUSH20 0xFFFFFFFFFFFFFFFFFFFFFFFFFFFFFFFFFFFFFFFF AND DUP3 PUSH20 0xFFFFFFFFFFFFFFFFFFFFFFFFFFFFFFFFFFFFFFFF AND DUP5 PUSH32 0x2F8788117E7EFF1D82E926EC794901D17C78024A50270940304540A733656F0D PUSH1 0x40 MLOAD PUSH1 0x40 MLOAD DUP1 SWAP2 SUB SWAP1 LOG4 PUSH1 0x1 SWAP1 POP PUSH2 0x25EE JUMP JUMPDEST PUSH0 SWAP1 POP JUMPDEST SWAP3 SWAP2 POP POP JUMP JUMPDEST PUSH0 CALLER SWAP1 POP SWAP1 JUMP JUMPDEST PUSH0 PUSH2 0x2606 DUP4 DUP4 PUSH2 0x133E JUMP JUMPDEST ISZERO PUSH2 0x26DA JUMPI PUSH0 PUSH0 PUSH0 DUP6 DUP2 MSTORE PUSH1 0x20 ADD SWAP1 DUP2 MSTORE PUSH1 0x20 ADD PUSH0 KECCAK256 PUSH0 ADD PUSH0 DUP5 PUSH20 0xFFFFFFFFFFFFFFFFFFFFFFFFFFFFFFFFFFFFFFFF AND PUSH20 0xFFFFFFFFFFFFFFFFFFFFFFFFFFFFFFFFFFFFFFFF AND DUP2 MSTORE PUSH1 0x20 ADD SWAP1 DUP2 MSTORE PUSH1 0x20 ADD PUSH0 KECCAK256 PUSH0 PUSH2 0x100 EXP DUP2 SLOAD DUP2 PUSH1 0xFF MUL NOT AND SWAP1 DUP4 ISZERO ISZERO MUL OR SWAP1 SSTORE POP PUSH2 0x2677 PUSH2 0x25F4 JUMP JUMPDEST PUSH20 0xFFFFFFFFFFFFFFFFFFFFFFFFFFFFFFFFFFFFFFFF AND DUP3 PUSH20 0xFFFFFFFFFFFFFFFFFFFFFFFFFFFFFFFFFFFFFFFF AND DUP5 PUSH32 0xF6391F5C32D9C69D2A47EA670B442974B53935D1EDC7FD64EB21E047A839171B PUSH1 0x40 MLOAD PUSH1 0x40 MLOAD DUP1 SWAP2 SUB SWAP1 LOG4 PUSH1 0x1 SWAP1 POP PUSH2 0x26DE JUMP JUMPDEST PUSH0 SWAP1 POP JUMPDEST SWAP3 SWAP2 POP POP JUMP JUMPDEST PUSH2 0x2760 DUP5 DUP6 PUSH20 0xFFFFFFFFFFFFFFFFFFFFFFFFFFFFFFFFFFFFFFFF AND PUSH4 0x23B872DD DUP7 DUP7 DUP7 PUSH1 0x40 MLOAD PUSH1 0x24 ADD PUSH2 0x2719 SWAP4 SWAP3 SWAP2 SWAP1 PUSH2 0x33D2 JUMP JUMPDEST PUSH1 0x40 MLOAD PUSH1 0x20 DUP2 DUP4 SUB SUB DUP2 MSTORE SWAP1 PUSH1 0x40 MSTORE SWAP2 POP PUSH1 0xE0 SHL PUSH1 0x20 DUP3 ADD DUP1 MLOAD PUSH28 0xFFFFFFFFFFFFFFFFFFFFFFFFFFFFFFFFFFFFFFFFFFFFFFFFFFFFFFFF DUP4 DUP2 DUP4 AND OR DUP4 MSTORE POP POP POP POP PUSH2 0x2836 JUMP JUMPDEST POP POP POP POP JUMP JUMPDEST PUSH2 0x27E0 DUP4 DUP5 PUSH20 0xFFFFFFFFFFFFFFFFFFFFFFFFFFFFFFFFFFFFFFFF AND PUSH4 0xA9059CBB DUP6 DUP6 PUSH1 0x40 MLOAD PUSH1 0x24 ADD PUSH2 0x2799 SWAP3 SWAP2 SWAP1 PUSH2 0x3407 JUMP JUMPDEST PUSH1 0x40 MLOAD PUSH1 0x20 DUP2 DUP4 SUB SUB DUP2 MSTORE SWAP1 PUSH1 0x40 MSTORE SWAP2 POP PUSH1 0xE0 SHL PUSH1 0x20 DUP3 ADD DUP1 MLOAD PUSH28 0xFFFFFFFFFFFFFFFFFFFFFFFFFFFFFFFFFFFFFFFFFFFFFFFFFFFFFFFF DUP4 DUP2 DUP4 AND OR DUP4 MSTORE POP POP POP POP PUSH2 0x2836 JUMP JUMPDEST POP POP POP JUMP JUMPDEST PUSH2 0x27EF DUP3 DUP3 PUSH2 0x133E JUMP JUMPDEST PUSH2 0x2832 JUMPI DUP1 DUP3 PUSH1 0x40 MLOAD PUSH32 0xE2517D3F00000000000000000000000000000000000000000000000000000000 DUP2 MSTORE PUSH1 0x4 ADD PUSH2 0x2829 SWAP3 SWAP2 SWAP1 PUSH2 0x342E JUMP JUMPDEST PUSH1 0x40 MLOAD DUP1 SWAP2 SUB SWAP1 REVERT JUMPDEST POP POP JUMP JUMPDEST PUSH0 PUSH0 PUSH1 0x20 PUSH0 DUP5 MLOAD PUSH1 0x20 DUP7 ADD PUSH0 DUP9 GAS CALL DUP1 PUSH2 0x2855 JUMPI PUSH1 0x40 MLOAD RETURNDATASIZE PUSH0 DUP3 RETURNDATACOPY RETURNDATASIZE DUP2 REVERT JUMPDEST RETURNDATASIZE SWAP3 POP PUSH0 MLOAD SWAP2 POP POP PUSH0 DUP3 EQ PUSH2 0x286E JUMPI PUSH1 0x1 DUP2 EQ ISZERO PUSH2 0x2889 JUMP JUMPDEST PUSH0 DUP5 PUSH20 0xFFFFFFFFFFFFFFFFFFFFFFFFFFFFFFFFFFFFFFFF AND EXTCODESIZE EQ JUMPDEST ISZERO PUSH2 0x28CB JUMPI DUP4 PUSH1 0x40 MLOAD PUSH32 0x5274AFE700000000000000000000000000000000000000000000000000000000 DUP2 MSTORE PUSH1 0x4 ADD PUSH2 0x28C2 SWAP2 SWAP1 PUSH2 0x2CA3 JUMP JUMPDEST PUSH1 0x40 MLOAD DUP1 SWAP2 SUB SWAP1 REVERT JUMPDEST POP POP POP POP JUMP JUMPDEST PUSH0 PUSH0 REVERT JUMPDEST PUSH0 PUSH32 0xFFFFFFFF00000000000000000000000000000000000000000000000000000000 DUP3 AND SWAP1 POP SWAP2 SWAP1 POP JUMP JUMPDEST PUSH2 0x2909 DUP2 PUSH2 0x28D5 JUMP JUMPDEST DUP2 EQ PUSH2 0x2913 JUMPI PUSH0 PUSH0 REVERT JUMPDEST POP JUMP JUMPDEST PUSH0 DUP2 CALLDATALOAD SWAP1 POP PUSH2 0x2924 DUP2 PUSH2 0x2900 JUMP JUMPDEST SWAP3 SWAP2 POP POP JUMP JUMPDEST PUSH0 PUSH1 0x20 DUP3 DUP5 SUB SLT ISZERO PUSH2 0x293F JUMPI PUSH2 0x293E PUSH2 0x28D1 JUMP JUMPDEST JUMPDEST PUSH0 PUSH2 0x294C DUP5 DUP3 DUP6 ADD PUSH2 0x2916 JUMP JUMPDEST SWAP2 POP POP SWAP3 SWAP2 POP POP JUMP JUMPDEST PUSH0 DUP2 ISZERO ISZERO SWAP1 POP SWAP2 SWAP1 POP JUMP JUMPDEST PUSH2 0x2969 DUP2 PUSH2 0x2955 JUMP JUMPDEST DUP3 MSTORE POP POP JUMP JUMPDEST PUSH0 PUSH1 0x20 DUP3 ADD SWAP1 POP PUSH2 0x2982 PUSH0 DUP4 ADD DUP5 PUSH2 0x2960 JUMP JUMPDEST SWAP3 SWAP2 POP POP JUMP JUMPDEST PUSH0 DUP2 SWAP1 POP SWAP2 SWAP1 POP JUMP JUMPDEST PUSH2 0x299A DUP2 PUSH2 0x2988 JUMP JUMPDEST DUP2 EQ PUSH2 0x29A4 JUMPI PUSH0 PUSH0 REVERT JUMPDEST POP JUMP JUMPDEST PUSH0 DUP2 CALLDATALOAD SWAP1 POP PUSH2 0x29B5 DUP2 PUSH2 0x2991 JUMP JUMPDEST SWAP3 SWAP2 POP POP JUMP JUMPDEST PUSH0 PUSH1 0x20 DUP3 DUP5 SUB SLT ISZERO PUSH2 0x29D0 JUMPI PUSH2 0x29CF PUSH2 0x28D1 JUMP JUMPDEST JUMPDEST PUSH0 PUSH2 0x29DD DUP5 DUP3 DUP6 ADD PUSH2 0x29A7 JUMP JUMPDEST SWAP2 POP POP SWAP3 SWAP2 POP POP JUMP JUMPDEST PUSH2 0x29EF DUP2 PUSH2 0x2988 JUMP JUMPDEST DUP3 MSTORE POP POP JUMP JUMPDEST PUSH0 PUSH1 0x20 DUP3 ADD SWAP1 POP PUSH2 0x2A08 PUSH0 DUP4 ADD DUP5 PUSH2 0x29E6 JUMP JUMPDEST SWAP3 SWAP2 POP POP JUMP JUMPDEST PUSH0 PUSH20 0xFFFFFFFFFFFFFFFFFFFFFFFFFFFFFFFFFFFFFFFF DUP3 AND SWAP1 POP SWAP2 SWAP1 POP JUMP JUMPDEST PUSH0 PUSH2 0x2A37 DUP3 PUSH2 0x2A0E JUMP JUMPDEST SWAP1 POP SWAP2 SWAP1 POP JUMP JUMPDEST PUSH2 0x2A47 DUP2 PUSH2 0x2A2D JUMP JUMPDEST DUP2 EQ PUSH2 0x2A51 JUMPI PUSH0 PUSH0 REVERT JUMPDEST POP JUMP JUMPDEST PUSH0 DUP2 CALLDATALOAD SWAP1 POP PUSH2 0x2A62 DUP2 PUSH2 0x2A3E JUMP JUMPDEST SWAP3 SWAP2 POP POP JUMP JUMPDEST PUSH0 PUSH0 PUSH1 0x40 DUP4 DUP6 SUB SLT ISZERO PUSH2 0x2A7E JUMPI PUSH2 0x2A7D PUSH2 0x28D1 JUMP JUMPDEST JUMPDEST PUSH0 PUSH2 0x2A8B DUP6 DUP3 DUP7 ADD PUSH2 0x2A54 JUMP JUMPDEST SWAP3 POP POP PUSH1 0x20 PUSH2 0x2A9C DUP6 DUP3 DUP7 ADD PUSH2 0x29A7 JUMP JUMPDEST SWAP2 POP POP SWAP3 POP SWAP3 SWAP1 POP JUMP JUMPDEST PUSH0 DUP2 SWAP1 POP SWAP2 SWAP1 POP JUMP JUMPDEST PUSH2 0x2AB8 DUP2 PUSH2 0x2AA6 JUMP JUMPDEST DUP2 EQ PUSH2 0x2AC2 JUMPI PUSH0 PUSH0 REVERT JUMPDEST POP JUMP JUMPDEST PUSH0 DUP2 CALLDATALOAD SWAP1 POP PUSH2 0x2AD3 DUP2 PUSH2 0x2AAF JUMP JUMPDEST SWAP3 SWAP2 POP POP JUMP JUMPDEST PUSH0 PUSH1 0x20 DUP3 DUP5 SUB SLT ISZERO PUSH2 0x2AEE JUMPI PUSH2 0x2AED PUSH2 0x28D1 JUMP JUMPDEST JUMPDEST PUSH0 PUSH2 0x2AFB DUP5 DUP3 DUP6 ADD PUSH2 0x2AC5 JUMP JUMPDEST SWAP2 POP POP SWAP3 SWAP2 POP POP JUMP JUMPDEST PUSH2 0x2B0D DUP2 PUSH2 0x2AA6 JUMP JUMPDEST DUP3 MSTORE POP POP JUMP JUMPDEST PUSH0 PUSH1 0x20 DUP3 ADD SWAP1 POP PUSH2 0x2B26 PUSH0 DUP4 ADD DUP5 PUSH2 0x2B04 JUMP JUMPDEST SWAP3 SWAP2 POP POP JUMP JUMPDEST PUSH0 PUSH0 PUSH1 0x40 DUP4 DUP6 SUB SLT ISZERO PUSH2 0x2B42 JUMPI PUSH2 0x2B41 PUSH2 0x28D1 JUMP JUMPDEST JUMPDEST PUSH0 PUSH2 0x2B4F DUP6 DUP3 DUP7 ADD PUSH2 0x2AC5 JUMP JUMPDEST SWAP3 POP POP PUSH1 0x20 PUSH2 0x2B60 DUP6 DUP3 DUP7 ADD PUSH2 0x2A54 JUMP JUMPDEST SWAP2 POP POP SWAP3 POP SWAP3 SWAP1 POP JUMP JUMPDEST PUSH0 PUSH2 0x2B74 DUP3 PUSH2 0x2A0E JUMP JUMPDEST SWAP1 POP SWAP2 SWAP1 POP JUMP JUMPDEST PUSH2 0x2B84 DUP2 PUSH2 0x2B6A JUMP JUMPDEST DUP2 EQ PUSH2 0x2B8E JUMPI PUSH0 PUSH0 REVERT JUMPDEST POP JUMP JUMPDEST PUSH0 DUP2 CALLDATALOAD SWAP1 POP PUSH2 0x2B9F DUP2 PUSH2 0x2B7B JUMP JUMPDEST SWAP3 SWAP2 POP POP JUMP JUMPDEST PUSH0 PUSH0 PUSH0 PUSH1 0x60 DUP5 DUP7 SUB SLT ISZERO PUSH2 0x2BBC JUMPI PUSH2 0x2BBB PUSH2 0x28D1 JUMP JUMPDEST JUMPDEST PUSH0 PUSH2 0x2BC9 DUP7 DUP3 DUP8 ADD PUSH2 0x2A54 JUMP JUMPDEST SWAP4 POP POP PUSH1 0x20 PUSH2 0x2BDA DUP7 DUP3 DUP8 ADD PUSH2 0x2B91 JUMP JUMPDEST SWAP3 POP POP PUSH1 0x40 PUSH2 0x2BEB DUP7 DUP3 DUP8 ADD PUSH2 0x29A7 JUMP JUMPDEST SWAP2 POP POP SWAP3 POP SWAP3 POP SWAP3 JUMP JUMPDEST PUSH0 PUSH1 0x20 DUP3 DUP5 SUB SLT ISZERO PUSH2 0x2C0A JUMPI PUSH2 0x2C09 PUSH2 0x28D1 JUMP JUMPDEST JUMPDEST PUSH0 PUSH2 0x2C17 DUP5 DUP3 DUP6 ADD PUSH2 0x2A54 JUMP JUMPDEST SWAP2 POP POP SWAP3 SWAP2 POP POP JUMP JUMPDEST PUSH0 DUP2 SWAP1 POP SWAP2 SWAP1 POP JUMP JUMPDEST PUSH0 PUSH2 0x2C43 PUSH2 0x2C3E PUSH2 0x2C39 DUP5 PUSH2 0x2A0E JUMP JUMPDEST PUSH2 0x2C20 JUMP JUMPDEST PUSH2 0x2A0E JUMP JUMPDEST SWAP1 POP SWAP2 SWAP1 POP JUMP JUMPDEST PUSH0 PUSH2 0x2C54 DUP3 PUSH2 0x2C29 JUMP JUMPDEST SWAP1 POP SWAP2 SWAP1 POP JUMP JUMPDEST PUSH0 PUSH2 0x2C65 DUP3 PUSH2 0x2C4A JUMP JUMPDEST SWAP1 POP SWAP2 SWAP1 POP JUMP JUMPDEST PUSH2 0x2C75 DUP2 PUSH2 0x2C5B JUMP JUMPDEST DUP3 MSTORE POP POP JUMP JUMPDEST PUSH0 PUSH1 0x20 DUP3 ADD SWAP1 POP PUSH2 0x2C8E PUSH0 DUP4 ADD DUP5 PUSH2 0x2C6C JUMP JUMPDEST SWAP3 SWAP2 POP POP JUMP JUMPDEST PUSH2 0x2C9D DUP2 PUSH2 0x2A2D JUMP JUMPDEST DUP3 MSTORE POP POP JUMP JUMPDEST PUSH0 PUSH1 0x20 DUP3 ADD SWAP1 POP PUSH2 0x2CB6 PUSH0 DUP4 ADD DUP5 PUSH2 0x2C94 JUMP JUMPDEST SWAP3 SWAP2 POP POP JUMP JUMPDEST PUSH0 PUSH0 PUSH0 PUSH1 0x60 DUP5 DUP7 SUB SLT ISZERO PUSH2 0x2CD3 JUMPI PUSH2 0x2CD2 PUSH2 0x28D1 JUMP JUMPDEST JUMPDEST PUSH0 PUSH2 0x2CE0 DUP7 DUP3 DUP8 ADD PUSH2 0x2A54 JUMP JUMPDEST SWAP4 POP POP PUSH1 0x20 PUSH2 0x2CF1 DUP7 DUP3 DUP8 ADD PUSH2 0x2A54 JUMP JUMPDEST SWAP3 POP POP PUSH1 0x40 PUSH2 0x2D02 DUP7 DUP3 DUP8 ADD PUSH2 0x29A7 JUMP JUMPDEST SWAP2 POP POP SWAP3 POP SWAP3 POP SWAP3 JUMP JUMPDEST PUSH32 0x4E487B7100000000000000000000000000000000000000000000000000000000 PUSH0 MSTORE PUSH1 0x11 PUSH1 0x4 MSTORE PUSH1 0x24 PUSH0 REVERT JUMPDEST PUSH0 PUSH2 0x2D43 DUP3 PUSH2 0x2988 JUMP JUMPDEST SWAP2 POP PUSH2 0x2D4E DUP4 PUSH2 0x2988 JUMP JUMPDEST SWAP3 POP DUP3 DUP3 MUL PUSH2 0x2D5C DUP2 PUSH2 0x2988 JUMP JUMPDEST SWAP2 POP DUP3 DUP3 DIV DUP5 EQ DUP4 ISZERO OR PUSH2 0x2D73 JUMPI PUSH2 0x2D72 PUSH2 0x2D0C JUMP JUMPDEST JUMPDEST POP SWAP3 SWAP2 POP POP JUMP JUMPDEST PUSH32 0x4E487B7100000000000000000000000000000000000000000000000000000000 PUSH0 MSTORE PUSH1 0x12 PUSH1 0x4 MSTORE PUSH1 0x24 PUSH0 REVERT JUMPDEST PUSH0 PUSH2 0x2DB1 DUP3 PUSH2 0x2988 JUMP JUMPDEST SWAP2 POP PUSH2 0x2DBC DUP4 PUSH2 0x2988 JUMP JUMPDEST SWAP3 POP DUP3 PUSH2 0x2DCC JUMPI PUSH2 0x2DCB PUSH2 0x2D7A JUMP JUMPDEST JUMPDEST DUP3 DUP3 DIV SWAP1 POP SWAP3 SWAP2 POP POP JUMP JUMPDEST PUSH0 PUSH1 0x40 DUP3 ADD SWAP1 POP PUSH2 0x2DEA PUSH0 DUP4 ADD DUP6 PUSH2 0x29E6 JUMP JUMPDEST PUSH2 0x2DF7 PUSH1 0x20 DUP4 ADD DUP5 PUSH2 0x29E6 JUMP JUMPDEST SWAP4 SWAP3 POP POP POP JUMP JUMPDEST PUSH0 DUP3 DUP3 MSTORE PUSH1 0x20 DUP3 ADD SWAP1 POP SWAP3 SWAP2 POP POP JUMP JUMPDEST PUSH32 0x7769746864726177203E20313030302055534400000000000000000000000000 PUSH0 DUP3 ADD MSTORE POP JUMP JUMPDEST PUSH0 PUSH2 0x2E42 PUSH1 0x13 DUP4 PUSH2 0x2DFE JUMP JUMPDEST SWAP2 POP PUSH2 0x2E4D DUP3 PUSH2 0x2E0E JUMP JUMPDEST PUSH1 0x20 DUP3 ADD SWAP1 POP SWAP2 SWAP1 POP JUMP JUMPDEST PUSH0 PUSH1 0x20 DUP3 ADD SWAP1 POP DUP2 DUP2 SUB PUSH0 DUP4 ADD MSTORE PUSH2 0x2E6F DUP2 PUSH2 0x2E36 JUMP JUMPDEST SWAP1 POP SWAP2 SWAP1 POP JUMP JUMPDEST PUSH0 PUSH2 0x2E80 DUP3 PUSH2 0x2988 JUMP JUMPDEST SWAP2 POP PUSH2 0x2E8B DUP4 PUSH2 0x2988 JUMP JUMPDEST SWAP3 POP DUP3 DUP3 SUB SWAP1 POP DUP2 DUP2 GT ISZERO PUSH2 0x2EA3 JUMPI PUSH2 0x2EA2 PUSH2 0x2D0C JUMP JUMPDEST JUMPDEST SWAP3 SWAP2 POP POP JUMP JUMPDEST PUSH0 PUSH2 0x2EB3 DUP3 PUSH2 0x2988 JUMP JUMPDEST SWAP2 POP PUSH32 0xFFFFFFFFFFFFFFFFFFFFFFFFFFFFFFFFFFFFFFFFFFFFFFFFFFFFFFFFFFFFFFFF DUP3 SUB PUSH2 0x2EE5 JUMPI PUSH2 0x2EE4 PUSH2 0x2D0C JUMP JUMPDEST JUMPDEST PUSH1 0x1 DUP3 ADD SWAP1 POP SWAP2 SWAP1 POP JUMP JUMPDEST PUSH0 PUSH10 0xFFFFFFFFFFFFFFFFFFFF DUP3 AND SWAP1 POP SWAP2 SWAP1 POP JUMP JUMPDEST PUSH2 0x2F0E DUP2 PUSH2 0x2EF0 JUMP JUMPDEST DUP2 EQ PUSH2 0x2F18 JUMPI PUSH0 PUSH0 REVERT JUMPDEST POP JUMP JUMPDEST PUSH0 DUP2 MLOAD SWAP1 POP PUSH2 0x2F29 DUP2 PUSH2 0x2F05 JUMP JUMPDEST SWAP3 SWAP2 POP POP JUMP JUMPDEST PUSH0 DUP2 SWAP1 POP SWAP2 SWAP1 POP JUMP JUMPDEST PUSH2 0x2F41 DUP2 PUSH2 0x2F2F JUMP JUMPDEST DUP2 EQ PUSH2 0x2F4B JUMPI PUSH0 PUSH0 REVERT JUMPDEST POP JUMP JUMPDEST PUSH0 DUP2 MLOAD SWAP1 POP PUSH2 0x2F5C DUP2 PUSH2 0x2F38 JUMP JUMPDEST SWAP3 SWAP2 POP POP JUMP JUMPDEST PUSH0 DUP2 MLOAD SWAP1 POP PUSH2 0x2F70 DUP2 PUSH2 0x2991 JUMP JUMPDEST SWAP3 SWAP2 POP POP JUMP JUMPDEST PUSH0 PUSH0 PUSH0 PUSH0 PUSH0 PUSH1 0xA0 DUP7 DUP9 SUB SLT ISZERO PUSH2 0x2F8F JUMPI PUSH2 0x2F8E PUSH2 0x28D1 JUMP JUMPDEST JUMPDEST PUSH0 PUSH2 0x2F9C DUP9 DUP3 DUP10 ADD PUSH2 0x2F1B JUMP JUMPDEST SWAP6 POP POP PUSH1 0x20 PUSH2 0x2FAD DUP9 DUP3 DUP10 ADD PUSH2 0x2F4E JUMP JUMPDEST SWAP5 POP POP PUSH1 0x40 PUSH2 0x2FBE DUP9 DUP3 DUP10 ADD PUSH2 0x2F62 JUMP JUMPDEST SWAP4 POP POP PUSH1 0x60 PUSH2 0x2FCF DUP9 DUP3 DUP10 ADD PUSH2 0x2F62 JUMP JUMPDEST SWAP3 POP POP PUSH1 0x80 PUSH2 0x2FE0 DUP9 DUP3 DUP10 ADD PUSH2 0x2F1B JUMP JUMPDEST SWAP2 POP POP SWAP3 SWAP6 POP SWAP3 SWAP6 SWAP1 SWAP4 POP JUMP JUMPDEST PUSH32 0x7374616C6520726F756E64000000000000000000000000000000000000000000 PUSH0 DUP3 ADD MSTORE POP JUMP JUMPDEST PUSH0 PUSH2 0x3021 PUSH1 0xB DUP4 PUSH2 0x2DFE JUMP JUMPDEST SWAP2 POP PUSH2 0x302C DUP3 PUSH2 0x2FED JUMP JUMPDEST PUSH1 0x20 DUP3 ADD SWAP1 POP SWAP2 SWAP1 POP JUMP JUMPDEST PUSH0 PUSH1 0x20 DUP3 ADD SWAP1 POP DUP2 DUP2 SUB PUSH0 DUP4 ADD MSTORE PUSH2 0x304E DUP2 PUSH2 0x3015 JUMP JUMPDEST SWAP1 POP SWAP2 SWAP1 POP JUMP JUMPDEST PUSH32 0x7374616C65207072696365000000000000000000000000000000000000000000 PUSH0 DUP3 ADD MSTORE POP JUMP JUMPDEST PUSH0 PUSH2 0x3089 PUSH1 0xB DUP4 PUSH2 0x2DFE JUMP JUMPDEST SWAP2 POP PUSH2 0x3094 DUP3 PUSH2 0x3055 JUMP JUMPDEST PUSH1 0x20 DUP3 ADD SWAP1 POP SWAP2 SWAP1 POP JUMP JUMPDEST PUSH0 PUSH1 0x20 DUP3 ADD SWAP1 POP DUP2 DUP2 SUB PUSH0 DUP4 ADD MSTORE PUSH2 0x30B6 DUP2 PUSH2 0x307D JUMP JUMPDEST SWAP1 POP SWAP2 SWAP1 POP JUMP JUMPDEST PUSH32 0x696E76616C696420707269636500000000000000000000000000000000000000 PUSH0 DUP3 ADD MSTORE POP JUMP JUMPDEST PUSH0 PUSH2 0x30F1 PUSH1 0xD DUP4 PUSH2 0x2DFE JUMP JUMPDEST SWAP2 POP PUSH2 0x30FC DUP3 PUSH2 0x30BD JUMP JUMPDEST PUSH1 0x20 DUP3 ADD SWAP1 POP SWAP2 SWAP1 POP JUMP JUMPDEST PUSH0 PUSH1 0x20 DUP3 ADD SWAP1 POP DUP2 DUP2 SUB PUSH0 DUP4 ADD MSTORE PUSH2 0x311E DUP2 PUSH2 0x30E5 JUMP JUMPDEST SWAP1 POP SWAP2 SWAP1 POP JUMP JUMPDEST PUSH0 PUSH1 0xFF DUP3 AND SWAP1 POP SWAP2 SWAP1 POP JUMP JUMPDEST PUSH2 0x313A DUP2 PUSH2 0x3125 JUMP JUMPDEST DUP2 EQ PUSH2 0x3144 JUMPI PUSH0 PUSH0 REVERT JUMPDEST POP JUMP JUMPDEST PUSH0 DUP2 MLOAD SWAP1 POP PUSH2 0x3155 DUP2 PUSH2 0x3131 JUMP JUMPDEST SWAP3 SWAP2 POP POP JUMP JUMPDEST PUSH0 PUSH1 0x20 DUP3 DUP5 SUB SLT ISZERO PUSH2 0x3170 JUMPI PUSH2 0x316F PUSH2 0x28D1 JUMP JUMPDEST JUMPDEST PUSH0 PUSH2 0x317D DUP5 DUP3 DUP6 ADD PUSH2 0x3147 JUMP JUMPDEST SWAP2 POP POP SWAP3 SWAP2 POP POP JUMP JUMPDEST PUSH0 PUSH2 0x3190 DUP3 PUSH2 0x3125 JUMP JUMPDEST SWAP2 POP PUSH2 0x319B DUP4 PUSH2 0x3125 JUMP JUMPDEST SWAP3 POP DUP3 DUP3 SUB SWAP1 POP PUSH1 0xFF DUP2 GT ISZERO PUSH2 0x31B4 JUMPI PUSH2 0x31B3 PUSH2 0x2D0C JUMP JUMPDEST JUMPDEST SWAP3 SWAP2 POP POP JUMP JUMPDEST PUSH0 DUP2 PUSH1 0x1 SHR SWAP1 POP SWAP2 SWAP1 POP JUMP JUMPDEST PUSH0 PUSH0 DUP3 SWAP2 POP DUP4 SWAP1 POP JUMPDEST PUSH1 0x1 DUP6 GT ISZERO PUSH2 0x320F JUMPI DUP1 DUP7 DIV DUP2 GT ISZERO PUSH2 0x31EB JUMPI PUSH2 0x31EA PUSH2 0x2D0C JUMP JUMPDEST JUMPDEST PUSH1 0x1 DUP6 AND ISZERO PUSH2 0x31FA JUMPI DUP1 DUP3 MUL SWAP2 POP JUMPDEST DUP1 DUP2 MUL SWAP1 POP PUSH2 0x3208 DUP6 PUSH2 0x31BA JUMP JUMPDEST SWAP5 POP PUSH2 0x31CF JUMP JUMPDEST SWAP5 POP SWAP5 SWAP3 POP POP POP JUMP JUMPDEST PUSH0 DUP3 PUSH2 0x3227 JUMPI PUSH1 0x1 SWAP1 POP PUSH2 0x32E2 JUMP JUMPDEST DUP2 PUSH2 0x3234 JUMPI PUSH0 SWAP1 POP PUSH2 0x32E2 JUMP JUMPDEST DUP2 PUSH1 0x1 DUP2 EQ PUSH2 0x324A JUMPI PUSH1 0x2 DUP2 EQ PUSH2 0x3254 JUMPI PUSH2 0x3283 JUMP JUMPDEST PUSH1 0x1 SWAP2 POP POP PUSH2 0x32E2 JUMP JUMPDEST PUSH1 0xFF DUP5 GT ISZERO PUSH2 0x3266 JUMPI PUSH2 0x3265 PUSH2 0x2D0C JUMP JUMPDEST JUMPDEST DUP4 PUSH1 0x2 EXP SWAP2 POP DUP5 DUP3 GT ISZERO PUSH2 0x327D JUMPI PUSH2 0x327C PUSH2 0x2D0C JUMP JUMPDEST JUMPDEST POP PUSH2 0x32E2 JUMP JUMPDEST POP PUSH1 0x20 DUP4 LT PUSH2 0x133 DUP4 LT AND PUSH1 0x4E DUP5 LT PUSH1 0xB DUP5 LT AND OR ISZERO PUSH2 0x32B8 JUMPI DUP3 DUP3 EXP SWAP1 POP DUP4 DUP2 GT ISZERO PUSH2 0x32B3 JUMPI PUSH2 0x32B2 PUSH2 0x2D0C JUMP JUMPDEST JUMPDEST PUSH2 0x32E2 JUMP JUMPDEST PUSH2 0x32C5 DUP5 DUP5 DUP5 PUSH1 0x1 PUSH2 0x31C6 JUMP JUMPDEST SWAP3 POP SWAP1 POP DUP2 DUP5 DIV DUP2 GT ISZERO PUSH2 0x32DC JUMPI PUSH2 0x32DB PUSH2 0x2D0C JUMP JUMPDEST JUMPDEST DUP2 DUP2 MUL SWAP1 POP JUMPDEST SWAP4 SWAP3 POP POP POP JUMP JUMPDEST PUSH0 PUSH2 0x32F3 DUP3 PUSH2 0x2988 JUMP JUMPDEST SWAP2 POP PUSH2 0x32FE DUP4 PUSH2 0x3125 JUMP JUMPDEST SWAP3 POP PUSH2 0x332B PUSH32 0xFFFFFFFFFFFFFFFFFFFFFFFFFFFFFFFFFFFFFFFFFFFFFFFFFFFFFFFFFFFFFFFF DUP5 DUP5 PUSH2 0x3218 JUMP JUMPDEST SWAP1 POP SWAP3 SWAP2 POP POP JUMP JUMPDEST PUSH0 PUSH1 0x20 DUP3 DUP5 SUB SLT ISZERO PUSH2 0x3348 JUMPI PUSH2 0x3347 PUSH2 0x28D1 JUMP JUMPDEST JUMPDEST PUSH0 PUSH2 0x3355 DUP5 DUP3 DUP6 ADD PUSH2 0x2F62 JUMP JUMPDEST SWAP2 POP POP SWAP3 SWAP2 POP POP JUMP JUMPDEST PUSH0 PUSH2 0x3368 DUP3 PUSH2 0x2988 JUMP JUMPDEST SWAP2 POP PUSH2 0x3373 DUP4 PUSH2 0x2988 JUMP JUMPDEST SWAP3 POP DUP3 DUP3 ADD SWAP1 POP DUP1 DUP3 GT ISZERO PUSH2 0x338B JUMPI PUSH2 0x338A PUSH2 0x2D0C JUMP JUMPDEST JUMPDEST SWAP3 SWAP2 POP POP JUMP JUMPDEST PUSH0 DUP2 SWAP1 POP SWAP3 SWAP2 POP POP JUMP JUMPDEST POP JUMP JUMPDEST PUSH0 PUSH2 0x33A9 PUSH0 DUP4 PUSH2 0x3391 JUMP JUMPDEST SWAP2 POP PUSH2 0x33B4 DUP3 PUSH2 0x339B JUMP JUMPDEST PUSH0 DUP3 ADD SWAP1 POP SWAP2 SWAP1 POP JUMP JUMPDEST PUSH0 PUSH2 0x33C8 DUP3 PUSH2 0x339E JUMP JUMPDEST SWAP2 POP DUP2 SWAP1 POP SWAP2 SWAP1 POP JUMP JUMPDEST PUSH0 PUSH1 0x60 DUP3 ADD SWAP1 POP PUSH2 0x33E5 PUSH0 DUP4 ADD DUP7 PUSH2 0x2C94 JUMP JUMPDEST PUSH2 0x33F2 PUSH1 0x20 DUP4 ADD DUP6 PUSH2 0x2C94 JUMP JUMPDEST PUSH2 0x33FF PUSH1 0x40 DUP4 ADD DUP5 PUSH2 0x29E6 JUMP JUMPDEST SWAP5 SWAP4 POP POP POP POP JUMP JUMPDEST PUSH0 PUSH1 0x40 DUP3 ADD SWAP1 POP PUSH2 0x341A PUSH0 DUP4 ADD DUP6 PUSH2 0x2C94 JUMP JUMPDEST PUSH2 0x3427 PUSH1 0x20 DUP4 ADD DUP5 PUSH2 0x29E6 JUMP JUMPDEST SWAP4 SWAP3 POP POP POP JUMP JUMPDEST PUSH0 PUSH1 0x40 DUP3 ADD SWAP1 POP PUSH2 0x3441 PUSH0 DUP4 ADD DUP6 PUSH2 0x2C94 JUMP JUMPDEST PUSH2 0x344E PUSH1 0x20 DUP4 ADD DUP5 PUSH2 0x2B04 JUMP JUMPDEST SWAP4 SWAP3 POP POP POP JUMP INVALID LOG2 PUSH5 0x6970667358 0x22 SLT KECCAK256 0xC3 0xAB SLOAD 0xD4 0xBA SWAP2 0x2F 0xB4 0xF7 0x2E NOT SSTORE 0xBD RETURNDATASIZE SGT PC 0xC5 0xCA MSIZE PUSH20 0x141579525029AB80FEBBE5E764736F6C63430008 0x1E STOP CALLER "
				},
				"gasEstimates": {
					"creation": {
						"codeDepositCost": "2690200",
						"executionCost": "infinite",
						"totalCost": "infinite"
					},
					"external": {
						"DEFAULT_ADMIN_ROLE()": "374",
						"MAX_PRICE_AGE()": "392",
						"MAX_WITHDRAW_USD_8()": "370",
						"RECOVERY_ROLE()": "371",
						"adminAssignExcessToUser(address,uint256)": "infinite",
						"adminReassignVault(address,address,uint256)": "infinite",
						"adminTopUpUser(address)": "infinite",
						"adminWithdrawFromUser(address,address,uint256)": "infinite",
						"bankCap()": "2491",
						"deposit()": "infinite",
						"depositCount()": "2493",
						"depositERC20(address,uint256)": "infinite",
						"ethUsdFeed()": "infinite",
						"getEthUsdPrice8()": "infinite",
						"getRoleAdmin(bytes32)": "infinite",
						"getVaultBalance()": "2607",
						"getVaultBalanceERC20(address)": "2960",
						"grantRole(bytes32,address)": "infinite",
						"hasRole(bytes32,address)": "3232",
						"owner()": "2598",
						"quoteWeiInUsd8(uint256)": "infinite",
						"renounceRole(bytes32,address)": "infinite",
						"revokeRole(bytes32,address)": "infinite",
						"setBankCap(uint256)": "infinite",
						"setTokenCap(address,uint256)": "infinite",
						"supportsInterface(bytes4)": "764",
						"tokenCap(address)": "2891",
						"totalBankBalance()": "2516",
						"totalTokenBalance(address)": "2934",
						"withdraw(uint256)": "infinite",
						"withdrawERC20(address,uint256)": "infinite",
						"withdrawalCount()": "2492",
						"withdrawalLimit()": "infinite"
					},
					"internal": {
						"_safeTransfer(address,uint256)": "infinite"
					}
				},
				"methodIdentifiers": {
					"DEFAULT_ADMIN_ROLE()": "a217fddf",
					"MAX_PRICE_AGE()": "9d7f7e86",
					"MAX_WITHDRAW_USD_8()": "5ba98164",
					"RECOVERY_ROLE()": "31993a1c",
					"adminAssignExcessToUser(address,uint256)": "f38048b7",
					"adminReassignVault(address,address,uint256)": "c265f47e",
					"adminTopUpUser(address)": "9f188164",
					"adminWithdrawFromUser(address,address,uint256)": "56bf180e",
					"bankCap()": "ecbea24d",
					"deposit()": "d0e30db0",
					"depositCount()": "2dfdf0b5",
					"depositERC20(address,uint256)": "97feb926",
					"ethUsdFeed()": "8009b7bd",
					"getEthUsdPrice8()": "8367df3f",
					"getRoleAdmin(bytes32)": "248a9ca3",
					"getVaultBalance()": "ed12e8ef",
					"getVaultBalanceERC20(address)": "dc884360",
					"grantRole(bytes32,address)": "2f2ff15d",
					"hasRole(bytes32,address)": "91d14854",
					"owner()": "8da5cb5b",
					"quoteWeiInUsd8(uint256)": "06c0427e",
					"renounceRole(bytes32,address)": "36568abe",
					"revokeRole(bytes32,address)": "d547741f",
					"setBankCap(uint256)": "31eab30f",
					"setTokenCap(address,uint256)": "1d47e4a3",
					"supportsInterface(bytes4)": "01ffc9a7",
					"tokenCap(address)": "7bcd4ff0",
					"totalBankBalance()": "1977e938",
					"totalTokenBalance(address)": "f5465992",
					"withdraw(uint256)": "2e1a7d4d",
					"withdrawERC20(address,uint256)": "a1db9782",
					"withdrawalCount()": "71706cbe",
					"withdrawalLimit()": "7ddfe78d"
				}
			},
			"storageLayout": {
				"storage": [
					{
						"astId": 132,
						"contract": "contracts/KipuBank.sol:KipuBank",
						"label": "_roles",
						"offset": 0,
						"slot": "0",
						"type": "t_mapping(t_bytes32,t_struct(RoleData)127_storage)"
					},
					{
						"astId": 1202,
						"contract": "contracts/KipuBank.sol:KipuBank",
						"label": "ethUsdFeed",
						"offset": 0,
						"slot": "1",
						"type": "t_contract(AggregatorV3Interface)104"
					},
					{
						"astId": 1212,
						"contract": "contracts/KipuBank.sol:KipuBank",
						"label": "owner",
						"offset": 0,
						"slot": "2",
						"type": "t_address"
					},
					{
						"astId": 1216,
						"contract": "contracts/KipuBank.sol:KipuBank",
						"label": "bankCap",
						"offset": 0,
						"slot": "3",
						"type": "t_uint256"
					},
					{
						"astId": 1220,
						"contract": "contracts/KipuBank.sol:KipuBank",
						"label": "vaults",
						"offset": 0,
						"slot": "4",
						"type": "t_mapping(t_address,t_uint256)"
					},
					{
						"astId": 1222,
						"contract": "contracts/KipuBank.sol:KipuBank",
						"label": "totalBankBalance",
						"offset": 0,
						"slot": "5",
						"type": "t_uint256"
					},
					{
						"astId": 1224,
						"contract": "contracts/KipuBank.sol:KipuBank",
						"label": "depositCount",
						"offset": 0,
						"slot": "6",
						"type": "t_uint256"
					},
					{
						"astId": 1226,
						"contract": "contracts/KipuBank.sol:KipuBank",
						"label": "withdrawalCount",
						"offset": 0,
						"slot": "7",
						"type": "t_uint256"
					},
					{
						"astId": 1232,
						"contract": "contracts/KipuBank.sol:KipuBank",
						"label": "erc20Vaults",
						"offset": 0,
						"slot": "8",
						"type": "t_mapping(t_address,t_mapping(t_address,t_uint256))"
					},
					{
						"astId": 1236,
						"contract": "contracts/KipuBank.sol:KipuBank",
						"label": "totalTokenBalance",
						"offset": 0,
						"slot": "9",
						"type": "t_mapping(t_address,t_uint256)"
					},
					{
						"astId": 1240,
						"contract": "contracts/KipuBank.sol:KipuBank",
						"label": "tokenCap",
						"offset": 0,
						"slot": "10",
						"type": "t_mapping(t_address,t_uint256)"
					}
				],
				"types": {
					"t_address": {
						"encoding": "inplace",
						"label": "address",
						"numberOfBytes": "20"
					},
					"t_bool": {
						"encoding": "inplace",
						"label": "bool",
						"numberOfBytes": "1"
					},
					"t_bytes32": {
						"encoding": "inplace",
						"label": "bytes32",
						"numberOfBytes": "32"
					},
					"t_contract(AggregatorV3Interface)104": {
						"encoding": "inplace",
						"label": "contract AggregatorV3Interface",
						"numberOfBytes": "20"
					},
					"t_mapping(t_address,t_bool)": {
						"encoding": "mapping",
						"key": "t_address",
						"label": "mapping(address => bool)",
						"numberOfBytes": "32",
						"value": "t_bool"
					},
					"t_mapping(t_address,t_mapping(t_address,t_uint256))": {
						"encoding": "mapping",
						"key": "t_address",
						"label": "mapping(address => mapping(address => uint256))",
						"numberOfBytes": "32",
						"value": "t_mapping(t_address,t_uint256)"
					},
					"t_mapping(t_address,t_uint256)": {
						"encoding": "mapping",
						"key": "t_address",
						"label": "mapping(address => uint256)",
						"numberOfBytes": "32",
						"value": "t_uint256"
					},
					"t_mapping(t_bytes32,t_struct(RoleData)127_storage)": {
						"encoding": "mapping",
						"key": "t_bytes32",
						"label": "mapping(bytes32 => struct AccessControl.RoleData)",
						"numberOfBytes": "32",
						"value": "t_struct(RoleData)127_storage"
					},
					"t_struct(RoleData)127_storage": {
						"encoding": "inplace",
						"label": "struct AccessControl.RoleData",
						"members": [
							{
								"astId": 124,
								"contract": "contracts/KipuBank.sol:KipuBank",
								"label": "hasRole",
								"offset": 0,
								"slot": "0",
								"type": "t_mapping(t_address,t_bool)"
							},
							{
								"astId": 126,
								"contract": "contracts/KipuBank.sol:KipuBank",
								"label": "adminRole",
								"offset": 0,
								"slot": "1",
								"type": "t_bytes32"
							}
						],
						"numberOfBytes": "64"
					},
					"t_uint256": {
						"encoding": "inplace",
						"label": "uint256",
						"numberOfBytes": "32"
					}
				}
			},
			"userdoc": {
				"kind": "user",
				"methods": {
					"adminAssignExcessToUser(address,uint256)": {
						"notice": "+ V2 UpdateAssigns to a user part of the ETH that entered the contract through external means (e.g., force-send)."
					},
					"adminReassignVault(address,address,uint256)": {
						"notice": "+ V2 UpdateReassigns vault balance from one user to another without changing the bank total."
					},
					"adminTopUpUser(address)": {
						"notice": "+ V2 UpdateAdmin tops up a user's vault by sending ETH along with the call."
					},
					"adminWithdrawFromUser(address,address,uint256)": {
						"notice": "+ V2 UpdateAdmin withdraws from a user's vault and sends the ETH to a recipient."
					},
					"constructor": {
						"notice": "+ V2 Update - Set the contract owner as admin and add a role to recover foundsInitializes the KipuBank contract with a bank capacity and a withdrawal limit."
					},
					"deposit()": {
						"notice": "Allows a user to deposit ETH into their personal vault. The amount is determined by the value sent with the transaction (`msg.value`). The transaction will revert if the deposit amount is zero or if it exceeds the bank's capacity."
					},
					"depositERC20(address,uint256)": {
						"notice": "+ V2 UpdateDeposits an ERC-20 token into the caller's vault."
					},
					"getEthUsdPrice8()": {
						"notice": "+ V2 UpdateReturns the ETH/USD price with 8 decimal places (e.g., 2_500.12345678 => 250012345678)."
					},
					"getVaultBalance()": {
						"notice": "Retrieves the ETH balance of the caller's personal vault."
					},
					"getVaultBalanceERC20(address)": {
						"notice": "+ V2 UpdateReturns the vault balance for an ERC-20 token."
					},
					"quoteWeiInUsd8(uint256)": {
						"notice": "+ V2 UpdateConverts a value in wei to USD with 8 decimal places, using the price feed."
					},
					"setBankCap(uint256)": {
						"notice": "Allows the owner to update the bank's capacity."
					},
					"setTokenCap(address,uint256)": {
						"notice": "+ V2 UpdateSets/updates the cap for an ERC-20 token (0 = no limit)."
					},
					"withdraw(uint256)": {
						"notice": "Allows a user to withdraw a specified amount of ETH from their vault."
					},
					"withdrawERC20(address,uint256)": {
						"notice": "+ V2 UpdateWithdraws an ERC-20 token from the caller's vault."
					}
				},
				"version": 1
			}
		}
	}
}