{
	"contracts/KipuBank.sol": {
		"KipuBank": {
			"abi": [
				{
					"inputs": [
						{
							"internalType": "uint256",
							"name": "_bankCap",
							"type": "uint256"
						},
						{
							"internalType": "uint256",
							"name": "_withdrawalLimit",
							"type": "uint256"
						}
					],
					"stateMutability": "nonpayable",
					"type": "constructor"
				},
				{
					"inputs": [],
					"name": "AmountMustBeGreaterThanZero",
					"type": "error"
				},
				{
					"inputs": [
						{
							"internalType": "uint256",
							"name": "availableSpace",
							"type": "uint256"
						},
						{
							"internalType": "uint256",
							"name": "amount",
							"type": "uint256"
						}
					],
					"name": "BankCapExceeded",
					"type": "error"
				},
				{
					"inputs": [
						{
							"internalType": "uint256",
							"name": "available",
							"type": "uint256"
						},
						{
							"internalType": "uint256",
							"name": "requested",
							"type": "uint256"
						}
					],
					"name": "InsufficientBalance",
					"type": "error"
				},
				{
					"inputs": [],
					"name": "NotOwner",
					"type": "error"
				},
				{
					"inputs": [],
					"name": "TransferFailed",
					"type": "error"
				},
				{
					"inputs": [
						{
							"internalType": "uint256",
							"name": "requested",
							"type": "uint256"
						},
						{
							"internalType": "uint256",
							"name": "limit",
							"type": "uint256"
						}
					],
					"name": "WithdrawalLimitExceeded",
					"type": "error"
				},
				{
					"anonymous": false,
					"inputs": [
						{
							"indexed": false,
							"internalType": "uint256",
							"name": "newCap",
							"type": "uint256"
						}
					],
					"name": "BankCapUpdated",
					"type": "event"
				},
				{
					"anonymous": false,
					"inputs": [
						{
							"indexed": true,
							"internalType": "address",
							"name": "user",
							"type": "address"
						},
						{
							"indexed": false,
							"internalType": "uint256",
							"name": "amount",
							"type": "uint256"
						}
					],
					"name": "Deposit",
					"type": "event"
				},
				{
					"anonymous": false,
					"inputs": [
						{
							"indexed": true,
							"internalType": "address",
							"name": "user",
							"type": "address"
						},
						{
							"indexed": false,
							"internalType": "uint256",
							"name": "amount",
							"type": "uint256"
						}
					],
					"name": "Withdrawal",
					"type": "event"
				},
				{
					"inputs": [],
					"name": "bankCap",
					"outputs": [
						{
							"internalType": "uint256",
							"name": "",
							"type": "uint256"
						}
					],
					"stateMutability": "view",
					"type": "function"
				},
				{
					"inputs": [],
					"name": "deposit",
					"outputs": [],
					"stateMutability": "payable",
					"type": "function"
				},
				{
					"inputs": [],
					"name": "depositCount",
					"outputs": [
						{
							"internalType": "uint256",
							"name": "",
							"type": "uint256"
						}
					],
					"stateMutability": "view",
					"type": "function"
				},
				{
					"inputs": [],
					"name": "getVaultBalance",
					"outputs": [
						{
							"internalType": "uint256",
							"name": "",
							"type": "uint256"
						}
					],
					"stateMutability": "view",
					"type": "function"
				},
				{
					"inputs": [],
					"name": "owner",
					"outputs": [
						{
							"internalType": "address",
							"name": "",
							"type": "address"
						}
					],
					"stateMutability": "view",
					"type": "function"
				},
				{
					"inputs": [
						{
							"internalType": "uint256",
							"name": "_newCap",
							"type": "uint256"
						}
					],
					"name": "setBankCap",
					"outputs": [],
					"stateMutability": "nonpayable",
					"type": "function"
				},
				{
					"inputs": [],
					"name": "totalBankBalance",
					"outputs": [
						{
							"internalType": "uint256",
							"name": "",
							"type": "uint256"
						}
					],
					"stateMutability": "view",
					"type": "function"
				},
				{
					"inputs": [
						{
							"internalType": "uint256",
							"name": "_amount",
							"type": "uint256"
						}
					],
					"name": "withdraw",
					"outputs": [],
					"stateMutability": "nonpayable",
					"type": "function"
				},
				{
					"inputs": [],
					"name": "withdrawalCount",
					"outputs": [
						{
							"internalType": "uint256",
							"name": "",
							"type": "uint256"
						}
					],
					"stateMutability": "view",
					"type": "function"
				},
				{
					"inputs": [],
					"name": "withdrawalLimit",
					"outputs": [
						{
							"internalType": "uint256",
							"name": "",
							"type": "uint256"
						}
					],
					"stateMutability": "view",
					"type": "function"
				}
			],
			"devdoc": {
				"author": "Rafael Euclides Damasco",
				"errors": {
					"BankCapExceeded(uint256,uint256)": [
						{
							"params": {
								"amount": "The amount the user tried to deposit.",
								"availableSpace": "The remaining ETH capacity of the bank."
							}
						}
					],
					"InsufficientBalance(uint256,uint256)": [
						{
							"params": {
								"available": "The user's current vault balance.",
								"requested": "The amount the user tried to withdraw."
							}
						}
					],
					"WithdrawalLimitExceeded(uint256,uint256)": [
						{
							"params": {
								"limit": "The maximum allowed withdrawal amount.",
								"requested": "The amount the user tried to withdraw."
							}
						}
					]
				},
				"events": {
					"BankCapUpdated(uint256)": {
						"params": {
							"newCap": "The new bank capacity in wei."
						}
					},
					"Deposit(address,uint256)": {
						"params": {
							"amount": "The amount of ETH deposited in wei.",
							"user": "The address of the user who deposited."
						}
					},
					"Withdrawal(address,uint256)": {
						"params": {
							"amount": "The amount of ETH withdrawn in wei.",
							"user": "The address of the user who withdrew."
						}
					}
				},
				"kind": "dev",
				"methods": {
					"constructor": {
						"params": {
							"_bankCap": "The maximum total ETH the bank can hold.",
							"_withdrawalLimit": "The maximum ETH per withdrawal transaction."
						}
					},
					"getVaultBalance()": {
						"returns": {
							"_0": "The amount of ETH in wei."
						}
					},
					"setBankCap(uint256)": {
						"params": {
							"_newCap": "The new capacity for the bank."
						}
					},
					"withdraw(uint256)": {
						"params": {
							"_amount": "The amount of ETH to withdraw. The transaction will revert if the amount is zero, exceeds the user's balance, or is greater than the single transaction withdrawal limit."
						}
					}
				},
				"title": "KipuBank",
				"version": 1
			},
			"evm": {
				"assembly": "    /* \"contracts/KipuBank.sol\":217:6736  contract KipuBank {... */\n  mstore(0x40, 0xa0)\n    /* \"contracts/KipuBank.sol\":4059:4222  constructor(uint256 _bankCap, uint256 _withdrawalLimit) {... */\n  callvalue\n  dup1\n  iszero\n  tag_1\n  jumpi\n  revert(0x00, 0x00)\ntag_1:\n  pop\n  mload(0x40)\n  sub(codesize, bytecodeSize)\n  dup1\n  bytecodeSize\n  dup4\n  codecopy\n  dup2\n  dup2\n  add\n  0x40\n  mstore\n  dup2\n  add\n  swap1\n  tag_2\n  swap2\n  swap1\n  tag_3\n  jump\t// in\ntag_2:\n    /* \"contracts/KipuBank.sol\":4133:4143  msg.sender */\n  caller\n    /* \"contracts/KipuBank.sol\":4125:4130  owner */\n  0x00\n  0x00\n    /* \"contracts/KipuBank.sol\":4125:4143  owner = msg.sender */\n  0x0100\n  exp\n  dup2\n  sload\n  dup2\n  0xffffffffffffffffffffffffffffffffffffffff\n  mul\n  not\n  and\n  swap1\n  dup4\n  0xffffffffffffffffffffffffffffffffffffffff\n  and\n  mul\n  or\n  swap1\n  sstore\n  pop\n    /* \"contracts/KipuBank.sol\":4163:4171  _bankCap */\n  dup2\n    /* \"contracts/KipuBank.sol\":4153:4160  bankCap */\n  0x01\n    /* \"contracts/KipuBank.sol\":4153:4171  bankCap = _bankCap */\n  dup2\n  swap1\n  sstore\n  pop\n    /* \"contracts/KipuBank.sol\":4199:4215  _withdrawalLimit */\n  dup1\n    /* \"contracts/KipuBank.sol\":4181:4215  withdrawalLimit = _withdrawalLimit */\n  0x80\n  dup2\n  dup2\n  mstore\n  pop\n  pop\n    /* \"contracts/KipuBank.sol\":4059:4222  constructor(uint256 _bankCap, uint256 _withdrawalLimit) {... */\n  pop\n  pop\n    /* \"contracts/KipuBank.sol\":217:6736  contract KipuBank {... */\n  jump(tag_6)\n    /* \"#utility.yul\":88:205   */\ntag_8:\n    /* \"#utility.yul\":197:198   */\n  0x00\n    /* \"#utility.yul\":194:195   */\n  0x00\n    /* \"#utility.yul\":187:199   */\n  revert\n    /* \"#utility.yul\":334:411   */\ntag_10:\n    /* \"#utility.yul\":371:378   */\n  0x00\n    /* \"#utility.yul\":400:405   */\n  dup2\n    /* \"#utility.yul\":389:405   */\n  swap1\n  pop\n    /* \"#utility.yul\":334:411   */\n  swap2\n  swap1\n  pop\n  jump\t// out\n    /* \"#utility.yul\":417:539   */\ntag_11:\n    /* \"#utility.yul\":490:514   */\n  tag_19\n    /* \"#utility.yul\":508:513   */\n  dup2\n    /* \"#utility.yul\":490:514   */\n  tag_10\n  jump\t// in\ntag_19:\n    /* \"#utility.yul\":483:488   */\n  dup2\n    /* \"#utility.yul\":480:515   */\n  eq\n    /* \"#utility.yul\":470:533   */\n  tag_20\n  jumpi\n    /* \"#utility.yul\":529:530   */\n  0x00\n    /* \"#utility.yul\":526:527   */\n  0x00\n    /* \"#utility.yul\":519:531   */\n  revert\n    /* \"#utility.yul\":470:533   */\ntag_20:\n    /* \"#utility.yul\":417:539   */\n  pop\n  jump\t// out\n    /* \"#utility.yul\":545:688   */\ntag_12:\n    /* \"#utility.yul\":602:607   */\n  0x00\n    /* \"#utility.yul\":633:639   */\n  dup2\n    /* \"#utility.yul\":627:640   */\n  mload\n    /* \"#utility.yul\":618:640   */\n  swap1\n  pop\n    /* \"#utility.yul\":649:682   */\n  tag_22\n    /* \"#utility.yul\":676:681   */\n  dup2\n    /* \"#utility.yul\":649:682   */\n  tag_11\n  jump\t// in\ntag_22:\n    /* \"#utility.yul\":545:688   */\n  swap3\n  swap2\n  pop\n  pop\n  jump\t// out\n    /* \"#utility.yul\":694:1201   */\ntag_3:\n    /* \"#utility.yul\":773:779   */\n  0x00\n    /* \"#utility.yul\":781:787   */\n  0x00\n    /* \"#utility.yul\":830:832   */\n  0x40\n    /* \"#utility.yul\":818:827   */\n  dup4\n    /* \"#utility.yul\":809:816   */\n  dup6\n    /* \"#utility.yul\":805:828   */\n  sub\n    /* \"#utility.yul\":801:833   */\n  slt\n    /* \"#utility.yul\":798:917   */\n  iszero\n  tag_24\n  jumpi\n    /* \"#utility.yul\":836:915   */\n  tag_25\n  tag_8\n  jump\t// in\ntag_25:\n    /* \"#utility.yul\":798:917   */\ntag_24:\n    /* \"#utility.yul\":956:957   */\n  0x00\n    /* \"#utility.yul\":981:1045   */\n  tag_26\n    /* \"#utility.yul\":1037:1044   */\n  dup6\n    /* \"#utility.yul\":1028:1034   */\n  dup3\n    /* \"#utility.yul\":1017:1026   */\n  dup7\n    /* \"#utility.yul\":1013:1035   */\n  add\n    /* \"#utility.yul\":981:1045   */\n  tag_12\n  jump\t// in\ntag_26:\n    /* \"#utility.yul\":971:1045   */\n  swap3\n  pop\n    /* \"#utility.yul\":927:1055   */\n  pop\n    /* \"#utility.yul\":1094:1096   */\n  0x20\n    /* \"#utility.yul\":1120:1184   */\n  tag_27\n    /* \"#utility.yul\":1176:1183   */\n  dup6\n    /* \"#utility.yul\":1167:1173   */\n  dup3\n    /* \"#utility.yul\":1156:1165   */\n  dup7\n    /* \"#utility.yul\":1152:1174   */\n  add\n    /* \"#utility.yul\":1120:1184   */\n  tag_12\n  jump\t// in\ntag_27:\n    /* \"#utility.yul\":1110:1184   */\n  swap2\n  pop\n    /* \"#utility.yul\":1065:1194   */\n  pop\n    /* \"#utility.yul\":694:1201   */\n  swap3\n  pop\n  swap3\n  swap1\n  pop\n  jump\t// out\n    /* \"contracts/KipuBank.sol\":217:6736  contract KipuBank {... */\ntag_6:\n  mload(0x80)\n  codecopy(0x00, dataOffset(sub_0), dataSize(sub_0))\n  0x00\n  assignImmutable(\"0xe4b1702d9298fee62dfeccc57d322a463ad55ca201256d01f62b45b2e1c21c10\")\n  return(0x00, dataSize(sub_0))\nstop\n\nsub_0: assembly {\n        /* \"contracts/KipuBank.sol\":217:6736  contract KipuBank {... */\n      mstore(0x40, 0x80)\n      jumpi(tag_1, lt(calldatasize, 0x04))\n      shr(0xe0, calldataload(0x00))\n      dup1\n      0x7ddfe78d\n      gt\n      tag_12\n      jumpi\n      dup1\n      0x7ddfe78d\n      eq\n      tag_7\n      jumpi\n      dup1\n      0x8da5cb5b\n      eq\n      tag_8\n      jumpi\n      dup1\n      0xd0e30db0\n      eq\n      tag_9\n      jumpi\n      dup1\n      0xecbea24d\n      eq\n      tag_10\n      jumpi\n      dup1\n      0xed12e8ef\n      eq\n      tag_11\n      jumpi\n      jump(tag_1)\n    tag_12:\n      dup1\n      0x1977e938\n      eq\n      tag_2\n      jumpi\n      dup1\n      0x2dfdf0b5\n      eq\n      tag_3\n      jumpi\n      dup1\n      0x2e1a7d4d\n      eq\n      tag_4\n      jumpi\n      dup1\n      0x31eab30f\n      eq\n      tag_5\n      jumpi\n      dup1\n      0x71706cbe\n      eq\n      tag_6\n      jumpi\n    tag_1:\n      revert(0x00, 0x00)\n        /* \"contracts/KipuBank.sol\":1073:1104  uint256 public totalBankBalance */\n    tag_2:\n      callvalue\n      dup1\n      iszero\n      tag_13\n      jumpi\n      revert(0x00, 0x00)\n    tag_13:\n      pop\n      tag_14\n      tag_15\n      jump\t// in\n    tag_14:\n      mload(0x40)\n      tag_16\n      swap2\n      swap1\n      tag_17\n      jump\t// in\n    tag_16:\n      mload(0x40)\n      dup1\n      swap2\n      sub\n      swap1\n      return\n        /* \"contracts/KipuBank.sol\":1201:1228  uint256 public depositCount */\n    tag_3:\n      callvalue\n      dup1\n      iszero\n      tag_18\n      jumpi\n      revert(0x00, 0x00)\n    tag_18:\n      pop\n      tag_19\n      tag_20\n      jump\t// in\n    tag_19:\n      mload(0x40)\n      tag_21\n      swap2\n      swap1\n      tag_17\n      jump\t// in\n    tag_21:\n      mload(0x40)\n      dup1\n      swap2\n      sub\n      swap1\n      return\n        /* \"contracts/KipuBank.sol\":5497:6046  function withdraw(uint256 _amount) external nonZeroAmount(_amount) {... */\n    tag_4:\n      callvalue\n      dup1\n      iszero\n      tag_22\n      jumpi\n      revert(0x00, 0x00)\n    tag_22:\n      pop\n      tag_23\n      0x04\n      dup1\n      calldatasize\n      sub\n      dup2\n      add\n      swap1\n      tag_24\n      swap2\n      swap1\n      tag_25\n      jump\t// in\n    tag_24:\n      tag_26\n      jump\t// in\n    tag_23:\n      stop\n        /* \"contracts/KipuBank.sol\":4360:4488  function setBankCap(uint256 _newCap) external onlyOwner {... */\n    tag_5:\n      callvalue\n      dup1\n      iszero\n      tag_27\n      jumpi\n      revert(0x00, 0x00)\n    tag_27:\n      pop\n      tag_28\n      0x04\n      dup1\n      calldatasize\n      sub\n      dup2\n      add\n      swap1\n      tag_29\n      swap2\n      swap1\n      tag_25\n      jump\t// in\n    tag_29:\n      tag_30\n      jump\t// in\n    tag_28:\n      stop\n        /* \"contracts/KipuBank.sol\":1330:1360  uint256 public withdrawalCount */\n    tag_6:\n      callvalue\n      dup1\n      iszero\n      tag_31\n      jumpi\n      revert(0x00, 0x00)\n    tag_31:\n      pop\n      tag_32\n      tag_33\n      jump\t// in\n    tag_32:\n      mload(0x40)\n      tag_34\n      swap2\n      swap1\n      tag_17\n      jump\t// in\n    tag_34:\n      mload(0x40)\n      dup1\n      swap2\n      sub\n      swap1\n      return\n        /* \"contracts/KipuBank.sol\":655:695  uint256 public immutable withdrawalLimit */\n    tag_7:\n      callvalue\n      dup1\n      iszero\n      tag_35\n      jumpi\n      revert(0x00, 0x00)\n    tag_35:\n      pop\n      tag_36\n      tag_37\n      jump\t// in\n    tag_36:\n      mload(0x40)\n      tag_38\n      swap2\n      swap1\n      tag_17\n      jump\t// in\n    tag_38:\n      mload(0x40)\n      dup1\n      swap2\n      sub\n      swap1\n      return\n        /* \"contracts/KipuBank.sol\":513:533  address public owner */\n    tag_8:\n      callvalue\n      dup1\n      iszero\n      tag_39\n      jumpi\n      revert(0x00, 0x00)\n    tag_39:\n      pop\n      tag_40\n      tag_41\n      jump\t// in\n    tag_40:\n      mload(0x40)\n      tag_42\n      swap2\n      swap1\n      tag_43\n      jump\t// in\n    tag_42:\n      mload(0x40)\n      dup1\n      swap2\n      sub\n      swap1\n      return\n        /* \"contracts/KipuBank.sol\":4770:5184  function deposit() external payable nonZeroAmount(msg.value) {... */\n    tag_9:\n      tag_44\n      tag_45\n      jump\t// in\n    tag_44:\n      stop\n        /* \"contracts/KipuBank.sol\":819:841  uint256 public bankCap */\n    tag_10:\n      callvalue\n      dup1\n      iszero\n      tag_46\n      jumpi\n      revert(0x00, 0x00)\n    tag_46:\n      pop\n      tag_47\n      tag_48\n      jump\t// in\n    tag_47:\n      mload(0x40)\n      tag_49\n      swap2\n      swap1\n      tag_17\n      jump\t// in\n    tag_49:\n      mload(0x40)\n      dup1\n      swap2\n      sub\n      swap1\n      return\n        /* \"contracts/KipuBank.sol\":6182:6283  function getVaultBalance() external view returns (uint256) {... */\n    tag_11:\n      callvalue\n      dup1\n      iszero\n      tag_50\n      jumpi\n      revert(0x00, 0x00)\n    tag_50:\n      pop\n      tag_51\n      tag_52\n      jump\t// in\n    tag_51:\n      mload(0x40)\n      tag_53\n      swap2\n      swap1\n      tag_17\n      jump\t// in\n    tag_53:\n      mload(0x40)\n      dup1\n      swap2\n      sub\n      swap1\n      return\n        /* \"contracts/KipuBank.sol\":1073:1104  uint256 public totalBankBalance */\n    tag_15:\n      sload(0x03)\n      dup2\n      jump\t// out\n        /* \"contracts/KipuBank.sol\":1201:1228  uint256 public depositCount */\n    tag_20:\n      sload(0x04)\n      dup2\n      jump\t// out\n        /* \"contracts/KipuBank.sol\":5497:6046  function withdraw(uint256 _amount) external nonZeroAmount(_amount) {... */\n    tag_26:\n        /* \"contracts/KipuBank.sol\":5555:5562  _amount */\n      dup1\n        /* \"contracts/KipuBank.sol\":3723:3724  0 */\n      0x00\n        /* \"contracts/KipuBank.sol\":3712:3719  _amount */\n      dup2\n        /* \"contracts/KipuBank.sol\":3712:3724  _amount == 0 */\n      sub\n        /* \"contracts/KipuBank.sol\":3708:3787  if (_amount == 0) {... */\n      tag_55\n      jumpi\n        /* \"contracts/KipuBank.sol\":3747:3776  AmountMustBeGreaterThanZero() */\n      mload(0x40)\n      0x5e85ae7300000000000000000000000000000000000000000000000000000000\n      dup2\n      mstore\n      0x04\n      add\n      mload(0x40)\n      dup1\n      swap2\n      sub\n      swap1\n      revert\n        /* \"contracts/KipuBank.sol\":3708:3787  if (_amount == 0) {... */\n    tag_55:\n        /* \"contracts/KipuBank.sol\":5588:5603  withdrawalLimit */\n      immutable(\"0xe4b1702d9298fee62dfeccc57d322a463ad55ca201256d01f62b45b2e1c21c10\")\n        /* \"contracts/KipuBank.sol\":5578:5585  _amount */\n      dup3\n        /* \"contracts/KipuBank.sol\":5578:5603  _amount > withdrawalLimit */\n      gt\n        /* \"contracts/KipuBank.sol\":5574:5686  if (_amount > withdrawalLimit) {... */\n      iszero\n      tag_57\n      jumpi\n        /* \"contracts/KipuBank.sol\":5650:5657  _amount */\n      dup2\n        /* \"contracts/KipuBank.sol\":5659:5674  withdrawalLimit */\n      immutable(\"0xe4b1702d9298fee62dfeccc57d322a463ad55ca201256d01f62b45b2e1c21c10\")\n        /* \"contracts/KipuBank.sol\":5626:5675  WithdrawalLimitExceeded(_amount, withdrawalLimit) */\n      mload(0x40)\n      0xb945e2d800000000000000000000000000000000000000000000000000000000\n      dup2\n      mstore\n      0x04\n      add\n      tag_58\n      swap3\n      swap2\n      swap1\n      tag_59\n      jump\t// in\n    tag_58:\n      mload(0x40)\n      dup1\n      swap2\n      sub\n      swap1\n      revert\n        /* \"contracts/KipuBank.sol\":5574:5686  if (_amount > withdrawalLimit) {... */\n    tag_57:\n        /* \"contracts/KipuBank.sol\":5695:5714  uint256 userBalance */\n      0x00\n        /* \"contracts/KipuBank.sol\":5717:5723  vaults */\n      0x02\n        /* \"contracts/KipuBank.sol\":5717:5735  vaults[msg.sender] */\n      0x00\n        /* \"contracts/KipuBank.sol\":5724:5734  msg.sender */\n      caller\n        /* \"contracts/KipuBank.sol\":5717:5735  vaults[msg.sender] */\n      0xffffffffffffffffffffffffffffffffffffffff\n      and\n      0xffffffffffffffffffffffffffffffffffffffff\n      and\n      dup2\n      mstore\n      0x20\n      add\n      swap1\n      dup2\n      mstore\n      0x20\n      add\n      0x00\n      keccak256\n      sload\n        /* \"contracts/KipuBank.sol\":5695:5735  uint256 userBalance = vaults[msg.sender] */\n      swap1\n      pop\n        /* \"contracts/KipuBank.sol\":5759:5770  userBalance */\n      dup1\n        /* \"contracts/KipuBank.sol\":5749:5756  _amount */\n      dup4\n        /* \"contracts/KipuBank.sol\":5749:5770  _amount > userBalance */\n      gt\n        /* \"contracts/KipuBank.sol\":5745:5845  if (_amount > userBalance) {... */\n      iszero\n      tag_60\n      jumpi\n        /* \"contracts/KipuBank.sol\":5813:5824  userBalance */\n      dup1\n        /* \"contracts/KipuBank.sol\":5826:5833  _amount */\n      dup4\n        /* \"contracts/KipuBank.sol\":5793:5834  InsufficientBalance(userBalance, _amount) */\n      mload(0x40)\n      0xcf47918100000000000000000000000000000000000000000000000000000000\n      dup2\n      mstore\n      0x04\n      add\n      tag_61\n      swap3\n      swap2\n      swap1\n      tag_59\n      jump\t// in\n    tag_61:\n      mload(0x40)\n      dup1\n      swap2\n      sub\n      swap1\n      revert\n        /* \"contracts/KipuBank.sol\":5745:5845  if (_amount > userBalance) {... */\n    tag_60:\n        /* \"contracts/KipuBank.sol\":5877:5884  _amount */\n      dup3\n        /* \"contracts/KipuBank.sol\":5855:5861  vaults */\n      0x02\n        /* \"contracts/KipuBank.sol\":5855:5873  vaults[msg.sender] */\n      0x00\n        /* \"contracts/KipuBank.sol\":5862:5872  msg.sender */\n      caller\n        /* \"contracts/KipuBank.sol\":5855:5873  vaults[msg.sender] */\n      0xffffffffffffffffffffffffffffffffffffffff\n      and\n      0xffffffffffffffffffffffffffffffffffffffff\n      and\n      dup2\n      mstore\n      0x20\n      add\n      swap1\n      dup2\n      mstore\n      0x20\n      add\n      0x00\n      keccak256\n      0x00\n        /* \"contracts/KipuBank.sol\":5855:5884  vaults[msg.sender] -= _amount */\n      dup3\n      dup3\n      sload\n      tag_62\n      swap2\n      swap1\n      tag_63\n      jump\t// in\n    tag_62:\n      swap3\n      pop\n      pop\n      dup2\n      swap1\n      sstore\n      pop\n        /* \"contracts/KipuBank.sol\":5914:5921  _amount */\n      dup3\n        /* \"contracts/KipuBank.sol\":5894:5910  totalBankBalance */\n      0x03\n      0x00\n        /* \"contracts/KipuBank.sol\":5894:5921  totalBankBalance -= _amount */\n      dup3\n      dup3\n      sload\n      tag_64\n      swap2\n      swap1\n      tag_63\n      jump\t// in\n    tag_64:\n      swap3\n      pop\n      pop\n      dup2\n      swap1\n      sstore\n      pop\n        /* \"contracts/KipuBank.sol\":5931:5946  withdrawalCount */\n      0x05\n      0x00\n        /* \"contracts/KipuBank.sol\":5931:5948  withdrawalCount++ */\n      dup2\n      sload\n      dup1\n      swap3\n      swap2\n      swap1\n      tag_65\n      swap1\n      tag_66\n      jump\t// in\n    tag_65:\n      swap2\n      swap1\n      pop\n      sstore\n      pop\n        /* \"contracts/KipuBank.sol\":5959:5993  _safeTransfer(msg.sender, _amount) */\n      tag_67\n        /* \"contracts/KipuBank.sol\":5973:5983  msg.sender */\n      caller\n        /* \"contracts/KipuBank.sol\":5985:5992  _amount */\n      dup5\n        /* \"contracts/KipuBank.sol\":5959:5972  _safeTransfer */\n      tag_68\n        /* \"contracts/KipuBank.sol\":5959:5993  _safeTransfer(msg.sender, _amount) */\n      jump\t// in\n    tag_67:\n        /* \"contracts/KipuBank.sol\":6019:6029  msg.sender */\n      caller\n        /* \"contracts/KipuBank.sol\":6008:6039  Withdrawal(msg.sender, _amount) */\n      0xffffffffffffffffffffffffffffffffffffffff\n      and\n      0x7fcf532c15f0a6db0bd6d0e038bea71d30d808c7d98cb3bf7268a95bf5081b65\n        /* \"contracts/KipuBank.sol\":6031:6038  _amount */\n      dup5\n        /* \"contracts/KipuBank.sol\":6008:6039  Withdrawal(msg.sender, _amount) */\n      mload(0x40)\n      tag_69\n      swap2\n      swap1\n      tag_17\n      jump\t// in\n    tag_69:\n      mload(0x40)\n      dup1\n      swap2\n      sub\n      swap1\n      log2\n        /* \"contracts/KipuBank.sol\":5564:6046  {... */\n      pop\n        /* \"contracts/KipuBank.sol\":5497:6046  function withdraw(uint256 _amount) external nonZeroAmount(_amount) {... */\n      pop\n      pop\n      jump\t// out\n        /* \"contracts/KipuBank.sol\":4360:4488  function setBankCap(uint256 _newCap) external onlyOwner {... */\n    tag_30:\n        /* \"contracts/KipuBank.sol\":3459:3464  owner */\n      0x00\n      0x00\n      swap1\n      sload\n      swap1\n      0x0100\n      exp\n      swap1\n      div\n      0xffffffffffffffffffffffffffffffffffffffff\n      and\n        /* \"contracts/KipuBank.sol\":3445:3464  msg.sender != owner */\n      0xffffffffffffffffffffffffffffffffffffffff\n      and\n        /* \"contracts/KipuBank.sol\":3445:3455  msg.sender */\n      caller\n        /* \"contracts/KipuBank.sol\":3445:3464  msg.sender != owner */\n      0xffffffffffffffffffffffffffffffffffffffff\n      and\n      eq\n        /* \"contracts/KipuBank.sol\":3441:3508  if (msg.sender != owner) {... */\n      tag_71\n      jumpi\n        /* \"contracts/KipuBank.sol\":3487:3497  NotOwner() */\n      mload(0x40)\n      0x30cd747100000000000000000000000000000000000000000000000000000000\n      dup2\n      mstore\n      0x04\n      add\n      mload(0x40)\n      dup1\n      swap2\n      sub\n      swap1\n      revert\n        /* \"contracts/KipuBank.sol\":3441:3508  if (msg.sender != owner) {... */\n    tag_71:\n        /* \"contracts/KipuBank.sol\":4436:4443  _newCap */\n      dup1\n        /* \"contracts/KipuBank.sol\":4426:4433  bankCap */\n      0x01\n        /* \"contracts/KipuBank.sol\":4426:4443  bankCap = _newCap */\n      dup2\n      swap1\n      sstore\n      pop\n        /* \"contracts/KipuBank.sol\":4458:4481  BankCapUpdated(_newCap) */\n      0xbb1d6466d6b9cb3ce29a9dcd7cc2e51ee7e921992290f96d813b174787857a8c\n        /* \"contracts/KipuBank.sol\":4473:4480  _newCap */\n      dup2\n        /* \"contracts/KipuBank.sol\":4458:4481  BankCapUpdated(_newCap) */\n      mload(0x40)\n      tag_73\n      swap2\n      swap1\n      tag_17\n      jump\t// in\n    tag_73:\n      mload(0x40)\n      dup1\n      swap2\n      sub\n      swap1\n      log1\n        /* \"contracts/KipuBank.sol\":4360:4488  function setBankCap(uint256 _newCap) external onlyOwner {... */\n      pop\n      jump\t// out\n        /* \"contracts/KipuBank.sol\":1330:1360  uint256 public withdrawalCount */\n    tag_33:\n      sload(0x05)\n      dup2\n      jump\t// out\n        /* \"contracts/KipuBank.sol\":655:695  uint256 public immutable withdrawalLimit */\n    tag_37:\n      immutable(\"0xe4b1702d9298fee62dfeccc57d322a463ad55ca201256d01f62b45b2e1c21c10\")\n      dup2\n      jump\t// out\n        /* \"contracts/KipuBank.sol\":513:533  address public owner */\n    tag_41:\n      0x00\n      0x00\n      swap1\n      sload\n      swap1\n      0x0100\n      exp\n      swap1\n      div\n      0xffffffffffffffffffffffffffffffffffffffff\n      and\n      dup2\n      jump\t// out\n        /* \"contracts/KipuBank.sol\":4770:5184  function deposit() external payable nonZeroAmount(msg.value) {... */\n    tag_45:\n        /* \"contracts/KipuBank.sol\":4820:4829  msg.value */\n      callvalue\n        /* \"contracts/KipuBank.sol\":3723:3724  0 */\n      0x00\n        /* \"contracts/KipuBank.sol\":3712:3719  _amount */\n      dup2\n        /* \"contracts/KipuBank.sol\":3712:3724  _amount == 0 */\n      sub\n        /* \"contracts/KipuBank.sol\":3708:3787  if (_amount == 0) {... */\n      tag_75\n      jumpi\n        /* \"contracts/KipuBank.sol\":3747:3776  AmountMustBeGreaterThanZero() */\n      mload(0x40)\n      0x5e85ae7300000000000000000000000000000000000000000000000000000000\n      dup2\n      mstore\n      0x04\n      add\n      mload(0x40)\n      dup1\n      swap2\n      sub\n      swap1\n      revert\n        /* \"contracts/KipuBank.sol\":3708:3787  if (_amount == 0) {... */\n    tag_75:\n        /* \"contracts/KipuBank.sol\":4841:4864  uint256 newTotalBalance */\n      0x00\n        /* \"contracts/KipuBank.sol\":4886:4895  msg.value */\n      callvalue\n        /* \"contracts/KipuBank.sol\":4867:4883  totalBankBalance */\n      sload(0x03)\n        /* \"contracts/KipuBank.sol\":4867:4895  totalBankBalance + msg.value */\n      tag_77\n      swap2\n      swap1\n      tag_78\n      jump\t// in\n    tag_77:\n        /* \"contracts/KipuBank.sol\":4841:4895  uint256 newTotalBalance = totalBankBalance + msg.value */\n      swap1\n      pop\n        /* \"contracts/KipuBank.sol\":4927:4934  bankCap */\n      sload(0x01)\n        /* \"contracts/KipuBank.sol\":4909:4924  newTotalBalance */\n      dup2\n        /* \"contracts/KipuBank.sol\":4909:4934  newTotalBalance > bankCap */\n      gt\n        /* \"contracts/KipuBank.sol\":4905:5022  if (newTotalBalance > bankCap) {... */\n      iszero\n      tag_79\n      jumpi\n        /* \"contracts/KipuBank.sol\":4983:4999  totalBankBalance */\n      sload(0x03)\n        /* \"contracts/KipuBank.sol\":4973:4980  bankCap */\n      sload(0x01)\n        /* \"contracts/KipuBank.sol\":4973:4999  bankCap - totalBankBalance */\n      tag_80\n      swap2\n      swap1\n      tag_63\n      jump\t// in\n    tag_80:\n        /* \"contracts/KipuBank.sol\":5001:5010  msg.value */\n      callvalue\n        /* \"contracts/KipuBank.sol\":4957:5011  BankCapExceeded(bankCap - totalBankBalance, msg.value) */\n      mload(0x40)\n      0x31728a0500000000000000000000000000000000000000000000000000000000\n      dup2\n      mstore\n      0x04\n      add\n      tag_81\n      swap3\n      swap2\n      swap1\n      tag_59\n      jump\t// in\n    tag_81:\n      mload(0x40)\n      dup1\n      swap2\n      sub\n      swap1\n      revert\n        /* \"contracts/KipuBank.sol\":4905:5022  if (newTotalBalance > bankCap) {... */\n    tag_79:\n        /* \"contracts/KipuBank.sol\":5054:5063  msg.value */\n      callvalue\n        /* \"contracts/KipuBank.sol\":5032:5038  vaults */\n      0x02\n        /* \"contracts/KipuBank.sol\":5032:5050  vaults[msg.sender] */\n      0x00\n        /* \"contracts/KipuBank.sol\":5039:5049  msg.sender */\n      caller\n        /* \"contracts/KipuBank.sol\":5032:5050  vaults[msg.sender] */\n      0xffffffffffffffffffffffffffffffffffffffff\n      and\n      0xffffffffffffffffffffffffffffffffffffffff\n      and\n      dup2\n      mstore\n      0x20\n      add\n      swap1\n      dup2\n      mstore\n      0x20\n      add\n      0x00\n      keccak256\n      0x00\n        /* \"contracts/KipuBank.sol\":5032:5063  vaults[msg.sender] += msg.value */\n      dup3\n      dup3\n      sload\n      tag_82\n      swap2\n      swap1\n      tag_78\n      jump\t// in\n    tag_82:\n      swap3\n      pop\n      pop\n      dup2\n      swap1\n      sstore\n      pop\n        /* \"contracts/KipuBank.sol\":5092:5107  newTotalBalance */\n      dup1\n        /* \"contracts/KipuBank.sol\":5073:5089  totalBankBalance */\n      0x03\n        /* \"contracts/KipuBank.sol\":5073:5107  totalBankBalance = newTotalBalance */\n      dup2\n      swap1\n      sstore\n      pop\n        /* \"contracts/KipuBank.sol\":5117:5129  depositCount */\n      0x04\n      0x00\n        /* \"contracts/KipuBank.sol\":5117:5131  depositCount++ */\n      dup2\n      sload\n      dup1\n      swap3\n      swap2\n      swap1\n      tag_83\n      swap1\n      tag_66\n      jump\t// in\n    tag_83:\n      swap2\n      swap1\n      pop\n      sstore\n      pop\n        /* \"contracts/KipuBank.sol\":5155:5165  msg.sender */\n      caller\n        /* \"contracts/KipuBank.sol\":5147:5177  Deposit(msg.sender, msg.value) */\n      0xffffffffffffffffffffffffffffffffffffffff\n      and\n      0xe1fffcc4923d04b559f4d29a8bfc6cda04eb5b0d3c460751c2402c5c5cc9109c\n        /* \"contracts/KipuBank.sol\":5167:5176  msg.value */\n      callvalue\n        /* \"contracts/KipuBank.sol\":5147:5177  Deposit(msg.sender, msg.value) */\n      mload(0x40)\n      tag_84\n      swap2\n      swap1\n      tag_17\n      jump\t// in\n    tag_84:\n      mload(0x40)\n      dup1\n      swap2\n      sub\n      swap1\n      log2\n        /* \"contracts/KipuBank.sol\":4831:5184  {... */\n      pop\n        /* \"contracts/KipuBank.sol\":4770:5184  function deposit() external payable nonZeroAmount(msg.value) {... */\n      pop\n      jump\t// out\n        /* \"contracts/KipuBank.sol\":819:841  uint256 public bankCap */\n    tag_48:\n      sload(0x01)\n      dup2\n      jump\t// out\n        /* \"contracts/KipuBank.sol\":6182:6283  function getVaultBalance() external view returns (uint256) {... */\n    tag_52:\n        /* \"contracts/KipuBank.sol\":6232:6239  uint256 */\n      0x00\n        /* \"contracts/KipuBank.sol\":6258:6264  vaults */\n      0x02\n        /* \"contracts/KipuBank.sol\":6258:6276  vaults[msg.sender] */\n      0x00\n        /* \"contracts/KipuBank.sol\":6265:6275  msg.sender */\n      caller\n        /* \"contracts/KipuBank.sol\":6258:6276  vaults[msg.sender] */\n      0xffffffffffffffffffffffffffffffffffffffff\n      and\n      0xffffffffffffffffffffffffffffffffffffffff\n      and\n      dup2\n      mstore\n      0x20\n      add\n      swap1\n      dup2\n      mstore\n      0x20\n      add\n      0x00\n      keccak256\n      sload\n        /* \"contracts/KipuBank.sol\":6251:6276  return vaults[msg.sender] */\n      swap1\n      pop\n        /* \"contracts/KipuBank.sol\":6182:6283  function getVaultBalance() external view returns (uint256) {... */\n      swap1\n      jump\t// out\n        /* \"contracts/KipuBank.sol\":6538:6734  function _safeTransfer(address _to, uint256 _amount) private {... */\n    tag_68:\n        /* \"contracts/KipuBank.sol\":6610:6622  bool success */\n      0x00\n        /* \"contracts/KipuBank.sol\":6628:6631  _to */\n      dup3\n        /* \"contracts/KipuBank.sol\":6628:6636  _to.call */\n      0xffffffffffffffffffffffffffffffffffffffff\n      and\n        /* \"contracts/KipuBank.sol\":6644:6651  _amount */\n      dup3\n        /* \"contracts/KipuBank.sol\":6628:6656  _to.call{value: _amount}(\"\") */\n      mload(0x40)\n      tag_87\n      swap1\n      tag_88\n      jump\t// in\n    tag_87:\n      0x00\n      mload(0x40)\n      dup1\n      dup4\n      sub\n      dup2\n      dup6\n      dup8\n      gas\n      call\n      swap3\n      pop\n      pop\n      pop\n      returndatasize\n      dup1\n      0x00\n      dup2\n      eq\n      tag_91\n      jumpi\n      mload(0x40)\n      swap2\n      pop\n      and(add(returndatasize, 0x3f), not(0x1f))\n      dup3\n      add\n      0x40\n      mstore\n      returndatasize\n      dup3\n      mstore\n      returndatasize\n      0x00\n      0x20\n      dup5\n      add\n      returndatacopy\n      jump(tag_90)\n    tag_91:\n      0x60\n      swap2\n      pop\n    tag_90:\n      pop\n        /* \"contracts/KipuBank.sol\":6609:6656  (bool success, ) = _to.call{value: _amount}(\"\") */\n      pop\n      swap1\n      pop\n        /* \"contracts/KipuBank.sol\":6671:6678  success */\n      dup1\n        /* \"contracts/KipuBank.sol\":6666:6728  if (!success) {... */\n      tag_92\n      jumpi\n        /* \"contracts/KipuBank.sol\":6701:6717  TransferFailed() */\n      mload(0x40)\n      0x90b8ec1800000000000000000000000000000000000000000000000000000000\n      dup2\n      mstore\n      0x04\n      add\n      mload(0x40)\n      dup1\n      swap2\n      sub\n      swap1\n      revert\n        /* \"contracts/KipuBank.sol\":6666:6728  if (!success) {... */\n    tag_92:\n        /* \"contracts/KipuBank.sol\":6599:6734  {... */\n      pop\n        /* \"contracts/KipuBank.sol\":6538:6734  function _safeTransfer(address _to, uint256 _amount) private {... */\n      pop\n      pop\n      jump\t// out\n        /* \"#utility.yul\":7:84   */\n    tag_93:\n        /* \"#utility.yul\":44:51   */\n      0x00\n        /* \"#utility.yul\":73:78   */\n      dup2\n        /* \"#utility.yul\":62:78   */\n      swap1\n      pop\n        /* \"#utility.yul\":7:84   */\n      swap2\n      swap1\n      pop\n      jump\t// out\n        /* \"#utility.yul\":90:208   */\n    tag_94:\n        /* \"#utility.yul\":177:201   */\n      tag_110\n        /* \"#utility.yul\":195:200   */\n      dup2\n        /* \"#utility.yul\":177:201   */\n      tag_93\n      jump\t// in\n    tag_110:\n        /* \"#utility.yul\":172:175   */\n      dup3\n        /* \"#utility.yul\":165:202   */\n      mstore\n        /* \"#utility.yul\":90:208   */\n      pop\n      pop\n      jump\t// out\n        /* \"#utility.yul\":214:436   */\n    tag_17:\n        /* \"#utility.yul\":307:311   */\n      0x00\n        /* \"#utility.yul\":345:347   */\n      0x20\n        /* \"#utility.yul\":334:343   */\n      dup3\n        /* \"#utility.yul\":330:348   */\n      add\n        /* \"#utility.yul\":322:348   */\n      swap1\n      pop\n        /* \"#utility.yul\":358:429   */\n      tag_112\n        /* \"#utility.yul\":426:427   */\n      0x00\n        /* \"#utility.yul\":415:424   */\n      dup4\n        /* \"#utility.yul\":411:428   */\n      add\n        /* \"#utility.yul\":402:408   */\n      dup5\n        /* \"#utility.yul\":358:429   */\n      tag_94\n      jump\t// in\n    tag_112:\n        /* \"#utility.yul\":214:436   */\n      swap3\n      swap2\n      pop\n      pop\n      jump\t// out\n        /* \"#utility.yul\":523:640   */\n    tag_96:\n        /* \"#utility.yul\":632:633   */\n      0x00\n        /* \"#utility.yul\":629:630   */\n      0x00\n        /* \"#utility.yul\":622:634   */\n      revert\n        /* \"#utility.yul\":769:891   */\n    tag_98:\n        /* \"#utility.yul\":842:866   */\n      tag_117\n        /* \"#utility.yul\":860:865   */\n      dup2\n        /* \"#utility.yul\":842:866   */\n      tag_93\n      jump\t// in\n    tag_117:\n        /* \"#utility.yul\":835:840   */\n      dup2\n        /* \"#utility.yul\":832:867   */\n      eq\n        /* \"#utility.yul\":822:885   */\n      tag_118\n      jumpi\n        /* \"#utility.yul\":881:882   */\n      0x00\n        /* \"#utility.yul\":878:879   */\n      0x00\n        /* \"#utility.yul\":871:883   */\n      revert\n        /* \"#utility.yul\":822:885   */\n    tag_118:\n        /* \"#utility.yul\":769:891   */\n      pop\n      jump\t// out\n        /* \"#utility.yul\":897:1036   */\n    tag_99:\n        /* \"#utility.yul\":943:948   */\n      0x00\n        /* \"#utility.yul\":981:987   */\n      dup2\n        /* \"#utility.yul\":968:988   */\n      calldataload\n        /* \"#utility.yul\":959:988   */\n      swap1\n      pop\n        /* \"#utility.yul\":997:1030   */\n      tag_120\n        /* \"#utility.yul\":1024:1029   */\n      dup2\n        /* \"#utility.yul\":997:1030   */\n      tag_98\n      jump\t// in\n    tag_120:\n        /* \"#utility.yul\":897:1036   */\n      swap3\n      swap2\n      pop\n      pop\n      jump\t// out\n        /* \"#utility.yul\":1042:1371   */\n    tag_25:\n        /* \"#utility.yul\":1101:1107   */\n      0x00\n        /* \"#utility.yul\":1150:1152   */\n      0x20\n        /* \"#utility.yul\":1138:1147   */\n      dup3\n        /* \"#utility.yul\":1129:1136   */\n      dup5\n        /* \"#utility.yul\":1125:1148   */\n      sub\n        /* \"#utility.yul\":1121:1153   */\n      slt\n        /* \"#utility.yul\":1118:1237   */\n      iszero\n      tag_122\n      jumpi\n        /* \"#utility.yul\":1156:1235   */\n      tag_123\n      tag_96\n      jump\t// in\n    tag_123:\n        /* \"#utility.yul\":1118:1237   */\n    tag_122:\n        /* \"#utility.yul\":1276:1277   */\n      0x00\n        /* \"#utility.yul\":1301:1354   */\n      tag_124\n        /* \"#utility.yul\":1346:1353   */\n      dup5\n        /* \"#utility.yul\":1337:1343   */\n      dup3\n        /* \"#utility.yul\":1326:1335   */\n      dup6\n        /* \"#utility.yul\":1322:1344   */\n      add\n        /* \"#utility.yul\":1301:1354   */\n      tag_99\n      jump\t// in\n    tag_124:\n        /* \"#utility.yul\":1291:1354   */\n      swap2\n      pop\n        /* \"#utility.yul\":1247:1364   */\n      pop\n        /* \"#utility.yul\":1042:1371   */\n      swap3\n      swap2\n      pop\n      pop\n      jump\t// out\n        /* \"#utility.yul\":1377:1503   */\n    tag_100:\n        /* \"#utility.yul\":1414:1421   */\n      0x00\n        /* \"#utility.yul\":1454:1496   */\n      0xffffffffffffffffffffffffffffffffffffffff\n        /* \"#utility.yul\":1447:1452   */\n      dup3\n        /* \"#utility.yul\":1443:1497   */\n      and\n        /* \"#utility.yul\":1432:1497   */\n      swap1\n      pop\n        /* \"#utility.yul\":1377:1503   */\n      swap2\n      swap1\n      pop\n      jump\t// out\n        /* \"#utility.yul\":1509:1605   */\n    tag_101:\n        /* \"#utility.yul\":1546:1553   */\n      0x00\n        /* \"#utility.yul\":1575:1599   */\n      tag_127\n        /* \"#utility.yul\":1593:1598   */\n      dup3\n        /* \"#utility.yul\":1575:1599   */\n      tag_100\n      jump\t// in\n    tag_127:\n        /* \"#utility.yul\":1564:1599   */\n      swap1\n      pop\n        /* \"#utility.yul\":1509:1605   */\n      swap2\n      swap1\n      pop\n      jump\t// out\n        /* \"#utility.yul\":1611:1729   */\n    tag_102:\n        /* \"#utility.yul\":1698:1722   */\n      tag_129\n        /* \"#utility.yul\":1716:1721   */\n      dup2\n        /* \"#utility.yul\":1698:1722   */\n      tag_101\n      jump\t// in\n    tag_129:\n        /* \"#utility.yul\":1693:1696   */\n      dup3\n        /* \"#utility.yul\":1686:1723   */\n      mstore\n        /* \"#utility.yul\":1611:1729   */\n      pop\n      pop\n      jump\t// out\n        /* \"#utility.yul\":1735:1957   */\n    tag_43:\n        /* \"#utility.yul\":1828:1832   */\n      0x00\n        /* \"#utility.yul\":1866:1868   */\n      0x20\n        /* \"#utility.yul\":1855:1864   */\n      dup3\n        /* \"#utility.yul\":1851:1869   */\n      add\n        /* \"#utility.yul\":1843:1869   */\n      swap1\n      pop\n        /* \"#utility.yul\":1879:1950   */\n      tag_131\n        /* \"#utility.yul\":1947:1948   */\n      0x00\n        /* \"#utility.yul\":1936:1945   */\n      dup4\n        /* \"#utility.yul\":1932:1949   */\n      add\n        /* \"#utility.yul\":1923:1929   */\n      dup5\n        /* \"#utility.yul\":1879:1950   */\n      tag_102\n      jump\t// in\n    tag_131:\n        /* \"#utility.yul\":1735:1957   */\n      swap3\n      swap2\n      pop\n      pop\n      jump\t// out\n        /* \"#utility.yul\":1963:2295   */\n    tag_59:\n        /* \"#utility.yul\":2084:2088   */\n      0x00\n        /* \"#utility.yul\":2122:2124   */\n      0x40\n        /* \"#utility.yul\":2111:2120   */\n      dup3\n        /* \"#utility.yul\":2107:2125   */\n      add\n        /* \"#utility.yul\":2099:2125   */\n      swap1\n      pop\n        /* \"#utility.yul\":2135:2206   */\n      tag_133\n        /* \"#utility.yul\":2203:2204   */\n      0x00\n        /* \"#utility.yul\":2192:2201   */\n      dup4\n        /* \"#utility.yul\":2188:2205   */\n      add\n        /* \"#utility.yul\":2179:2185   */\n      dup6\n        /* \"#utility.yul\":2135:2206   */\n      tag_94\n      jump\t// in\n    tag_133:\n        /* \"#utility.yul\":2216:2288   */\n      tag_134\n        /* \"#utility.yul\":2284:2286   */\n      0x20\n        /* \"#utility.yul\":2273:2282   */\n      dup4\n        /* \"#utility.yul\":2269:2287   */\n      add\n        /* \"#utility.yul\":2260:2266   */\n      dup5\n        /* \"#utility.yul\":2216:2288   */\n      tag_94\n      jump\t// in\n    tag_134:\n        /* \"#utility.yul\":1963:2295   */\n      swap4\n      swap3\n      pop\n      pop\n      pop\n      jump\t// out\n        /* \"#utility.yul\":2301:2481   */\n    tag_103:\n        /* \"#utility.yul\":2349:2426   */\n      0x4e487b7100000000000000000000000000000000000000000000000000000000\n        /* \"#utility.yul\":2346:2347   */\n      0x00\n        /* \"#utility.yul\":2339:2427   */\n      mstore\n        /* \"#utility.yul\":2446:2450   */\n      0x11\n        /* \"#utility.yul\":2443:2444   */\n      0x04\n        /* \"#utility.yul\":2436:2451   */\n      mstore\n        /* \"#utility.yul\":2470:2474   */\n      0x24\n        /* \"#utility.yul\":2467:2468   */\n      0x00\n        /* \"#utility.yul\":2460:2475   */\n      revert\n        /* \"#utility.yul\":2487:2681   */\n    tag_63:\n        /* \"#utility.yul\":2527:2531   */\n      0x00\n        /* \"#utility.yul\":2547:2567   */\n      tag_137\n        /* \"#utility.yul\":2565:2566   */\n      dup3\n        /* \"#utility.yul\":2547:2567   */\n      tag_93\n      jump\t// in\n    tag_137:\n        /* \"#utility.yul\":2542:2567   */\n      swap2\n      pop\n        /* \"#utility.yul\":2581:2601   */\n      tag_138\n        /* \"#utility.yul\":2599:2600   */\n      dup4\n        /* \"#utility.yul\":2581:2601   */\n      tag_93\n      jump\t// in\n    tag_138:\n        /* \"#utility.yul\":2576:2601   */\n      swap3\n      pop\n        /* \"#utility.yul\":2625:2626   */\n      dup3\n        /* \"#utility.yul\":2622:2623   */\n      dup3\n        /* \"#utility.yul\":2618:2627   */\n      sub\n        /* \"#utility.yul\":2610:2627   */\n      swap1\n      pop\n        /* \"#utility.yul\":2649:2650   */\n      dup2\n        /* \"#utility.yul\":2643:2647   */\n      dup2\n        /* \"#utility.yul\":2640:2651   */\n      gt\n        /* \"#utility.yul\":2637:2674   */\n      iszero\n      tag_139\n      jumpi\n        /* \"#utility.yul\":2654:2672   */\n      tag_140\n      tag_103\n      jump\t// in\n    tag_140:\n        /* \"#utility.yul\":2637:2674   */\n    tag_139:\n        /* \"#utility.yul\":2487:2681   */\n      swap3\n      swap2\n      pop\n      pop\n      jump\t// out\n        /* \"#utility.yul\":2687:2920   */\n    tag_66:\n        /* \"#utility.yul\":2726:2729   */\n      0x00\n        /* \"#utility.yul\":2749:2773   */\n      tag_142\n        /* \"#utility.yul\":2767:2772   */\n      dup3\n        /* \"#utility.yul\":2749:2773   */\n      tag_93\n      jump\t// in\n    tag_142:\n        /* \"#utility.yul\":2740:2773   */\n      swap2\n      pop\n        /* \"#utility.yul\":2795:2861   */\n      0xffffffffffffffffffffffffffffffffffffffffffffffffffffffffffffffff\n        /* \"#utility.yul\":2788:2793   */\n      dup3\n        /* \"#utility.yul\":2785:2862   */\n      sub\n        /* \"#utility.yul\":2782:2885   */\n      tag_143\n      jumpi\n        /* \"#utility.yul\":2865:2883   */\n      tag_144\n      tag_103\n      jump\t// in\n    tag_144:\n        /* \"#utility.yul\":2782:2885   */\n    tag_143:\n        /* \"#utility.yul\":2912:2913   */\n      0x01\n        /* \"#utility.yul\":2905:2910   */\n      dup3\n        /* \"#utility.yul\":2901:2914   */\n      add\n        /* \"#utility.yul\":2894:2914   */\n      swap1\n      pop\n        /* \"#utility.yul\":2687:2920   */\n      swap2\n      swap1\n      pop\n      jump\t// out\n        /* \"#utility.yul\":2926:3117   */\n    tag_78:\n        /* \"#utility.yul\":2966:2969   */\n      0x00\n        /* \"#utility.yul\":2985:3005   */\n      tag_146\n        /* \"#utility.yul\":3003:3004   */\n      dup3\n        /* \"#utility.yul\":2985:3005   */\n      tag_93\n      jump\t// in\n    tag_146:\n        /* \"#utility.yul\":2980:3005   */\n      swap2\n      pop\n        /* \"#utility.yul\":3019:3039   */\n      tag_147\n        /* \"#utility.yul\":3037:3038   */\n      dup4\n        /* \"#utility.yul\":3019:3039   */\n      tag_93\n      jump\t// in\n    tag_147:\n        /* \"#utility.yul\":3014:3039   */\n      swap3\n      pop\n        /* \"#utility.yul\":3062:3063   */\n      dup3\n        /* \"#utility.yul\":3059:3060   */\n      dup3\n        /* \"#utility.yul\":3055:3064   */\n      add\n        /* \"#utility.yul\":3048:3064   */\n      swap1\n      pop\n        /* \"#utility.yul\":3083:3086   */\n      dup1\n        /* \"#utility.yul\":3080:3081   */\n      dup3\n        /* \"#utility.yul\":3077:3087   */\n      gt\n        /* \"#utility.yul\":3074:3110   */\n      iszero\n      tag_148\n      jumpi\n        /* \"#utility.yul\":3090:3108   */\n      tag_149\n      tag_103\n      jump\t// in\n    tag_149:\n        /* \"#utility.yul\":3074:3110   */\n    tag_148:\n        /* \"#utility.yul\":2926:3117   */\n      swap3\n      swap2\n      pop\n      pop\n      jump\t// out\n        /* \"#utility.yul\":3123:3270   */\n    tag_104:\n        /* \"#utility.yul\":3224:3235   */\n      0x00\n        /* \"#utility.yul\":3261:3264   */\n      dup2\n        /* \"#utility.yul\":3246:3264   */\n      swap1\n      pop\n        /* \"#utility.yul\":3123:3270   */\n      swap3\n      swap2\n      pop\n      pop\n      jump\t// out\n        /* \"#utility.yul\":3276:3390   */\n    tag_105:\n      pop\n      jump\t// out\n        /* \"#utility.yul\":3396:3794   */\n    tag_106:\n        /* \"#utility.yul\":3555:3558   */\n      0x00\n        /* \"#utility.yul\":3576:3659   */\n      tag_153\n        /* \"#utility.yul\":3657:3658   */\n      0x00\n        /* \"#utility.yul\":3652:3655   */\n      dup4\n        /* \"#utility.yul\":3576:3659   */\n      tag_104\n      jump\t// in\n    tag_153:\n        /* \"#utility.yul\":3569:3659   */\n      swap2\n      pop\n        /* \"#utility.yul\":3668:3761   */\n      tag_154\n        /* \"#utility.yul\":3757:3760   */\n      dup3\n        /* \"#utility.yul\":3668:3761   */\n      tag_105\n      jump\t// in\n    tag_154:\n        /* \"#utility.yul\":3786:3787   */\n      0x00\n        /* \"#utility.yul\":3781:3784   */\n      dup3\n        /* \"#utility.yul\":3777:3788   */\n      add\n        /* \"#utility.yul\":3770:3788   */\n      swap1\n      pop\n        /* \"#utility.yul\":3396:3794   */\n      swap2\n      swap1\n      pop\n      jump\t// out\n        /* \"#utility.yul\":3800:4179   */\n    tag_88:\n        /* \"#utility.yul\":3984:3987   */\n      0x00\n        /* \"#utility.yul\":4006:4153   */\n      tag_156\n        /* \"#utility.yul\":4149:4152   */\n      dup3\n        /* \"#utility.yul\":4006:4153   */\n      tag_106\n      jump\t// in\n    tag_156:\n        /* \"#utility.yul\":3999:4153   */\n      swap2\n      pop\n        /* \"#utility.yul\":4170:4173   */\n      dup2\n        /* \"#utility.yul\":4163:4173   */\n      swap1\n      pop\n        /* \"#utility.yul\":3800:4179   */\n      swap2\n      swap1\n      pop\n      jump\t// out\n\n    auxdata: 0xa2646970667358221220e07ab26a8b05c4810280d78e7b08bb35fcc893c675d9eb24de924d0143e2e66764736f6c634300081e0033\n}\n",
				"bytecode": {
					"linkReferences": {},
					"object": "60a060405234801561000f575f5ffd5b50604051610b2b380380610b2b833981810160405281019061003191906100bd565b335f5f6101000a81548173ffffffffffffffffffffffffffffffffffffffff021916908373ffffffffffffffffffffffffffffffffffffffff16021790555081600181905550806080818152505050506100fb565b5f5ffd5b5f819050919050565b61009c8161008a565b81146100a6575f5ffd5b50565b5f815190506100b781610093565b92915050565b5f5f604083850312156100d3576100d2610086565b5b5f6100e0858286016100a9565b92505060206100f1858286016100a9565b9150509250929050565b608051610a0a6101215f395f818161025c0152818161028501526105160152610a0a5ff3fe608060405260043610610090575f3560e01c80637ddfe78d116100585780637ddfe78d146101625780638da5cb5b1461018c578063d0e30db0146101b6578063ecbea24d146101c0578063ed12e8ef146101ea57610090565b80631977e938146100945780632dfdf0b5146100be5780632e1a7d4d146100e857806331eab30f1461011057806371706cbe14610138575b5f5ffd5b34801561009f575f5ffd5b506100a8610214565b6040516100b591906107c8565b60405180910390f35b3480156100c9575f5ffd5b506100d261021a565b6040516100df91906107c8565b60405180910390f35b3480156100f3575f5ffd5b5061010e6004803603810190610109919061080f565b610220565b005b34801561011b575f5ffd5b506101366004803603810190610131919061080f565b610448565b005b348015610143575f5ffd5b5061014c61050e565b60405161015991906107c8565b60405180910390f35b34801561016d575f5ffd5b50610176610514565b60405161018391906107c8565b60405180910390f35b348015610197575f5ffd5b506101a0610538565b6040516101ad9190610879565b60405180910390f35b6101be61055c565b005b3480156101cb575f5ffd5b506101d46106c2565b6040516101e191906107c8565b60405180910390f35b3480156101f5575f5ffd5b506101fe6106c8565b60405161020b91906107c8565b60405180910390f35b60035481565b60045481565b805f810361025a576040517f5e85ae7300000000000000000000000000000000000000000000000000000000815260040160405180910390fd5b7f00000000000000000000000000000000000000000000000000000000000000008211156102e157817f00000000000000000000000000000000000000000000000000000000000000006040517fb945e2d80000000000000000000000000000000000000000000000000000000081526004016102d8929190610892565b60405180910390fd5b5f60025f3373ffffffffffffffffffffffffffffffffffffffff1673ffffffffffffffffffffffffffffffffffffffff1681526020019081526020015f20549050808311156103695780836040517fcf479181000000000000000000000000000000000000000000000000000000008152600401610360929190610892565b60405180910390fd5b8260025f3373ffffffffffffffffffffffffffffffffffffffff1673ffffffffffffffffffffffffffffffffffffffff1681526020019081526020015f205f8282546103b591906108e6565b925050819055508260035f8282546103cd91906108e6565b9250508190555060055f8154809291906103e690610919565b91905055506103f5338461070c565b3373ffffffffffffffffffffffffffffffffffffffff167f7fcf532c15f0a6db0bd6d0e038bea71d30d808c7d98cb3bf7268a95bf5081b658460405161043b91906107c8565b60405180910390a2505050565b5f5f9054906101000a900473ffffffffffffffffffffffffffffffffffffffff1673ffffffffffffffffffffffffffffffffffffffff163373ffffffffffffffffffffffffffffffffffffffff16146104cd576040517f30cd747100000000000000000000000000000000000000000000000000000000815260040160405180910390fd5b806001819055507fbb1d6466d6b9cb3ce29a9dcd7cc2e51ee7e921992290f96d813b174787857a8c8160405161050391906107c8565b60405180910390a150565b60055481565b7f000000000000000000000000000000000000000000000000000000000000000081565b5f5f9054906101000a900473ffffffffffffffffffffffffffffffffffffffff1681565b345f8103610596576040517f5e85ae7300000000000000000000000000000000000000000000000000000000815260040160405180910390fd5b5f346003546105a59190610960565b90506001548111156105ff576003546001546105c191906108e6565b346040517f31728a050000000000000000000000000000000000000000000000000000000081526004016105f6929190610892565b60405180910390fd5b3460025f3373ffffffffffffffffffffffffffffffffffffffff1673ffffffffffffffffffffffffffffffffffffffff1681526020019081526020015f205f82825461064b9190610960565b925050819055508060038190555060045f81548092919061066b90610919565b91905055503373ffffffffffffffffffffffffffffffffffffffff167fe1fffcc4923d04b559f4d29a8bfc6cda04eb5b0d3c460751c2402c5c5cc9109c346040516106b691906107c8565b60405180910390a25050565b60015481565b5f60025f3373ffffffffffffffffffffffffffffffffffffffff1673ffffffffffffffffffffffffffffffffffffffff1681526020019081526020015f2054905090565b5f8273ffffffffffffffffffffffffffffffffffffffff1682604051610731906109c0565b5f6040518083038185875af1925050503d805f811461076b576040519150601f19603f3d011682016040523d82523d5f602084013e610770565b606091505b50509050806107ab576040517f90b8ec1800000000000000000000000000000000000000000000000000000000815260040160405180910390fd5b505050565b5f819050919050565b6107c2816107b0565b82525050565b5f6020820190506107db5f8301846107b9565b92915050565b5f5ffd5b6107ee816107b0565b81146107f8575f5ffd5b50565b5f81359050610809816107e5565b92915050565b5f60208284031215610824576108236107e1565b5b5f610831848285016107fb565b91505092915050565b5f73ffffffffffffffffffffffffffffffffffffffff82169050919050565b5f6108638261083a565b9050919050565b61087381610859565b82525050565b5f60208201905061088c5f83018461086a565b92915050565b5f6040820190506108a55f8301856107b9565b6108b260208301846107b9565b9392505050565b7f4e487b71000000000000000000000000000000000000000000000000000000005f52601160045260245ffd5b5f6108f0826107b0565b91506108fb836107b0565b9250828203905081811115610913576109126108b9565b5b92915050565b5f610923826107b0565b91507fffffffffffffffffffffffffffffffffffffffffffffffffffffffffffffffff8203610955576109546108b9565b5b600182019050919050565b5f61096a826107b0565b9150610975836107b0565b925082820190508082111561098d5761098c6108b9565b5b92915050565b5f81905092915050565b50565b5f6109ab5f83610993565b91506109b68261099d565b5f82019050919050565b5f6109ca826109a0565b915081905091905056fea2646970667358221220e07ab26a8b05c4810280d78e7b08bb35fcc893c675d9eb24de924d0143e2e66764736f6c634300081e0033",
					"opcodes": "PUSH1 0xA0 PUSH1 0x40 MSTORE CALLVALUE DUP1 ISZERO PUSH2 0xF JUMPI PUSH0 PUSH0 REVERT JUMPDEST POP PUSH1 0x40 MLOAD PUSH2 0xB2B CODESIZE SUB DUP1 PUSH2 0xB2B DUP4 CODECOPY DUP2 DUP2 ADD PUSH1 0x40 MSTORE DUP2 ADD SWAP1 PUSH2 0x31 SWAP2 SWAP1 PUSH2 0xBD JUMP JUMPDEST CALLER PUSH0 PUSH0 PUSH2 0x100 EXP DUP2 SLOAD DUP2 PUSH20 0xFFFFFFFFFFFFFFFFFFFFFFFFFFFFFFFFFFFFFFFF MUL NOT AND SWAP1 DUP4 PUSH20 0xFFFFFFFFFFFFFFFFFFFFFFFFFFFFFFFFFFFFFFFF AND MUL OR SWAP1 SSTORE POP DUP2 PUSH1 0x1 DUP2 SWAP1 SSTORE POP DUP1 PUSH1 0x80 DUP2 DUP2 MSTORE POP POP POP POP PUSH2 0xFB JUMP JUMPDEST PUSH0 PUSH0 REVERT JUMPDEST PUSH0 DUP2 SWAP1 POP SWAP2 SWAP1 POP JUMP JUMPDEST PUSH2 0x9C DUP2 PUSH2 0x8A JUMP JUMPDEST DUP2 EQ PUSH2 0xA6 JUMPI PUSH0 PUSH0 REVERT JUMPDEST POP JUMP JUMPDEST PUSH0 DUP2 MLOAD SWAP1 POP PUSH2 0xB7 DUP2 PUSH2 0x93 JUMP JUMPDEST SWAP3 SWAP2 POP POP JUMP JUMPDEST PUSH0 PUSH0 PUSH1 0x40 DUP4 DUP6 SUB SLT ISZERO PUSH2 0xD3 JUMPI PUSH2 0xD2 PUSH2 0x86 JUMP JUMPDEST JUMPDEST PUSH0 PUSH2 0xE0 DUP6 DUP3 DUP7 ADD PUSH2 0xA9 JUMP JUMPDEST SWAP3 POP POP PUSH1 0x20 PUSH2 0xF1 DUP6 DUP3 DUP7 ADD PUSH2 0xA9 JUMP JUMPDEST SWAP2 POP POP SWAP3 POP SWAP3 SWAP1 POP JUMP JUMPDEST PUSH1 0x80 MLOAD PUSH2 0xA0A PUSH2 0x121 PUSH0 CODECOPY PUSH0 DUP2 DUP2 PUSH2 0x25C ADD MSTORE DUP2 DUP2 PUSH2 0x285 ADD MSTORE PUSH2 0x516 ADD MSTORE PUSH2 0xA0A PUSH0 RETURN INVALID PUSH1 0x80 PUSH1 0x40 MSTORE PUSH1 0x4 CALLDATASIZE LT PUSH2 0x90 JUMPI PUSH0 CALLDATALOAD PUSH1 0xE0 SHR DUP1 PUSH4 0x7DDFE78D GT PUSH2 0x58 JUMPI DUP1 PUSH4 0x7DDFE78D EQ PUSH2 0x162 JUMPI DUP1 PUSH4 0x8DA5CB5B EQ PUSH2 0x18C JUMPI DUP1 PUSH4 0xD0E30DB0 EQ PUSH2 0x1B6 JUMPI DUP1 PUSH4 0xECBEA24D EQ PUSH2 0x1C0 JUMPI DUP1 PUSH4 0xED12E8EF EQ PUSH2 0x1EA JUMPI PUSH2 0x90 JUMP JUMPDEST DUP1 PUSH4 0x1977E938 EQ PUSH2 0x94 JUMPI DUP1 PUSH4 0x2DFDF0B5 EQ PUSH2 0xBE JUMPI DUP1 PUSH4 0x2E1A7D4D EQ PUSH2 0xE8 JUMPI DUP1 PUSH4 0x31EAB30F EQ PUSH2 0x110 JUMPI DUP1 PUSH4 0x71706CBE EQ PUSH2 0x138 JUMPI JUMPDEST PUSH0 PUSH0 REVERT JUMPDEST CALLVALUE DUP1 ISZERO PUSH2 0x9F JUMPI PUSH0 PUSH0 REVERT JUMPDEST POP PUSH2 0xA8 PUSH2 0x214 JUMP JUMPDEST PUSH1 0x40 MLOAD PUSH2 0xB5 SWAP2 SWAP1 PUSH2 0x7C8 JUMP JUMPDEST PUSH1 0x40 MLOAD DUP1 SWAP2 SUB SWAP1 RETURN JUMPDEST CALLVALUE DUP1 ISZERO PUSH2 0xC9 JUMPI PUSH0 PUSH0 REVERT JUMPDEST POP PUSH2 0xD2 PUSH2 0x21A JUMP JUMPDEST PUSH1 0x40 MLOAD PUSH2 0xDF SWAP2 SWAP1 PUSH2 0x7C8 JUMP JUMPDEST PUSH1 0x40 MLOAD DUP1 SWAP2 SUB SWAP1 RETURN JUMPDEST CALLVALUE DUP1 ISZERO PUSH2 0xF3 JUMPI PUSH0 PUSH0 REVERT JUMPDEST POP PUSH2 0x10E PUSH1 0x4 DUP1 CALLDATASIZE SUB DUP2 ADD SWAP1 PUSH2 0x109 SWAP2 SWAP1 PUSH2 0x80F JUMP JUMPDEST PUSH2 0x220 JUMP JUMPDEST STOP JUMPDEST CALLVALUE DUP1 ISZERO PUSH2 0x11B JUMPI PUSH0 PUSH0 REVERT JUMPDEST POP PUSH2 0x136 PUSH1 0x4 DUP1 CALLDATASIZE SUB DUP2 ADD SWAP1 PUSH2 0x131 SWAP2 SWAP1 PUSH2 0x80F JUMP JUMPDEST PUSH2 0x448 JUMP JUMPDEST STOP JUMPDEST CALLVALUE DUP1 ISZERO PUSH2 0x143 JUMPI PUSH0 PUSH0 REVERT JUMPDEST POP PUSH2 0x14C PUSH2 0x50E JUMP JUMPDEST PUSH1 0x40 MLOAD PUSH2 0x159 SWAP2 SWAP1 PUSH2 0x7C8 JUMP JUMPDEST PUSH1 0x40 MLOAD DUP1 SWAP2 SUB SWAP1 RETURN JUMPDEST CALLVALUE DUP1 ISZERO PUSH2 0x16D JUMPI PUSH0 PUSH0 REVERT JUMPDEST POP PUSH2 0x176 PUSH2 0x514 JUMP JUMPDEST PUSH1 0x40 MLOAD PUSH2 0x183 SWAP2 SWAP1 PUSH2 0x7C8 JUMP JUMPDEST PUSH1 0x40 MLOAD DUP1 SWAP2 SUB SWAP1 RETURN JUMPDEST CALLVALUE DUP1 ISZERO PUSH2 0x197 JUMPI PUSH0 PUSH0 REVERT JUMPDEST POP PUSH2 0x1A0 PUSH2 0x538 JUMP JUMPDEST PUSH1 0x40 MLOAD PUSH2 0x1AD SWAP2 SWAP1 PUSH2 0x879 JUMP JUMPDEST PUSH1 0x40 MLOAD DUP1 SWAP2 SUB SWAP1 RETURN JUMPDEST PUSH2 0x1BE PUSH2 0x55C JUMP JUMPDEST STOP JUMPDEST CALLVALUE DUP1 ISZERO PUSH2 0x1CB JUMPI PUSH0 PUSH0 REVERT JUMPDEST POP PUSH2 0x1D4 PUSH2 0x6C2 JUMP JUMPDEST PUSH1 0x40 MLOAD PUSH2 0x1E1 SWAP2 SWAP1 PUSH2 0x7C8 JUMP JUMPDEST PUSH1 0x40 MLOAD DUP1 SWAP2 SUB SWAP1 RETURN JUMPDEST CALLVALUE DUP1 ISZERO PUSH2 0x1F5 JUMPI PUSH0 PUSH0 REVERT JUMPDEST POP PUSH2 0x1FE PUSH2 0x6C8 JUMP JUMPDEST PUSH1 0x40 MLOAD PUSH2 0x20B SWAP2 SWAP1 PUSH2 0x7C8 JUMP JUMPDEST PUSH1 0x40 MLOAD DUP1 SWAP2 SUB SWAP1 RETURN JUMPDEST PUSH1 0x3 SLOAD DUP2 JUMP JUMPDEST PUSH1 0x4 SLOAD DUP2 JUMP JUMPDEST DUP1 PUSH0 DUP2 SUB PUSH2 0x25A JUMPI PUSH1 0x40 MLOAD PUSH32 0x5E85AE7300000000000000000000000000000000000000000000000000000000 DUP2 MSTORE PUSH1 0x4 ADD PUSH1 0x40 MLOAD DUP1 SWAP2 SUB SWAP1 REVERT JUMPDEST PUSH32 0x0 DUP3 GT ISZERO PUSH2 0x2E1 JUMPI DUP2 PUSH32 0x0 PUSH1 0x40 MLOAD PUSH32 0xB945E2D800000000000000000000000000000000000000000000000000000000 DUP2 MSTORE PUSH1 0x4 ADD PUSH2 0x2D8 SWAP3 SWAP2 SWAP1 PUSH2 0x892 JUMP JUMPDEST PUSH1 0x40 MLOAD DUP1 SWAP2 SUB SWAP1 REVERT JUMPDEST PUSH0 PUSH1 0x2 PUSH0 CALLER PUSH20 0xFFFFFFFFFFFFFFFFFFFFFFFFFFFFFFFFFFFFFFFF AND PUSH20 0xFFFFFFFFFFFFFFFFFFFFFFFFFFFFFFFFFFFFFFFF AND DUP2 MSTORE PUSH1 0x20 ADD SWAP1 DUP2 MSTORE PUSH1 0x20 ADD PUSH0 KECCAK256 SLOAD SWAP1 POP DUP1 DUP4 GT ISZERO PUSH2 0x369 JUMPI DUP1 DUP4 PUSH1 0x40 MLOAD PUSH32 0xCF47918100000000000000000000000000000000000000000000000000000000 DUP2 MSTORE PUSH1 0x4 ADD PUSH2 0x360 SWAP3 SWAP2 SWAP1 PUSH2 0x892 JUMP JUMPDEST PUSH1 0x40 MLOAD DUP1 SWAP2 SUB SWAP1 REVERT JUMPDEST DUP3 PUSH1 0x2 PUSH0 CALLER PUSH20 0xFFFFFFFFFFFFFFFFFFFFFFFFFFFFFFFFFFFFFFFF AND PUSH20 0xFFFFFFFFFFFFFFFFFFFFFFFFFFFFFFFFFFFFFFFF AND DUP2 MSTORE PUSH1 0x20 ADD SWAP1 DUP2 MSTORE PUSH1 0x20 ADD PUSH0 KECCAK256 PUSH0 DUP3 DUP3 SLOAD PUSH2 0x3B5 SWAP2 SWAP1 PUSH2 0x8E6 JUMP JUMPDEST SWAP3 POP POP DUP2 SWAP1 SSTORE POP DUP3 PUSH1 0x3 PUSH0 DUP3 DUP3 SLOAD PUSH2 0x3CD SWAP2 SWAP1 PUSH2 0x8E6 JUMP JUMPDEST SWAP3 POP POP DUP2 SWAP1 SSTORE POP PUSH1 0x5 PUSH0 DUP2 SLOAD DUP1 SWAP3 SWAP2 SWAP1 PUSH2 0x3E6 SWAP1 PUSH2 0x919 JUMP JUMPDEST SWAP2 SWAP1 POP SSTORE POP PUSH2 0x3F5 CALLER DUP5 PUSH2 0x70C JUMP JUMPDEST CALLER PUSH20 0xFFFFFFFFFFFFFFFFFFFFFFFFFFFFFFFFFFFFFFFF AND PUSH32 0x7FCF532C15F0A6DB0BD6D0E038BEA71D30D808C7D98CB3BF7268A95BF5081B65 DUP5 PUSH1 0x40 MLOAD PUSH2 0x43B SWAP2 SWAP1 PUSH2 0x7C8 JUMP JUMPDEST PUSH1 0x40 MLOAD DUP1 SWAP2 SUB SWAP1 LOG2 POP POP POP JUMP JUMPDEST PUSH0 PUSH0 SWAP1 SLOAD SWAP1 PUSH2 0x100 EXP SWAP1 DIV PUSH20 0xFFFFFFFFFFFFFFFFFFFFFFFFFFFFFFFFFFFFFFFF AND PUSH20 0xFFFFFFFFFFFFFFFFFFFFFFFFFFFFFFFFFFFFFFFF AND CALLER PUSH20 0xFFFFFFFFFFFFFFFFFFFFFFFFFFFFFFFFFFFFFFFF AND EQ PUSH2 0x4CD JUMPI PUSH1 0x40 MLOAD PUSH32 0x30CD747100000000000000000000000000000000000000000000000000000000 DUP2 MSTORE PUSH1 0x4 ADD PUSH1 0x40 MLOAD DUP1 SWAP2 SUB SWAP1 REVERT JUMPDEST DUP1 PUSH1 0x1 DUP2 SWAP1 SSTORE POP PUSH32 0xBB1D6466D6B9CB3CE29A9DCD7CC2E51EE7E921992290F96D813B174787857A8C DUP2 PUSH1 0x40 MLOAD PUSH2 0x503 SWAP2 SWAP1 PUSH2 0x7C8 JUMP JUMPDEST PUSH1 0x40 MLOAD DUP1 SWAP2 SUB SWAP1 LOG1 POP JUMP JUMPDEST PUSH1 0x5 SLOAD DUP2 JUMP JUMPDEST PUSH32 0x0 DUP2 JUMP JUMPDEST PUSH0 PUSH0 SWAP1 SLOAD SWAP1 PUSH2 0x100 EXP SWAP1 DIV PUSH20 0xFFFFFFFFFFFFFFFFFFFFFFFFFFFFFFFFFFFFFFFF AND DUP2 JUMP JUMPDEST CALLVALUE PUSH0 DUP2 SUB PUSH2 0x596 JUMPI PUSH1 0x40 MLOAD PUSH32 0x5E85AE7300000000000000000000000000000000000000000000000000000000 DUP2 MSTORE PUSH1 0x4 ADD PUSH1 0x40 MLOAD DUP1 SWAP2 SUB SWAP1 REVERT JUMPDEST PUSH0 CALLVALUE PUSH1 0x3 SLOAD PUSH2 0x5A5 SWAP2 SWAP1 PUSH2 0x960 JUMP JUMPDEST SWAP1 POP PUSH1 0x1 SLOAD DUP2 GT ISZERO PUSH2 0x5FF JUMPI PUSH1 0x3 SLOAD PUSH1 0x1 SLOAD PUSH2 0x5C1 SWAP2 SWAP1 PUSH2 0x8E6 JUMP JUMPDEST CALLVALUE PUSH1 0x40 MLOAD PUSH32 0x31728A0500000000000000000000000000000000000000000000000000000000 DUP2 MSTORE PUSH1 0x4 ADD PUSH2 0x5F6 SWAP3 SWAP2 SWAP1 PUSH2 0x892 JUMP JUMPDEST PUSH1 0x40 MLOAD DUP1 SWAP2 SUB SWAP1 REVERT JUMPDEST CALLVALUE PUSH1 0x2 PUSH0 CALLER PUSH20 0xFFFFFFFFFFFFFFFFFFFFFFFFFFFFFFFFFFFFFFFF AND PUSH20 0xFFFFFFFFFFFFFFFFFFFFFFFFFFFFFFFFFFFFFFFF AND DUP2 MSTORE PUSH1 0x20 ADD SWAP1 DUP2 MSTORE PUSH1 0x20 ADD PUSH0 KECCAK256 PUSH0 DUP3 DUP3 SLOAD PUSH2 0x64B SWAP2 SWAP1 PUSH2 0x960 JUMP JUMPDEST SWAP3 POP POP DUP2 SWAP1 SSTORE POP DUP1 PUSH1 0x3 DUP2 SWAP1 SSTORE POP PUSH1 0x4 PUSH0 DUP2 SLOAD DUP1 SWAP3 SWAP2 SWAP1 PUSH2 0x66B SWAP1 PUSH2 0x919 JUMP JUMPDEST SWAP2 SWAP1 POP SSTORE POP CALLER PUSH20 0xFFFFFFFFFFFFFFFFFFFFFFFFFFFFFFFFFFFFFFFF AND PUSH32 0xE1FFFCC4923D04B559F4D29A8BFC6CDA04EB5B0D3C460751C2402C5C5CC9109C CALLVALUE PUSH1 0x40 MLOAD PUSH2 0x6B6 SWAP2 SWAP1 PUSH2 0x7C8 JUMP JUMPDEST PUSH1 0x40 MLOAD DUP1 SWAP2 SUB SWAP1 LOG2 POP POP JUMP JUMPDEST PUSH1 0x1 SLOAD DUP2 JUMP JUMPDEST PUSH0 PUSH1 0x2 PUSH0 CALLER PUSH20 0xFFFFFFFFFFFFFFFFFFFFFFFFFFFFFFFFFFFFFFFF AND PUSH20 0xFFFFFFFFFFFFFFFFFFFFFFFFFFFFFFFFFFFFFFFF AND DUP2 MSTORE PUSH1 0x20 ADD SWAP1 DUP2 MSTORE PUSH1 0x20 ADD PUSH0 KECCAK256 SLOAD SWAP1 POP SWAP1 JUMP JUMPDEST PUSH0 DUP3 PUSH20 0xFFFFFFFFFFFFFFFFFFFFFFFFFFFFFFFFFFFFFFFF AND DUP3 PUSH1 0x40 MLOAD PUSH2 0x731 SWAP1 PUSH2 0x9C0 JUMP JUMPDEST PUSH0 PUSH1 0x40 MLOAD DUP1 DUP4 SUB DUP2 DUP6 DUP8 GAS CALL SWAP3 POP POP POP RETURNDATASIZE DUP1 PUSH0 DUP2 EQ PUSH2 0x76B JUMPI PUSH1 0x40 MLOAD SWAP2 POP PUSH1 0x1F NOT PUSH1 0x3F RETURNDATASIZE ADD AND DUP3 ADD PUSH1 0x40 MSTORE RETURNDATASIZE DUP3 MSTORE RETURNDATASIZE PUSH0 PUSH1 0x20 DUP5 ADD RETURNDATACOPY PUSH2 0x770 JUMP JUMPDEST PUSH1 0x60 SWAP2 POP JUMPDEST POP POP SWAP1 POP DUP1 PUSH2 0x7AB JUMPI PUSH1 0x40 MLOAD PUSH32 0x90B8EC1800000000000000000000000000000000000000000000000000000000 DUP2 MSTORE PUSH1 0x4 ADD PUSH1 0x40 MLOAD DUP1 SWAP2 SUB SWAP1 REVERT JUMPDEST POP POP POP JUMP JUMPDEST PUSH0 DUP2 SWAP1 POP SWAP2 SWAP1 POP JUMP JUMPDEST PUSH2 0x7C2 DUP2 PUSH2 0x7B0 JUMP JUMPDEST DUP3 MSTORE POP POP JUMP JUMPDEST PUSH0 PUSH1 0x20 DUP3 ADD SWAP1 POP PUSH2 0x7DB PUSH0 DUP4 ADD DUP5 PUSH2 0x7B9 JUMP JUMPDEST SWAP3 SWAP2 POP POP JUMP JUMPDEST PUSH0 PUSH0 REVERT JUMPDEST PUSH2 0x7EE DUP2 PUSH2 0x7B0 JUMP JUMPDEST DUP2 EQ PUSH2 0x7F8 JUMPI PUSH0 PUSH0 REVERT JUMPDEST POP JUMP JUMPDEST PUSH0 DUP2 CALLDATALOAD SWAP1 POP PUSH2 0x809 DUP2 PUSH2 0x7E5 JUMP JUMPDEST SWAP3 SWAP2 POP POP JUMP JUMPDEST PUSH0 PUSH1 0x20 DUP3 DUP5 SUB SLT ISZERO PUSH2 0x824 JUMPI PUSH2 0x823 PUSH2 0x7E1 JUMP JUMPDEST JUMPDEST PUSH0 PUSH2 0x831 DUP5 DUP3 DUP6 ADD PUSH2 0x7FB JUMP JUMPDEST SWAP2 POP POP SWAP3 SWAP2 POP POP JUMP JUMPDEST PUSH0 PUSH20 0xFFFFFFFFFFFFFFFFFFFFFFFFFFFFFFFFFFFFFFFF DUP3 AND SWAP1 POP SWAP2 SWAP1 POP JUMP JUMPDEST PUSH0 PUSH2 0x863 DUP3 PUSH2 0x83A JUMP JUMPDEST SWAP1 POP SWAP2 SWAP1 POP JUMP JUMPDEST PUSH2 0x873 DUP2 PUSH2 0x859 JUMP JUMPDEST DUP3 MSTORE POP POP JUMP JUMPDEST PUSH0 PUSH1 0x20 DUP3 ADD SWAP1 POP PUSH2 0x88C PUSH0 DUP4 ADD DUP5 PUSH2 0x86A JUMP JUMPDEST SWAP3 SWAP2 POP POP JUMP JUMPDEST PUSH0 PUSH1 0x40 DUP3 ADD SWAP1 POP PUSH2 0x8A5 PUSH0 DUP4 ADD DUP6 PUSH2 0x7B9 JUMP JUMPDEST PUSH2 0x8B2 PUSH1 0x20 DUP4 ADD DUP5 PUSH2 0x7B9 JUMP JUMPDEST SWAP4 SWAP3 POP POP POP JUMP JUMPDEST PUSH32 0x4E487B7100000000000000000000000000000000000000000000000000000000 PUSH0 MSTORE PUSH1 0x11 PUSH1 0x4 MSTORE PUSH1 0x24 PUSH0 REVERT JUMPDEST PUSH0 PUSH2 0x8F0 DUP3 PUSH2 0x7B0 JUMP JUMPDEST SWAP2 POP PUSH2 0x8FB DUP4 PUSH2 0x7B0 JUMP JUMPDEST SWAP3 POP DUP3 DUP3 SUB SWAP1 POP DUP2 DUP2 GT ISZERO PUSH2 0x913 JUMPI PUSH2 0x912 PUSH2 0x8B9 JUMP JUMPDEST JUMPDEST SWAP3 SWAP2 POP POP JUMP JUMPDEST PUSH0 PUSH2 0x923 DUP3 PUSH2 0x7B0 JUMP JUMPDEST SWAP2 POP PUSH32 0xFFFFFFFFFFFFFFFFFFFFFFFFFFFFFFFFFFFFFFFFFFFFFFFFFFFFFFFFFFFFFFFF DUP3 SUB PUSH2 0x955 JUMPI PUSH2 0x954 PUSH2 0x8B9 JUMP JUMPDEST JUMPDEST PUSH1 0x1 DUP3 ADD SWAP1 POP SWAP2 SWAP1 POP JUMP JUMPDEST PUSH0 PUSH2 0x96A DUP3 PUSH2 0x7B0 JUMP JUMPDEST SWAP2 POP PUSH2 0x975 DUP4 PUSH2 0x7B0 JUMP JUMPDEST SWAP3 POP DUP3 DUP3 ADD SWAP1 POP DUP1 DUP3 GT ISZERO PUSH2 0x98D JUMPI PUSH2 0x98C PUSH2 0x8B9 JUMP JUMPDEST JUMPDEST SWAP3 SWAP2 POP POP JUMP JUMPDEST PUSH0 DUP2 SWAP1 POP SWAP3 SWAP2 POP POP JUMP JUMPDEST POP JUMP JUMPDEST PUSH0 PUSH2 0x9AB PUSH0 DUP4 PUSH2 0x993 JUMP JUMPDEST SWAP2 POP PUSH2 0x9B6 DUP3 PUSH2 0x99D JUMP JUMPDEST PUSH0 DUP3 ADD SWAP1 POP SWAP2 SWAP1 POP JUMP JUMPDEST PUSH0 PUSH2 0x9CA DUP3 PUSH2 0x9A0 JUMP JUMPDEST SWAP2 POP DUP2 SWAP1 POP SWAP2 SWAP1 POP JUMP INVALID LOG2 PUSH5 0x6970667358 0x22 SLT KECCAK256 RJUMP 0x7AB2 PUSH11 0x8B05C4810280D78E7B08BB CALLDATALOAD 0xFC 0xC8 SWAP4 0xC6 PUSH22 0xD9EB24DE924D0143E2E66764736F6C634300081E0033 "
				},
				"gasEstimates": {
					"creation": {
						"codeDepositCost": "514000",
						"executionCost": "infinite",
						"totalCost": "infinite"
					},
					"external": {
						"bankCap()": "2491",
						"deposit()": "infinite",
						"depositCount()": "2448",
						"getVaultBalance()": "2607",
						"owner()": "2529",
						"setBankCap(uint256)": "infinite",
						"totalBankBalance()": "2426",
						"withdraw(uint256)": "infinite",
						"withdrawalCount()": "2514",
						"withdrawalLimit()": "infinite"
					},
					"internal": {
						"_safeTransfer(address,uint256)": "infinite"
					}
				},
				"methodIdentifiers": {
					"bankCap()": "ecbea24d",
					"deposit()": "d0e30db0",
					"depositCount()": "2dfdf0b5",
					"getVaultBalance()": "ed12e8ef",
					"owner()": "8da5cb5b",
					"setBankCap(uint256)": "31eab30f",
					"totalBankBalance()": "1977e938",
					"withdraw(uint256)": "2e1a7d4d",
					"withdrawalCount()": "71706cbe",
					"withdrawalLimit()": "7ddfe78d"
				}
			},
			"storageLayout": {
				"storage": [
					{
						"astId": 5,
						"contract": "contracts/KipuBank.sol:KipuBank",
						"label": "owner",
						"offset": 0,
						"slot": "0",
						"type": "t_address"
					},
					{
						"astId": 11,
						"contract": "contracts/KipuBank.sol:KipuBank",
						"label": "bankCap",
						"offset": 0,
						"slot": "1",
						"type": "t_uint256"
					},
					{
						"astId": 16,
						"contract": "contracts/KipuBank.sol:KipuBank",
						"label": "vaults",
						"offset": 0,
						"slot": "2",
						"type": "t_mapping(t_address,t_uint256)"
					},
					{
						"astId": 19,
						"contract": "contracts/KipuBank.sol:KipuBank",
						"label": "totalBankBalance",
						"offset": 0,
						"slot": "3",
						"type": "t_uint256"
					},
					{
						"astId": 22,
						"contract": "contracts/KipuBank.sol:KipuBank",
						"label": "depositCount",
						"offset": 0,
						"slot": "4",
						"type": "t_uint256"
					},
					{
						"astId": 25,
						"contract": "contracts/KipuBank.sol:KipuBank",
						"label": "withdrawalCount",
						"offset": 0,
						"slot": "5",
						"type": "t_uint256"
					}
				],
				"types": {
					"t_address": {
						"encoding": "inplace",
						"label": "address",
						"numberOfBytes": "20"
					},
					"t_mapping(t_address,t_uint256)": {
						"encoding": "mapping",
						"key": "t_address",
						"label": "mapping(address => uint256)",
						"numberOfBytes": "32",
						"value": "t_uint256"
					},
					"t_uint256": {
						"encoding": "inplace",
						"label": "uint256",
						"numberOfBytes": "32"
					}
				}
			},
			"userdoc": {
				"errors": {
					"AmountMustBeGreaterThanZero()": [
						{
							"notice": "Reverts if a user tries to deposit or withdraw zero ETH."
						}
					],
					"BankCapExceeded(uint256,uint256)": [
						{
							"notice": "Reverts if a deposit would cause the bank's total balance to exceed its capacity."
						}
					],
					"InsufficientBalance(uint256,uint256)": [
						{
							"notice": "Reverts if a user tries to withdraw more ETH than they have in their vault."
						}
					],
					"NotOwner()": [
						{
							"notice": "Reverts if a function is called by an address other than the owner."
						}
					],
					"TransferFailed()": [
						{
							"notice": "Reverts if the ETH transfer fails during a withdrawal."
						}
					],
					"WithdrawalLimitExceeded(uint256,uint256)": [
						{
							"notice": "Reverts if a user tries to withdraw an amount greater than the fixed withdrawal limit."
						}
					]
				},
				"events": {
					"BankCapUpdated(uint256)": {
						"notice": "Emitted when the bank capacity is updated."
					},
					"Deposit(address,uint256)": {
						"notice": "Emitted when a user successfully deposits ETH."
					},
					"Withdrawal(address,uint256)": {
						"notice": "Emitted when a user successfully withdraws ETH."
					}
				},
				"kind": "user",
				"methods": {
					"bankCap()": {
						"notice": "The maximum amount of ETH that the entire bank can hold. Can be updated by the owner."
					},
					"constructor": {
						"notice": "Initializes the KipuBank contract with a bank capacity and a withdrawal limit."
					},
					"deposit()": {
						"notice": "Allows a user to deposit ETH into their personal vault. The amount is determined by the value sent with the transaction (`msg.value`). The transaction will revert if the deposit amount is zero or if it exceeds the bank's capacity."
					},
					"depositCount()": {
						"notice": "The total number of deposit transactions made to the bank."
					},
					"getVaultBalance()": {
						"notice": "Retrieves the ETH balance of the caller's personal vault."
					},
					"owner()": {
						"notice": "The address of the contract owner, who can update the bank capacity."
					},
					"setBankCap(uint256)": {
						"notice": "Allows the owner to update the bank's capacity."
					},
					"totalBankBalance()": {
						"notice": "The total amount of ETH currently held by the bank."
					},
					"withdraw(uint256)": {
						"notice": "Allows a user to withdraw a specified amount of ETH from their vault."
					},
					"withdrawalCount()": {
						"notice": "The total number of withdrawal transactions made from the bank."
					},
					"withdrawalLimit()": {
						"notice": "The maximum amount of ETH that can be deposited in a single withdrawal transaction."
					}
				},
				"notice": "A smart contract that allows users to deposit and withdraw ETH into a personal vault.",
				"version": 1
			}
		}
	}
}