{
	"data": {
		"bytecode": {
			"linkReferences": {},
			"object": "60a060405234801561000f575f5ffd5b50604051610b2b380380610b2b833981810160405281019061003191906100bd565b335f5f6101000a81548173ffffffffffffffffffffffffffffffffffffffff021916908373ffffffffffffffffffffffffffffffffffffffff16021790555081600181905550806080818152505050506100fb565b5f5ffd5b5f819050919050565b61009c8161008a565b81146100a6575f5ffd5b50565b5f815190506100b781610093565b92915050565b5f5f604083850312156100d3576100d2610086565b5b5f6100e0858286016100a9565b92505060206100f1858286016100a9565b9150509250929050565b608051610a0a6101215f395f818161025c0152818161028501526105160152610a0a5ff3fe608060405260043610610090575f3560e01c80637ddfe78d116100585780637ddfe78d146101625780638da5cb5b1461018c578063d0e30db0146101b6578063ecbea24d146101c0578063ed12e8ef146101ea57610090565b80631977e938146100945780632dfdf0b5146100be5780632e1a7d4d146100e857806331eab30f1461011057806371706cbe14610138575b5f5ffd5b34801561009f575f5ffd5b506100a8610214565b6040516100b591906107c8565b60405180910390f35b3480156100c9575f5ffd5b506100d261021a565b6040516100df91906107c8565b60405180910390f35b3480156100f3575f5ffd5b5061010e6004803603810190610109919061080f565b610220565b005b34801561011b575f5ffd5b506101366004803603810190610131919061080f565b610448565b005b348015610143575f5ffd5b5061014c61050e565b60405161015991906107c8565b60405180910390f35b34801561016d575f5ffd5b50610176610514565b60405161018391906107c8565b60405180910390f35b348015610197575f5ffd5b506101a0610538565b6040516101ad9190610879565b60405180910390f35b6101be61055c565b005b3480156101cb575f5ffd5b506101d46106c2565b6040516101e191906107c8565b60405180910390f35b3480156101f5575f5ffd5b506101fe6106c8565b60405161020b91906107c8565b60405180910390f35b60035481565b60045481565b805f810361025a576040517f5e85ae7300000000000000000000000000000000000000000000000000000000815260040160405180910390fd5b7f00000000000000000000000000000000000000000000000000000000000000008211156102e157817f00000000000000000000000000000000000000000000000000000000000000006040517fb945e2d80000000000000000000000000000000000000000000000000000000081526004016102d8929190610892565b60405180910390fd5b5f60025f3373ffffffffffffffffffffffffffffffffffffffff1673ffffffffffffffffffffffffffffffffffffffff1681526020019081526020015f20549050808311156103695780836040517fcf479181000000000000000000000000000000000000000000000000000000008152600401610360929190610892565b60405180910390fd5b8260025f3373ffffffffffffffffffffffffffffffffffffffff1673ffffffffffffffffffffffffffffffffffffffff1681526020019081526020015f205f8282546103b591906108e6565b925050819055508260035f8282546103cd91906108e6565b9250508190555060055f8154809291906103e690610919565b91905055506103f5338461070c565b3373ffffffffffffffffffffffffffffffffffffffff167f7fcf532c15f0a6db0bd6d0e038bea71d30d808c7d98cb3bf7268a95bf5081b658460405161043b91906107c8565b60405180910390a2505050565b5f5f9054906101000a900473ffffffffffffffffffffffffffffffffffffffff1673ffffffffffffffffffffffffffffffffffffffff163373ffffffffffffffffffffffffffffffffffffffff16146104cd576040517f30cd747100000000000000000000000000000000000000000000000000000000815260040160405180910390fd5b806001819055507fbb1d6466d6b9cb3ce29a9dcd7cc2e51ee7e921992290f96d813b174787857a8c8160405161050391906107c8565b60405180910390a150565b60055481565b7f000000000000000000000000000000000000000000000000000000000000000081565b5f5f9054906101000a900473ffffffffffffffffffffffffffffffffffffffff1681565b345f8103610596576040517f5e85ae7300000000000000000000000000000000000000000000000000000000815260040160405180910390fd5b5f346003546105a59190610960565b90506001548111156105ff576003546001546105c191906108e6565b346040517f31728a050000000000000000000000000000000000000000000000000000000081526004016105f6929190610892565b60405180910390fd5b3460025f3373ffffffffffffffffffffffffffffffffffffffff1673ffffffffffffffffffffffffffffffffffffffff1681526020019081526020015f205f82825461064b9190610960565b925050819055508060038190555060045f81548092919061066b90610919565b91905055503373ffffffffffffffffffffffffffffffffffffffff167fe1fffcc4923d04b559f4d29a8bfc6cda04eb5b0d3c460751c2402c5c5cc9109c346040516106b691906107c8565b60405180910390a25050565b60015481565b5f60025f3373ffffffffffffffffffffffffffffffffffffffff1673ffffffffffffffffffffffffffffffffffffffff1681526020019081526020015f2054905090565b5f8273ffffffffffffffffffffffffffffffffffffffff1682604051610731906109c0565b5f6040518083038185875af1925050503d805f811461076b576040519150601f19603f3d011682016040523d82523d5f602084013e610770565b606091505b50509050806107ab576040517f90b8ec1800000000000000000000000000000000000000000000000000000000815260040160405180910390fd5b505050565b5f819050919050565b6107c2816107b0565b82525050565b5f6020820190506107db5f8301846107b9565b92915050565b5f5ffd5b6107ee816107b0565b81146107f8575f5ffd5b50565b5f81359050610809816107e5565b92915050565b5f60208284031215610824576108236107e1565b5b5f610831848285016107fb565b91505092915050565b5f73ffffffffffffffffffffffffffffffffffffffff82169050919050565b5f6108638261083a565b9050919050565b61087381610859565b82525050565b5f60208201905061088c5f83018461086a565b92915050565b5f6040820190506108a55f8301856107b9565b6108b260208301846107b9565b9392505050565b7f4e487b71000000000000000000000000000000000000000000000000000000005f52601160045260245ffd5b5f6108f0826107b0565b91506108fb836107b0565b9250828203905081811115610913576109126108b9565b5b92915050565b5f610923826107b0565b91507fffffffffffffffffffffffffffffffffffffffffffffffffffffffffffffffff8203610955576109546108b9565b5b600182019050919050565b5f61096a826107b0565b9150610975836107b0565b925082820190508082111561098d5761098c6108b9565b5b92915050565b5f81905092915050565b50565b5f6109ab5f83610993565b91506109b68261099d565b5f82019050919050565b5f6109ca826109a0565b915081905091905056fea2646970667358221220e07ab26a8b05c4810280d78e7b08bb35fcc893c675d9eb24de924d0143e2e66764736f6c634300081e0033",
			"opcodes": "PUSH1 0xA0 PUSH1 0x40 MSTORE CALLVALUE DUP1 ISZERO PUSH2 0xF JUMPI PUSH0 PUSH0 REVERT JUMPDEST POP PUSH1 0x40 MLOAD PUSH2 0xB2B CODESIZE SUB DUP1 PUSH2 0xB2B DUP4 CODECOPY DUP2 DUP2 ADD PUSH1 0x40 MSTORE DUP2 ADD SWAP1 PUSH2 0x31 SWAP2 SWAP1 PUSH2 0xBD JUMP JUMPDEST CALLER PUSH0 PUSH0 PUSH2 0x100 EXP DUP2 SLOAD DUP2 PUSH20 0xFFFFFFFFFFFFFFFFFFFFFFFFFFFFFFFFFFFFFFFF MUL NOT AND SWAP1 DUP4 PUSH20 0xFFFFFFFFFFFFFFFFFFFFFFFFFFFFFFFFFFFFFFFF AND MUL OR SWAP1 SSTORE POP DUP2 PUSH1 0x1 DUP2 SWAP1 SSTORE POP DUP1 PUSH1 0x80 DUP2 DUP2 MSTORE POP POP POP POP PUSH2 0xFB JUMP JUMPDEST PUSH0 PUSH0 REVERT JUMPDEST PUSH0 DUP2 SWAP1 POP SWAP2 SWAP1 POP JUMP JUMPDEST PUSH2 0x9C DUP2 PUSH2 0x8A JUMP JUMPDEST DUP2 EQ PUSH2 0xA6 JUMPI PUSH0 PUSH0 REVERT JUMPDEST POP JUMP JUMPDEST PUSH0 DUP2 MLOAD SWAP1 POP PUSH2 0xB7 DUP2 PUSH2 0x93 JUMP JUMPDEST SWAP3 SWAP2 POP POP JUMP JUMPDEST PUSH0 PUSH0 PUSH1 0x40 DUP4 DUP6 SUB SLT ISZERO PUSH2 0xD3 JUMPI PUSH2 0xD2 PUSH2 0x86 JUMP JUMPDEST JUMPDEST PUSH0 PUSH2 0xE0 DUP6 DUP3 DUP7 ADD PUSH2 0xA9 JUMP JUMPDEST SWAP3 POP POP PUSH1 0x20 PUSH2 0xF1 DUP6 DUP3 DUP7 ADD PUSH2 0xA9 JUMP JUMPDEST SWAP2 POP POP SWAP3 POP SWAP3 SWAP1 POP JUMP JUMPDEST PUSH1 0x80 MLOAD PUSH2 0xA0A PUSH2 0x121 PUSH0 CODECOPY PUSH0 DUP2 DUP2 PUSH2 0x25C ADD MSTORE DUP2 DUP2 PUSH2 0x285 ADD MSTORE PUSH2 0x516 ADD MSTORE PUSH2 0xA0A PUSH0 RETURN INVALID PUSH1 0x80 PUSH1 0x40 MSTORE PUSH1 0x4 CALLDATASIZE LT PUSH2 0x90 JUMPI PUSH0 CALLDATALOAD PUSH1 0xE0 SHR DUP1 PUSH4 0x7DDFE78D GT PUSH2 0x58 JUMPI DUP1 PUSH4 0x7DDFE78D EQ PUSH2 0x162 JUMPI DUP1 PUSH4 0x8DA5CB5B EQ PUSH2 0x18C JUMPI DUP1 PUSH4 0xD0E30DB0 EQ PUSH2 0x1B6 JUMPI DUP1 PUSH4 0xECBEA24D EQ PUSH2 0x1C0 JUMPI DUP1 PUSH4 0xED12E8EF EQ PUSH2 0x1EA JUMPI PUSH2 0x90 JUMP JUMPDEST DUP1 PUSH4 0x1977E938 EQ PUSH2 0x94 JUMPI DUP1 PUSH4 0x2DFDF0B5 EQ PUSH2 0xBE JUMPI DUP1 PUSH4 0x2E1A7D4D EQ PUSH2 0xE8 JUMPI DUP1 PUSH4 0x31EAB30F EQ PUSH2 0x110 JUMPI DUP1 PUSH4 0x71706CBE EQ PUSH2 0x138 JUMPI JUMPDEST PUSH0 PUSH0 REVERT JUMPDEST CALLVALUE DUP1 ISZERO PUSH2 0x9F JUMPI PUSH0 PUSH0 REVERT JUMPDEST POP PUSH2 0xA8 PUSH2 0x214 JUMP JUMPDEST PUSH1 0x40 MLOAD PUSH2 0xB5 SWAP2 SWAP1 PUSH2 0x7C8 JUMP JUMPDEST PUSH1 0x40 MLOAD DUP1 SWAP2 SUB SWAP1 RETURN JUMPDEST CALLVALUE DUP1 ISZERO PUSH2 0xC9 JUMPI PUSH0 PUSH0 REVERT JUMPDEST POP PUSH2 0xD2 PUSH2 0x21A JUMP JUMPDEST PUSH1 0x40 MLOAD PUSH2 0xDF SWAP2 SWAP1 PUSH2 0x7C8 JUMP JUMPDEST PUSH1 0x40 MLOAD DUP1 SWAP2 SUB SWAP1 RETURN JUMPDEST CALLVALUE DUP1 ISZERO PUSH2 0xF3 JUMPI PUSH0 PUSH0 REVERT JUMPDEST POP PUSH2 0x10E PUSH1 0x4 DUP1 CALLDATASIZE SUB DUP2 ADD SWAP1 PUSH2 0x109 SWAP2 SWAP1 PUSH2 0x80F JUMP JUMPDEST PUSH2 0x220 JUMP JUMPDEST STOP JUMPDEST CALLVALUE DUP1 ISZERO PUSH2 0x11B JUMPI PUSH0 PUSH0 REVERT JUMPDEST POP PUSH2 0x136 PUSH1 0x4 DUP1 CALLDATASIZE SUB DUP2 ADD SWAP1 PUSH2 0x131 SWAP2 SWAP1 PUSH2 0x80F JUMP JUMPDEST PUSH2 0x448 JUMP JUMPDEST STOP JUMPDEST CALLVALUE DUP1 ISZERO PUSH2 0x143 JUMPI PUSH0 PUSH0 REVERT JUMPDEST POP PUSH2 0x14C PUSH2 0x50E JUMP JUMPDEST PUSH1 0x40 MLOAD PUSH2 0x159 SWAP2 SWAP1 PUSH2 0x7C8 JUMP JUMPDEST PUSH1 0x40 MLOAD DUP1 SWAP2 SUB SWAP1 RETURN JUMPDEST CALLVALUE DUP1 ISZERO PUSH2 0x16D JUMPI PUSH0 PUSH0 REVERT JUMPDEST POP PUSH2 0x176 PUSH2 0x514 JUMP JUMPDEST PUSH1 0x40 MLOAD PUSH2 0x183 SWAP2 SWAP1 PUSH2 0x7C8 JUMP JUMPDEST PUSH1 0x40 MLOAD DUP1 SWAP2 SUB SWAP1 RETURN JUMPDEST CALLVALUE DUP1 ISZERO PUSH2 0x197 JUMPI PUSH0 PUSH0 REVERT JUMPDEST POP PUSH2 0x1A0 PUSH2 0x538 JUMP JUMPDEST PUSH1 0x40 MLOAD PUSH2 0x1AD SWAP2 SWAP1 PUSH2 0x879 JUMP JUMPDEST PUSH1 0x40 MLOAD DUP1 SWAP2 SUB SWAP1 RETURN JUMPDEST PUSH2 0x1BE PUSH2 0x55C JUMP JUMPDEST STOP JUMPDEST CALLVALUE DUP1 ISZERO PUSH2 0x1CB JUMPI PUSH0 PUSH0 REVERT JUMPDEST POP PUSH2 0x1D4 PUSH2 0x6C2 JUMP JUMPDEST PUSH1 0x40 MLOAD PUSH2 0x1E1 SWAP2 SWAP1 PUSH2 0x7C8 JUMP JUMPDEST PUSH1 0x40 MLOAD DUP1 SWAP2 SUB SWAP1 RETURN JUMPDEST CALLVALUE DUP1 ISZERO PUSH2 0x1F5 JUMPI PUSH0 PUSH0 REVERT JUMPDEST POP PUSH2 0x1FE PUSH2 0x6C8 JUMP JUMPDEST PUSH1 0x40 MLOAD PUSH2 0x20B SWAP2 SWAP1 PUSH2 0x7C8 JUMP JUMPDEST PUSH1 0x40 MLOAD DUP1 SWAP2 SUB SWAP1 RETURN JUMPDEST PUSH1 0x3 SLOAD DUP2 JUMP JUMPDEST PUSH1 0x4 SLOAD DUP2 JUMP JUMPDEST DUP1 PUSH0 DUP2 SUB PUSH2 0x25A JUMPI PUSH1 0x40 MLOAD PUSH32 0x5E85AE7300000000000000000000000000000000000000000000000000000000 DUP2 MSTORE PUSH1 0x4 ADD PUSH1 0x40 MLOAD DUP1 SWAP2 SUB SWAP1 REVERT JUMPDEST PUSH32 0x0 DUP3 GT ISZERO PUSH2 0x2E1 JUMPI DUP2 PUSH32 0x0 PUSH1 0x40 MLOAD PUSH32 0xB945E2D800000000000000000000000000000000000000000000000000000000 DUP2 MSTORE PUSH1 0x4 ADD PUSH2 0x2D8 SWAP3 SWAP2 SWAP1 PUSH2 0x892 JUMP JUMPDEST PUSH1 0x40 MLOAD DUP1 SWAP2 SUB SWAP1 REVERT JUMPDEST PUSH0 PUSH1 0x2 PUSH0 CALLER PUSH20 0xFFFFFFFFFFFFFFFFFFFFFFFFFFFFFFFFFFFFFFFF AND PUSH20 0xFFFFFFFFFFFFFFFFFFFFFFFFFFFFFFFFFFFFFFFF AND DUP2 MSTORE PUSH1 0x20 ADD SWAP1 DUP2 MSTORE PUSH1 0x20 ADD PUSH0 KECCAK256 SLOAD SWAP1 POP DUP1 DUP4 GT ISZERO PUSH2 0x369 JUMPI DUP1 DUP4 PUSH1 0x40 MLOAD PUSH32 0xCF47918100000000000000000000000000000000000000000000000000000000 DUP2 MSTORE PUSH1 0x4 ADD PUSH2 0x360 SWAP3 SWAP2 SWAP1 PUSH2 0x892 JUMP JUMPDEST PUSH1 0x40 MLOAD DUP1 SWAP2 SUB SWAP1 REVERT JUMPDEST DUP3 PUSH1 0x2 PUSH0 CALLER PUSH20 0xFFFFFFFFFFFFFFFFFFFFFFFFFFFFFFFFFFFFFFFF AND PUSH20 0xFFFFFFFFFFFFFFFFFFFFFFFFFFFFFFFFFFFFFFFF AND DUP2 MSTORE PUSH1 0x20 ADD SWAP1 DUP2 MSTORE PUSH1 0x20 ADD PUSH0 KECCAK256 PUSH0 DUP3 DUP3 SLOAD PUSH2 0x3B5 SWAP2 SWAP1 PUSH2 0x8E6 JUMP JUMPDEST SWAP3 POP POP DUP2 SWAP1 SSTORE POP DUP3 PUSH1 0x3 PUSH0 DUP3 DUP3 SLOAD PUSH2 0x3CD SWAP2 SWAP1 PUSH2 0x8E6 JUMP JUMPDEST SWAP3 POP POP DUP2 SWAP1 SSTORE POP PUSH1 0x5 PUSH0 DUP2 SLOAD DUP1 SWAP3 SWAP2 SWAP1 PUSH2 0x3E6 SWAP1 PUSH2 0x919 JUMP JUMPDEST SWAP2 SWAP1 POP SSTORE POP PUSH2 0x3F5 CALLER DUP5 PUSH2 0x70C JUMP JUMPDEST CALLER PUSH20 0xFFFFFFFFFFFFFFFFFFFFFFFFFFFFFFFFFFFFFFFF AND PUSH32 0x7FCF532C15F0A6DB0BD6D0E038BEA71D30D808C7D98CB3BF7268A95BF5081B65 DUP5 PUSH1 0x40 MLOAD PUSH2 0x43B SWAP2 SWAP1 PUSH2 0x7C8 JUMP JUMPDEST PUSH1 0x40 MLOAD DUP1 SWAP2 SUB SWAP1 LOG2 POP POP POP JUMP JUMPDEST PUSH0 PUSH0 SWAP1 SLOAD SWAP1 PUSH2 0x100 EXP SWAP1 DIV PUSH20 0xFFFFFFFFFFFFFFFFFFFFFFFFFFFFFFFFFFFFFFFF AND PUSH20 0xFFFFFFFFFFFFFFFFFFFFFFFFFFFFFFFFFFFFFFFF AND CALLER PUSH20 0xFFFFFFFFFFFFFFFFFFFFFFFFFFFFFFFFFFFFFFFF AND EQ PUSH2 0x4CD JUMPI PUSH1 0x40 MLOAD PUSH32 0x30CD747100000000000000000000000000000000000000000000000000000000 DUP2 MSTORE PUSH1 0x4 ADD PUSH1 0x40 MLOAD DUP1 SWAP2 SUB SWAP1 REVERT JUMPDEST DUP1 PUSH1 0x1 DUP2 SWAP1 SSTORE POP PUSH32 0xBB1D6466D6B9CB3CE29A9DCD7CC2E51EE7E921992290F96D813B174787857A8C DUP2 PUSH1 0x40 MLOAD PUSH2 0x503 SWAP2 SWAP1 PUSH2 0x7C8 JUMP JUMPDEST PUSH1 0x40 MLOAD DUP1 SWAP2 SUB SWAP1 LOG1 POP JUMP JUMPDEST PUSH1 0x5 SLOAD DUP2 JUMP JUMPDEST PUSH32 0x0 DUP2 JUMP JUMPDEST PUSH0 PUSH0 SWAP1 SLOAD SWAP1 PUSH2 0x100 EXP SWAP1 DIV PUSH20 0xFFFFFFFFFFFFFFFFFFFFFFFFFFFFFFFFFFFFFFFF AND DUP2 JUMP JUMPDEST CALLVALUE PUSH0 DUP2 SUB PUSH2 0x596 JUMPI PUSH1 0x40 MLOAD PUSH32 0x5E85AE7300000000000000000000000000000000000000000000000000000000 DUP2 MSTORE PUSH1 0x4 ADD PUSH1 0x40 MLOAD DUP1 SWAP2 SUB SWAP1 REVERT JUMPDEST PUSH0 CALLVALUE PUSH1 0x3 SLOAD PUSH2 0x5A5 SWAP2 SWAP1 PUSH2 0x960 JUMP JUMPDEST SWAP1 POP PUSH1 0x1 SLOAD DUP2 GT ISZERO PUSH2 0x5FF JUMPI PUSH1 0x3 SLOAD PUSH1 0x1 SLOAD PUSH2 0x5C1 SWAP2 SWAP1 PUSH2 0x8E6 JUMP JUMPDEST CALLVALUE PUSH1 0x40 MLOAD PUSH32 0x31728A0500000000000000000000000000000000000000000000000000000000 DUP2 MSTORE PUSH1 0x4 ADD PUSH2 0x5F6 SWAP3 SWAP2 SWAP1 PUSH2 0x892 JUMP JUMPDEST PUSH1 0x40 MLOAD DUP1 SWAP2 SUB SWAP1 REVERT JUMPDEST CALLVALUE PUSH1 0x2 PUSH0 CALLER PUSH20 0xFFFFFFFFFFFFFFFFFFFFFFFFFFFFFFFFFFFFFFFF AND PUSH20 0xFFFFFFFFFFFFFFFFFFFFFFFFFFFFFFFFFFFFFFFF AND DUP2 MSTORE PUSH1 0x20 ADD SWAP1 DUP2 MSTORE PUSH1 0x20 ADD PUSH0 KECCAK256 PUSH0 DUP3 DUP3 SLOAD PUSH2 0x64B SWAP2 SWAP1 PUSH2 0x960 JUMP JUMPDEST SWAP3 POP POP DUP2 SWAP1 SSTORE POP DUP1 PUSH1 0x3 DUP2 SWAP1 SSTORE POP PUSH1 0x4 PUSH0 DUP2 SLOAD DUP1 SWAP3 SWAP2 SWAP1 PUSH2 0x66B SWAP1 PUSH2 0x919 JUMP JUMPDEST SWAP2 SWAP1 POP SSTORE POP CALLER PUSH20 0xFFFFFFFFFFFFFFFFFFFFFFFFFFFFFFFFFFFFFFFF AND PUSH32 0xE1FFFCC4923D04B559F4D29A8BFC6CDA04EB5B0D3C460751C2402C5C5CC9109C CALLVALUE PUSH1 0x40 MLOAD PUSH2 0x6B6 SWAP2 SWAP1 PUSH2 0x7C8 JUMP JUMPDEST PUSH1 0x40 MLOAD DUP1 SWAP2 SUB SWAP1 LOG2 POP POP JUMP JUMPDEST PUSH1 0x1 SLOAD DUP2 JUMP JUMPDEST PUSH0 PUSH1 0x2 PUSH0 CALLER PUSH20 0xFFFFFFFFFFFFFFFFFFFFFFFFFFFFFFFFFFFFFFFF AND PUSH20 0xFFFFFFFFFFFFFFFFFFFFFFFFFFFFFFFFFFFFFFFF AND DUP2 MSTORE PUSH1 0x20 ADD SWAP1 DUP2 MSTORE PUSH1 0x20 ADD PUSH0 KECCAK256 SLOAD SWAP1 POP SWAP1 JUMP JUMPDEST PUSH0 DUP3 PUSH20 0xFFFFFFFFFFFFFFFFFFFFFFFFFFFFFFFFFFFFFFFF AND DUP3 PUSH1 0x40 MLOAD PUSH2 0x731 SWAP1 PUSH2 0x9C0 JUMP JUMPDEST PUSH0 PUSH1 0x40 MLOAD DUP1 DUP4 SUB DUP2 DUP6 DUP8 GAS CALL SWAP3 POP POP POP RETURNDATASIZE DUP1 PUSH0 DUP2 EQ PUSH2 0x76B JUMPI PUSH1 0x40 MLOAD SWAP2 POP PUSH1 0x1F NOT PUSH1 0x3F RETURNDATASIZE ADD AND DUP3 ADD PUSH1 0x40 MSTORE RETURNDATASIZE DUP3 MSTORE RETURNDATASIZE PUSH0 PUSH1 0x20 DUP5 ADD RETURNDATACOPY PUSH2 0x770 JUMP JUMPDEST PUSH1 0x60 SWAP2 POP JUMPDEST POP POP SWAP1 POP DUP1 PUSH2 0x7AB JUMPI PUSH1 0x40 MLOAD PUSH32 0x90B8EC1800000000000000000000000000000000000000000000000000000000 DUP2 MSTORE PUSH1 0x4 ADD PUSH1 0x40 MLOAD DUP1 SWAP2 SUB SWAP1 REVERT JUMPDEST POP POP POP JUMP JUMPDEST PUSH0 DUP2 SWAP1 POP SWAP2 SWAP1 POP JUMP JUMPDEST PUSH2 0x7C2 DUP2 PUSH2 0x7B0 JUMP JUMPDEST DUP3 MSTORE POP POP JUMP JUMPDEST PUSH0 PUSH1 0x20 DUP3 ADD SWAP1 POP PUSH2 0x7DB PUSH0 DUP4 ADD DUP5 PUSH2 0x7B9 JUMP JUMPDEST SWAP3 SWAP2 POP POP JUMP JUMPDEST PUSH0 PUSH0 REVERT JUMPDEST PUSH2 0x7EE DUP2 PUSH2 0x7B0 JUMP JUMPDEST DUP2 EQ PUSH2 0x7F8 JUMPI PUSH0 PUSH0 REVERT JUMPDEST POP JUMP JUMPDEST PUSH0 DUP2 CALLDATALOAD SWAP1 POP PUSH2 0x809 DUP2 PUSH2 0x7E5 JUMP JUMPDEST SWAP3 SWAP2 POP POP JUMP JUMPDEST PUSH0 PUSH1 0x20 DUP3 DUP5 SUB SLT ISZERO PUSH2 0x824 JUMPI PUSH2 0x823 PUSH2 0x7E1 JUMP JUMPDEST JUMPDEST PUSH0 PUSH2 0x831 DUP5 DUP3 DUP6 ADD PUSH2 0x7FB JUMP JUMPDEST SWAP2 POP POP SWAP3 SWAP2 POP POP JUMP JUMPDEST PUSH0 PUSH20 0xFFFFFFFFFFFFFFFFFFFFFFFFFFFFFFFFFFFFFFFF DUP3 AND SWAP1 POP SWAP2 SWAP1 POP JUMP JUMPDEST PUSH0 PUSH2 0x863 DUP3 PUSH2 0x83A JUMP JUMPDEST SWAP1 POP SWAP2 SWAP1 POP JUMP JUMPDEST PUSH2 0x873 DUP2 PUSH2 0x859 JUMP JUMPDEST DUP3 MSTORE POP POP JUMP JUMPDEST PUSH0 PUSH1 0x20 DUP3 ADD SWAP1 POP PUSH2 0x88C PUSH0 DUP4 ADD DUP5 PUSH2 0x86A JUMP JUMPDEST SWAP3 SWAP2 POP POP JUMP JUMPDEST PUSH0 PUSH1 0x40 DUP3 ADD SWAP1 POP PUSH2 0x8A5 PUSH0 DUP4 ADD DUP6 PUSH2 0x7B9 JUMP JUMPDEST PUSH2 0x8B2 PUSH1 0x20 DUP4 ADD DUP5 PUSH2 0x7B9 JUMP JUMPDEST SWAP4 SWAP3 POP POP POP JUMP JUMPDEST PUSH32 0x4E487B7100000000000000000000000000000000000000000000000000000000 PUSH0 MSTORE PUSH1 0x11 PUSH1 0x4 MSTORE PUSH1 0x24 PUSH0 REVERT JUMPDEST PUSH0 PUSH2 0x8F0 DUP3 PUSH2 0x7B0 JUMP JUMPDEST SWAP2 POP PUSH2 0x8FB DUP4 PUSH2 0x7B0 JUMP JUMPDEST SWAP3 POP DUP3 DUP3 SUB SWAP1 POP DUP2 DUP2 GT ISZERO PUSH2 0x913 JUMPI PUSH2 0x912 PUSH2 0x8B9 JUMP JUMPDEST JUMPDEST SWAP3 SWAP2 POP POP JUMP JUMPDEST PUSH0 PUSH2 0x923 DUP3 PUSH2 0x7B0 JUMP JUMPDEST SWAP2 POP PUSH32 0xFFFFFFFFFFFFFFFFFFFFFFFFFFFFFFFFFFFFFFFFFFFFFFFFFFFFFFFFFFFFFFFF DUP3 SUB PUSH2 0x955 JUMPI PUSH2 0x954 PUSH2 0x8B9 JUMP JUMPDEST JUMPDEST PUSH1 0x1 DUP3 ADD SWAP1 POP SWAP2 SWAP1 POP JUMP JUMPDEST PUSH0 PUSH2 0x96A DUP3 PUSH2 0x7B0 JUMP JUMPDEST SWAP2 POP PUSH2 0x975 DUP4 PUSH2 0x7B0 JUMP JUMPDEST SWAP3 POP DUP3 DUP3 ADD SWAP1 POP DUP1 DUP3 GT ISZERO PUSH2 0x98D JUMPI PUSH2 0x98C PUSH2 0x8B9 JUMP JUMPDEST JUMPDEST SWAP3 SWAP2 POP POP JUMP JUMPDEST PUSH0 DUP2 SWAP1 POP SWAP3 SWAP2 POP POP JUMP JUMPDEST POP JUMP JUMPDEST PUSH0 PUSH2 0x9AB PUSH0 DUP4 PUSH2 0x993 JUMP JUMPDEST SWAP2 POP PUSH2 0x9B6 DUP3 PUSH2 0x99D JUMP JUMPDEST PUSH0 DUP3 ADD SWAP1 POP SWAP2 SWAP1 POP JUMP JUMPDEST PUSH0 PUSH2 0x9CA DUP3 PUSH2 0x9A0 JUMP JUMPDEST SWAP2 POP DUP2 SWAP1 POP SWAP2 SWAP1 POP JUMP INVALID LOG2 PUSH5 0x6970667358 0x22 SLT KECCAK256 RJUMP 0x7AB2 PUSH11 0x8B05C4810280D78E7B08BB CALLDATALOAD 0xFC 0xC8 SWAP4 0xC6 PUSH22 0xD9EB24DE924D0143E2E66764736F6C634300081E0033 "
		},
		"gasEstimates": {
			"creation": {
				"codeDepositCost": "514000",
				"executionCost": "infinite",
				"totalCost": "infinite"
			},
			"external": {
				"bankCap()": "2491",
				"deposit()": "infinite",
				"depositCount()": "2448",
				"getVaultBalance()": "2607",
				"owner()": "2529",
				"setBankCap(uint256)": "infinite",
				"totalBankBalance()": "2426",
				"withdraw(uint256)": "infinite",
				"withdrawalCount()": "2514",
				"withdrawalLimit()": "infinite"
			},
			"internal": {
				"_safeTransfer(address,uint256)": "infinite"
			}
		},
		"methodIdentifiers": {
			"bankCap()": "ecbea24d",
			"deposit()": "d0e30db0",
			"depositCount()": "2dfdf0b5",
			"getVaultBalance()": "ed12e8ef",
			"owner()": "8da5cb5b",
			"setBankCap(uint256)": "31eab30f",
			"totalBankBalance()": "1977e938",
			"withdraw(uint256)": "2e1a7d4d",
			"withdrawalCount()": "71706cbe",
			"withdrawalLimit()": "7ddfe78d"
		}
	},
	"abi": [
		{
			"inputs": [
				{
					"internalType": "uint256",
					"name": "_bankCap",
					"type": "uint256"
				},
				{
					"internalType": "uint256",
					"name": "_withdrawalLimit",
					"type": "uint256"
				}
			],
			"stateMutability": "nonpayable",
			"type": "constructor"
		},
		{
			"inputs": [],
			"name": "AmountMustBeGreaterThanZero",
			"type": "error"
		},
		{
			"inputs": [
				{
					"internalType": "uint256",
					"name": "availableSpace",
					"type": "uint256"
				},
				{
					"internalType": "uint256",
					"name": "amount",
					"type": "uint256"
				}
			],
			"name": "BankCapExceeded",
			"type": "error"
		},
		{
			"inputs": [
				{
					"internalType": "uint256",
					"name": "available",
					"type": "uint256"
				},
				{
					"internalType": "uint256",
					"name": "requested",
					"type": "uint256"
				}
			],
			"name": "InsufficientBalance",
			"type": "error"
		},
		{
			"inputs": [],
			"name": "NotOwner",
			"type": "error"
		},
		{
			"inputs": [],
			"name": "TransferFailed",
			"type": "error"
		},
		{
			"inputs": [
				{
					"internalType": "uint256",
					"name": "requested",
					"type": "uint256"
				},
				{
					"internalType": "uint256",
					"name": "limit",
					"type": "uint256"
				}
			],
			"name": "WithdrawalLimitExceeded",
			"type": "error"
		},
		{
			"anonymous": false,
			"inputs": [
				{
					"indexed": false,
					"internalType": "uint256",
					"name": "newCap",
					"type": "uint256"
				}
			],
			"name": "BankCapUpdated",
			"type": "event"
		},
		{
			"anonymous": false,
			"inputs": [
				{
					"indexed": true,
					"internalType": "address",
					"name": "user",
					"type": "address"
				},
				{
					"indexed": false,
					"internalType": "uint256",
					"name": "amount",
					"type": "uint256"
				}
			],
			"name": "Deposit",
			"type": "event"
		},
		{
			"anonymous": false,
			"inputs": [
				{
					"indexed": true,
					"internalType": "address",
					"name": "user",
					"type": "address"
				},
				{
					"indexed": false,
					"internalType": "uint256",
					"name": "amount",
					"type": "uint256"
				}
			],
			"name": "Withdrawal",
			"type": "event"
		},
		{
			"inputs": [],
			"name": "bankCap",
			"outputs": [
				{
					"internalType": "uint256",
					"name": "",
					"type": "uint256"
				}
			],
			"stateMutability": "view",
			"type": "function"
		},
		{
			"inputs": [],
			"name": "deposit",
			"outputs": [],
			"stateMutability": "payable",
			"type": "function"
		},
		{
			"inputs": [],
			"name": "depositCount",
			"outputs": [
				{
					"internalType": "uint256",
					"name": "",
					"type": "uint256"
				}
			],
			"stateMutability": "view",
			"type": "function"
		},
		{
			"inputs": [],
			"name": "getVaultBalance",
			"outputs": [
				{
					"internalType": "uint256",
					"name": "",
					"type": "uint256"
				}
			],
			"stateMutability": "view",
			"type": "function"
		},
		{
			"inputs": [],
			"name": "owner",
			"outputs": [
				{
					"internalType": "address",
					"name": "",
					"type": "address"
				}
			],
			"stateMutability": "view",
			"type": "function"
		},
		{
			"inputs": [
				{
					"internalType": "uint256",
					"name": "_newCap",
					"type": "uint256"
				}
			],
			"name": "setBankCap",
			"outputs": [],
			"stateMutability": "nonpayable",
			"type": "function"
		},
		{
			"inputs": [],
			"name": "totalBankBalance",
			"outputs": [
				{
					"internalType": "uint256",
					"name": "",
					"type": "uint256"
				}
			],
			"stateMutability": "view",
			"type": "function"
		},
		{
			"inputs": [
				{
					"internalType": "uint256",
					"name": "_amount",
					"type": "uint256"
				}
			],
			"name": "withdraw",
			"outputs": [],
			"stateMutability": "nonpayable",
			"type": "function"
		},
		{
			"inputs": [],
			"name": "withdrawalCount",
			"outputs": [
				{
					"internalType": "uint256",
					"name": "",
					"type": "uint256"
				}
			],
			"stateMutability": "view",
			"type": "function"
		},
		{
			"inputs": [],
			"name": "withdrawalLimit",
			"outputs": [
				{
					"internalType": "uint256",
					"name": "",
					"type": "uint256"
				}
			],
			"stateMutability": "view",
			"type": "function"
		}
	]
}